:10100000000004208DB40000B5B40000B7B40000A7
:10101000B9B40000BBB40000BDB400000000000083
:10102000000000000000000000000000BFB400004D
:10103000C1B4000000000000C3B40000C5B400004B
:1010400031800000C7B4000061880000718B00008F
:10105000C7B40000C7B4000049BA0000A1200000D6
:10106000458A00009D8A0000C7B40000C7B4000094
:10107000C7B40000C7B40000C7B40000C7B4000084
:10108000C7B40000B5440000C7B40000C7B40000F6
:1010900055450000C7B40000C7B40000C7B4000045
:1010A000C7B40000C7B40000C7B40000C7B4000054
:1010B00071850000C7B400000000000000000000BF
:1010C000C7B400002D860000E9860000C7B4000008
:1010D000C7B40000C7B40000C7B40000D9A900001D
:1010E000C7B40000C7B40000C7B40000000000008F
:1010F00000000000A587000000000000C7B4000049
:1011000000000000000000000000000000000000DF
:1011100000000000000000000000000000000000CF
:1011200000000000000000000000000000000000BF
:1011300000000000000000000000000000000000AF
:10114000000000000000000000000000000000009F
:10115000000000000000000000000000000000008F
:10116000000000000000000000000000000000007F
:10117000000000000000000000000000000000006F
:10118000000000000000000000000000000000005F
:10119000000000000000000000000000000000004F
:1011A000000000000000000000000000000000003F
:1011B000000000000000000000000000000000002F
:1011C000000000000000000000000000000000001F
:1011D000000000000000000000000000000000000F
:1011E00000000000000000000000000000000000FF
:1011F00000000000000000000000000000000000EF
:1012000010B5054C237833B9044B13B10448AFF340
:1012100000800123237010BD000C0020000000009E
:10122000D841010008B5034B1BB103490348AFF394
:10123000008008BD00000000040C0020D84101001F
:10124000154B002B08BF134B9D46A3F5803A002198
:101250008B460F461348144A121A0AF093FF0F4B9D
:10126000002B00D098470E4B002B00D09847002051
:10127000002104000D000D48002802D00C480EF09B
:1012800009FC0AF0C1FE2000290000F0D9FB0AF099
:10129000ABFE00BF000008000000042000000000BA
:1012A00000000000000C00204C9A022095FA00007B
:1012B000990C0100BFF34F8F0549064BCA6802F431
:1012C000E0621343CB60BFF34F8F00BFFDE700BF69
:1012D00000ED00E00400FA05F8B5224B1B6803B9E5
:1012E000F8BD01F09DFF204B20481C6806F07AFAFB
:1012F0000028F5D11E4D2B68B3F5006F2BD21D4889
:101300001D4B01881B682F681C4E44EA03644B1C6C
:101310009BB23F2B88BF002303802B6832680433C5
:101320002B602B6844EA8144B3F5006FD451D7D1C8
:1013300033684BB111490D4806F062FA20B1104AEA
:1013400040F2C91106F0FEF90E4803F077F80023C9
:1013500030602B60F8BD0A4A40F2BD1106F0F2F988
:10136000CDE700BF4C0C0020400C0020DC41010008
:101370000C910220089102201C0C0020F4980220FD
:101380000C3B0100F441010008B5052830D8DFE826
:1013900000F01E352F2F170301F008F8184803F04E
:1013A00031F800BB164803F049F8164A106000B344
:1013B000154B164800221A60BDE8084006F0DEBA58
:1013C000134B0F481968BDE8084003F05DB8114899
:1013D00002F0F4FF104B0A482022C3F80C2503F05A
:1013E00011F80028DED00D4A8D2106F0ABF9D9E7BF
:1013F00008BD0A4A8F2106F0A5F9D9E7FFF75AFF81
:10140000F4410100F49802200C910220DC4101001B
:10141000209902204C0C0020000300500C3B0100DE
:1014200000294CD0F0B500238DB00133DBB29942D6
:10143000FBD80378063B0446202B3ED8DFE813F0A8
:101440002100FC013D003D003D00EE01E7011B02D3
:101450001702E101C4019B018D0163010C01E2004F
:10146000DB003D00D700D3003D003D003D003D00C6
:101470003D003D005902CF0078006E006A005A001E
:101480004000C74802F0BEFF002840F03E82C4483A
:1014900002F0D4FFC34A1060002800F03B82C24B28
:1014A000C24800221A6006F069FAC14802F086FFBD
:1014B00000F070FF012001F0E7F80DB0F0BD7047BB
:1014C0004FF07E51002002F02DFB4FF07E510120A5
:1014D00002F028FB4FF07E51022002F023FB4FF078
:1014E0007E51032002F01EFB4FF07E51042002F0DB
:1014F00019FBE2E74578AF4E05F11E07811C042277
:1015000006EB87000AF0A4FD56F82710284602F0E3
:1015100009FBD2E7A84801F041FCCEE74378013B44
:10152000032BCAD8DFE813F0DB01D101C701BD01ED
:10153000A24D2822284600210AF024FE611C2846DC
:1015400004220AF085FD611D281D04220AF080FD99
:1015500004F1090105F1080004220AF079FD04F103
:101560000D0105F10C0004220AF072FD04F11101D5
:1015700005F1100004220AF06BFD04F1150105F1DC
:10158000140004220AF064FD04F1190105F11800A9
:1015900004220AF05DFD05F1200704F11D0105F1AB
:1015A0001C0004220AF054FD04F1210138460422F3
:1015B0000AF04EFD05F1100604F1250105F12400A5
:1015C00004220AF045FD0FCE6C460FC497E80300D5
:1015D00084E8030095E80F0001F0CAFE6DE740784B
:1015E00002F000FA69E7764802F0E8FE65E7407825
:1015F00002F0D0F961E74078003018BF012002F016
:1016000019FA5AE707A8142200210AF0BBFD611C51
:1016100007A804220AF01CFD611D042208A80AF094
:1016200017FD04F10901042209A80AF011FD04F1D3
:101630000D0104220AA80AF00BFD04F11101042295
:101640000BA80AF005FD0B9B0093099A0A9B0899C9
:10165000079802F005F930E7584D28222846002166
:101660000AF090FD611C284604220AF0F1FC611D7D
:10167000281D04220AF0ECFC04F1090105F1080020
:1016800004220AF0E5FC04F10D0105F10C0004222E
:101690000AF0DEFC04F1110105F1100004220AF049
:1016A000D7FC04F1150105F1140004220AF0D0FC66
:1016B00004F1190105F1180004220AF0C9FC05F132
:1016C000200704F11D0105F11C0004220AF0C0FCF2
:1016D00004F12101384604220AF0BAFC05F1100693
:1016E00004F1250105F1240004220AF0B1FC0FCE1B
:1016F0006C460FC497E8030084E8030095E80F00E8
:1017000001F072FFD9E607A8142200210AF03AFD81
:10171000611C07A804220AF09BFC611D042208A892
:101720000AF096FC04F10901042209A80AF090FCD1
:1017300004F10D0104220AA80AF08AFC04F1110147
:1017400004220BA80AF084FC0B9B0093099A0A9BC5
:101750000899079801F072FDAFE683784578C27862
:10176000007961791B0403EB056303EB0223184442
:1017700000F094FCA1E64078431E012B3FF69DAE9D
:1017800001F00EFC0546607802F07CF9002D3FF474
:1017900094AE28460B4A4FF4987105F0D3FF8CE6BF
:1017A000F4410100F49802200C910220DC41010078
:1017B000480C00207490022010910220F89802201A
:1017C000440C00200C3B0100447800F0EFFD00F0D9
:1017D000F9FD204600F014FE644802F013FE0028D4
:1017E00040F08E80614802F029FE614A10600028B6
:1017F00000F09A805F4B604800221A6006F0BEF845
:101800005BE6407800F5967001F05EFA55E64078A8
:10181000003018BF012001F0A1FC4EE68378457826
:10182000C278007961791B0403EB056303EB0223A3
:10183000184400F0E7FB40E6504802F0D7FD00F006
:10184000B5FD4A4802F0DEFD002854D1474802F0B9
:10185000F5FD474A1060002861D0464B46480022FB
:101860001A6006F08BF8022000F00EFF25E64078A3
:1018700001F058FA21E64378847804EB0324A4B2FB
:10188000A4F548739BB241F2680140F605528B42C1
:1018900088BF1446204601F09BFA204602F01AF950
:1018A0000BE68378002B52D04FF0A0434FF4000298
:1018B000C3F8082501E68378002B3AD04FF0A04307
:1018C0004FF48002C3F80825F7E58378002B37D062
:1018D0004FF0A0434FF40012C3F80825EDE58378DC
:1018E000002B3BD04FF0A0434FF48012C3F80825E3
:1018F000E3E5FFF7DFFC224A8D2105F023FFA5E792
:101900001F4A8D2105F01EFF6CE71D4A8D2105F051
:1019100019FFBCE51A4A8F2105F014FFBFE5184AEC
:101920008F2105F00FFF98E7154A8F2105F00AFF78
:1019300060E74FF0A0434FF48002C3F80C25BCE5EC
:101940004FF0A0434FF40012C3F80C25B5E54FF05B
:10195000A0434FF40002C3F80C25AEE54FF0A043BE
:101960004FF48012C3F80C25A7E500BFF441010035
:10197000F49802200C910220DC410100480C002068
:101980000C3B010070B50446052015460E4600F0DC
:101990007BFE154B44F2010294421C605E609D6028
:1019A00011D044F20202944206D1DD60DA68128856
:1019B0009A61DA685268DA612A4631462046BDE803
:1019C000704005F0CDBE1D611A6992685A611A69AE
:1019D00012689A611A695268DA6131462A462046CD
:1019E000BDE8704005F0BCBE200C0020F0B585B00D
:1019F000002103910B460A46192618274FF0CC7593
:101A0000022469460B480295CDE900678DF80C4029
:101A100006F000F920B9084807F0FEF905B0F0BD5E
:101A2000064A4FF4F47105F08DFE034807F0F4F90F
:101A300005B0F0BD080000200C0000200C3B0100A8
:101A40002DE9F843794B7A4999607A4A7A4C4FF0FC
:101A500080410123C2F840358B67784AC4F88C2056
:101A60004FF48073A4F8903005F0A0FF002840F0F8
:101A7000D180002005F0B6FF05F0E2FF0028FBD082
:101A8000FFF7B4FF6E4801F0D7FB002840F0528208
:101A900002F0FEF884F89000674802F017F96948F0
:101AA00002F056F9684802F0DDF9684802F024FABD
:101AB000674802F0A5F8B4F88E306648A3F5E163F4
:101AC000B3F5486F84BF40F60553A4F88E3002F09A
:101AD000BBF8614802F0CAF8604802F04BF801F028
:101AE00053F800F091FE00F0F1FE002840F01C8257
:101AF00000F008FF002840F01182594801F074FB03
:101B0000002840F0058202F015FF5649564802F0C1
:101B1000A3FB564802F076FC002840F0F381544FB6
:101B20004FF40062002138680AF02CFB4F4802F0A5
:101B300085FC3860002800F008824E484E4E05F0C3
:101B40001DFF4E494E4800F001FB4E4802F06AF876
:101B500094F8913094F88D203948FF2B04BF02236C
:101B600084F8913094F8911001F04AFAB4F88E009C
:101B700001F02EF9002000F087FD00F0C7FCA4F86A
:101B800092003368002BFCD094F8910001F008FA21
:101B90003D4A1368002BFCD03C4D2B68002B7DD0B8
:101BA000324802F02FFC00283AD1304802F046FCBF
:101BB0003860002800F0C481354B2E4800221A609E
:101BC00005F0DCFE2B68002BFCD0324F294CDFF8EF
:101BD000C890B8463368002BFCD0204605F0DEFEE6
:101BE0000028F7D12B68002BF7D00246414620464B
:101BF00005F06EFE40B94FF40061386802F07EFBDC
:101C00000D28EAD1FFF756FB4A4640F25E2105F067
:101C100099FDF0E7204A40F2062105F093FD28E700
:101C20001D4A8D2105F08EFDBFE700BF00ED00E0ED
:101C30000010000000E0014074900220FF00800DC1
:101C4000080000209C90022088900220C49002206E
:101C5000029102200091022001910220EC900220CA
:101C60001C0C00202114000089130000F441010025
:101C7000F4980220DC4101004C0C0020D912000035
:101C8000400C002005910220440C0020480C00204C
:101C90000C910220209902200C3B010094F8901036
:101CA000AD480AF0BFFA206811F060F902460B4611
:101CB000AA480AF0B7FA606811F058F902460B46D4
:101CC000A7480AF0AFFAA06811F050F902460B4697
:101CD000A4480AF0A7FAE06811F048F902460B465A
:101CE000A1480AF09FFA206911F040F90B4602461C
:101CF0009E480AF097FA002200239D480AF092FAC3
:101D0000E06A11F033F902460B469A480AF08AFA63
:101D1000206B11F02BF902460B4697480AF082FA25
:101D2000606B11F023F902460B4694480AF07AFAE8
:101D3000A06B11F01BF90B46024691480AF072FAAB
:101D40000022904B90480AF06DFA206C11F00EF9C9
:101D500002460B468D480AF065FA606C11F006F9F0
:101D600002460B468A480AF05DFAA06C11F0FEF8B4
:101D700002460B4687480AF055FAE06C11F0F6F877
:101D800002460B4684480AF04DFA606911F0EEF8FD
:101D900002460B4681480AF045FAA06911F0E6F8C0
:101DA00002460B467E480AF03DFAE06911F0DEF883
:101DB00002460B467B480AF035FA206A11F0D6F845
:101DC00002460B4678480AF02DFA606A11F0CEF808
:101DD00002460B4675480AF025FAB4F88E1074488E
:101DE0000AF020FA4FF080537248196E89B20AF057
:101DF00019FA94F8911070480AF014FA206D11F055
:101E0000B5F802460B466D480AF00CFA606D11F009
:101E1000ADF802460B466A480AF004FAA06D11F0CC
:101E2000A5F802460B4667480AF0FCF9E06D11F090
:101E30009DF802460B4664480AF0F4F9206E11F052
:101E400095F802460B4661480AF0ECF9606E11F015
:101E50008DF802460B465E480AF0E4F9A06E11F0D8
:101E600085F802460B465B480AF0DCF9E06E11F09B
:101E70007DF802460B4658480AF0D4F9206F11F05D
:101E800075F802460B4655480AF0CCF9606F11F020
:101E90006DF802460B4652480AF0C4F9A06F11F0E3
:101EA00065F802460B464F480AF0BCF9E06F11F0A6
:101EB0005DF802460B464C480AF0B4F9D4F88000AD
:101EC00011F054F802460B4648480AF0ABF9D4F832
:101ED000840011F04BF802460B4645480AF0A2F97F
:101EE000D4F8880011F042F802460B4641480AF047
:101EF00099F9B4F8921040480AF094F93F480AF072
:101F000091F94DE63E4A40F2312105F01BFC06E610
:101F10003B4A4FF40A7105F015FCF4E5384A4FF4DA
:101F2000097105F00FFCE8E5354A40F2222105F081
:101F300009FCDDE5324A40F20E2105F003FCA7E57D
:101F40002F4A8F2105F0FEFB36E62D4A4FF40D7126
:101F500005F0F8FBF1E500BF283901003839010030
:101F600044390100503901005C3901006839010031
:101F700074390100803901008C3901009839010061
:101F8000A43901000000F03FB0390100BC39010064
:101F9000C8390100D4390100E0390100EC390100F1
:101FA000F8390100043A0100103A01001C3A01001E
:101FB000283A0100343A01003C3A0100483A010055
:101FC000543A0100603A01006C3A0100783A01008D
:101FD000843A0100903A01009C3A0100A83A0100BD
:101FE000B43A0100C03A0100CC3A0100D83A0100ED
:101FF000E43A0100F03A0100FC3A0100043B010020
:102000000C3B01002DE9F0471D481E4FDFF8809082
:10201000DFF88080DFF880A082B002F0CFF91A4BA1
:102020008022C3F8802047F0010747F23054012690
:10203000C9F8006042F21075C8F8006002E0B847C5
:10204000013D04D0DAF800304020002BF7D00F4AD1
:102050000023136012680092009ACAF80030DAF880
:1020600000300193013CA4B2019B002CE0D1044854
:1020700002F0BCF9044B80221A6002B0BDE8F08780
:1020800014910220503B010000E100E0007100408B
:10209000007000400470004004710040704700BFB1
:1020A000204BD3F8042102B9704770B51E4A14685A
:1020B00004B170BDC3F8044100F088FC1B4A1C4DFC
:1020C0001378287083421DD01A4B1B49B3F9003096
:1020D0000968002BA8BFC3F38D04184BD3F8103543
:1020E00010701B0203F4003343EA80331C430C607E
:1020F00000F05EFC124A134B297810781B68BDE88B
:1021000070401847104BD3F80C1149B9D3F8081197
:1021100031B9D3F8041119B9D3F80031002BD3D059
:1021200000BFE5E700700040149102202400002069
:102130001B910220189102201C91022000030050E4
:1021400018000020249902200060004070B57E4BEA
:102150007E4A18604FF080430120116084B01A4617
:102160001860D2F80031002BFBD0794B794D7A48BA
:102170007A490024C2F80041C3F8185502784FF498
:10218000C165FF2A0D8000F0AA80714B744AC3F824
:102190002825744C7448754D40F201624A80002233
:1021A0002468C3F82425C3F82025C3F83805C3F8EC
:1021B0003425C3F83025C3F85805C3F85425C3F8AF
:1021C0005025C3F84805C3F84425C3F84025C3F893
:1021D00068050320C3F86425C3F86025C3F8F0053B
:1021E0000120C3F8F425C3F83006C3F82C5640F29A
:1021F0000465C3F8F82540F20366C3F8000540F211
:1022000005628D8040F20265D8600E81CD804A81E2
:10221000D3F81021002AFBD000214D4AC3F8101139
:10222000D2F80034012BFBD04E48514B04604024BF
:1022300083F807438020022501244549C3F8800123
:102240001860C2F804531460D1F80031002BFBD0A1
:102250000023C1F8003105F0B3FC00286DD1454BD7
:1022600093E8030002AB83E80300002219464248CA
:1022700006F032FB00285AD13F4C2368D3F81035C2
:102280000021DBB2A022DA4020460091012306F0B3
:10229000A9FB204606F098FB2468384804F5A07492
:1022A00005F0CEFE00283CD1344B354A1878214643
:1022B00005F0FAFE78BB334805F0C2FE28BB314C6E
:1022C000234A2078304905F0EFFE0546207805F0D6
:1022D0000DFF7DB92D4B01221A7004B070BD06258B
:1022E000C3F81455224A0825C3F8105580231360FB
:1022F00004704AE72846264A40F2511105F022FAB6
:10230000224B01221A7004B070BD214A40F24B11D9
:1023100005F018FAD3E71E4A40F2451105F012FA0B
:10232000C9E71B4A4FF4A07105F00CFABCE7184A44
:102330004FF4997105F006FA9EE7154A40F227110D
:1023400005F000FA8BE700BF1C91022024990220BF
:1023500000700040000317011800002024910220A3
:102360000007100140760040000310011891022080
:1023700000E100E0283B01001C0000202191022028
:102380000470004020910220047100401A91022044
:10239000303B0100034A044B80211160187805F09E
:1023A000A5BE00BF00E100E021910220034A044BDA
:1023B0008021C2F88010187805F0ACBE00E100E082
:1023C000219102200C4A1078FF2812D0030130B46A
:1023D00003F1804303F5E043084C80250021C4F855
:1023E0008050C3F81415C3F81015FF23137030BCC8
:1023F0007047FF23137070471800002000E100E0D1
:102400000E4B1978FF2901D00820704770B402469E
:102410000B480C4C10F81260110100EB420001F166
:10242000804101F5E0414078C1F814058025C1F8EC
:10243000106525601A70002070BC704718000020DD
:102440002491022000E100E02DE9F04F264BDFF857
:10245000B0A080220024C3F88020AAF80040BAF877
:102460000030B3F5FA7F83B03CD2204EDFF8949071
:102470001F4FDFF894B046F0010601251D4B42F2D4
:1024800010781D603D6003E0B047B8F1010804D04A
:10249000DBF800204020002AF6D0174A0023136002
:1024A00012680092009ACBF80030DBF800300193FC
:1024B000019BBAF80030B9F9002001339BB2AAF8A9
:1024C0000030BAF80030B3F5FA7F1444D6D30B4885
:1024D000A0FB0434C4F34F10034B80221A6003B0F6
:1024E000BDE8F08F2046F7E700E100E0503B010037
:1024F000047000400070004000710040D34D621035
:102500003091022018910220047100402DE9F04F13
:10251000504F3B78FF2B85B00DD01B0103F180435A
:1025200003F5E0434C4900228020C1F88000C3F845
:102530001425C3F81025DFF84481484E98F802307E
:1025400098F80320444DC6F824254FF0800AC6F8B9
:1025500020350124424BC5F800A03C70C5F800A00E
:10256000DFF81C91187805F0C1FD0020C5F880A0A7
:10257000A9F80000B9F80020B2F5FA7F40D2394A34
:10258000DFF800B142EA040305460193364B34609C
:1025900042F2107A1C6004E0019B9847BAF1010AEC
:1025A00004D0DBF800304020002BF5D02F4A002368
:1025B000136012680292029ACBF80030DBF8003008
:1025C0000393039BB9F80030294A01339BB2A9F861
:1025D0000030B9F80030B2F90020B3F5FA7F1544A5
:1025E000D4D32448A0FB0530C0F34F1010F0ACFC4E
:1025F0000022214B10F012FD10F0E8FF441CA4B2A1
:10260000154D174B80262E60C5F88060187805F0B0
:1026100081FD3B78FF2B0BD01B0103F1804303F5B9
:10262000E0430022C5F88060C3F81425C3F81025E4
:102630000A4B98F8011098F80050074AC3F814158F
:102640002046C3F810558021002311603B7005B06F
:10265000BDE8F08F1800002000E100E000700040AD
:1026600021910220503B01000470004000710040A5
:1026700018910220D34D621000C0923F2491022095
:102680003091022004710040F8B5052812D8DFE827
:1026900000F0233403435E12534C261D30460121C3
:1026A00005F030FF2578012D7ED0022D00F08C80C2
:1026B00000232373F8BD4D4C4D4D0121204605F0FC
:1026C00021FF4C4928460223012205F0A1FE95E88E
:1026D000030084E80300F8BD444C474D0121204627
:1026E00005F010FF454928460223012205F090FE1F
:1026F00095E8030084E80300F8BD3B4D2C1D012143
:10270000204605F0FFFE0223204601223B4905F04A
:102710007FFE01232B73F8BD334E3446022504F8A7
:10272000045B0121204605F0EDFE337B53B3304EB0
:102730000121204605F0E6FE30492B4630460122B5
:1027400005F066FE96E8030084E80300F8BD264E17
:102750003446012504F8045B2946204605F0D2FEE4
:10276000337BC3B1264E2946204605F0CBFE2349D4
:102770002A463046022305F04BFE96E8030084E823
:102780000300F8BD2846FFF77FFF194B93E80300CD
:1027900084E80300F8BD0220FFF776FF184B93E8AA
:1027A000030084E80300F8BD154F2946304605F0C4
:1027B000A9FE14492A463846022305F029FE97E867
:1027C000030086E8030073E7094F0121304605F056
:1027D00099FE0C492B463846012205F019FE97E870
:1027E000030086E8030063E7C4920220C892022037
:1027F0003C000020743B010034000020943B0100A9
:102800002C000020843B010000B585B0002340F27D
:10281000074040F6C411264ACDF80A30ADF80E3014
:10282000ADF80800ADF80C1032339BB222F8023F2D
:10283000C81A8B42A2F86400F6D11E4B002203F1A5
:10284000640143F8042F99425A66FAD16FF0DA0313
:1028500001A900221848019305F070FCC8B96FF473
:102860005943002201A91548019305F067FCD0B92E
:102870006FF4580301A900221148019305F05EFC92
:1028800060B9104B0121002219701A7305B05DF870
:1028900004FB0D4AB02104F055FFE0E70A4ABC21D1
:1028A00004F050FFEDE7084AB62104F04BFFDFE7E4
:1028B000FA910220309102203C00002034000020D8
:1028C0002C000020C4920220583B010010B508F0F3
:1028D0004FFF28B10024094B01221A70204610BD79
:1028E00008F0F8FE04460028F5D0054A0D2104F052
:1028F00029FF024B01221A70204610BDD4920220FB
:10290000A83B0100274B1B78002B48D000B5264B75
:1029100083B01B68ADF8043000221B0C01A91046DF
:102920008DF8063008F02EFFA0BB002201A901207F
:1029300008F028FF48BB002201A91A2008F022FF56
:10294000F0B901A900221B2008F01CFF98B9012151
:10295000002008F0FFFF0121084608F0FBFF0121DD
:102960001A2008F0F7FF01211B2008F0F3FF0020D8
:1029700003B05DF804FB0D4A252104F0E3FEE6E711
:102980000A4A232104F0DEFEDBE7084A212104F095
:10299000D9FED0E7054A1F2104F0D4FEC5E7082080
:1029A000704700BFD4920220A43B0100A83B010065
:1029B000054B0022C3F80021C3F80421C3F8082105
:1029C000C3F80C21704700BF006000404FF0A042E8
:1029D0000C4BD2F810051840032810D007D90A4A2A
:1029E00090420AD098420CBF04200720704728B1BB
:1029F00001280CBF012007207047032070470220E8
:102A0000704700BF0300000C0300000430B40FC87F
:102A1000034C044D84E80F0001232B7030BC704739
:102A200028990220D5920220134B1B7813B330B59E
:102A3000890085B001F00C0444EA00140023C2F3BD
:102A4000012004431546009303AA02232C210B48BE
:102A50008DF80C408DF80D5006F0EEF9044610B9D3
:102A6000E0B205B030BD064A662104F06BFEE0B26C
:102A700005B030BD08207047D59202202C99022065
:102A8000C43B010001B170474FF0A0434FF08042BA
:102A900010B44FF480200324B121C3F84847C3F891
:102AA0000C05C2F81C15BFF34F8F0549054BCA68CA
:102AB00002F4E0621343CB60BFF34F8F00BFFDE72A
:102AC00000ED00E00400FA052DE9F843274D2A78CF
:102AD00012B10020BDE8F883254B264818604FF05E
:102AE0008051254C0E694969DA60241A012701FBDF
:102AF00006F1C3E901472148214CC3E9041609F056
:102B0000FFFB00EB070804EB080961272D260CE00A
:102B10002D2F07BF302289F8002089F800602D2270
:102B200008F1010809F101091746204609F0E8FB00
:102B3000804512D299F8002022F020014139A2F1FB
:102B40002B031929DBB2EBD947F6ED710E2B21FAD5
:102B500003F1DDD8CB07E3D4DAE70A4802F026FD1B
:102B60000028B7D101232B70BDE8F883D69202204C
:102B7000E892022000100000104201000C3C01000D
:102B800044000020E83B01004FF0A0434C481022D5
:102B900040212DE9F041C0F808258024C3F808152C
:102BA00003220021C3F80845464DC0F810274FF412
:102BB0000014C3F818274FF48016C3F81C27C0F878
:102BC00024174FF48000C3F85027C3F85427C3F8E4
:102BD0005827C3F85C27C3F80C65C3F80C45C3F845
:102BE0000C054FF400044FF40070C3F80C4545F099
:102BF0000105C3F800170A24C3F80417C3F86817BF
:102C0000C3F86C17C3F82427C3F808054FF47A40BB
:102C1000A847013CFAD14FF0A0434FF40074C3F829
:102C20000C4503224FF480684FF400512448C3F848
:102C300028274FF4006E4FF4805C4FF480474FF428
:102C400000464FF480354FF40034C3F82C27C3F806
:102C50003027C3F83427C3F83827C3F83C27C3F814
:102C60004027C3F84427C3F80C85C3F80CE5C3F824
:102C70000CC5C3F80C15C3F80C75C3F80C65C3F884
:102C80000C55C3F80C45C3F808854FF48078C3F899
:102C900008E5C3F808C5C3F80815C3F80875C3F8F4
:102CA0000865C3F80855C3F80845C0F83427C3F8C9
:102CB0002027C0F80815C3F80885BDE8F08100BFDB
:102CC00000030050303C010010B540F68C248442D3
:102CD00038BF044641F27C5084420E4B0E4A0F49E5
:102CE00028BF044603FB04F3A2FB032341F2A172B5
:102CF000A2EB134202EB0222A1FB023240F20113CB
:102D0000A3EB1222002192B20846FFF78DFE044B7E
:102D10001C8010BDC81405006B0DD7320DABA91374
:102D200068000020B0F5C87F38B538BF4FF4C870D0
:102D300041F288348442144B144A154928BF044692
:102D400003FB04F3A2FB032340F69752A2EB1342CA
:102D500002EB0222A1FB023240F20113A3EB12228A
:102D600092B200210120FFF75FFE054618B9094B1A
:102D70001C80284638BD084A8B2104F0E3FC054B33
:102D80001C80284638BD00BF605B03006B0DD73246
:102D90000DABA9136A000020383C010038B5054688
:102DA000FFF710FB04460520FFF72AFBFFF74CFB5B
:102DB0004FF4E16303FB00F0401300EB8000288038
:102DC000FFF700FB2046FFF71BFB002038BD00BFCC
:102DD0002DE9F04F00F5AF75ADB241F27C56B5422A
:102DE00083B0044600F2B58040F68C229542644BD5
:102DF000644F654E38BF154603FB05F3A7FB03324E
:102E000041F2A173A3EB124303EB0322A6FB0232B0
:102E100040F201190021A9EB122292B20846FFF7F5
:102E200003FEB4F5C87FA04641F2883238BF4FF4A4
:102E3000C8789045554B564928BF904603FB08F388
:102E4000A7FB032340F69757A7EB134707EB07278A
:102E5000A6FB0732A9EB12220D8092B200210120BD
:102E6000FFF7E2FD002840F085804A4F4A4EA7F860
:102E70000080FFF7A7FA01900320FFF7C1FAFFF7E0
:102E8000E3FA96F90030DFF804B1DFF8F8A0C01AD1
:102E900080B24FF4E16303FB00F35B1303EB8303A6
:102EA0001FFA83F9A046652537E09CB2B4F5C87FC8
:102EB000A14641F2883338BF4FF4C879994528BFFD
:102EC00099460BFB09F3AAFB031340F69752A2EBBA
:102ED00013422D4B02EB0222A3FB023240F20113FC
:102EE000A3EB122292B200210120FFF79DFD10BB3F
:102EF000A7F80090FFF7A8FA96F90090A0EB090058
:102F000080B24FF4E16909FB00F94FEA693909EB36
:102F10008909013D1FFA89F912D0A8EB090009F0CF
:102F20005FF80828A4F102030ADDA145BDD83CBF23
:102F30000234A4B2BAE7194A8B2104F003FCD7E7A4
:102F4000FFF740FA0198FFF75BFA002003B0BDE8F5
:102F5000F08F00210846DB22FFF766FD0C4BF622BE
:102F6000002101201E8041F28838FFF75DFD002816
:102F70003FF47BAF094A8B2104F0E4FB75E700BF07
:102F8000C81405006B0DD7320DABA913605B0300AD
:102F9000680000206A00002000930220383C0100F5
:102FA000012810B5044613D0F0B102280ED14FF01D
:102FB000A04340218022C3F808150320C3F80C2544
:102FC000FFF762FB0D4B1C70002010BD062010BDEA
:102FD0004FF0A04380214022C3F808150420C3F815
:102FE0000C25FFF751FBEDE74FF0A0434021802275
:102FF000C3F80815C3F80825E4E700BF01930220D1
:103000002DE9F0410D461446FFF700FD0021662230
:103010000846FFF709FD494B4FF47A621A800028F1
:1030200056D1012D5AD0002D7ED0022D62D14FF005
:10303000A04340218022C3F808150320C3F80C25C3
:10304000FFF722FB3E4B1D708F2200210120FFF76E
:10305000EBFC0546002859D13A4B40F6B8321A80AD
:10306000394D3A4E2A7800210720FFF7DDFC8046D3
:10307000FFF74CFAC0B2392830701DD0344F01E050
:10308000392819D02B78382803F101028ABF03F1BF
:10309000FF33D3B2DBB21A46002107202B70FFF7B3
:1030A000C3FC8046FFF732FA3B780133DBB2C0B293
:1030B000142B30703B70E3D9B8F1000F20D1962C5F
:1030C00088BFC4F19604234B64B21C70BDE8F08144
:1030D000214AEC2104F036FB012DA4D14FF0A0438E
:1030E00080214022C3F808150420C3F80C25FFF7FF
:1030F000CBFAA7E7184AEE21062004F023FBA3E74A
:103100004046154AF22104F01DFBD8E7124A8B21F4
:1031100004F018FB0B4B104A2846F02140F6B83556
:103120001D8004F00FFB9BE74FF0A043402180225D
:10313000C3F80815C3F8082584E700BF680000201D
:10314000019302206A0000206C00002002930220FC
:103150006700002000930220383C010090B1174B1B
:103160001B78022B1DD0012B07D14FF0A04340212B
:103170008022C3F80C15C3F80825114B1022C3F8A0
:103180000C2570474FF0A0430D4810B44021102487
:103190008022C0F80845C3F80815C3F8082510BCFC
:1031A00070474FF0A04380224021C3F80815C3F8B0
:1031B0000C25034B1022C3F80C2570470193022005
:1031C00000030050034618B1024A00201360704704
:1031D000072070470493022008B5024B1B689847EC
:1031E000002008BD04930220B0B14FF0A0420B496B
:1031F00000230860C2F828371846C2F82C37C2F8F6
:103200003037C2F83437C2F83837C2F83C37C2F822
:103210004037C2F84437704707207047389902207A
:103220004FF0A043034AD3F810351268C3F3872345
:10323000136070473899022000F0F4BEF0B585B0F5
:10324000002401900F4616466946022202A81D4638
:10325000ADF800400A9C08F0FBFE01A904220DF124
:103260000A0008F0F5FE02A90622012000F0ECFE9B
:1032700000285FD14FF480630222694602A8ADF8AE
:103280000030019708F0E4FE04220DEB02010DF17D
:103290000A0008F0DDFE062202A9012000F0D4FE9B
:1032A00000285DD14FF400630222694602A8ADF800
:1032B0000030019608F0CCFE04220DEB02010DF166
:1032C0000A0008F0C5FE062202A9012000F0BCFE9B
:1032D000002840D14FF440630222694602A8ADF8AD
:1032E0000030019508F0B4FE04220DEB02010DF14F
:1032F0000A0008F0ADFE062202A9012000F0A4FE9B
:1033000020BB4FF480536946022202A8ADF800307A
:10331000019408F09DFE01A904220DF10A0008F0B5
:1033200097FE02A90622012000F08EFE38B9002087
:1033300005B0F0BD0D4A1C2104F004FA9AE70B4ACF
:103340001C2104F0FFF9002005B0F0BD074A1C2144
:1033500004F0F8F9D5E7054A1C2104F0F3F9B9E7C0
:10336000024A1C2104F0EEF99CE700BF583C010022
:1033700084B000B585B00DF1180C8CE80F00069BE9
:10338000019369464FF47053022202A8ADF8003051
:1033900008F05EFE01A904220DF10A0008F058FEB3
:1033A00002A90622012000F04FFE002840F0E8802C
:1033B000079B019302224FF48043694602A8ADF8AF
:1033C000003008F045FE04220DEB02010DF10A0069
:1033D00008F03EFE062202A9012000F035FE00287A
:1033E00040F0FB80089B019302224FF4884369461A
:1033F00002A8ADF8003008F02BFE04220DEB02010C
:103400000DF10A0008F024FE062202A9012000F0B6
:103410001BFE002840F0DC80099B019302224FF440
:103420009043694602A8ADF8003008F011FE04226E
:103430000DEB02010DF10A0008F00AFE062202A9B6
:10344000012000F001FE002840F0BD800A9B01939E
:1034500002224FF49843694602A8ADF8003008F004
:10346000F7FD04220DEB02010DF10A0008F0F0FD5A
:10347000062202A9012000F0E7FD002840F09E800E
:103480000B9B019302224FF4A043694602A8ADF8BA
:10349000003008F0DDFD04220DEB02010DF10A0001
:1034A00008F0D6FD062202A9012000F0CDFD00287B
:1034B0007FD10C9B019302224FF4A843694602A8D6
:1034C000ADF8003008F0C4FD04220DEB02010DF14F
:1034D0000A0008F0BDFD062202A9012000F0B4FD9B
:1034E000002861D10D9B019302224FF4B04369463D
:1034F00002A8ADF8003008F0ABFD04220DEB02018C
:103500000DF10A0008F0A4FD062202A9012000F036
:103510009BFD002843D10E9B019302224FF4B84338
:10352000694602A8ADF8003008F092FD04220DEBC8
:1035300002010DF10A0008F08BFD062202A901200C
:1035400000F082FD30BB0F9B019369464FF4C043EE
:10355000022202A8ADF8003008F07AFD01A9042289
:103560000DF10A0008F074FD02A90622012000F006
:103570006BFD50B9002005B05DF804EB04B0704756
:10358000184A1C2104F0DEF812E7164A1C2104F048
:10359000D9F8EFE7134A1C2104F0D4F8D3E7114A15
:1035A0001C2104F0CFF8B6E70E4A1C2104F0CAF83B
:1035B00098E70C4A1C2104F0C5F87AE7094A1C2157
:1035C00004F0C0F85CE7074A1C2104F0BBF83DE7B3
:1035D000044A1C2104F0B6F81EE7024A1C2104F03C
:1035E000B1F8FFE6583C010084B000B585B00DF19C
:1035F000180C8CE80F00069B019369464FF4A0530A
:10360000022202A8ADF8003008F022FD01A9042230
:103610000DF10A0008F01CFD02A90622012000F0AD
:1036200013FD002840F0E880079B019302224FF42D
:10363000C053694602A8ADF8003008F009FD042225
:103640000DEB02010DF10A0008F002FD062202A9AD
:10365000012000F0F9FC002840F0FB80089B01935A
:1036600002224FF4E053694602A8ADF8003008F09A
:10367000EFFC04220DEB02010DF10A0008F0E8FC5A
:10368000062202A9012000F0DFFC002840F0DC80C7
:10369000099B019302224FF40053694602A8ADF83A
:1036A000003008F0D5FC04220DEB02010DF10A00F8
:1036B00008F0CEFC062202A9012000F0C5FC00287B
:1036C00040F0BD800A9B019302224FF410536946DB
:1036D00002A8ADF8003008F0BBFC04220DEB02019B
:1036E0000DF10A0008F0B4FC062202A9012000F046
:1036F000ABFC002840F09E800B9B019302224FF40C
:10370000C843694602A8ADF8003008F0A1FC0422C5
:103710000DEB02010DF10A0008F09AFC062202A945
:10372000012000F091FC00287FD10C9B0193022224
:103730004FF4D043694602A8ADF8003008F088FC89
:1037400004220DEB02010DF10A0008F081FC0622B3
:1037500002A9012000F078FC002861D10D9B0193A3
:1037600002224FF4D843694602A8ADF8003008F0B1
:103770006FFC04220DEB02010DF10A0008F068FC59
:10378000062202A9012000F05FFC002843D10E9B15
:10379000019302224FF4E043694602A8ADF80030DD
:1037A00008F056FC04220DEB02010DF10A0008F0AE
:1037B0004FFC062202A9012000F046FC30BB0F9B03
:1037C000019369464FF4E843022202A8ADF80030A5
:1037D00008F03EFC01A904220DF10A0008F038FCB3
:1037E00002A90622012000F02FFC50B9002005B0EC
:1037F0005DF804EB04B07047184A1C2103F0A2FFE7
:1038000012E7164A1C2103F09DFFEFE7134A1C2123
:1038100003F098FFD3E7114A1C2103F093FFB6E7AA
:103820000E4A1C2103F08EFF98E70C4A1C2103F07E
:1038300089FF7AE7094A1C2103F084FF5CE7074A05
:103840001C2103F07FFF3DE7044A1C2103F07AFFAF
:103850001EE7024A1C2103F075FFFFE6583C0100F9
:10386000F0B585B04FF4205401900F4616466946D6
:10387000022202A81D46ADF800400A9C08F0E8FBB1
:1038800001A904220DF10A0008F0E2FB02A90622B8
:10389000012000F0D9FB00285FD14FF43053022201
:1038A000694602A8ADF80030019708F0D1FB042268
:1038B0000DEB02010DF10A0008F0CAFB062202A975
:1038C000012000F0C1FB00285DD14FF440530222DB
:1038D000694602A8ADF80030019608F0B9FB042251
:1038E0000DEB02010DF10A0008F0B2FB062202A95D
:1038F000012000F0A9FB002840D14FF450530222D0
:10390000694602A8ADF80030019508F0A1FB042239
:103910000DEB02010DF10A0008F09AFB062202A944
:10392000012000F091FB20BB4FF460536946022256
:1039300002A8ADF80030019408F08AFB01A9042226
:103940000DF10A0008F084FB02A90622012000F014
:103950007BFB38B9002005B0F0BD0D4A1C2103F0F7
:10396000F1FE9AE70A4A1C2103F0ECFE002005B0A4
:10397000F0BD074A1C2103F0E5FED5E7044A1C21EF
:1039800003F0E0FEB9E7024A1C2103F0DBFE9CE7EE
:10399000583C010000B587B04FF47C438DF8070018
:1039A000022202A903A8ADF8083008F051FB012259
:1039B0000DF107010DF10E0008F04AFB03A90322E7
:1039C000012000F041FB18B9002007B05DF804FBAE
:1039D000034A302103F0B6FE002007B05DF804FB77
:1039E000583C010000B587B04FF4F8438DF807004C
:1039F000022202A903A8ADF8083008F029FB012231
:103A00000DF107010DF10E0008F022FB03A90322BE
:103A1000012000F019FB18B9002007B05DF804FB85
:103A2000034A302103F08EFE002007B05DF804FB4E
:103A3000583C010000B587B04FF47E438DF8070075
:103A4000022202A903A8ADF8083008F001FB012208
:103A50000DF107010DF10E0008F0FAFA03A9032297
:103A6000012000F0F1FA18B9002007B05DF804FB5E
:103A7000034A302103F066FE002007B05DF804FB26
:103A8000583C010000B587B04FF47B438DF8070028
:103A9000022202A903A8ADF8083008F0D9FA0222E0
:103AA0000DF107010DF10E0008F0D2FA03A904226E
:103AB000012000F0C9FA18B9002007B05DF804FB36
:103AC000034A302103F03EFE002007B05DF804FBFE
:103AD000583C010000B587B04FF4F043ADF8060044
:103AE000022202A903A8ADF8083008F0B1FA0222B8
:103AF0000DF106010DF10E0008F0AAFA03A9042247
:103B0000012000F0A1FA18B9002007B05DF804FB0D
:103B1000034A302103F016FE002007B05DF804FBD5
:103B2000583C010010B584B020308300019102227E
:103B3000694602A800248DF801308DF8004008F095
:103B400087FA04220DEB02010DF10A0008F080FA59
:103B500002A90622012000F077FA10B9002004B073
:103B600010BD034A1C2103F0EDFD002004B010BD80
:103B7000583C010010B5022304228021044600F0C5
:103B80009FFA00BB042202238421A01800F098FAB7
:103B900070BB02230422882104F1080000F090FA8F
:103BA00008BB022304228C2104F10C0000F088FAE7
:103BB000A0B904F1100002230422902100F080FA41
:103BC00030B9002010BD0D4AA72103F0BBFDD9E795
:103BD0000A4AAF2103F0B6FD002010BD074AAD210F
:103BE00003F0B0FDE5E7054AAB2103F0ABFDD8E7F4
:103BF000024AA92103F0A6FDCBE700BF583C010013
:103C000008B502231A46782100F05AFA08B90020B4
:103C100008BD034AB62103F095FD002008BD00BF92
:103C2000583C010008B502231A46FB2100F048FA6F
:103C300008B9002008BD034ABC2103F083FD002021
:103C400008BD00BF583C010008B501220223FC2139
:103C500000F036FA08B9002008BD034AC22103F07B
:103C600071FD002008BD00BF583C010008B50122CD
:103C700002237C2100F024FA08B9002008BD034A81
:103C8000C82103F05FFD002008BD00BF583C0100C3
:103C900010B582B0002402230122FE210DF107009D
:103CA0008DF8074000F00CFA40B99DF80700A0F12C
:103CB0000100B0FA80F0400902B010BD024ACF21E5
:103CC00003F040FDF1E700BF583C010010B50223AE
:103CD00004220021044600F0F3F9E8B90422114659
:103CE0000223A01800F0ECF958BB0821022304229B
:103CF000601800F0E5F9F8B90C21022304226018DD
:103D000000F0DEF998B904F110000223042210211A
:103D100000F0D6F928B910BD0C4ADC2103F012FDE1
:103D2000DCE70A4AE421BDE8104003F00BBD074A76
:103D3000E22103F007FDE6E7044AE02103F002FD7B
:103D4000DAE7024ADE2103F0FDFCCEE7583C010031
:103D500010B5022304221421044600F0B1F9002812
:103D60004BD1042202231821A01800F0A9F9002841
:103D700071D1022304221C2104F1080000F0A0F9F3
:103D8000002863D102230422202104F10C0000F05A
:103D900097F9002855D102230422242104F11000B0
:103DA00000F08EF9002847D102230422642104F197
:103DB000140000F085F9D0BB02230422682104F12D
:103DC000180000F07DF968BB022304226C2104F185
:103DD0001C0000F075F900BB02230422702104F1DD
:103DE000200000F06DF998B904F1240002230422A8
:103DF000742100F065F928B910BD194AEB2103F0D0
:103E0000A1FCAEE7164AFD21BDE8104003F09ABCC4
:103E1000134AFB2103F096FCE6E7114AF92103F06F
:103E200091FCD9E70E4AF72103F08CFCCCE70C4A51
:103E3000F52103F087FCBFE7094AF32103F082FC78
:103E4000B2E7074AF12103F07DFCA4E7044AEF2121
:103E500003F078FC96E7024AED2103F073FC88E753
:103E6000583C010010B5022304222821044600F02A
:103E700027F9F8B9042202232C21A01800F020F918
:103E800088BB02230422302104F1080000F018F955
:103E900018BB02230422342104F10C0000F010F9B5
:103EA000A8B904F1100002230422382100F008F917
:103EB00030B910BD0F4A4FF4827103F043FCD9E7CB
:103EC0000C4A4FF48671BDE8104003F03BBC094A30
:103ED0004FF4857103F036FCE3E7064A4FF4847132
:103EE00003F030FCD5E7034A4FF4837103F02AFC5A
:103EF000C7E700BF583C010010B5022304223C2153
:103F0000044600F0DDF800284CD1042202234021B1
:103F1000A01800F0D5F800287BD102230422442108
:103F200004F1080000F0CCF800286CD10223042230
:103F3000482104F10C0000F0C3F800285DD10223F1
:103F400004224C2104F1100000F0BAF800284ED1F0
:103F500002230422502104F1140000F0B1F80028DB
:103F60003FD102230422542104F1180000F0A8F8E4
:103F700088BB02230422582104F11C0000F0A0F8A1
:103F800018BB022304225C2104F1200000F098F801
:103F9000A8B904F1240002230422602100F090F863
:103FA00030B910BD1E4A4FF48A7103F0CBFBACE769
:103FB0001B4A4FF49371BDE8104003F0C3BB184A8D
:103FC0004FF4927103F0BEFBE3E7154A4FF4917191
:103FD00003F0B8FBD5E7124A4FF4907103F0B2FB3F
:103FE000C7E70F4A4FF48F7103F0ACFBB9E70C4AF7
:103FF0004FF48E7103F0A6FBAAE7094A4FF48D71C6
:1040000003F0A0FB9BE7064A4FF48C7103F09AFB88
:104010008CE7034A4FF48B7103F094FB7DE700BFFC
:10402000583C010050B130B40FC8054C054D84E830
:104030000F0001232B70002030BC70471020704708
:104040002899022008930220194B1B786BB149B1C3
:104050008318B3F5807F05DC22B100F00F00104417
:10406000102805DD072318467047082318467047B7
:10407000F0B5104F83B015460E460A2447F00107ED
:104080004FF47A40B847013CFAD12B4600943246AF
:104090005021094804F0D0FE034610B9184603B079
:1040A000F0BD064A4F2103F04DFB2346F6E700BF63
:1040B00008930220803C01002C990220883C0100DA
:1040C000F0B5214C247887B06CB148B18C18B4F5A8
:1040D000807F05DC22B101F00F041444102C05DDB3
:1040E000072007B0F0BD082007B0F0BD154606AAAE
:1040F0000C46D11A06461A460E39002303A88DF83D
:1041000009408DF80830114F07F0A2FF0A2447F04C
:1041100001074FF47A40B847013CFAD101230093DC
:1041200003AA022350210A4804F086FE38B92B4620
:1041300032465021064804F049FF07B0F0BD054A59
:10414000672103F0FFFAF2E708930220803C0100A8
:104150002C990220883C0100F0B591B0032919D8B0
:10416000DFE801F00239271A224D234F0C462E4674
:1041700010AB23442A7803F8402C01340122314645
:104180003846E4B202F0D0FF0028F1D0214668465C
:10419000FFF722F811B0F0BD184B194800221A7031
:1041A00000F00CF9174B01211B680846984711B025
:1041B000F0BD124B124801241C7000F0FFF822469B
:1041C0000C490D4802F0B0FF0E4B00211B68084659
:1041D000984711B0F0BD0B4B00211B680420984795
:1041E000094B07484022C3F80C2500F0E7F811B04E
:1041F000F0BD00BF98930220A83C010094930220D8
:10420000700000209C93022000030050083810B575
:1042100006280CD8DFE800F00804100B0B0B0C008C
:10422000BDE8104001F0B4B906F0AAF868B110BDBD
:10423000BDE8104001F08CB901F08CF9054B00216C
:104240001B680220BDE810401847BDE8104001F08F
:104250007DB900BF9C93022038B5002841D00029C9
:104260003FD0044620480D4600F0A8F81F4B2846D2
:104270001C60FEF7A7FF00F0C9FF1D4801F0C0F861
:1042800030BBFEF721FCC8B91A4801F08FF958B9C4
:1042900001F040F9044608B9204638BD164AB1215C
:1042A00003F050FA204638BD134AAC2103F04AFA15
:1042B00001F030F904460028EED0EFE70E4AA721BE
:1042C00003F040FA0B4801F071F90028E0D0EBE769
:1042D000094AA42103F036FAFEF7F6FB0028D3D0F2
:1042E000ECE70724204638BD700000209C93022094
:1042F000F43C0100A83C0100CC3C01002DE9F04158
:104300001F4E337803F0FF04F3B11E4D2B6888462F
:10431000074643B94FF0FF3300E01BB32C68013B65
:10432000002CFAD0F3B1174800F060F84246394645
:10433000154802F0D9FE0828044608D020B1134BD6
:1043400004211B68052098472046BDE8F081002421
:104350000C48347000F032F80C4B03211B6801202C
:104360009847F1E701230748337000F027F8074B1F
:1043700002211B6805200D2498472046BDE8F081E6
:104380009493022070000020A83C01009C9302201E
:1043900038B508480D46144600F028F8224629464C
:1043A000054802F0A1FE034A1368002BFCD020460A
:1043B00038BD00BF70000020A83C0100012350E878
:1043C000002F42EA030C40E800C191F0000FF6D143
:1043D00060467047002350E800CF0CEA030240E833
:1043E000002191F0000FF6D160467047002350E89D
:1043F000002F02EA030C40E800C191F0000FF6D153
:1044000060467047B8B130B4D0E90112521A04685E
:10441000D2B2531E2160DBB242B101680A685C1E51
:10442000551C0D601370E3B2FF2BF6D1036800201A
:10443000187130BC70470E20704700BF38B5044675
:10444000002003F0BDF9D4E900311A688A4215D979
:10445000511E19602168A3680868258A12F8012C8A
:10446000E4681B1A0879DBB2984205FB024400D2CB
:104470000B71002003F0ACF9204638BD0024002069
:1044800003F0A6F9204638BD38B5054600200C4695
:1044900003F096F92A681368591C1160E9682A8AA2
:1044A000641AB4FBF2F41C700020BDE8384003F03D
:1044B0008FB900BFF8B52049204B0024C1F8404116
:1044C000C1F84441C1F84841C1F84C41C1F800412C
:1044D000C1F804411B6833B31948D1F80455016889
:1044E0001A686D1A25F07F45AA4227460DD8197C17
:1044F000DE69AD1A144419B11F74D3E90520904741
:104500001EB133461A68AA42F1D90E490E4A0B78F9
:1045100012789A4208D00D490D4A41F823404FF4D1
:104520008013C2F80031F8BD531CDBB2022B08BF68
:1045300000230B70EFE700BF00100140C094022081
:10454000BC940220B9940220B8940220B0940220B6
:1045500000E100E02DE9F04FB14AB2491378097843
:10456000B14E994285B0356800F089810133DBB2E4
:10457000022B08BF0023AD491370AD4AD1F800C02B
:1045800052F823200CEB020323F07F430B60002D35
:1045900000F0C4812B689A42C0F07481002738462D
:1045A000BE4603E00B68934200F26E81EC68C5F8EA
:1045B00000E0D21A1844E9693CB10CEB000323F087
:1045C0007F43C5E90134EF612F460D460029E9D14B
:1045D000002535604FF0010A964B9749DFF86C9241
:1045E00043F0010301934FF00008002F33D0D7E9C7
:1045F00001BE3C46FF698D4B90481A68ABEB020345
:1046000023F07F43834200F2018173442360002042
:104610003268E061C4E9010001202074002A00F042
:10462000F3801068984208D3DFE0DEF800C0DC4574
:1046300080F0E08072465B466046D2F81CE0A3EB57
:10464000000BBEF1000FF0D1C4F800B0C4F81CE0BC
:10465000D461002FCBD191F801E0087886454AD08B
:1046600084460CEB4C0C8B7801EBCC0C421CD0B28A
:1046700083429CF80430087004BF00200870022BAD
:10468000DCF8084025D0032B19D0012BE6D1237C80
:10469000002BE3D1DCF80CB0C4F804B0DCF810E077
:1046A000C4F808E0DCF81420E26099F80020DCF897
:1046B0001800A061002A9ED063609B469BE7336888
:1046C000002BCBD000221A74DB69002BFBD13360A6
:1046D000C1E733685BB19C4200F0BA809B4602E0C0
:1046E000944261D09346DBF81C20002AF8D10023C5
:1046F00023748645B4D13668B8F1000F01D1AE42BB
:104700002CD086B3494A4E4B1468D3F80475DFF8B1
:104710003881366898F800203D1B25F07F45033529
:10472000002A00F0B880AE422CBFA4196419444A94
:1047300024F07F44C2F84045D2F80435DB1BE41B6B
:1047400023F07F4324F07F440333A34200F2BC8074
:10475000002389F8003005B0BDE8F08FBAF1000FF2
:10476000F6D0002ECED1364D364A324C4FF40031C1
:104770004FF480330127C2F880103C43C5F848331A
:104780004FF43C60C5F808336F60A047274BAF601B
:104790004FF43C601E60A0472B4B1E70002389F82D
:1047A000003005B0BDE8F08FA34553D0E069D4F8E0
:1047B00000E0CBF81C0000285BD09C4602687244E5
:1047C0000260634518BF4FF001080023087891F894
:1047D00001E023748DE7326800230120C4E900332F
:1047E000A360E36120747AB110683460C31A136067
:1047F000E261FAE66044C31ACEF80030C4F800B0B3
:10480000C4F81CE0D46124E73460EEE6A2EB0B02AE
:1048100022F07F427245DED2AEEB02032360F6E661
:10482000B8940220B9940220C0940220BC940220C3
:10483000B0940220003D0100A0930220FEFF7F0003
:104840000010014000E100E0AD940220AC94022091
:10485000A3462246D3F81CC0C6F800C0BCF1000F26
:1048600047D0D069D2F800E0CBF81C000028A5D1D1
:10487000A7E70023087891F801E0237439E70027BF
:10488000BA46A9E6294600279B1A0B6031600D46FF
:104890004FF0010AA0E62249224A4FF48030C3F8C3
:1048A00044034FF0010AC3F804034FF40030C1F889
:1048B000800142F001020860C3F800A04FF43C60A0
:1048C000904788F800A02EE7164BD2F80415C2F8DE
:1048D000401543F001034FF43C609847104B4FF4F0
:1048E0000032C3F80021002389F8003005B0BDE88C
:1048F000F08FCDE902320C4BDFF834E001209860F4
:10490000019B89F80000CEF800C04FF43C60984746
:10491000D6F800C00549DDE90232A2E72F4657E686
:1049200000E100E0003D010000100140A0930220E2
:10493000BC9402202DE9F8431F4D204E204FDFF894
:1049400098804FF480334FF400324FF00109002477
:10495000C6F8802047EA0907C5F848334FF43C60A1
:10496000C5F80833C5F80490B847C5F808904FF467
:104970003C60C8F80040B847124A134B13491C600A
:104980001470134B134A0C700B2114701C80997017
:104990004FF48012C023C6F8802186F814333260A9
:1049A000C5F8084586F81133D5F80435C8F8003045
:1049B0002046BDE8F88300BF0010014000E100E0A0
:1049C000003D0100AD940220C0940220B894022062
:1049D000A0930220B9940220BC94022000207047CA
:1049E0002DE9F04F4B6885B0002B71D00C46154671
:1049F000CDE9000205F02CFEE668AE4228BF2E4647
:104A00008246002E79D04FF000094A46CB464FF03F
:104A1000010813E00AEB02002A4607F019FBD4E96B
:104A200002325B1B551BC4F804B0C4E9023523B342
:104A3000002D08BF4FF000083A4636B3D4E9011301
:104A4000B3421D4628BF3546761BAF180029E1D179
:104A500093B12046524450F8101B4B68D3F8049091
:104A60002B46C847D4E902325B1B551BC4E902350B
:104A70009BB14FF00109DBE7E568B9F1000F0CD1FC
:104A80009DB9A8463A46002ED8D1009BC3F800A095
:104A90005F60404605B0BDE8F08F23681B681B6867
:104AA00023604FF00109002DEBD02168E1B1CDF872
:104AB00008B003E0A36821680133A3604B680022BB
:104AC0005D6802A80123A8470028F3D12061B3E75D
:104AD0000B681B681B68002B88D18B68002B85D165
:104AE000C0E900339846D4E76160002FCDD0019B28
:104AF000BB4288BF4FF00008C7E737464FF00108B8
:104B0000C3E700BF08B5002000F0D6FD8020BDE857
:104B1000084000F0D1BD00BF08B5002000F0E0FD66
:104B20008020BDE8084000F0DBBD00BF70B5C38841
:104B300093421D4628BF1546934284B00E4612D8B4
:104B4000002200200392CDE9016502F039FE01A99F
:104B5000802000F023FE044688B1002002F038FED9
:104B6000204604B070BD8020144605F065FCB4FBFF
:104B7000F0F303FB1042B2FA82F25209E1E705F0CA
:104B80000BFE80280BD1094A094B92E8030083E809
:104B90000300002002F01CFE204604B070BD00207F
:104BA00002F016FE1024204604B070BD503D0100F6
:104BB000F09402202DE9F04F0B78062B87B000F01F
:104BC0009E8055D90D2B00F0B48043D80B2B3CD0E0
:104BD0000C2B48D1BA4A1378002B36D0B94CBA48BE
:104BE0002178002321F00201217013701C4600F08F
:104BF000D3FE2BE0C3F34116002E40F0F080DB091A
:104C00009DF8021040F0B680032900F0C881092900
:104C100000F0AC81012940F0E280BDF80330012BA7
:104C200040F0DD8000F040FD002800F05282A54AEF
:104C3000137823F0020313702B68002B00F03C81E3
:104C400005F0AAFD0446002870D00024204607B0D5
:104C5000BDE8F08F0E2B3FD0852B04D1984B1A78EE
:104C6000032A00F022810624204607B0BDE8F08F19
:104C7000022BEAD01ED9032B6AD0052BF3D10DF1FC
:104C800001008DF8003005F025FD9DF801308F4DB5
:104C9000002203F01F042A60032C00F20B8101A202
:104CA00052F824F0F54B0000494E0000F34D00008F
:104CB000DF4D0000012BD6D1814B1A78032AD2D0C8
:104CC000804981480A78032422F002021C700A708D
:104CD000062400F061FEB9E7794B1A78012AB4D0B6
:104CE000784979480A78012422F002021C700A707F
:104CF00000F052FE0024204607B0BDE8F08FC878CF
:104D000003280D46AFD0714E3368002B00F0CB80E6
:104D100000223260716898470446002866D13368E3
:104D2000002B00F0E080AB78002B8ED105F0F8FC72
:104D30008CE74FF08042624BD2F838141A78C907DA
:104D400015D5022A81D05F495F480A780224CBE753
:104D50005F48FFF73FFB00283FF477AF5D4B012230
:104D60001A60BFF36F8FBFF34F8F00246EE7012AE5
:104D7000B6D16AE7062900F03781082900F01F81C3
:104D800069BB554E0222304607F0FCF94D4A337894
:104D90001278920743F0010148BF43F003033170DA
:104DA00048BF3370BDF80730022B1C4628BF0224D1
:104DB000022B00F2C38100230020CDE90364059398
:104DC00002F0FEFC03A9802000F0E8FC0446002865
:104DD00000F06F81002002F0FBFC062C06D1684633
:104DE00000F0C6FC0446002C3FF426AF05F0CAFCD8
:104DF0002CE79DF80500040707D0694600F0A2FCE7
:104E000006280446EFD19DF80130C3F34114002C6D
:104E100050D19DF802302A4A9DF805601278012B86
:104E200000F09380002B6CD0032B43D1330741D487
:104E3000BDF80330002B3DD1052A01D037075ED1E4
:104E4000304605F009FCF7E603A99DF8050000F0DF
:104E50004FFC0646002844D06A469DF80C1000F02E
:104E60006DFC06280446BED19DF8013013F0600F9A
:104E7000BCD1134A9DF80C1012789DF802C0DF09CE
:104E800040F04681BCF10B0FB0D1052A37D1BDF8F7
:104E90000330FF2B00F21B8130469DF8032000F009
:104EA000A5FC04469FE70E24A0E7064906480A78B9
:104EB000042409E7062499E705F05AFC0024C5E616
:104EC000D0940220EC940220183D0100F0940220BE
:104ED000F89402205C700240FC940220204602F00C
:104EE00077FC102482E7B04B1B68082B02D005F03A
:104EF0003FFCABE6AD4B1B68002BF8D1A5E60824C0
:104F000074E7052A01D03107F9D1304605F0B0FB2E
:104F1000BDF80730A64E022B1F4628BF0227022BE2
:104F2000308000F2E98000200594CDE9036702F0AB
:104F300047FC03A9802000F031FC0446002800F063
:104F4000B880002002F044FC50E73407B2D4BDF82A
:104F50000330002BAED1052A01D03007CFD1304627
:104F600005F0A8FB304605F097FE65E6914C2378E6
:104F7000043B012BC3D89DF80330002B00F0AB801D
:104F8000012B40F0A48000F06DFC2378052B3FF44A
:104F900053AE05238848237000F0FEFC4CE6BDF8B4
:104FA0000330012B7FF41BAF00F07EFB002800F0E4
:104FB0009080824A137843F0020313703CE67D4AE6
:104FC0001278052A00F0C680042A7FF408AF784BD7
:104FD0001E700DF1010001227549FFF7A7FD04467F
:104FE000062C7FF400AFFAE69DF80430022B12D0B5
:104FF000032B00F0B280012B7FF4F1AEBDF8073037
:10500000002B3FF459AF0DF1010012226C49FFF75C
:105010008DFD0446E4E7BDF80730002B3FF44CAFAC
:10502000092B28BF0923994600F05CFB074600289E
:1050300000F0B780B3464FF0090ACDF80CB04FF03E
:10504000000801E008F101087A6801235668394632
:10505000002203A8B0470028F4D13A683B7A1768C9
:105060001C44C244E4B2002FE7D1514E55493046AA
:105070004A4606F0EDFF3471A6F802A000F014FBDA
:1050800018B1F37943F02003F37100F02BFB4E4B82
:10509000BDF8072018600020C3E90169DA6002F05A
:1050A0008FFB4A49802000F08DFB044600287FF4E6
:1050B00091AE05F071FB80287FF410AF444B93E86C
:1050C000030085E80300204602F082FBB4E50724D4
:1050D0008CE60F248AE600F019FC2378042B3FF4B9
:1050E000ABAD364A34481378042123F00203137021
:1050F000217000F051FC9FE5802005F09DF902230E
:10510000B3FBF0F303FB00F39A1E544254410AE749
:10511000BCF1000F37D0BCF10A0F7FF467AE052A4F
:105120007FF4EDAE304600F097FB21493A46087017
:105130000DF10100FFF7FAFC044654E6802005F06B
:105140007BF90223B3FBF0F303FB00F39F1E7B42CA
:105150007B4131E6164A13703BE7BDF80730002B60
:105160003FF4AAAEBDF805109DF8030000F076F8F4
:10517000014600283FF433AE0DF101000A78FFF735
:10518000D5FC04462CE7052A7FF4B9AE084B0DF197
:10519000010019460222A3F800C0FFF7C7FC04462D
:1051A00021E64FF0090A60E73001001034010010D9
:1051B000FC940220D0940220183D0100EC940220BF
:1051C0003C3D01001C3D0100D4940220583D0100EB
:1051D000503D010038B505460C4605F0DDFAA84201
:1051E00007D194E80300044A82E80300002318462C
:1051F00038BD1023184638BDF094022008B1402372
:1052000003600148704700BFFC94022070B54FF066
:10521000805286B0D2F8A830D2F8A42000926FEA6B
:1052200083436FEA93439BB202A80A4A0A4E0D21B8
:1052300007F00CF802AD002404E015F8013B06F875
:10524000013B013402A807F05BF88442F5D306B0B5
:1052500070BD00BF603D01003C99022020B30528CD
:1052600027D8164B185C18B3154B10B553F82040CF
:10527000E4B123780BB9A01C10BD0020FFF7BEFFDE
:105280002178C1B12246C4F101041319DBB220F820
:10529000131012F8011F0029F7D101335B00DBB2B4
:1052A00043F44073038010BD06487047204610BD8C
:1052B00070470020704740F20233F3E7CC3D010015
:1052C000B43D01006E3D01000378052B02D0094B6F
:1052D0001B681847084BD3F88424D3F8803413F0A4
:1052E000FF0FF4D1054BD2B2052A08BF1846014B77
:1052F0001B6818473C950220007002402C3E0100BC
:10530000014B02481B6818473C950220303E0100C3
:10531000012807D050B1022803D1064B06481B686C
:1053200018477047034B05481B681847014B044852
:105330001B6818473C950220283E0100243E0100CE
:10534000203E01002DE9F04F87B000250446894634
:1053500092469B460295A84601E008F10108626862
:10536000012355682146002202A8A8470028F4D14D
:105370008DF806000490B8F1000F2AD005460646C5
:105380000AE09DF806306768023B7F68B8479DF8E1
:1053900006301E44B0451CD9626801235768214677
:1053A0000DF1060204A8B847626801235768214638
:1053B0000DF1070204A8B8479DF807304B454FF0A0
:1053C0000002214604A8DCD1AA4506D00135EDB281
:1053D000D7E7052007B0BDE8F08F109A9DF806309A
:1053E00013608BF800308BF801906168023B4D68C8
:1053F0000BF102022146A847002007B0BDE8F08F5C
:105400002DE9F041054682B0384804F001FE04461B
:1054100018B1204602B0BDE8F081354A3549364B17
:1054200014700C604822214634481C6006F0AAFE25
:1054300021464822324806F0A5FE002D4FD095E8BF
:105440000700304B83E8070000283FD0002002F01F
:1054500095FB08B185283CD12B4D294F2B7A6E68DE
:10546000DFF898E005F109004FF0030C1CFB030C7A
:1054700060451ED0E8B14378C3B18278821815D058
:1054800003F1FF38114652FA88F8013A12F8014F39
:1054900004F00F03DB0024064CBF7344DB19904576
:1054A0001D6034685C6001D00131EFD1033060458C
:1054B000E0D10B238DF804303368134801A99847D5
:1054C00004460028A5D004F037FEA2E70F4A1A6070
:1054D000BCE70F4A40F2393102F034F9BCE7094B1E
:1054E0000A4A5D601D721A60B0E700BFC952000031
:1054F000E1950220D8950220DC95022048950220F3
:10550000909502203C950220083D01009959000029
:10551000DC3D010010B504F02BFF80B104F030FF3A
:10552000044660B9074802F03DFB034640B1064A15
:105530004FF4677102F006F92346184610BD0823A0
:10554000184610BD1C3E0100DC3D010004F0FEBD0C
:1055500005F0A8BE0B4B1B681BB11B681B68002B1A
:10556000FBD14FF0804303E0D3F83824D10707D5AF
:10557000D3F838249207F7D5034B04481B68184723
:10558000704700BFD89502203C950220343E0100B0
:1055900000B5054B83B082221B688DF8042001A85A
:1055A000984703B05DF804FB3C9502202DE9F043D9
:1055B000057A83B07DB36B1E00F10906DBB231467C
:1055C00003EB430300F10C0C344FDFF8D4E01E442E
:1055D000ACEB010C4FF000084C780022944215D03F
:1055E0008B781344D94211D011F8039009F00F03BE
:1055F000DB0019F0800F14BF7344DB1901321B6804
:10560000002BEBD0112003B0BDE8F0838E4202D016
:1056100061444145E0D10021CAB2954200F109043C
:105620001E4E1F4F27D902EB4202A21823D05378F7
:10563000EBB19378D31818BF4FF0010C17D01D7839
:1056400005F00F03DB002D064CBFDB199B1918601A
:1056500045682D685D60537863450CF1010505D9F7
:1056600093786344D3185FFA85FCE8D1057A013159
:10567000CAB29542D7D80B4A13681BB11A6813688F
:10568000002BFBD1106043680B228DF804201B68AF
:1056900001A9984703B0BDE8F08300BF90950220B0
:1056A00048950220D8950220024B1878003018BF88
:1056B00001207047E0950220030710B5044604D589
:1056C0002046BDE8104005F091BA04F0F3FF2046F3
:1056D00005F0E2FA2046BDE8104005F087BA00BFA9
:1056E00005F050BC014B1868704700BFD8950220E8
:1056F00070B4114B1E68A6B1357A75B1737A8342C6
:1057000012D03246002302E0547A84420DD0013395
:10571000DBB29D4202F10302F6D133681E68002E0F
:10572000EAD1304670BC704700230029F9D03046DA
:105730000B7070BC704700BFD895022043681146BB
:105740001B68184700F00F03082B0AD802064CBF4D
:10575000054A064ADB001344186810B143681B6809
:1057600018471020704700BF4895022090950220EE
:1057700038B5094B1C6864B1054602E023681C6813
:105780003CB1636829461B68204698470628F5D037
:1057900038BD062038BD00BFD895022038B50D466B
:1057A000044604F059FE18B1054B1B78022B01D0BA
:1057B000082038BD29462046BDE8384004F05CBECC
:1057C000E195022038B50D46044604F045FE18B1B7
:1057D000054B1B78022B01D0082038BD29462046F6
:1057E000BDE8384004F0DEBEE1950220F8B543681C
:1057F0009B6806460D4614461BB19847062800D004
:10580000F8BD14BB337AAB4224D9093605EB450504
:1058100035446F78BFB1013FFFB204E001346A78CC
:10582000E3B29A4213D9AB782A19D65C330705D470
:10583000304604F03FFF304605F02EFA304605F0C2
:10584000D5F9A742EAD10020F8BD0720F8BD002312
:105850001B78FFDE6378FFDE43681B6903B11847DE
:10586000184670472DE9F047274BD3F80090B9F15F
:10587000000F44D099F808A0BAF1000F38D00027E3
:105880003C4609F1090505E00137FCB2A24505F1E6
:1058900003052DD9D9F804309B682BB1002221468D
:1058A000484698470628EFD199F80830A34228D9EE
:1058B0006B78002BE8D003F1FF385FFA88F80024FA
:1058C000AB782A19D65C330705D4304604F0F2FED3
:1058D000304605F0E1F9304605F088F94445D3D06B
:1058E00001346A78E3B29A42EAD800231B78FFDEDB
:1058F000D9F80030D3F80090B9F1000FBAD1BDE863
:10590000F08700235B78FFDED89502202DE9F8436D
:10591000204BD3F80090B9F1000F32D099F80880ED
:10592000B8F1000F26D000273C4609F10905D9F847
:105930000430DB6813B121464846984799F808308F
:10594000A34220D96B787BB1013BDEB2002404E096
:1059500001346A78E3B29A4218D9AB782A19D05C3C
:1059600005F010FBB442F3D10137FCB2A04505F1BC
:105970000305DCD8D9F80030D3F80090B9F1000F56
:10598000CCD1BDE8F88300235B78FFDE00231B78D1
:10599000FFDE00BFD895022070B503780446852B42
:1059A00000F2BF80DFE813F0FC01AE01BE00180278
:1059B0004602E300EA00BD00020115012801BD0016
:1059C000BD00BD00BD004A01BD00BD00BD00BD0061
:1059D000BD00BD00BD00BD00BD00BD00BD00BD00DF
:1059E000BD00BD00BD00BD00BD00BD00BD00BD00CF
:1059F000BD00BD00BD00BD00BD00BD00BD00BD00BF
:105A0000BD00BD00BD00BD00BD00BD00BD00BD00AE
:105A1000BD00BD00BD00BD00BD00BD00BD00BD009E
:105A2000BD00BD00BD00BD00BD00BD00BD00BD008E
:105A3000BD00BD00BD00BD00BD00BD00BD00BD007E
:105A4000BD00BD00BD00BD00BD00BD00BD00BD006E
:105A5000BD00BD00BD00BD00BD00BD00BD00BD005E
:105A6000BD00BD00BD00BD00BD00BD00BD00BD004E
:105A7000BD00BD00BD00BD00BD00BD00BD00BD003E
:105A8000BD00BD00BD00BD00BD00BD00BD00BD002E
:105A9000BD00BD00BD00BD00BD00BD00BD00BD001E
:105AA000BD00BD00BD00BD003B0186005E0174026B
:105AB000DF01E3008A4B8B49D3E9000290478A4B10
:105AC0001C684CB1874D636820461B68294698477F
:105AD00023681C68002CF6D1844C63680BB10D2040
:105AE0009847FFF713FFFFF717F8814B1B68002B50
:105AF00000F0F98101207F4D04F006FC2A78931E06
:105B0000DBB2062B0BD87C49CB5C13B102F01CF83E
:105B10002A78022A01D0082A01D104F073FC01235B
:105B20002B7070BD734D2A78931EDBB2062B0BD8F9
:105B30007149CB5C13B102F007F82A78022A01D030
:105B4000082A01D104F05EFC684B5B6803222A70CE
:105B50000BB102209847644B1D6845B16B6828461D
:105B60001B68214698472B681D68002DF6D15C4BB9
:105B70002146D3E90002BDE8704010478278110643
:105B800002F00F034CBF5D4A554ADB001344D3E9D2
:105B90000002214690470028C3D0A0780207C0D059
:105BA0000307BED4BDE8704004F056BD4F4B5B68A0
:105BB0000BB1082098474C4B1D68002DB1D06B6885
:105BC00028461B68214698472B681D68002DF6D192
:105BD000A7E7464B5B680BB109209847424B1D680D
:105BE000002D9ED06B6828461B68214698472B687D
:105BF0001D68002DF6D194E73C4B5B680BB10A2081
:105C00009847394B1D68002D8BD06B6828461B6860
:105C1000214698472B681D68002DF6D181E7354D48
:105C20002B78062B00F06181072B02D0052B7FF427
:105C300078AF04F0F1FB02232B7070BD2B4B5B6837
:105C40000BB10F209847284B1D68002D3FF469AF1A
:105C50006B6828461B68214698472B681D68002DF5
:105C6000F6D15EE7234DFFF751FE05F0B7F82A782D
:105C7000931EDBB2062B0BD81F49CB5C13B101F08E
:105C800063FF2A78022A01D0082A01D104F0BAFB66
:105C9000154B1C6800232B704CB1194E63682046CD
:105CA0001B683146984723681C68002CF6D10C4BC2
:105CB0001349D3E9000290470C4B5B680BB10E20EF
:105CC00098472B78023BDBB2062B3FF62AAF0A4AF5
:105CD000D35C002B3FF425AFBDE8704001F034BF2A
:105CE00090950220383E0100D89502203C95022074
:105CF000DC950220E1950220D43D01004895022068
:105D00003C3E0100924DFFF701FEFEF7FBFE2A78B4
:105D1000931EDBB2062B00F2D9808E49CB5C002BA0
:105D200000F0D480022A03D0082A01D004F074FBCA
:105D3000894B5B6802222A700BB101209847874B80
:105D40002146D3E900029047854B1D68002D3FF4A2
:105D5000E8AE6B6828461B68214698472B681D688B
:105D6000002DF6D170BD7A4D2B78032B00F0C68044
:105D700004F010FB00283FF4D4AE2A78931EDBB267
:105D8000062B40F2DF80774801F062FE2A78022A73
:105D900001D0082A01D104F035FB06232B7070BD19
:105DA0006B4B1B78032B00F0A580082B00F0A28022
:105DB000694B5B680BB1002098476B4B1D68002D49
:105DC0003FF4AFAE6B6828461B68214698472B68A6
:105DD0005D68002DF6D170BD5D4D2B78082B7AD013
:105DE0009A1ED2B2062A40F2A2805E4801F030FE2E
:105DF0002B78022B01D0082B01D104F003FB0523E3
:105E00002B70554B5B680BB103209847534B2146D1
:105E1000D3E900029047524B1D68002D3FF481AE3C
:105E20006B6828461B68214698472B681D68002D23
:105E3000F6D170BD484B5B680BB103209847474BC8
:105E40004A49D3E900029047454B1C684CB1474D85
:105E5000636820461B682946984723681C68002C05
:105E6000F6D13B4D2B78062B3AD0082B0DD09A1E3D
:105E7000D2B2062A61D93B4801F0EAFD2B78022B09
:105E800003D0082B01D004F0C7FA02232B7070BD99
:105E90002F4D2B78032B7FF444AE05F029F9002811
:105EA0003FF43FAE2A78931EDBB2062B0BD829496C
:105EB000CB5C13B101F048FE2A78022A01D0082AEF
:105EC00001D104F09FFA04232B7070BD254801F026
:105ED000BFFD2A7826E702232B7004F0A7FA90E78B
:105EE00007232B7070BD207A05E604F095FA08238D
:105EF0002B7070BD1E48FFF74FFD59E705F0F8F80D
:105F000000283FF435AF2A78931EDBB2062B0BD85E
:105F10001049CB5C13B101F017FE2A78022A01D098
:105F2000082A01D104F06EFA04232B7020E70949F6
:105F30008A5C002A7FF45DAF57E706498A5C002A35
:105F40009DD198E70349CB5C002B7FF420AF1AE783
:105F5000E1950220D43D01003C950220909502205D
:105F6000D895022074000020DC950220443E0100F8
:105F7000403E01002DE9F0410468924E0D7A3570E3
:105F800040F21E37BC4200F0F68440F22581B4F5A1
:105F90004C7F00F0568440F2F680B4F5537F00F059
:105FA000E58440F2D78040F25D35AC4200F0C18319
:105FB00012D940F26335AC4200F01A83B4F55A7F2F
:105FC00000F0168340F25E35AC4200F09884002366
:105FD00003601846BDE8F08140F25135AC4203D071
:105FE00040F25635AC42F2D1012500240AB10779BE
:105FF00017554024AB42047140F237846C1C002AD0
:1060000000F04584077957559C424FF00005057113
:1060100080F0AB83171901343D706B4D0F7D2D68F7
:106020002D78AF4200F027848F7DAF4209D1002543
:106030009C42057180F05B86254601340AB10779E0
:106040005755DFF890C1614F9CF800503F780135FB
:10605000EDB28CF80050AF4200F27483DFF870C1EB
:1060600035789CF800700137FFB28CF80070AF42B1
:1060700080F071830925A342057140F2E985651C12
:10608000002A00F0BE8507791755AB424FF0040493
:10609000047140F28785274602EB050C6C1C8CF8D6
:1060A00000700D7A4A4F3F78AF4280F0358607EB9B
:1060B000470701F10905DFF810C115F807E080F87E
:1060C00004E02F44A342CCF8007040F23D85671CE9
:1060D000002A00F0458505791555BB424FF00004B4
:1060E000047140F21F85384DA4462C687D1C02F8CF
:1060F00007C0AB426778077140F2028502EB050CDE
:1061000001358CF8007024780F7DA74200F0E584FB
:106110008F7DA74240F0F1820A24AB42047140F225
:10612000F2856C1C002A00F04385077957554FF023
:10613000000CA34280F804C040F29B85651C002738
:10614000AB4202F804C0077140F23A855419013598
:106150002770D2E240F23335AC4200F08184B4F5CE
:106160004D7FC0F0908140F24735AC4200F0648230
:10617000B4F5527F7FF42BAF002A00F01583077926
:106180009446012469E240F22635AC4200F02384B3
:1061900040F2AB8140F22B35AC4200F0F483B4F511
:1061A0004B7FC0F0868100F0298240F22F35AC424F
:1061B0007FF40DAF002A00F0138307799446012481
:1061C000B7E000BFE4950220E8950220E2950220A6
:1061D000E3950220E5950220B4F5407F00F02E8380
:1061E00040F2F48040F20D35AC4200F0A88240F25B
:1061F000D78040F21635AC4200F09E8240F2BE805D
:10620000B4F5477F00F0008400F2168440F21B359D
:10621000AC427FF4DCAE01250024002A00F0D684D5
:10622000077917559D424FF02404047180F0A5842E
:10623000274605F1010C002463455755047140F2CF
:106240007D8425460CF101071024BB4202F80C5056
:10625000047140F26184254607F1010C0124634575
:10626000D555047140F2468425460CEB04070524FD
:10627000BB4202F80C50047140F22984254607F114
:10628000010C24246345D555047140F2148425463D
:106290000CF101070124BB4202F80C50047140F2DA
:1062A000FE83254607EB040C03246345D555047192
:1062B00040F2EF830CF1010702F80C40BB4291F869
:1062C00016C080F804C040F2DE837C1C0425A34283
:1062D00002F807C0057140F2D08302EB040C2F4690
:1062E00001342425A3428CF80070057140F2BF836D
:1062F0002F46651C1755AB424FF00204047140F263
:106300004A8202EB050C274601350224AB428CF889
:106310000070047140F2728327466C1C5755A342EB
:106320004FF00505057140F22C8202EB040C2F465C
:1063300001342425A3428CF80070057140F22A83B1
:106340002F46651C1755AB424FF00604047140F20E
:106350003C83571901353C700F7D0771AB4240F209
:10636000E7826C1C5755A3428D7D057140F20E8269
:10637000171901343D70D14D2D68CFE140F20E3533
:10638000AC4200F0C48240F20F35AC427FF41FAE45
:10639000002A00F005821446077927700125ACE138
:1063A00040F20635AC4200F08F812DD940F207351E
:1063B000AC4200F0FC82B4F5427F7FF408AE002AC4
:1063C00000F0EE8104799446012594E1B4F53C7F18
:1063D00000F022833ED940F2F327BC4200F0E08275
:1063E000B4F53D7F23D340F2FA27BC4200F063812D
:1063F00040F2FB27BC427FF4EAAD002A00F0D281D4
:106400000779944601244AE640F20135AC4200F097
:106410001C8340F20235AC427FF4D9ADA74C24680E
:10642000002A00F0E18107799446012569E640F2EF
:10643000F127BC4200F0738240F2F227BC427FF4A5
:10644000C6AD002A00F0CE8190F804E001244FF0A0
:10645000000CA9E040F2ED27BC4200F046825BD977
:1064600040F2EE27BC4200F0378240F2EF27BC42F8
:106470007FF4ADAD002A00F0998107794FF0010853
:106480004FF0000C72E040F23135AC4200F01D825A
:1064900040F23235AC427FF49AAD01240025002A47
:1064A00040F077838D7D0571A34240F26F81013406
:1064B00061E740F22935AC4200F0808240F22A3593
:1064C000AC427FF484AD01250024002A40F06483AF
:1064D0000224AB42047140F25E8101350224AB42DA
:1064E000047140F28B826C1C8DE040F22335AC428B
:1064F00000F03482B4F5497F68D300F0278240F27F
:106500002535AC427FF463AD002A00F06F81047939
:1065100001274FF0000CCFE6002C00F06482B4F5A8
:106520003B7F7FF454AD002A00F07F830479147020
:10653000012B4FF00B04047140F2A1834FF0030CC8
:1065400002274FF0010E02F80E40BB4291F814E012
:1065500080F804E040F2FE820224634502F807E07E
:10656000047140F2E58227460CF1010802244345FC
:1065700002F80C70047140F2C982274608F1010E3E
:106580000224734502F80870047140F2AD820EF1E6
:10659000010C02F80E40634591F819E080F804E020
:1065A00040F28F820CF101040027A34202F80CE0B4
:1065B000077140F27A8202EB040C01348CF800700F
:1065C000DFF800C100278CF8007050E540F21F355D
:1065D000AC4200F0B38140F22235AC427FF4F7AC1C
:1065E000002A00F0178105794FF0010C002748E6DA
:1065F00001240025002A7FF422AD22E50124002594
:10660000002A40F0CC820525A342057140F2B980F2
:1066100001342425A342057140F2BC81651C062487
:10662000AB42047140F2D18101350C7D0471AB4263
:1066300040F27E816C1C35E701250024002A00F021
:10664000998007791755AB424FF00504047140F269
:106650002581274602EB050C6C1C8CF80070174F47
:10666000174D3F682D7897F801C0AC4540F2518333
:1066700097F802C03D44A34215F80C50057140F252
:106680001381651C1AB190F804C002F804C03C786C
:106690000F7DA74200F00E818F7DA7427FF4A9AC49
:1066A00002249D42047180F028832C460135002A83
:1066B0007FF49DAC9DE401250024E1E4E8950220EF
:1066C000E5950220E395022001240025002A00F030
:1066D000C58207795755A3424FF00205057140F274
:1066E0009E82671C1555BB424C7E047140F24B8262
:1066F00002EB070C7D1C8CF800400024AB420471B7
:1067000040F2A6806C1C0AB107795755C74D91F825
:1067100014C02D682F78BC4500F0A080DFF810E38E
:10672000DFF810C36F788EF8007000258CF80050E9
:1067300091E40124002562E401240025E3E701241B
:106740000025EFE40725A342057109D9651C002A3D
:106750007FF477AF0EE040F273330360012039E439
:1067600040F247330360012034E440F25E330360BB
:1067700001202FE40524AB42047140F28F806C1C91
:106780006DE740F22F330360012023E440F23333FE
:10679000036001201EE440F22B330360012019E462
:1067A0000125AAE701247DE4012458E701240227FA
:1067B000A342077140F2AA8101340227A342077164
:1067C00040F2928101344F7E0771A34240F27981F9
:1067D00001340027A342077140F267810134EFE6DC
:1067E000012416E70124F4E701258CE401248D7DC2
:1067F0000571A34240F2478101340425A34205718B
:1068000040F23B8101342425A342057140F22F81DF
:10681000651C5DE601242425A342057140F24B81ED
:1068200001340125A342057140F239812C4403252E
:10683000A342057140F22D810134D8E701270024DD
:1068400046E401250024002A3FF4E9AE077979E502
:1068500040F2163303600120FFF7BCBB0525A342BD
:10686000057140F2D681651CD7E440F25D330360C8
:106870000120FFF7AFBB0D6A9C422D780571FFF434
:10688000DBAB40F2633303600120FFF7A3BB9C4204
:106890000271BFF46AAF0134FFF7BFBB4FF452730C
:1068A00003600120FFF796BB4FF453730360012090
:1068B000FFF790BB03249D420471FFF4F6AE40F253
:1068C000513303600120FFF785BB002A00F0EF8100
:1068D0000479174601253EE5002A00F0EA8190F888
:1068E00004E04FF0010C002736E6002A00F0E381B7
:1068F00004794FF0020C01274FF0000E23E6002A26
:1069000000F0D281057917460124FFF785BB002AE4
:1069100000F0C48190F804C0012500240FE4002A8F
:1069200000F0BE8104794FF0010C4FF0000E30E60C
:1069300040F2323303600120FFF74CBB002A00F025
:10694000BD81057901274FF0000C90E4002A00F08A
:10695000BD8105794FF0010C0027A5E4002A00F065
:10696000B781057901274FF0000C93E42F4C0125E6
:106970002768002486E6002A00F0A28105794FF0FE
:10698000010C00276AE4002A00F0A88107799446E8
:106990000125BAE44FF44C7303600120FFF71ABBE2
:1069A000002A00F08F8107799446012406E6002A28
:1069B00000F0908105790127002493E6002A00F079
:1069C00071810779944601248BE440F231330360EE
:1069D0000120FFF7FFBA002A00F0768190F804C08A
:1069E0000124002772E408240471002B7FF49BAD7E
:1069F0004FF43B7303600120FFF7ECBA4FF44B7385
:106A000003600120FFF7E6BA002A00F06A810779E7
:106A10004FF0010C00250EE4002A00F05D8107799B
:106A20004FF0010E4FF00008AAE500BFE8950220E4
:106A3000E2950220E5950220002A00F054810579B4
:106A400001274FF0000CFFF7FFBBB64C2468002A6B
:106A500000F04B8190F804C001250027FFF747BBE9
:106A6000002A00F0188105791746012482E440F2DB
:106A70002A3303600120FFF7ADBA40F229330360E7
:106A80000120FFF7A7BA40F2263303600120FFF789
:106A9000A1BA40F2253303600120FFF79BBA4FF4FF
:106AA000497303600120FFF795BA40F2F3230360B6
:106AB0000120FFF78FBA40F2233303600120FFF774
:106AC00089BA40F2F22303600120FFF783BA40F253
:106AD000223303600120FFF77DBA0224AB42047128
