:1010000080AE002039C50000A9C1000025C5000040
:1010100025C5000025C5000025C500000000000012
:101020000000000000000000000000003DC70000BC
:1010300025C50000000000009DC6000025C5000079
:1010400061CA000061CA000061CA000061CA0000F4
:1010500061CA000061CA000061CA000061CA0000E4
:1010600061CA000061CA000061CA000061CA0000D4
:1010700061CA000061CA000061CA000061CA0000C4
:1010800061CA000061CA000061CA000061CA0000B4
:1010900061CA000061CA000061CA000061CA0000A4
:1010A00061CA000061CA000061CA000061CA000094
:1010B00061CA000061CA000061CA000061CA000084
:1010C00061CA000061CA000061CA000061CA000074
:1010D00061CA000061CA000061CA000061CA000064
:1010E00061CA000061CA000061CA000061CA000054
:1010F00061CA000061CA000061CA000061CA000044
:1011000030B490F800F020F007016FF0000C10F000
:10111000070491F820F040F048804FF000046FF091
:101120000700D1E9002391F840F000F1080082FAAD
:101130004CF2A4FA8CF283FA4CF3A2FA8CF34BBB78
:10114000D1E9022382FA4CF200F10800A4FA8CF2F1
:1011500083FA4CF3A2FA8CF3E3B9D1E9042382FABF
:101160004CF200F10800A4FA8CF283FA4CF3A2FAD4
:101170008CF37BB9D1E9062301F1200182FA4CF20C
:1011800000F10800A4FA8CF283FA4CF3A2FA8CF373
:10119000002BC6D0002A04BF04301A4612BAB2FA95
:1011A00082F200EBD20030BC7047D1E9002304F09A
:1011B0000305C4F100004FEAC50514F0040F91F8CF
:1011C00040F00CFA05F562EA05021CBF63EA05036C
:1011D00062464FF00004AAE7000000000000000093
:1011E00002780B78012A28BF9A4240F0D8806DE936
:1011F000044540EA0104CDE902676FF0000C4FEAB4
:1012000044721AB380EA010414F0070F6BD100F0A6
:10121000070420F0070004F0030521F007014FEA5E
:10122000C505F0E8042314F0040FF1E804670CFA94
:1012300005F462EA040266EA04060BD063EA0403DA
:10124000624667EA0407664604E000BFF0E804234C
:10125000F1E8046782FA4CF582EA0604A4FA8CF4F9
:101260006CBB83FA4CF583EA0705A5FA8CF595B9B2
:1012700050E9022351E9026782FA4CF582EA06043A
:10128000A4FA8CF483FA4CF583EA0705A5FA8CF5E9
:101290002543DBD09CB92DBAB5FA85F424F00704B8
:1012A00027FA04F1DDE9026723FA04F303F0FF00F3
:1012B00001F0FF01FDE80445A0EB0100704724BAEE
:1012C000B4FA84F424F0070426FA04F1DDE9026795
:1012D00022FA04F202F0FF0001F0FF01FDE80445EC
:1012E000A0EB0100704714F0030F3CD110F0030491
:1012F00028D150F8082B51F8083B82FA4CF582EAC5
:101300000305A5FA8CF55DB950F8042C51F8043C9E
:1013100082FA4CF582EA0305A5FA8CF5002DE8D097
:101320002DBAB5FA85F424F0070423FA04F122FA61
:1013300004F202F0FF0001F0FF01FDE80445A0EB1C
:10134000010070474FEAC40420F0030050F8082B56
:1013500021F0030151F8083B0CFA04F462EA04029C
:1013600063EA0403C9E710F003041DD0A1EB0401F4
:1013700020F00300E40750F8042B06D012D28B783B
:101380005FFAA2F4E41A06D12BB1CB785FFAB2F47B
:10139000E41A00D133B920465DF8104B7047A2EB38
:1013A0000300704701F1040150F8042BCC0721F031
:1013B000030151F8043B48D824D222F07F4482FA3A
:1013C0004CF594EA1325A5FA8CF50AD165B951F8C4
:1013D000043B84EA0204B4EB036F0ED150F8042BF3
:1013E000EBE74FEA132355E035F07F454DD1087800
:1013F000FDE80445C0F1000070474FEA126203F0B7
:10140000FF0347E002EA1C4482FA4CF594EA1345D4
:10141000A5FA8CF50AD165B951F8043B84EA0204B7
:10142000B4EB034F0CD150F8042BEBE74FEA134316
:1014300030E015EA1C4528D10B884FEA124229E01A
:101440004FEA124203EA1C4324E002F0FF0482FA4E
:101450004CF594EA1365A5FA8CF50AD165B951F8F3
:10146000043B84EA0204B4EB032F09D150F8042BA7
:10147000EBE74FEA13630DE015F0FF0F05D10B68A2
:101480004FEA122223F07F4304E04FF00000FDE812
:101490000445704712BA1BBA82FA4CF482EA03047C
:1014A000A4FA8CF5B5FA85F402FA04F203FA04F30F
:1014B0004FEA1260FDE80445A0EB1360704700BFDF
:1014C00081F0004102E000BF83F0004330B54FEAF5
:1014D00041044FEA430594EA050F08BF90EA020F62
:1014E0001FBF54EA000C55EA020C7FEA645C7FEAF5
:1014F000655C00F0E2804FEA5454D4EB5555B8BF18
:101500006D420CDD2C4480EA020281EA030382EA88
:10151000000083EA010180EA020281EA0303362D1A
:1015200088BF30BD11F0004F4FEA01314FF4801CED
:101530004CEA113102D0404261EB410113F0004FFF
:101540004FEA03334CEA133302D0524263EB4303B6
:1015500094EA050F00F0A780A4F10104D5F1200E54
:101560000DDB02FA0EFC22FA05F2801841F10001AF
:1015700003FA0EF2801843FA05F359410EE0A5F183
:1015800020050EF1200E012A03FA0EFC28BF4CF0B4
:10159000020C43FA05F3C01851EBE37101F000456A
:1015A00007D54FF0000EDCF1000C7EEB00006EEB77
:1015B0000101B1F5801F1BD3B1F5001F0CD3490801
:1015C0005FEA30004FEA3C0C04F101044FEA445258
:1015D00012F5800F80F09A80BCF1004F08BF5FEADF
:1015E000500C50F1000041EB045141EA050130BDBF
:1015F0005FEA4C0C404141EB0101013C28BFB1F5D1
:10160000801FE9D291F0000F04BF01460020B1FA1B
:1016100081F308BF2033A3F10B03B3F120020CDAEE
:101620000C3208DD02F1140CC2F10C0201FA0CF0CC
:1016300021FA02F10CE002F11402D8BFC2F1200C31
:1016400001FA02F120FA0CFCDCBF41EA0C019040E7
:10165000E41AA2BF01EB0451294330BD6FEA040430
:101660001F3C1CDA0C340EDC04F11404C4F120021B
:1016700020FA04F001FA02F340EA030021FA04F32D
:1016800045EA030130BDC4F10C04C4F1200220FA84
:1016900002F001FA04F340EA0300294630BD21FAC2
:1016A00004F0294630BD94F0000F83F4801306BF88
:1016B00081F480110134013D4EE77FEA645C18BF7C
:1016C0007FEA655C29D094EA050F08BF90EA020F13
:1016D00005D054EA000C04BF1946104630BD91EA0B
:1016E000030F1EBF0021002030BD5FEA545C05D10E
:1016F0004000494128BF41F0004130BD14F580044D
:101700003CBF01F5801130BD01F0004545F0FE41C0
:1017100041F470014FF0000030BD7FEA645C1ABFF5
:10172000194610467FEA655C1CBF0B46024650EA2C
:10173000013406BF52EA033591EA030F41F4002158
:1017400030BD00BF90F0000F04BF0021704730B5DE
:101750004FF4806404F132044FF000054FF00001B3
:1017600050E700BF90F0000F04BF0021704730B574
:101770004FF4806404F1320410F0004548BF404249
:101780004FF000013EE700BF42004FEAE2014FEA9E
:1017900031014FEA02701FBF12F07F4393F07F4F79
:1017A00081F06051704732F07F4208BF704793F07C
:1017B0007F4F04BF41F40021704730B54FF460748F
:1017C00001F0004521F000411CE700BF50EA010292
:1017D00008BF704730B54FF000050AE050EA01023B
:1017E00008BF704730B511F0004502D5404261EBAB
:1017F00041014FF4806404F132045FEA915C3FF4EC
:10180000D8AE4FF003025FEADC0C18BF03325FEA88
:10181000DC0C18BF033202EBDC02C2F1200300FA39
:1018200003FC20FA02F001FA03FE40EA0E0021FA5E
:1018300002F11444BDE600BF70B54FF0FF0C4CF44C
:10184000E06C1CEA11541DBF1CEA135594EA0C0FFE
:1018500095EA0C0F00F0DEF82C4481EA030621EA39
:101860004C5123EA4C5350EA013518BF52EA033574
:1018700041F4801143F4801338D0A0FB02CE4FF026
:101880000005E1FB02E506F00042E0FB03E54FF056
:101890000006E1FB03569CF0000F18BF4EF0010E4E
:1018A000A4F1FF04B6F5007F64F5407404D25FEA4A
:1018B0004E0E6D4146EB060642EAC62141EA5551FD
:1018C0004FEAC52040EA5E504FEACE2EB4F1FD0C3F
:1018D00088BFBCF5E06F1ED8BEF1004F08BF5FEABD
:1018E000500E50F1000041EB045170BD06F000466F
:1018F00046EA010140EA020081EA0301B4EB5C041C
:10190000C2BFD4EB0C0541EA045170BD41F4801113
:101910004FF0000E013C00F3AB8014F1360FDEBF38
:10192000002001F0004170BDC4F10004203C35DA14
:101930000C341BDC04F11404C4F1200500FA05F397
:1019400020FA04F001FA05F240EA020001F0004238
:1019500021F0004110EBD37021FA04F642EB0601AE
:101960005EEA430E08BF20EAD37070BDC4F10C04D8
:10197000C4F1200500FA04F320FA05F001FA04F29C
:1019800040EA020001F0004110EBD37041F1000188
:101990005EEA430E08BF20EAD37070BDC4F1200593
:1019A00000FA05F24EEA020E20FA04F301FA05F2FB
:1019B00043EA020321FA04F001F0004121FA04F2A3
:1019C00020EA020000EBD3705EEA430E08BF20EA73
:1019D000D37070BD94F0000F0FD101F000464000AD
:1019E00041EB010111F4801F08BF013CF7D041EA2F
:1019F000060195F0000F18BF704703F00046520033
:101A000043EB030313F4801F08BF013DF7D043EA03
:101A10000603704794EA0C0F0CEA135518BF95EAB9
:101A20000C0F0CD050EA410618BF52EA4306D1D140
:101A300081EA030101F000414FF0000070BD50EA5F
:101A4000410606BF1046194652EA430619D094EAE9
:101A50000C0F02D150EA013613D195EA0C0F05D1D3
:101A600052EA03361CBF104619460AD181EA030127
:101A700001F0004141F0FE4141F470014FF00000DF
:101A800070BD41F0FE4141F4780170BD70B54FF07A
:101A9000FF0C4CF4E06C1CEA11541DBF1CEA1355FA
:101AA00094EA0C0F95EA0C0F00F0A7F8A4EB0504DC
:101AB00081EA030E52EA03354FEA013100F08880D3
:101AC0004FEA03334FF0805545EA131343EA12639C
:101AD0004FEA022245EA111545EA10654FEA002651
:101AE0000EF000419D4208BF964244F1FD0404F50A
:101AF000407402D25B084FEA3202B61A65EB030566
:101B00005B084FEA32024FF480104FF4002CB6EB22
:101B1000020E75EB030E22BFB61A754640EA0C00A2
:101B20005B084FEA3202B6EB020E75EB030E22BFE2
:101B3000B61A754640EA5C005B084FEA3202B6EB23
:101B4000020E75EB030E22BFB61A754640EA9C00E2
:101B50005B084FEA3202B6EB020E75EB030E22BFB2
:101B6000B61A754640EADC0055EA060E18D04FEA70
:101B7000051545EA16754FEA06164FEAC30343EA10
:101B800052734FEAC2025FEA1C1CC0D111F4801FDD
:101B90000BD141EA00014FF000004FF0004CB6E7D6
:101BA00011F4801F04BF01430020B4F1FD0C88BF75
:101BB000BCF5E06F3FF6AFAEB5EB030C04BFB6EB80
:101BC000020C5FEA500C50F1000041EB045170BD73
:101BD0000EF0004E4EEA113114EB5C04C2BFD4EBA0
:101BE0000C0541EA045170BD41F480114FF0000E24
:101BF000013C90E645EA060E8DE60CEA135594EAA0
:101C00000C0F08BF95EA0C0F3FF43BAF94EA0C0FA2
:101C10000AD150EA01347FF434AF95EA0C0F7FF417
:101C200025AF104619462CE795EA0C0F06D152EA6B
:101C300003353FF4FDAE1046194622E750EA41064F
:101C400018BF52EA43067FF4C5AE50EA41047FF460
:101C50000DAF52EA43057FF4EBAE12E74FEA4102C3
:101C6000B2F1E04324BFB3F5001CDCF1FE5C0DD9FA
:101C700001F0004C4FEAC0024CEA5070B2F1004F44
:101C800040EB830008BF20F00100704711F0804F47
:101C900021D113F13872BCBF01F00040704741F40C
:101CA00080114FEA5252C2F11802C2F1200C10FA10
:101CB0000CF320FA02F018BF40F001004FEAC123F4
:101CC0004FEAD32303FA0CFC40EA0C0023FA02F398
:101CD0004FEA4303CCE77FEA625307D150EA01336E
:101CE0001EBF4FF0FE4040F44000704701F000403E
:101CF00040F0FE4040F40000704700BF7BB972B96D
:101D00000029BEBF00204FF0004106E008BF0028B8
:101D10001CBF6FF000414FF0FF3000F057B8ADF13D
:101D2000080C6DE904CE002909DB002B1ADB00F05A
:101D300047F9DDF804E0DDE9022304B070474042D2
:101D400061EB4101002B1BDB00F03AF9DDF804E008
:101D5000DDE9022304B0404261EB4101524263EBF2
:101D600043037047524263EB430300F029F9DDF867
:101D700004E0DDE9022304B0404261EB4101704719
:101D8000524263EB430300F01BF9DDF804E0DDE9A8
:101D9000022304B0524263EB4303704753B94AB97C
:101DA000002908BF00281CBF4FF0FF314FF0FF3063
:101DB00000F00CB8ADF1080C6DE904CE00F000F9AC
:101DC000DDF804E0DDE9022304B07047704700BF8E
:101DD00080EA0102844612F0030F4FD111F0030F85
:101DE00032D14DF8044D11F0040F51F8043B0BD0E3
:101DF000A3F101329A4312F0803F04BF4CF8043B38
:101E000051F8043B16D100BF51F8044BA3F1013245
:101E10009A4312F0803FA4F101320BD14CF8043BFD
:101E2000A24312F0803F04BF51F8043B4CF8044B2E
:101E3000EAD023460CF8013B13F0FF0F4FEA33239F
:101E4000F8D15DF8044B704711F0010F06D011F87E
:101E5000012B0CF8012B002A08BF704711F0020F6C
:101E6000BFD031F8022B12F0FF0F16BF2CF8022B57
:101E70008CF8002012F47F4FB3D1704711F8012B7A
:101E80000CF8012B002AF9D1704700BF844641EAC3
:101E9000000313F003036DD1403A41D351F8043BE2
:101EA00040F8043B51F8043B40F8043B51F8043B34
:101EB00040F8043B51F8043B40F8043B51F8043B24
:101EC00040F8043B51F8043B40F8043B51F8043B14
:101ED00040F8043B51F8043B40F8043B51F8043B04
:101EE00040F8043B51F8043B40F8043B51F8043BF4
:101EF00040F8043B51F8043B40F8043B51F8043BE4
:101F000040F8043B51F8043B40F8043B51F8043BD3
:101F100040F8043B51F8043B40F8043B403ABDD242
:101F2000303211D351F8043B40F8043B51F8043BE4
:101F300040F8043B51F8043B40F8043B51F8043BA3
:101F400040F8043B103AEDD20C3205D351F8043B73
:101F500040F8043B043AF9D2043208D0D2071CBF3F
:101F600011F8013B00F8013B01D30B880380604668
:101F7000704700BF082A13D38B078DD010F00303DE
:101F80008AD0C3F10403D21ADB071CBF11F8013B4E
:101F900000F8013B80D331F8023B20F8023B7BE79D
:101FA000043AD9D3013A11F8013B00F8013BF9D2C8
:101FB0000B7803704B7843708B7883706046704762
:101FC0002DE9F04786468C460846089E154674461D
:101FD0001946002B40F0C2808542B2FA82F245D900
:101FE0004AB1C2F1200300FA02FC2EFA03F3954035
:101FF00043EA0C0C94404FEA154EA8B2BCFBFEF825
:10200000230C0EFB18CC08FB00F943EA0C4399455E
:1020100028D9EB1808F1FF3704D2994502D9A8F165
:1020200002072B44A3EB0903A4B2B3FBFEFC0EFB97
:102030001C330CFB00F044EA0344A04214D92C19D1
:102040000CF1FF3304D2A04202D9ACF102032C44BC
:10205000241A43EA07401EB1D44000233460736061
:10206000BDE8F0874746DDE76346F1E792BB431BD7
:1020700001214FEA154EAFB2B3FBFEFC200C0EFB64
:102080001C330CFB07F840EA0343984562D9EB1870
:102090000CF1FF3004D2984502D9ACF102002B4478
:1020A000A3EB0803A4B2B3FBFEFC0EFB1C330CFB3A
:1020B00007F744EA0344A7424ED92C190CF1FF3329
:1020C00004D2A74202D9ACF102032C44E41B43EA38
:1020D0000040C0E7C2F1200320FA03F19540904090
:1020E0002EFA03F303434FEA154EAFB2B1FBFEFCE9
:1020F0000EFB1C10190C0CFB07F841EA0041884547
:1021000004FA02F422D969180CF1FF3004D2884590
:1021100002D9ACF102002944A1EB08019BB2B1FB4A
:10212000FEFC0EFB1C110CFB07F743EA01439F4228
:102130000ED9EB180CF1FF3104D29F4202D9ACF159
:1021400002012B44DB1B41EA004192E76046E3E7D2
:102150006146F7E76046A3E76346B7E7834206D9DF
:1021600016B9002108467BE7C6E900E0F9E7B3FAB3
:1021700083F78FB9834201D3724508D8BEEB0204BE
:1021800060EB030301209C461EB9002168E7384636
:10219000FAE7C6E9004CF8E7C7F1200CBB4022FA89
:1021A0000CF41C432EFA0CF120FA0CF3B840014356
:1021B0004FEA14490EFA07F5B3FBF9F81FFA84FE4B
:1021C00009FB18300B0C08FB0EFA43EA00439A4552
:1021D00002FA07F240D9E31808F1FF3004D29A4519
:1021E00002D9A8F102002344A3EB0A0389B2B3FB8E
:1021F000F9F809FB183308FB0EFE41EA03418E454E
:102200002CD9611808F1FF3304D28E4502D9A8F108
:102210000203214443EA0040A0FB0298A1EB0E0117
:102220004145CE46434602D306D14D4504D2B9EBD3
:10223000020E68EB04030138002EA6D0B5EB0E02A7
:1022400061EB030101FA0CFC22FA07F34CEA0303E9
:10225000F940C6E9003198E74046C5E74346D9E76B
:1022600070B4840746D0541E002A41D0CDB2034634
:1022700002E0621EE4B3144603F8015B9A07F8D14A
:10228000032C2ED9CDB245EA05250F2C45EA05458C
:1022900019D9264603F11002103E0F2E42F8105CA9
:1022A00042F80C5C42F8085C42F8045C02F110024F
:1022B000F2D8A4F1100222F00F0204F00F04103241
:1022C000032C13440DD91E462246043A032A46F82D
:1022D000045BFAD8221F22F003020432134404F0F4
:1022E00003042CB1C9B21C4403F8011BA342FBD167
:1022F00070BC704714460346C2E7000000000000AF
:1023000010B5574A436893428EB0044660D0554A90
:1023100093426BD0544A934216D0544A93424BD0C6
:10232000534A934205D0534A934226D000200EB020
:1023300010BD8368504A934272D0504A9342F5D1FF
:10234000237B022BF2D104E0037A062B5DD0072B0E
:10235000ECD10022CDE90822012108AB0A928DF8C8
:10236000201093E807000BAC84E80700002200234C
:102370002146434811F0B8F8D8E7037A002BD5D1AD
:10238000BFF35B8F3F4A1268BFF35B8F002ACDD04B
:10239000CDE90833012408AA0A938DF8204007CA22
:1023A0000DF12C0C8CE80700354800220023614613
:1023B00011F09AF82046BAE7037A012BB6D1002132
:1023C000CDE9081108AA0A918DF8203007CACAE79A
:1023D0000022CDE90822017A0A92022008AB8DF88A
:1023E00020008DF8241093E80700BCE7027AC36848
:1023F0008DF8302003218DF82C100D93002200233E
:102400000BA91F4811F070F890E70023CDE90B33BA
:102410000D93002200230BA9194811F065F885E7F8
:10242000027B002A89D19FED0C7B6FF00F01CDE973
:102430000312CDE9012200928DED067B124B134968
:1024400013484FF4006210F093FF1249104810F047
:1024500045FFA36871E700BF000000000000000016
:1024600068C1010050C10100A8C0010078C001008E
:1024700008C1010080C1010050C2010064C2010016
:10248000D4060020A8160020793A000080750020AC
:10249000D00900200C90010030B58D4D2978ADF5A4
:1024A0000D7DC9B943688B4A934204464ED08A4A8F
:1024B00093422FD0894A934200F0C380884A9342C6
:1024C00060D0884A934200F08D80874A934200F0A2
:1024D0009980864A934203D000200DF50D7D30BDD2
:1024E000017A0029F8D14FF4847208A8FFF7B8FEEA
:1024F00001244FF4847208A94AA88DF82040FFF700
:10250000C5FC7B48002200234AA910F0EDFF2C7087
:102510002046E2E74FF4847208A8FFF7A1FE227A72
:10252000B4F90C308DF8242005218DF820104FF4DB
:10253000847208A9ADF826304AA8FFF7A7FC00224C
:1025400000234AA96A4810F0CFFFC5E7037A0D2B94
:1025500000F0A080112B00F085800C2BBCD14FF433
:10256000847208A8FFF77CFE637A003B4FF00401F9
:1025700018BF01238DF820104FF484728DF8243099
:1025800008A9D9E790F88430962B18B2C8BFC3F1D8
:10259000960007EE900AF8EEE77A17EE900AFFF73A
:1025A000F3F849A3D3E90023FFF770FAFFF756FBCE
:1025B00000EE100A15F0BCFD4E4B4FF484721880EB
:1025C000002108A8FFF74CFE04F1080140F20112B7
:1025D00009A8FFF75BFC07234FF4847208A98DF864
:1025E0002030A9E7037A012B7FF476AF4FF4847291
:1025F00008A8FFF735FE04234FF4847208A98DF86C
:10260000203099E73C4B82689A427FF465AF027BA9
:10261000002A7FF461AF002400250B20CDE90302DE
:10262000CDE901220092CDE90645344B34493548C5
:102630004FF4006210F09CFE3349324810F04EFE19
:102640004AE74FF4847208A8FFF70AFE227AE3688B
:102650008DF8242006218DF820104FF4847208A9EB
:102660000A9369E74FF4847208A8FFF7F9FD012186
:10267000637A8DF820104FF4847208A94AA88DF867
:102680002430FFF703FC002200234AA9184810F069
:102690002BFF21E74FF4847208A8FFF7E1FDB4F89F
:1026A00009305BBA9BB241F28832934228BF13468D
:1026B000B3F5C87F38BF4FF4C8734FF4847208A9CC
:1026C000ADF8243038E700BF292365A48C94F13F8E
:1026D00083700020A8C0010038C1010050C1010072
:1026E000F0C0010078C0010008C1010080C10100F4
:1026F000340700207470002050C20100694B0000B4
:10270000007E0020980A0020509401000000000084
:1027100070B586B00D461446064690F8FE2000922D
:10272000002305AA05932846B74B01944FF4006196
:1027300002F06CFD30680294FFF726F805AACDE997
:102740000001B24B28464FF4006102F05FFD706853
:102750000294FFF719F805AACDE90001AC4B284611
:102760004FF4006102F052FDB0680294FFF70CF8DC
:1027700005AACDE90001A74B28464FF4006102F0FD
:1027800045FDF0680294FEF7FFFF05AACDE90001C0
:10279000A14B28464FF4006102F038FD30690294E5
:1027A000FEF7F2FF05AACDE900019C4B28464FF445
:1027B000006102F02BFD92A3D3E900232846CDE966
:1027C0000023029405AA964B4FF4006102F01EFD0F
:1027D000B0690294FEF7D8FF05AACDE90001914B3C
:1027E00028464FF4006102F011FDF0690294FEF7F3
:1027F000CBFF05AACDE900018B4B28464FF40061C1
:1028000002F004FD306A0294FEF7BEFF05AACDE98E
:102810000001864B28464FF4006102F0F7FC706A15
:102820000294FEF7B1FF05AACDE90001804B2846CE
:102830004FF4006102F0EAFC7E4B02940022CDE9E5
:102840000023284605AA7C4B4FF4006102F0DEFC11
:10285000B06E0294FEF798FF05AACDE90001774B10
:1028600028464FF4006102F0D1FCF06E0294FEF7AE
:102870008BFF05AACDE90001714B28464FF400619A
:1028800002F0C4FC306F0294FEF77EFF05AACDE98A
:1028900000016C4B28464FF4006102F0B7FC706FEA
:1028A0000294FEF771FF05AACDE90001664B2846A8
:1028B0004FF4006102F0AAFCB06A0294FEF764FFD4
:1028C00005AACDE90001614B28464FF4006102F0F2
:1028D0009DFCF06A0294FEF757FF05AACDE90001BE
:1028E0005B4B28464FF4006102F090FC306B029481
:1028F000FEF74AFF05AACDE90001564B28464FF4E2
:10290000006102F083FC706B0294FEF73DFF05AAA4
:10291000CDE90001504B28464FF4006102F076FCEF
:10292000B06B0294FEF730FF05AACDE900014B4BD6
:1029300028464FF4006102F069FCB6F8783005AA29
:10294000CDE900342846464B4FF4006102F05EFCAE
:102950004FF0805305AA1B6E01949BB2009328464A
:10296000404B4FF4006102F051FC96F8FB3005AA91
:10297000CDE9003428463C4B4FF4006102F046FCA0
:10298000F06B0294FEF700FF05AACDE90001374B7A
:1029900028464FF4006102F039FC306C0294FEF7D7
:1029A000F3FE05AACDE90001314B28464FF4006142
:1029B00002F02CFC706C0294FEF7E6FE05AACDE94D
:1029C00000012C4B28464FF4006102F01FFCB06C54
:1029D0000294FEF7D9FE05AACDE90001264B284650
:1029E0004FF4006102F012FCF06C0294FEF7CCFE92
:1029F00005AACDE90001214B28464FF400613FE0D4
:102A0000ACD2B64FC983FD3BBC980100D098010001
:102A1000DC980100E8980100F49801000099010099
:102A20000C9901001C9901002C9901003C990100AE
:102A30004C9901000000F03F5C9901006C99010085
:102A40007C9901008C9901009C990100AC990100CE
:102A5000B8990100C4990100D0990100DC990100E6
:102A6000E8990100F4990100009A01000C9A010014
:102A7000189A0100249A0100309A01003C9A010042
:102A800002F0C4FB306D0294FEF77EFE05AACDE98C
:102A900000014C4B28464FF4006102F0B7FB706D0B
:102AA0000294FEF771FE05AACDE90001464B2846C7
:102AB0004FF4006102F0AAFBB06D0294FEF764FED1
:102AC00005AACDE90001414B28464FF4006102F010
:102AD0009DFBF06D0294FEF757FE05AACDE90001BB
:102AE0003B4B28464FF4006102F090FB306E02949D
:102AF000FEF74AFE05AACDE90001364B28464FF401
:102B0000006102F083FBD6F880000294FEF73CFEE1
:102B100005AACDE90001304B28464FF4006102F0D0
:102B200075FBD6F884000294FEF72EFE05AACDE9C7
:102B300000012A4B28464FF4006102F067FBD6F8EB
:102B400088000294FEF720FE05AACDE90001244B7F
:102B500028464FF4006102F059FBD6F88C0002942D
:102B6000FEF712FE05AACDE900011E4B28464FF4E0
:102B7000006102F04BFBD6F890000294FEF704FED1
:102B800005AACDE90001184B28464FF4006102F078
:102B90003DFBB6F8FF20154BCDE90024284605AAD9
:102BA0004FF4006102F032FB2846114B009405AA55
:102BB0004FF4006102F02AFB059820EAE07006B0AD
:102BC00070BD00BF489A0100549A0100609A01004C
:102BD0006C9A0100789A0100849A0100949A01008D
:102BE000A49A0100B49A0100C49A0100D49A010089
:102BF000E09A0100000000002DE9F04705468AB088
:102C00008846164611F096FF4A0143011B1A42EA14
:102C1000D06262EB0102920042EA93729B001F189D
:102C200041EB0203DB0043EA5773B8F1010FC7F32E
:102C3000103747EA43474FEAD33445D076683378B4
:102C40002D2B3AD02C483146FEF7CAFA002843D142
:102C50003846214626A3D3E90023FFF74FF806465E
:102C60000C4610461946254A0023FFF747F88046D0
:102C70000F46104619464EF660220023FFF73EF835
:102C800082468946104619464FF47A720023FFF7B0
:102C900035F8CDE904A9CDE90601CDE90823CDE950
:102CA0000064174ACDF8088003970821284607F0EA
:102CB0009FFB00200AB0BDE8F0877378702BC1D16C
:102CC000B378002BC4D0BDE7CDE900740D4A0821CC
:102CD000284607F08DFBECE728460B4A33460121D6
:102CE00007F086FB6FF00400E4E700BFAFF300805D
:102CF000005C26050000000054A4010080EE3600B0
:102D000078A4010040A4010060A4010000000000BC
:102D100000B589B09FED0E7B06ABCDE9063302AA64
:102D20008023CDE9022200930B4A02AB8DED047B98
:102D30000CF07AFB002805DB4FF48042002302A848
:102D400010F03CFE09B05DF804FB00BFAFF300805B
:102D50000000000001000000A9F5000000000000D4
:102D600030B585B0264CA5683A21EB6820469847D7
:102D700030B90C212B6902AA20469847054650B16C
:102D8000204C2149002323700B800EF0C1FA01234F
:102D9000237005B030BD039B1C4A0298194C82FB7E
:102DA0000312DB17C3EB224303EB800316492078A1
:102DB000B1F900201BB20028E6D09A1A002AB8BF49
:102DC000524212B2012ADFDC114A13680138013382
:102DD0009FED097B207013604FF400328DED007B76
:102DE0000C48002311F09CFF0B4B186804F02CFBDF
:102DF0000A4B1D6005B030BD00000000000000005F
:102E00006C870100967000208070002083DE1B43D9
:102E1000806B0020F00400206C6B0020886B002089
:102E200030B50F490B68013383B09FED0B7B4FF436
:102E3000003400250B600B4822468DED007B2B46AD
:102E400011F06EFF084B186804F0FEFA074B0022E1
:102E50001A6003B030BD00BF000000000000000099
:102E6000846B0020F00400206C6B0020886B002035
:102E70002DE9F04F406804688C4289B058D9D318C6
:102E800056D24FF47A75A3FB0543002B50D1A2FB19
:102E900005320393002A4BD143680A0103EB011169
:102EA0009E588B89D1F804800493B36806AA5B68A6
:102EB000414630469847002834DB05FB04F3DDE942
:102EC000064BA3FB049203FB0B2748461AA3D3E946
:102ED00000233946FEF762FF4FF0FF3A184B05908A
:102EE000CA45BB4121D3039905FB01F1A1FB045461
:102EF00001FB0B4410A3D3E9002321462846FEF72B
:102F00004DFF0F4AAA4572EB040403460DD3059901
:102F1000B26899420CD304980090146830460A466F
:102F20004146A04709B0BDE8F08F6FF08500F9E792
:102F30006FF01500F6E700BF00CA9A3B00000000E2
:102F4000FFC99A3B000000004368186888427AD99C
:102F50002DE9F04F642A89B014466ED85B680A01E7
:102F600003EB011153F802808B89D1F804A08D681E
:102F70000393D8F8083006AA5B6851464046984744
:102F8000002857DBDDE90676A5FB072305FB06399C
:102F90000492104649462EA3D3E90023FEF7FEFE15
:102FA000049A2D4B05904FF0FF3B934573EB0903BB
:102FB00046D3A4FB05542B0D43EA0433C5F3130099
:102FC0001844264BA3FB0023DB0803EB830303EB2E
:102FD0008303C01A281A64F10002214C214B00FB24
:102FE00004F403FB0244A0FB03031C44800840EAF2
:102FF000847000FB06F6A40807FB0466A0FB0770BC
:10300000064413A3D3E9002331463846FEF7C6FE33
:10301000114ABB4572EB0606034611D30599D8F851
:103020000820994209D303980090146840460A4644
:103030005146A04709B0BDE8F08F6FF01500F9E7E1
:103040006FF08500F6E76FF015007047AFF3008072
:1030500000CA9A3B00000000FFC99A3B1F85EB5154
:10306000F5285C8F295C8FC270B59FED1B7B1C4CD3
:103070001C4B1D49C4F808330025C4F848331B4ACB
:10308000C4F808554FF4803381ED027B0226C4F862
:1030900004334FF4003384B0C4F804630121C2F850
:1030A000803111202A4609F089FB112009F056FBD6
:1030B0000F4A10490123A36028462360CDE901553A
:1030C00013600D4A009100230DF090FB30460CF088
:1030D0008DFB284604B070BDFFFFFFFFFFFFFFFF21
:1030E0000010014003000F00C012002000E100E0CA
:1030F000EC6D0020A1070100FFFF7F000000000031
:103100003F4BD3F80423900702D5D3F804212AB902
:103110003B4BD3F80423D1030ED47047394A002126
:10312000C3F80411D3F80431136801331360344B2E
:10313000D3F80423D103F0D5F0B5334ABFF35B8F46
:1031400083B052E8001F21F0010042E80004002C87
:10315000F7D1BFF35B8FCA0704D4D3F840310BB962
:1031600003B0F0BD264A274B0021C2F84011D2F827
:1031700040111B68190A1B06BFF35F8FD2F80425A4
:10318000D31841F10001B2F5801F0AD21F4AD2E9DB
:103190000067B34271EB070203D213F1807341F170
:1031A0000001EFF3108272B6194CD4E90267B34202
:1031B000B9411AD39FED107B114B2168656884EDEE
:1031C000027B00204FF4803C2060C3F848C3C3F862
:1031D0004001D3F8403182F310880029C0D0009517
:1031E00032463B46884703B0F0BD82F3108803B0F7
:1031F000F0BD00BFAFF30080FFFFFFFFFFFFFFFF49
:1032000000100140F06D0020E86D0020D812002071
:10321000C0120020000000002DE9F04F2DED028BC0
:103220009FED4F8B87B000F1D0034F4F05930546BC
:1032300000F1D8094FF000084FF04003EFF311867A
:1032400083F31288BFF36F8FD5F8C840002C5FD08E
:10325000D5F8CC202368C5F8C830944208BFC5F81B
:10326000CC30D5F8E03043F00203C5F8E030E36835
:10327000626823F0040343F00103E36086F31188DE
:10328000BFF36F8F204690474FF04003EFF3118A52
:1032900083F31288BFF36F8FE3689A0723F001016D
:1032A0000FD4E160D5F8E03023F00203C5F8E03038
:1032B0008AF31188BFF36F8FDB05BDD411F0D8F806
:1032C000BAE7386823F00303E3600028EAD04368D4
:1032D00006689C424FF0000B014608D0002EE1D05A
:1032E00030468B46436836689C420146F6D10168F9
:1032F000BBF1000F2DD0CBF800107B68984208BFBF
:10330000C7F804B040F8088B10F02EFB5946E5E7EB
:10331000D5F8E03023F004025907C5F8E02009D4BD
:103320008DED008B059ACDF8088031460F4811F0DD
:103330002BFA81E700220121484611F0EFF900281D
:10334000EED000220121484611F0E8F90028F1D121
:10335000E6E77B6839609842D4D17960D2E700BF54
:10336000FFFFFFFFFFFFFFFF70140020886E0020AB
:1033700030B5044689B00020C4F8C800C4F8CC00B9
:103380000C9D04F1D000C4E9340004F1D800C4E974
:1033900036000DB32879002840F2011008BF012043
:1033A0009FED0F7BC4F8E0000020CDE901000393FE
:1033B00004908DED067B0C4B009420460FF0D8FF57
:1033C00025B1296811B120460FF088FF204609B0C9
:1033D000BDE830400FF086BF0120E1E7AFF3008089
:1033E000FFFFFFFFFFFFFFFF19320000000000009A
:1033F00010B54FF04003EFF3118483F31288BFF34D
:103400006F8F10F80B3C13F0280217D150F8101CE6
:1034100069B150E906319FED0C7B0B60596010F8E3
:103420000B3C40F8102C00ED067B03F0FD0323F06D
:10343000140300F80B3C183810F05CFD84F311887D
:10344000BFF36F8F10BD00BF000000000000000040
:103450004FF04003EFF3118283F31288BFF36F8FB5
:1034600083686BB1D0E900319FED097B0B60596037
:10347000437B80ED007B23F00203002143738160D6
:1034800082F31188BFF36F8F704700BFAFF30080E6
:10349000000000000000000003464FF04001EFF381
:1034A000118281F31288BFF36F8F0068834213D0BB
:1034B00068B1D0E900319FED0C7B0B605960437B14
:1034C00080ED007B23F0020300214373816082F3CF
:1034D0001188BFF36F8F7047002082F31188BFF30C
:1034E0006F8F7047AFF30080000000000000000005
:1034F0004FF04003EFF3118283F31288BFF36F8F15
:1035000083686BB1D0E900319FED097B0B60596096
:10351000437B80ED007B23F0020300214373816035
:1035200082F31188BFF36F8F183011F00BBA00BF10
:103530000000000000000000704700BF08B508F060
:103540006BFB08B1002008BD102008F005FB08B196
:10355000044B4360044A82600023037308F03EFB7F
:10356000F0E700BF08C1010050C20100704700BF72
:1035700010B40C4C0023224602E00133182B0CD06F
:103580001178814202F10C02F7D103EB430304EB03
:103590008304A0685DF8044B70476FF001005DF88C
:1035A000044B70473C8E0100704700BF704700BF5E
:1035B000704700BF704700BF704700BF704700BF33
:1035C000704700BF704700BF704700BF10B50B4C7D
:1035D000BFF35B8F2368BFF35B8F3BB100BFBFF3CB
:1035E0005B8F2368BFF35B8F002BF7D14FF0FF3168
:1035F0004FF0FF3010F0ECFFEAE700BFA816002004
:1036000000B587B06B460022C3E901220421009275
:103610008DF8001093E807000DF10C0C8CE8070002
:1036200000230022034861460FF05EFF07B05DF8FB
:1036300004FB00BFD406002038B5384B1A68384B5D
:103640000021C2F84011D2F84021BFF35B8F53E84C
:10365000002F02F5007143E800100028F7D1BFF3F6
:103660005B8FC2F30801002957D1BFF35B8F03F1D1
:10367000140050E8004F40E80015002DF9D1BFF3C9
:103680005B8FBFF35B8F274951E8005F254441E81A
:1036900000500028F8D1BFF35B8FBFF35B8F224946
:1036A00051E8004F601C41E80005002DF8D1BFF340
:1036B0005B8FBFF35B8F04F0010404EB44241B49D0
:1036C000A40004F500650D4455E8000F013045E8FD
:1036D000000CBCF1000FF7D1BFF35B8F0C44A3F5D6
:1036E0008053C2F3090103EB81014FF400622046CD
:1036F000FEF7CCFB1C2008F02FFA08B10C4B4360FE
:103700000C4B8460C0E905534FF400610022C16096
:103710000274BDE8384008F061BA38BDC801002025
:10372000B836002094160020AC160020B0160020F9
:1037300090C0010098160020012970B5044636D0CB
:1037400055681E492846FDF74BFD98B12E78312E5D
:103750000DD01B492846FDF743FD60B1302E28D01F
:10376000184A2B460321204606F042FE1DE06B78E6
:10377000002BEED10120144ABFF35B8F52E8003FCB
:1037800042E800010029F9D1BFF35B8FBFF35B8FE3
:103790000E4910680E4B0F4ABFF35B8F002818BF0D
:1037A0000B460821204606F023FE002070BD064A85
:1037B000ECE768780028DED0D2E700BF3490010043
:1037C0003C90010044900100A016002028900100C8
:1037D00024900100609001001E4BBFF35B8F1B68BB
:1037E000BFF35B8F7BB170B51B4BBFF35B8F0124C5
:1037F00053E8005F43E80042002AF9D1BFF35B8F32
:1038000075B1002070BD144ABFF35B8F52E8001FF2
:1038100042E800300028F9D1BFF35B8F00207047E9
:103820000E4E70780EF014FC70790EF011FCB07929
:103830000EF0F2FB0A4AC2F81451D2F81431946027
:10384000D2F81431002BFBD00023C2F8F43501204C
:1038500070BD00BFA8160020A4160020E43600208A
:103860000070004038B515680F4904462846FDF73A
:10387000B7FC80B90C2008F06FF908B10B4B43601E
:103880000123037208F0AAF92046094A082106F02C
:10389000AFFD002038BD2046064A2B46012106F028
:1038A000A7FD002038BD00BF8090010068C1010065
:1038B00098900100A8900100F0B5134BBFF35B8F07
:1038C0001446124A1B68BFF35B8F85B0BFF35B8F52
:1038D0001768BFF35B8FBFF35B8F5668BFF35B8FD7
:1038E000029600972268B21A03920A68BA1A0D4625
:1038F00001924FF48071064A12F01AFA00202F60EC
:10390000266005B0F0BD00BFC03600209416002030
:10391000C090010010B5C0B004460B4A0B49684680
:10392000FFF7CAFF38B12046094A012106F060FDC1
:10393000002040B010BD2046064A6B46082106F024
:1039400057FD002040B010BD8015002084150020D8
:103950001C9101001CAF010038B52D4BBFF35B8FEC
:103960001B68BFF35B8F002B48D0BFF35B8F294DE3
:103970002B68BFF35B8F03B938BD27490B788BB138
:103980001B0103F1804303F5E04300222348C3F801
:103990001425C3F810250623C0F814350823C0F8F1
:1039A00010350A701D4C0023C4F8F435C4F80031FA
:1039B000D4F80021C4F804310122D4F80431226083
:1039C0000120002110F004FED4F80031002BF7D0C4
:1039D000134CA0790EF03CFB60790EF01DFB607873
:1039E0000EF01AFBBFF35B8F002355E8002F45E86C
:1039F00000310029F9D1BFF35B8F38BD054ABFF311
:103A00005B8F52E8001F42E800300028F3D0F8E74F
:103A1000A8160020A416002082700020007000402C
:103A2000E436002070B41343DE028568046902D5D1
:103A300013F4402F0BD123F48012DB070BD526683B
:103A400001238B40334323602B6870BC1847DA078F
:103A50000CD423F4801223684FF0010C0CFA01FC03
:103A600023EA0C0323602B6870BC184783F44023BF
:103A7000E1E700BF704700BF2DE9F04F2DED028B4D
:103A80003E4BBFF35B8F89B0012653E8002F43E81C
:103A900000610029F9D1BFF35B8F00200BF09CFE81
:103AA0003749384C8E600023CB604B6003F05CFCE0
:103AB0004FF0804304F140079E670A2100E021791E
:103AC000E588206845F48032D0F810C0D0F808E0CE
:103AD00015F0010FDCF8005006FA01F314BF2B4378
:103AE00025EA0303CCF80030DEF8003008349847AC
:103AF000A742E4D1244C4FF4B013012209212046FF
:103B0000FFF790FF00214FF4A47010F061FD2369CE
:103B10001B689B05A3681D4E54BFDB681B694FF4EF
:103B2000007120469847092119484FF4803300223C
:103B3000FFF778FF06F12007344600210125B14642
:103B4000B4F806C020684CF48032D0F81080D0F869
:103B500008E0D8F8006005FA01F31CF0010F14BF6B
:103B6000334326EA0303C8F80030DEF80030083497
:103B70009847BC420ED02179E2E700BFA016002092
:103B8000D436002010940100CC860100F09301008F
:103B9000B8860100D548D64A00210323C0F8F03585
:103BA000C0F8F4150123C0F8F815C0F82C26D14A46
:103BB000C0F830364E460C469378D77892F800C05D
:103BC000157992F801E01B023F0307F4805703F4D4
:103BD000E0633B430CF0030C43EA0C032D0492F822
:103BE00005C0977905F4E0254FEA0E1E2B430EF031
:103BF000300E0D014FEA0C5C0CF4801C43EA0E03FE
:103C00003F0605F1804505F5E04543EA0C0307F062
:103C1000807700EB011C01313B430629CCF81835B5
:103C200002F11002C5F81445C5F81045C4D10123AE
:103C3000C0F80035D0F84056C0F81041AB4CD0F871
:103C40001021C3608420002110F0C2FCD4F8103190
:103C5000002BF7D0DFF8D492C4F8405699E807005B
:103C60000623C4F814350823C4F81035DFF8C0A2C1
:103C7000DFF8C0B205AC4FF0000884E807009E4AA8
:103C80009E488AF8008021460EF016FC9B48CDF82D
:103C900000804346702241460EF058FC9748CDF80C
:103CA00000800223A02201210EF050FC9348CDF8A1
:103CB00000804346642202210EF048FC09F10C0901
:103CC00043468E48CDF80080662203210EF03EFC6C
:103CD00099E8070084E80700894A8A4821460EF0DF
:103CE000EBFB424601211A2008F068FD1A2008F07B
:103CF00035FD0123009383484FF4007241460EF0D6
:103D000025FC01224146142008F058FD7E4B7F48D7
:103D10000B2204AFC3F8042307213D460DF0F8FD44
:103D2000336896F8048079485B45294608BF08F156
:103D300020080DF053FE2B789B0003F1804303F520
:103D4000C0434FEA0822D3F8101521F44F3121F473
:103D50004071C3F81015D3F8101502F47C520A43D1
:103D600042F44032C3F8102515F8013B9B0003F1E3
:103D7000804303F5C043A542D3F8102542F0010269
:103D800006F10806C3F81025CAD1614E5B4DDFF875
:103D9000A88130460EF078F920460EF0EFF8534A2D
:103DA0005C499DF814000EF0EFF89DF814000EF039
:103DB00033F99DF8143006F80B3C20460EF0DEF87F
:103DC0002968554A9DF8140001F5A0710EF0DCF841
:103DD0009DF814000EF020F99DF8143006F80A3C06
:103DE00020460EF0CBF82968474A9DF8140001F5EB
:103DF000A4710EF0C9F89DF814000EF00DF99DF8AD
:103E0000143006F8093C0B3E20460EF0B7F8F27A63
:103E100029689DF81400D20002F1804202F5F832C0
:103E200001F5A6710EF0B0F89DF814000EF0F4F84C
:103E30009DF81430F37020460EF0A0F8F37A29684C
:103E4000364A9DF814000396DB0001F5A2711A446E
:103E50000EF09AF89DF814002A4E0EF0DDF8039A41
:103E60009DF81430137120460EF088F83268294905
:103E70009DF8140008320EF087F829499DF81400C7
:103E80000EF0B0F89DF814000EF0C6F8039A9DF8F5
:103E90001430537120460EF071F82968214A9DF8BC
:103EA000140001F5A0710EF06FF831689DF8140050
:103EB0001D4E08310EF096F8DDF80C909DF81400B8
:103EC0000EF0C6F89DF8143009F8063F012517F8E2
:103ED000013B4FEA830B5A1E0BF1804B002B00F085
:103EE0005982062A49D80BF5C24B27E000700040E2
:103EF000D036002090930100C9350000D001002089
:103F0000753A0000C801002000400140C0010020B7
:103F1000EF360020047100400470004004F00140BE
:103F2000044001400C40014008400140A0890100CC
:103F300082700020B88601000061004020460EF02B
:103F40001DF8324659469DF814000EF01DF89DF8F4
:103F500014000EF061F8039B9DF81400D97A05FA5D
:103F600000F00EF0ABF89DF8143009F8013FA742BD
:103F7000ADD1039BD87A0EF08DF8DFF84482824EE3
:103F8000824D4FF0FF32214630464FF0FF330FF0A5
:103F900007FB0028F5D19DF81430042BF1D8DFE899
:103FA00013F01101AC0025000B000500784A794997
:103FB0007948FFF781FCE4E79DF81830DDF81C90A4
:103FC000002B00F0C581012BDBD1BFF35B8F734861
:103FD000002250E8003F40E800210029F9D1BFF35A
:103FE0005B8F002BCDD0FFF7B7FCCAE79DF81870A8
:103FF000FFF7F2FBD5F80413C5F808139AF8003060
:104000009F4200F0C4811B01654A8AF8007003F1E9
:10401000804303F5E04302EB071C4FF0000E4FEA2C
:104020000719C3F814E509F18042C3F810E56346A7
:1040300002F5E0429CF80CC05B7BC2F81435C2F874
:1040400010C50823C5F8F4350023C5F80031D5F8AC
:10405000003101232B60D5F80031002BFBD000226A
:10406000C5F80C21D5F80C314FF0010CC5F808212A
:10407000D5F80831C5F804C0D5F80831002BFBD0BD
:10408000D5F80C31002BF1D0464A0023B2F90020BC
:10409000C5F8043108EE102AD5F80421C5F814310A
:1040A000D5F814310123AB60D5F81431002BFBD0C7
:1040B0000023C5F80413C5F8F435002840F06481E6
:1040C000102007F049FD834608B1374B4360344B5D
:1040D0008BF808709944D9ED027A18EE103AB8EED0
:1040E000C80AABF80A3020EE270A14F021F8ABF822
:1040F0000C00584607F072FD43E70027BFF35B8FC3
:1041000058E8003F48E80072002AF9D1BFF35B8FFE
:10411000002B3FF436AFBFF35B8F244951E8003FDB
:1041200041E80072002AF9D1BFF35B8F204810F0FC
:1041300031FE20480EF0F8F91E480EF003FA1E4832
:104140000EF0F2F91C480EF0FDF9C5F81471D5F81F
:1041500014310123AB60D5F81431002BFBD00027BC
:10416000C5F8F475142008F007FB144BC3F8007170
:10417000D3F80021C3F80471D3F80431039BD87A33
:104180000DF088FFFDE600BFD4060020007000405F
:10419000881500208C150020901500209C1600200A
:1041A00090930100D036002038C10100A4160020F1
:1041B00060050020D0010020C8010020004001401F
:1041C000A81600204FF00109BFF35B8F58E8007F6D
:1041D00048E80093002BF9D1BFF35B8F002F7FF4E9
:1041E000D0AE704810F028FAC5F8089000210120E0
:1041F00010F0EEF9BFF35B8F6B4951E8003F41E8E7
:104200000072002AF9D1BFF35B8FBFF35B8F0431DB
:1042100051E8003F41E80072002AF9D1BFF35B8FFB
:10422000BFF35B8F043151E8003F41E80072002A80
:10423000F9D1BFF35B8FBFF35B8F083151E8003FCB
:1042400041E80072002AF9D1BFF35B8FBFF35B8FA7
:10425000043951E8003F41E80072002AF9D1BFF368
:104260005B8FBFF35B8F083151E8003F41E800727C
:10427000002AF9D1BFF35B8FBFF35B8F4B4951E845
:10428000003F41E80072002AF9D1BFF35B8FBFF312
:104290005B8F01F6040151E8003F41E80072002AFB
:1042A000F9D1BFF35B8FBFF35B8F414951E8003F0A
:1042B00041E80072002AF9D1BFF35B8F9AF8003011
:1042C00083B11B0103F1804303F5E043C3F8147588
:1042D000C3F810750623C5F814350823C5F8103542
:1042E0008AF80070334B0027C5F8F475C3F80071E5
:1042F000D3F80021C3F80471D3F80421C3F808717E
:10430000D3F80821C3F80C711420D3F80C3108F04D
:1043100025FAC5F80071D5F80031C5F80471D5F853
:10432000043101232B600120002110F051F9D5F850
:104330000031002BF7D020480EF004F91E480EF093
:10434000E5F81E480EF0FEF81C480EF0DFF818E6FF
:10435000102007F001FC074608B1194B43601948CB
:10436000BFF35B8F012250E8003F40E800210029A5
:10437000F9D1BFF35B8F7BB103233B72C7F80C907D
:10438000384607F02BFCFCE5FFF7E6FA98E64FEA23
:10439000071956E6C346D1E502233B72FFF71CFA24
:1043A000ECE700BF08090020B8360020B01E00204E
:1043B000AC16002000400140C8010020D0010020C0
:1043C00050C101009C16002030B44FF0A0431C4A9D
:1043D000D3F81015BFF35B8F890A52E8003F581CD1
:1043E00042E80004002CF8D1BFF35B8FC3F309044B
:1043F00014B3621E1348144DD0F8100555F822204E
:10440000C0F340209B0043EA4003C2F30040034353
:1044100063F3174261F31F6245F824200B4BBFF38F
:104420005B8F53E8001F013143E80012002AF8D1E6
:10443000BFF35B8F30BC704740F2FF32DAE700BF5A
:10444000BC36002000030050B8260020C0360020F3
:1044500038B5934BD3F80021002A40F0A680904C49
:10446000D4F80431002B3FD1D4F80C2102B938BD67
:104470008C4AC4F80C31BFF35B8F1268BFF35B8FBB
:10448000002AF4D04FF0A041874AD1F81005BFF3BD
:104490005B8F52E8001F4C1C42E80045002DF8D10C
:1044A000BFF35B8F814CD4F810458A00C4F34024DD
:1044B00042EA4402C3F30044224362F317437C4CB4
:1044C000820AC1F3090162F31F6344F82130794B7A
:1044D000BFF35B8F53E8001F013143E80012002A4D
:1044E000F8D1BFF35B8F38BD734B0025C4F804517E
:1044F000BFF35B8F1B68BFF35B8F002BB7D0BFF39D
:104500005B8F6E4B1B68BFF35B8F002B7DD0D4F8A5
:104510000831002B69D14FF0A0406949D0F810054F
:10452000684A614C0968B2F900C0BFF35B8F800A2A
:1045300054E8002F551C44E8005EBEF1000FF7D18F
:10454000BFF35B8F1C46594BD3F81035BCF1000FFD
:104550004FEA5323C8BFCCF38B0C4FEA43434FEAD7
:104560008131C2F30905C8BF6CF30D0401F4E031D9
:1045700003F4003392040B4302F47C0224F47F0121
:10458000134321F4404143EA0104494A494B60F393
:104590001F6442F82540BFF35B8F53E8001F0131D1
:1045A00043E80012002A9CD0F7E74FF0A042002118
:1045B000C3F80011D2F81035434A1340032B12D030
:1045C00009D942498B420CD093420CBF04230723E4
:1045D0003B4A136043E7002BFAD0012B18BF072397
:1045E000F6E70323F4E70223F2E7FFF7EDFE384B8B
:1045F000C4F80851BFF35B8F53E8001F013143E853
:104600000012002A3FF46DAFF6E74FF0A0402D4AAC
:10461000D0F81045B2F900C02949234A0868BFF311
:104620005B8FA40A52E8001F4D1C42E8005EBEF1F9
:10463000000FF7D1BFF35B8F1A461C4BD3F8103530
:10464000BCF1000F4FEA5323C8BFCCF38B0C4FEAE9
:1046500043434FEA8030C1F30905C8BF6CF30D0234
:1046600003F4003300F4E030890401F47C010343D7
:1046700022F47F020B4322F440421A430C490D4BB3
:1046800064F31F6241F82520BFF35B8F53E8001FDE
:10469000013143E80012002A3FF423AFF6E700BFE0
:1046A00000400140A4160020BC360020000300504A
:1046B000B8260020C0360020A8160020A016002032
:1046C00090160020D03600200300000C03000004E8
:1046D000CC36002070B5054684B00C46104E3046EE
:1046E0000EF028FCC0B10F4ACDF804D0515D8DF812
:1046F0000140C4F30123022243EA011302928DF820
:104700000C208DF80030B2682C23946801A9012296
:104710003046A04704B070BD6FF01200FAE700BF4A
:104720001C870100C494010008B5044B044AB3F986
:104730000030082105F05CFE002008BD7A700020E2
:104740006094010030B50C460022ADF5057D0546AC
:104750001146606811F042FD431E9BB2FE2B23D828
:104760004FF4847204B200210DEB0200FDF778FDD6
:104770004FF4847202230DEB020168468DF8083174
:10478000ADF80C41FDF782FB0022694600230B487F
:104790000EF0AAFE0A4A2346082128460DF5057D9B
:1047A000BDE8304005F024BE6368064A0121284672
:1047B0000DF5057DBDE8304005F01ABE3407002038
:1047C0008C94010078940100012908B50CD00229CD
:1047D00005D00A4A032105F00BFE002008BD114652
:1047E000FFF7B0FF002008BD054B064AB3F90030C3
:1047F000082105F0FDFD002008BD00BFA4940100C4
:104800007C7000208C94010010B40469012324689A
:1048100003FA01F1214218BF5A4022B183685DF8C2
:10482000044BDB68184783685DF8044B1B69184725
:104830003B4A117801B170472DE9F04141F28834CB
:10484000844228BF044600F5AF733648364D0160F8
:104850009BB241F27C518B4228BF0B4640F68C2123
:104860008B4238BF0B4631493148324FB4F5487F4F
:1048700001FB03F3214638BF4FF4487109B2298088
:1048800003F521332C4D018001268833A5FB03134A
:10489000167041F2A172A2EB134303EB032101F264
:1048A0008261A7FB013140F20118A8EB112189B206
:1048B0000220FFF70FFFB4F5C87F204B38BF4FF43D
:1048C000C87403FB04F4A5FB045440F69753A3EB10
:1048D000144303EB0323A7FB0373A8EB1321304618
:1048E00089B2FFF7F7FE164B1B786BB9102007F063
:1048F00033F908B1134B4360134BC36000220272BB
:10490000BDE8F04107F06AB90C2007F025F908B1BD
:104910000E4B436003230372BDE8F04107F05EB91C
:1049200085700020F036002078700020C814050043
:10493000767000200DABA9136B0DD732605B0300BE
:104940008470002050C101003148000068C101009E
:1049500030B54D4C2378ADF5057DF3B1022B37D042
:104960004A4B19880020FFF7B5FE40B100232370A1
:10497000474B1A78002A5AD10DF5057D30BD0C2021
:1049800007F0EAF808B1434B4360012303720DF5C9
:10499000057DBDE8304007F021B93D4A3E493B481E
:1049A00012780B601E21022301802370002AD9D1C6
:1049B000102007F0D1F808B1384B4360384B002283
:1049C0000272C3600DF5057DBDE8304007F006B901
:1049D000314B344AB2F800C01A68013205461A60F9
:1049E00080B20CF101031B1A1BB25BB3142A29D04D
:1049F000264A002B11880DDB012B02D0042BA8BF07
:104A00000423194489B200201180FFF763FE0028B7
:104A1000ACD1B4E75D1C35D003332DDA04238B42CF
:104A200001D94B1C9BB2C91A89B211809AE70022A6
:104A300010201A7007F090F808B1184B43601A4B19
:104A40000122BDE700214FF4847268462170FDF712
:104A500007FC4FF48472032369460DEB02008DF8C6
:104A60000030ADF80450FDF711FA0022002342A9EE
:104A70000E480EF039FD7BE7A0EB0C03013B9BB227
:104A8000012BCCD80123CEE7857000207E7000205A
:104A90008470002068C10100F036002050C1010080
:104AA000514900007C70002031480000340700208C
:104AB000012838B5044627D0022839D000B138BDC6
:104AC000264D2B691B685B0623D4AB6840211B690C
:104AD000284698472B691B68190623D5AB681F48E1
:104AE000DB68802198471E4D2B78A3420AD00C200A
:104AF00007F032F808B11B4B436001230372847244
:104B000007F06CF82C7038BD144D2B691B685806E3
:104B1000DBD4AB684021DB68284698472B691B68CB
:104B20001906DBD4AB680D481B6980219847DAE78A
:104B30000A4D2B691B685A06AB684FF040014CBF09
:104B4000DB681B69284698472B691B681B06E9D45C
:104B5000AB680248DB6880219847C4E7CC86010037
:104B60008670002020C101002DE9F04FBE4DBF4CE2
:104B70000023ADF5497D2B7004F12807062101269D
:104B800000E021792068E388D0F810E0D0F80880B0
:104B9000DEF800C0DA0754BF43F4B01383F4D01337
:104BA00023F4801206FA01F9DB074CBF4CEA090333
:104BB0002CEA0903CEF80030D8F8003008349847C2
:104BC000BC42DED1AA4EAB4C3269B168136823F403
:104BD000007313600B684FF4803209213046984708
:104BE00004F12008172101272068E388D0F810E09D
:104BF000D0F80890DEF800C0DA0754BF43F4B013D1
:104C000083F4D01323F4801207FA01FADB074CBFB8
:104C10004CEA0A032CEA0A03CEF80030D9F8003037
:104C200008349847444501D02179DDE790480122B6
:104C30000D21FFF7E9FD012208218F48FFF7E4FD70
:104C40000020FFF735FF66210220FFF743FD8F218B
:104C50000120FFF73FFD4FF48472002102A8FDF709
:104C6000FFFA02238DF808304FF48472392302A929
:104C700086A8ADF80C30FDF709F98048DFF824A2CA
:104C8000DFF824B27E4FDFF824927C4CDFF8E0811D
:104C90000022002386A90EF027FC4FF0FF3244A922
:104CA00020464FF0FF330EF07BFC0028F5D19DF835
:104CB0001031072BF1D801A252F823F00B4E00005F
:104CC000EF4D0000F94D00009B4C0000D14D00005D
:104CD0001F4D0000FF4C0000DD4C00009DF80F024E
:104CE000FFF7E6FE9DF80F32022BD6D12B78002B72
:104CF00040F09080BDF88C01FFF79AFDCDE7469B10
:104D00009DF81421BB4200F0A2804B45C5D1022A78
:104D100000F0CE80032AC0D100232B70BDE79DF8A0
:104D200014312A78012B00F08880012AB5D1032B99
:104D3000B3D1544BBDF816211B8853491A44534B29
:104D40001B889B1A0A681BB201320A6083EAE3716E
:104D5000A1EBE37189B2072940F2B880642A00F020
:104D6000B580DA1CC0F2D580042BA8BF04239BB207
:104D700047490A8813449BB241F2883293420B8020
:104D800028BF1346B3F5C87F424A38BF4FF4C873F3
:104D900002FB03F3404AB3FBF2F3C3F55963073355
:104DA00003EB032340F60552B3FBF2F1C1F580712A
:104DB000013189B20120FFF78DFC0C2006F0CCFEFA
:104DC00008B1364B43600323037206F007FF64E724
:104DD00033691A689DF81431D10648BF83F0010386
:104DE0002BB3B3681021DB684046984755E79DF820
:104DF0001401FFF75DFE50E7287858B9BDF814316B
:104E0000AAF80030FFF7A4FD47E7BDF81401FFF74B
:104E10000FFD42E74FF4847244A986A8FDF736F8E7
:104E2000002286A9204600230EF05EFB35E7B3681A
:104E300010211B69404698472FE7BDF91601ABF8D2
:104E40000000022A7FF429AFFFF782FD25E7022A3E
:104E50007FF460AF124A01230C20137006F07CFE31
:104E60000028AED1AFE700BF85700020C8950100D3
:104E7000B8860100A8950100CC8601003407002007
:104E80003148000074700020F03600207870002057
:104E900076700020605B03001009050068C1010006
:104EA000847000207C7000207A700020514900003E
:104EB000194A01230C20137006F04EFE08B1174B5F
:104EC00043600123037206F089FEE6E6124A0023DE
:104ED0000C202B70137006F03FFE034608B1104AF9
:104EE0004260104A019312885A8100221A721846B1
:104EF00006F074FE102006F02FFE019B024608B15A
:104F00000949416018460123D760137206F066FE16
:104F1000C3E64FF6FC732BE78470002068C10100E4
:104F200020C101007870002050C1010000B5C3B05D
:104F30000DF1030001F064F910B99DF8033013B1CD
:104F400043B05DF804FB01A801F012F90028F7D185
:104F500001A801F08FF9F3E710B582B004460DF116
:104F6000070001F04DF970B99DF807000A490B4B95
:104F70000B4A002818BF0B462046082105F038FAD6
:104F8000002002B010BD0346064A2046012105F06C
:104F90002FFA002002B010BDF4950100F095010039
:104FA00030960100FC95010010B5C2B0044601A87E
:104FB00001F040F9831C22D0C8B901A801F000F922
:104FC00060B92046124A082105F012FA2046114A1B
:104FD000082105F00DFA002042B010BD03460E4A2C
:104FE0002046012105F004FA002042B010BD204601
:104FF0000A4A012105F0FCF9002042B010BD20460C
:10500000074A012105F0F4F9002042B010BD00BFAD
:10501000B0960100E09601008896010068960100B4
:10502000489601002DE9F04107468846FCF768F8EC
:1050300098B106464046FCF763F80024054602E0B6
:105040000134B44209D038192A46414610F0E0FB39
:105050000028F5D12544AE4203D29FED050ABDE8F4
:10506000F08101467819BDE8F04110F095BE00BF0F
:105070000000C07F2DE9F04107468846FCF740F864
:10508000D0B106464046FCF73BF80024054602E056
:105090000134A64210D038192A46414610F0B8FB18
:1050A0000028F5D12544AE4206D301460A227819DC
:1050B000BDE8F04111F016B84FF0FF30BDE8F081C7
:1050C00030B54D681E49C3B004462846FCF788F841
:1050D00088B11C492846FCF783F808B143B030BDBD
:1050E00001F0F0F8B0B9184A0821204643B0BDE8F5
:1050F000304005F07DB901A801F03AF8C0B901A827
:1051000001F0B8F870B9114A0821204605F070F98D
:1051100043B030BD0E4A0121204643B0BDE83040C7
:1051200005F066B90B4A0121204605F061F9D5E783
:10513000094A0121204605F05BF943B030BD00BFAC
:1051400024970100C097010014980100989701006E
:10515000F09701007497010058970100022901D0CF
:105160000020704708B51146FFF7AAFF002008BDD0
:105170005AB338B51E4D2B78044673B30B7803F041
:10518000DF03592B0AD01B4A082105F031F9002111
:10519000204605F0DDF900232B7038BDA81C01F076
:1051A0000FF898B9144A0821204605F021F96B78C8
:1051B000002BECD0A81C01F05DF898B103460F4A13
:1051C0000121204605F014F9E1E7704703460C4A37
:1051D0000121204605F00CF9D9E70A4A012105F022
:1051E00007F9D4E7084A0821204605F001F9CEE77F
:1051F000F4360020509801006C980100909801004E
:10520000889601003C9801009897010008B410B5F9
:10521000144683B0216805AB084453F8042B01936E
:10522000C1F5006112F080F8002806DB2368C3F5A1
:105230000062824224BFC018206003B0BDE8104065
:1052400001B070472DE9F04F0129C7B0824600F048
:10525000798102290F4600F06E81CA4D01292B7811
:1052600040F20B82CDE901320026111FDFF8E4B3D2
:10527000DFF8E493039501EB87071446B046354603
:1052800054F8046F59463046FBF7AAFF49460028F8
:10529000304608BF4FF00108FBF7A2FF002808BF07
:1052A0000125BC42ECD1019B2E46DDE902251BB94C
:1052B000B8F1000F00F0E28154682046FBF720FFB0
:1052C000002800F02F8140F20112002105A8FCF710
:1052D000C7FFAD492046FFF7A5FEAC498DED050A95
:1052E0002046FFF79FFEAA498DED060A2046FFF7EC
:1052F00099FEA8498DED070A2046FFF793FEA649BF
:105300008DED080A2046FFF78DFEA4498DED090AB0
:105310002046FFF787FEA2498DED0A0A2046FFF7D7
:1053200081FEA0498DED0B0A2046FFF77BFE9E49CA
:105330008DED0C0A2046FFF775FE9C498DED0D0A98
:105340002046FFF76FFE9A498DED0E0A2046FFF7C3
:1053500069FE98498DED1E0A2046FFF763FE9649C7
:105360008DED1F0A2046FFF75DFE94498DED200A62
:105370002046FFF757FE92498DED210A2046FFF7A0
:1053800051FE90498DED220A2046FFF74BFE8E49D3
:105390008DED0F0A2046FFF745FE8C498DED100A72
:1053A0002046FFF73FFE8A498DED110A2046FFF7A0
:1053B00039FE88498DED120A2046FFF733FE8649F3
:1053C0008DED130A2046FFF72DFE84498DED140A5A
:1053D0002046FFF727FE82498DED150A2046FFF78C
:1053E00021FE80498DED160A2046FFF71BFE7E49FF
:1053F0008DED170A2046FFF715FE7C498DED180A42
:105400002046FFF70FFE7A498DED190A2046FFF777
:1054100009FE78498DED1A0A2046FFF703FE76490A
:105420008DED1B0A2046FFF7FDFD74498DED1C0A2A
:105430002046FFF7F7FD72498DED1D0A2046FFF764
:10544000F1FD70498DED250A2046FFF7EBFD6E4911
:105450008DED260A2046FFF7E5FD6C498DED270A04
:105460002046FFF7DFFD6A498DED280A2046FFF749
:10547000D9FD68498DED290A2046FFF7FBFD6649F5
:10548000ADF88C002046FFF7F5FD64498DF80F015B
:105490002046FFF7EFFD62498DF810012046FFF727
:1054A000E9FD6049034620468DF81231FFF7E2FD21
:1054B0005D49ADF813010A2205A8FDF729F9002876
:1054C00053D05A4A0821504604F092FF564B584A8E
:1054D0000821504604F08CFF08215046534A04F03E
:1054E00087FF5449504810F06FFB20B1524A032106
:1054F000504604F07DFF514C514A5046082104F0BB
:1055000077FF50464F4905F023F840F2011205A9F4
:10551000A01CFCF7BBFC012300206670237047B081
:10552000BDE8F08F484A0121504604F061FF002099
:1055300047B0BDE8F08F506844490192FBF750FE38
:10554000019AD8B940F20112002105A8FCF788FEA3
:1055500005A800F00DFE002840F0B18032492C2251
:1055600005A8FDF7D5F8002878D15046384A032120
:1055700004F03EFF002047B0BDE8F08F014D2B78CE
:1055800070E600BF87700020209D0100289D01006B
:10559000309D0100389D0100409D0100489D0100A3
:1055A000509D0100589D0100609D0100689D010013
:1055B000709D0100789D0100809D0100889D010083
:1055C000909D0100989D0100A09D0100A89D0100F3
:1055D000B09D0100B89D0100C09D0100C89D010063
:1055E000D09D0100D89D0100E09D0100E89D0100D3
:1055F000F09D0100F89D0100009E0100089E010041
:10560000109E0100189E0100209E0100289E0100AE
:10561000309E0100389E0100409E0100489E01001E
:10562000509E0100609E0100F8370020689E010036
:105630001CAF0100889E01008C9E0100F436002002
:10564000BC9E010071510000049D0100E89A010018
:10565000F09A0100649B0100809B010050461D4AA6
:10566000082104F0C5FE50461B4B1C4A082104F0DB
:10567000BFFE002047B0BDE8F08F4BBB184A0321A6
:10568000504604F0B5FE174A0321504604F0B0FE20
:10569000154A0321504604F0ABFE144A032150463C
:1056A00004F0A6FE124A0321504604F0A1FE114A5E
:1056B0000321504604F09CFE01232B7037E750462F
:1056C0000D4A012104F094FE002047B0BDE8F08FA0
:1056D0000026F1E5149B0100F8370020409B0100F3
:1056E000949B0100A09B0100E89B01002C9C010001
:1056F0007C9C0100D09C01005897010010B5C2B0FD
:10570000044640F20112002101A8FCF7A9FD01A8FE
:1057100000F02EFDB0B90F490A2201A8FCF7F8FFEE
:1057200040B120460B4B0C4A082104F061FE0020DA
:1057300042B010BD2046094A032104F059FE002062
:1057400042B010BD2046064A012104F051FE00205F
:1057500042B010BDF83700201CAF0100F09A0100E4
:105760005897010010B5C2B040F201120021044662
:1057700001A8FCF775FD01A800F05CFD831C1FD09B
:1057800070B913490A2201A8FCF7C2FF80B1204674
:105790000F4B104A082104F02BFE002042B010BD30
:1057A00020460D4A012104F023FE002042B010BD26
:1057B00020460A4A032104F01BFE002042B010BD1F
:1057C0002046074A012104F013FE002042B010BD1C
:1057D000F83700201CAF010068960100F09A010024
:1057E000489601002DE9F04F4A4F4B4EDFF834A1A7
:1057F000DFF83481DFF83491484C002585B03D70E6
:10580000FFF794FB4FF458624FF47F4386F87C50C7
:10581000A6F8782086F8FE50A6F8FB304FF0FF324D
:105820004FF0FF3301A920460DF0BAFE0028F5D154
:105830009DF80430052BF1D8DFE803F03733282139
:1058400012033B78002BE9D09DF8063096F8FB2038
:105850009A42E3D0304686F8FB3000F0B1FCDDE739
:105860003B78002BDAD0BDF80630B6F878209A42A3
:10587000D4D0A6F87830304600F0A2FCCEE7BDF8D0
:105880000630A6F8FF3055BB0025C7E70C2006F010
:1058900063F908B1C0F804800125057206F09EF98D
:1058A000BCE73B78002BB9D0E5E7304600F060FC60
:1058B0000028B3D101234FF486703B7006F04CF9F9
:1058C000834608B1C0F804A040F2011231460BF142
:1058D0000800FCF7DBFA584606F080F99EE708213D
:1058E0000DEB01000AF068FA1C2006F035F90546B8
:1058F00008B10B4B4360C5F808900A224946304670
:10590000FCF706FF0023E8602B746B61284606F065
:1059100065F9B9E788700020F847002004070020E7
:1059200090C00100F0C0010068C10100F83F0020F4
:10593000D0B5304A436893428AB02FD02E4A934262
:105940003BD02E4A934245D02D4A934202D00020AC
:105950000AB0D0BD2B4B82689A42F8D1047B002C50
:10596000F5D1002600270B22CDE90324CDE90667F7
:10597000CDE90144244B254900944FF400622448AA
:105980000DF0F6FC234922480DF0A8FC09942248AA
:1059900032463B4609A90DF0A7FDD8E7037A192B3B
:1059A000D5D10223CDE908330022002309A91A48E2
:1059B0000DF09AFD00200AB0D0BD037A012BC6D1AC
:1059C000B0F90C30032223EAE3738DF82420ADF8FC
:1059D0002630E9E7037A4BB1012BB8D1837A05224F
:1059E00008928DF82230089B0993DDE74389042251
:1059F000EBE700BFA8C0010038C1010020C10100D1
:105A000008C1010050C20100E55700008086002057
:105A1000600B0020E49E01000407002008B50C2064
:105A200006F09AF808B1044B43604FF48073038189
:105A3000BDE8084006F0D2B880C1010010B5264A82
:105A40004368934282B008D0244A934218D0244A33
:105A5000934221D0002002B010BD224B82689A42AE
:105A6000F8D1037B002BF5D11F48204A01698468D7
:105A70000B6843F400230B60236813219847E9E780
:105A8000037A202BE6D140F6CD4200231848CDE919
:105A900000230FF045F9DDE7037A002BDAD1437AD2
:105AA00073B1012BD6D1BFF34F8F1249124BCA6885
:105AB00002F4E0621343CB60BFF34F8F00BFFDE7FA
:105AC000094803691B681B0383684FF4002154BF16
:105AD000DB681B699847BDE708C10100A8C0010049
:105AE00080C1010050C20100CC86010001000A0003
:105AF0009805002000ED00E00400FA0501480EF0D2
:105B000093B800BFD8010020114883689B6CEBB1AB
:105B100010B582B001AA0421984720B90D4C019A12
:105B200023689A4201D102B010BD0C2006F014F88F
:105B300008B1094B4360019BB3FA83F35B0903721D
:105B400006F04CF8019B236002B010BD704700BF07
:105B5000F48601000C4B002078C00100FFF7D4BF91
:105B600030B5364A4368934283B0044623D0344A62
:105B7000934202D0002003B030BD324B82689A427B
:105B8000F8D1037B002BF5D12F4802F07FFA0446B1
:105B90000028EFD12D4B18602D4D28460DF0CAF985
:105BA000002838D14FF4804200232A48CDE9002351
:105BB0000FF0B6F8DEE7254B186838B12448A16825
:105BC0008368E268DB68002B34D09847636953B17F
:105BD000BFF35B8F53E8001F013943E80012002A2E
:105BE000F8D1BFF35B8FA3696BB1E26882420AD040
:105BF000BFF35B8F53E8001F013143E80012002A16
:105C0000F8D1BFF35B8F237C0BB90120B3E7A06809
:105C10000FF0E6FBF9E7AB682BB11B6C1BB10E492B
:105C2000224628469847AB681B6A002BBAD0084822
:105C30009847B7E76FF05700C8E700BF90C0010072
:105C400008C1010050C20100155D00000C4B00208E
:105C5000F4860100280500205D5C00002DE9F0417C
:105C6000054682B08368DA6B0AB19047AB68264F6D
:105C7000DFF89C8029E0AB681B69002B32D0012241
:105C80000DF1070128469847012829D19DF8070002
:105C9000FDF76EFC0646382005F05EFF044608B1AD
:105CA000C0F804809DF8072022720023636346B188
:105CB000AB681B6904F109011BB3324628469847BB
:105CC0006063204605F08AFFAB68DB6A13B12846A3
:105CD000984798B13B68002BCDD1FFF715FFCAE775
:105CE000AB681B69094C01E0AB681B694FF400729B
:105CF0002146284613B198470028F5DC02B0BDE8DC
:105D0000F0816FF05700DBE70C4B00200C490020BE
:105D1000A8C00100022808B502D004280ED008BD92
:105D2000102005F019FF08B10B4B436000230B4A0C
:105D300082600373BDE8084005F050BF102005F0F5
:105D40000BFF08B1044B43600223044A82600373D3
:105D5000BDE8084005F042BF08C1010064C201006F
:105D600010B54FF0805282B0D2F8A830084CD2F86B
:105D7000A41000916FEA83436FEA9343054A9BB2F4
:105D80000D2120460FF0D4FF204602B010BD00BF09
:105D9000FC48002070A001008170704708B50C20FD
:105DA00005F0DAFE08B1044B436000230381BDE82F
:105DB000084005F013BF00BF80C1010090F900C08A
:105DC0004378BCF1000F11DBEBB930B5136083B041
:105DD0004FF4005400250B601148CDE900452246E0
:105DE0002B460EF09DFF002003B030BD072B0DD0D9
:105DF000082B08D1C388222B05D90A481060232319
:105E00000B60002070476FF085007047C388172B28
:105E1000F9D90548106018230B600020704700BFB7
:105E2000D0050020E8010020104B002010B50B4BDE
:105E30000B4AD3E9041486B0CDE90414DC6859890F
:105E4000CDE902141C89D3E90031CDE90014082101
:105E500004F0CEFA002006B010BD00BF284B002091
:105E600084A0010008B5034A034B082104F0C0FADE
:105E7000002008BD1CA10100E8010020284B426859
:105E80009A4201D000207047264B82689A42F9D18D
:105E90002DE9F043047B85B01CB1002005B0BDE8BE
:105EA000F083214B93E803000A220290ADF80C1016
:105EB00002A801A910F016F9019B03ADAB4281467F
:105EC00086B202D21A782E2A1FD0A04627460BF09F
:105ED00077FF05460BF07CFF144A154B16810146EF
:105EE000516114495160C3E90450596000204FF4D6
:105EF0008051C2E90305A3F808909C7283F80B80D7
:105F00005781D86011601960C7E721460A22581CE2
:105F100010F0E8F887B2C4B2C0F30728D7E700BF93
:105F200008C1010050C2010028A10100284B002037
:105F3000104B002078B2010000B5084A83B0082158
:105F400004F056FA4FF4005200230548CDE900232F
:105F50000EF0E6FE002003B05DF804FB30A1010066
:105F6000D0050020114B1B78012B0FD0022B0BD139
:105F70000F4B1B78B3B90F4A0F4B127803F108008F
:105F8000002A08BF184670470C487047084B1B781A
:105F900053B9084A0A4B127803F10800002A08BFD7
:105FA00018467047074870470748704789700020B7
:105FB0008C7000208B70002034A2010054A20100DC
:105FC00044A2010024A201002CA2010010B54C4CF7
:105FD00022787AB943684B498B4212D04A498B42A6
:105FE0000AD04A498B423DD0494A934246D0494A59
:105FF000934225D0002010BD474B90F803211A7022
:10600000F8E7037A063B0B2BF4D801A252F823F0F1
:10601000EB600000D1600000F55F0000F55F00005C
:10602000F55F0000F55F0000A5600000F55F00006F
:10603000F55F0000F55F0000F55F0000E56000001F
:10604000037A002BD6D1102005F086FD08B1334B22
:106050004360334B0022C0E9022305F0BFFD01205D
:10606000207010BD037A002B42D0012BC2D12D4BE2
:1060700010201A7005F070FD58B90CE02A4B8268A8
:106080009A42B7D1037B002BB4D1102005F064FDF8
:1060900008B1224B4360254B0022C0E9022305F0E2
:1060A0009DFDA7E7437A224A003B18BF0123102039
:1060B000137005F051FD014608B1184B4B600023E9
:1060C0008B60FFF74FFFC860084605F087FD91E73A
:1060D000144B002210201A7005F03EFD01460028E6
:1060E000EBD1ECE70C4B427AF4E70E4B0122F1E7DF
:1060F000102005F031FD01460028DED1DFE700BFAA
:106100008A700020A8C00100F0C0010078C0010022
:1061100008C1010080C1010089700020C0C00100D9
:1061200014A201008C70002050C201001CA20100CA
:106130008B70002070B504460C4D28460CF0FAFE1A
:1061400080B1AA6840F203131668284622464FF42D
:10615000C061B04728B994F8FE30012B01D084F813
:10616000FE0070BD6FF0120070BD00BF0887010017
:1061700070B5C0B0F8B10546104C20460CF0DAFE00
:10618000B0B1A36820461E686A46FF230021B047CD
:10619000044650B99DF8FE30012B18BF8DF8FE0063
:1061A000FF2269462846FBF771FE204640B070BDCD
:1061B0006FF01204F9E76FF01504F6E708870100A5
:1061C000C0B130B50446C1B00C4D28460CF0B2FE4B
:1061D00068B1FF2221466846FBF758FEAA68FF23F4
:1061E000546800216A462846A04741B030BD6FF090
:1061F0001200FAE76FF01500704700BF0887010032
:1062000030B5C3B098B1054601A8FFF793FF044627
:1062100050B9FF2101A800F04BFCDDF803311B1A37
:10622000B3FA83F35B092B70204643B030BD6FF0A7
:106230001504F9E730B5C3B0054601A8FFF77AFFAA
:10624000044610B1204643B030BDFF2101A800F044
:106250002FFCDDF80331834208D140F2011201A97D
:106260002846FBF713FE204643B030BD6FF0010413
:10627000E8E700BF00B310B5C2B00146FF2201A895
:10628000FBF704FE9DF80231012B18BF00234FF0ED
:10629000FF0101A818BF8DF8023100F009FCCDF80C
:1062A00003010748816840F203134C6801AA4FF4C8
:1062B000C061A04742B010BD6FF01500704700BF2D
:1062C0000887010010B5C2B040F20312FF2101A8F7
:1062D000FBF7C6FF0548816840F203134C6801AA2A
:1062E0004FF4C061A04742B010BD00BF0887010055
:1062F00043689868704700BFF0B545680669A868AC
:10630000CC18844289B025D822B30592032249BA19
:1063100006938DF81C20022701AA0023ADF8041073
:1063200002928DF8103003974FF40042002330465C
:106330000DF0D8F9044650B92868AB8881683A4610
:106340008C6802A9A047044630460DF089F9204622
:1063500009B0F0BD6FF01504F9E700BF10B544684F
:1063600000690DF03FFA20680CF0E4FD00280CBF36
:106370006FF01200002010BD2DE9F04FD0F804801E
:1063800006691F46D8F808301546CA199A428BB0DC
:106390004ED8002D4CD00C464FF40042304600231E
:1063A0000DF0A0F90146002836D187B305EB070AA6
:1063B000AB46CDE90061A4B202258946012707E07A
:1063C000A42000210EF004F90134D345A4B227D053
:1063D0000DF10B03CDE9073703AA1BF8013B059527
:1063E0008DF818908DF82450049262BA8DF80B3015
:1063F000D8F80000B8F80430ADF80C20826804A981
:1064000096680222B0470028DAD0009E014600912B
:1064100030460DF025F9009908460BB0BDE8F08F25
:10642000DDE90061009130460DF01AF90099F3E7BB
:106430006FF01501F0E700BF4B1CDBB28170817675
:1064400080F82530C37600F8061C704750E9023109
:10645000D0F8AC00184700BF0369002283F84A2037
:10646000704700BF036993F84A0008B193F84800E9
:10647000704700BF0369002283F84B20704700BFBC
:10648000036993F849007047036993F8482012B1F3
:1064900093F84A202AB993F8490018B193F84B00B1
:1064A00070470120704700BF012070470369C3E9AE
:1064B000001270470229036906D0042910D001296F
:1064C00009D06FF08500704793F8AB30C3F34003F9
:1064D000136000207047D3F8A43013600020704789
:1064E00093F8AB3003F00103F2E700BF08B50146B3
:1064F000034801F091FF10B1012300F8073C08BDEB
:10650000280C002001690B68012281F84B2013B18F
:1065100091F8493003B97047014808310DF060BB6C
:10652000000D002001690B68012281F84A2013B197
:1065300091F8483003B97047014808310DF050BB5D
:10654000000D002070B5144602F14C060A1E82B000
:10655000054615DDD4F88C00314601F03DF823687E
:10656000012284F8492013B194F84B30C3B9D4F810
:106570008C104B684A699A1ACB699B1A3F2B0AD92F
:106580000A4B4022CDE9003431460123284602F06F
:1065900035F802B070BD012384F8B03002B070BD90
:1065A00004F1080102480DF01BFBE0E7456500001F
:1065B000000D002010B514460122236884F84820FD
:1065C00082B013B194F84A30C3B9D4F89C30F3B90F
:1065D000D4F890309A681B699A4205D1D4F8983063
:1065E0001A699B689A4220D011480022002304F1C6
:1065F000180102B0BDE810400DF048BB0C4804F192
:1066000008010DF0EDFAD4F89C30002BE0D0D4F85E
:1066100098000822694601F059F80828D8D1019954
:10662000D4F894000CF02CFED2E702B010BD00BFED
:10663000000D002038B50E4B04695968C4F8B40049
:10664000002504F1B802C4F8B85069B10A605A6074
:1066500004F1080007490DF0A7FA04F118000649F3
:106660000DF008FB002038BDC3E90022F0E700BFB1
:10667000280C00204D6400007D660000F0B5D0F8C5
:106680009C305B681B6A1E7D87B00446304601F073
:1066900061FF10BBD4F88430A4F11807FBB9D4F81B
:1066A0008820D2B1A06F03A900F0D6FF0546A0B1A3
:1066B00083064FF0000384F83030144B039908BF71
:1066C00000F1FF35CDE900372A460223304601F0BC
:1066D00095FFA06F294600F0E3FF07B0F0BD054627
:1066E0000822D4F8800004A901F030F80828F4D179
:1066F000064B059984F83050049A0391CDE9003790
:106700003046022301F07AFF07B0F0BDB565000006
:1067100070B504460E4601791548154601F06CFE29
:1067200010B394F900206378002A06DB202B10D0E8
:10673000222B0AD06FF0850070BD212BFAD11038C2
:10674000072328603360002070BD638800F8093C8F
:10675000F9E72B681A6840F8102C9A889B7900F8A2
:106760000A3C20F80C2CEEE76FF0120070BD00BF61
:10677000280C0020F0B5056995F8AE3083B08BB1D8
:1067800095F8AF3073B9D5F89C309342144616464D
:106790000BD2D5F8A0302BB1D5F8900000F01CFF3B
:1067A000064606BB002003B0F0BD0F46D5F89400A6
:1067B00001A9002200230CF033FD0028F2D1394654
:1067C00022460198FBF762FBD5F898000094082256
:1067D000694600F001FF0828E3D00199D5F894003C
:1067E0000CF04EFDDEE7002385F848300022002340
:1067F00005F1180102480DF049FA304603B0F0BD2A
:10680000000D002038B5154B054693E80300002421
:106810000B0CC5F8A400A5F8A81085F8AA30A5F8B7
:10682000AE40A5F84840A5F8AB4085F8B0404022FE
:10683000214605F14C00FBF713FDD5F88C30C3E978
:106840000244C3E905445C601C61D5F89030C3E99B
:106850000244C3E905445C601C6138BDB88901008D
:1068600030B5002385B081F8AD300D46016AADF832
:106870000C204FF40030029008790A4C42F2A1013A
:1068800001910A2201A901F0E9FB04E001200CF0CA
:106890003BFB013C03D095F8AD30002BF6D005B0A2
:1068A00030BD00BFA186010010B540290469134620
:1068B00060D019D801391F2913D81F2911D8DFE852
:1068C00001F03B1010101010103E1010101010109E
:1068D000104D10101010101010101010101010107B
:1068E00010326FF0120010BDB1F5807F4BD0B1F5C2
:1068F000007F0DD194F8AC2002F0BF02002B36D1FE
:1069000084F8AC2001694068FFF7AAFF002010BDA1
:106910008029E6D194F8AC2002F0EF02002BEFD0F2
:1069200042F01002ECE794F8AC2002F0FB02002BDE
:10693000E6D042F00402E3E7C4F8A430E6E794F8B6
:10694000AC2002F0FE020BB142F0010284F8AC2050
:10695000016940680122FFF783FFD7E794F8AC2074
:1069600002F0FD02002BCBD042F00202C8E742F059
:106970004002C5E794F8AC2002F0F702002BBFD02C
:1069800042F00802BCE794F8AC2002F0DF02002BD2
:10699000B6D042F02002B3E770B5046982B0054674
:1069A000D4F88C0000F092FED4F88C309A68196903
:1069B000914204BF002284F8492094F8B020064692
:1069C00062B15A685969DB69521A9B1A3F2B05D983
:1069D00094F8AE302BB9002384F8B030304602B0C2
:1069E00070BD6B68054A196A0123087BCDE9002454
:1069F00004F14C01402201F001FEECE74565000086
:106A000030B5024683B00C462648114601F0E6FC3C
:106A100070B1054650F8B439611E5B68052907D886
:106A2000DFE801F008061508030D012305F8053C11
:106A300003B030BD03B0BDE83040FFF7E3BE15F84A
:106A4000053C002BF4D0002305F8053CF0E715F8D1
:106A5000062CB2B115F86C3C002BE9D155F8B43CCA
:106A6000012205F86C2C002BE2D015F86A3C002BB3
:106A7000DED00D48A5F1AC0103B0BDE830400DF00B
:106A8000AFB81B6A094A1C7BA5F16801CDE900205B
:106A900001234022204601F0B1FD012305F8063C08
:106AA000D8E700BF280C0020000D0020456500003D
:106AB000F9B110B40139104C00F1FF3C01444FF022
:106AC000FF301CF8013F83EA000202F00F0261452B
:106AD00054F8222082EA101080EA131303F00F0307
