:1010000080C0002099C40000C1BD00006DC4000074
:101010006DC400006DC400006DC40000000000003D
:1010200000000000000000000000000011BF0000F0
:101030006DC400000000000071BE00006DC400001F
:10104000E1C00000E1C00000E1C00000E1C000001C
:10105000E1C00000E1C00000E1C00000E1C000000C
:10106000E1C00000E1C00000E1C00000E1C00000FC
:10107000E1C00000E1C00000E1C00000E1C00000EC
:10108000E1C00000E1C00000E1C00000E1C00000DC
:10109000E1C00000E1C00000E1C00000E1C00000CC
:1010A000E1C00000E1C00000E1C00000E1C00000BC
:1010B000E1C00000E1C00000E1C00000E1C00000AC
:1010C000E1C00000E1C00000E1C00000E1C000009C
:1010D000E1C00000E1C00000E1C00000E1C000008C
:1010E000E1C00000E1C00000E1C00000E1C000007C
:1010F000E1C00000E1C00000E1C00000E1C000006C
:1011000030B490F800F020F007016FF0000C10F000
:10111000070491F820F040F048804FF000046FF091
:101120000700D1E9002391F840F000F1080082FAAD
:101130004CF2A4FA8CF283FA4CF3A2FA8CF34BBB78
:10114000D1E9022382FA4CF200F10800A4FA8CF2F1
:1011500083FA4CF3A2FA8CF3E3B9D1E9042382FABF
:101160004CF200F10800A4FA8CF283FA4CF3A2FAD4
:101170008CF37BB9D1E9062301F1200182FA4CF20C
:1011800000F10800A4FA8CF283FA4CF3A2FA8CF373
:10119000002BC6D0002A04BF04301A4612BAB2FA95
:1011A00082F200EBD20030BC7047D1E9002304F09A
:1011B0000305C4F100004FEAC50514F0040F91F8CF
:1011C00040F00CFA05F562EA05021CBF63EA05036C
:1011D00062464FF00004AAE7000000000000000093
:1011E00002780B78012A28BF9A4240F0D8806DE936
:1011F000044540EA0104CDE902676FF0000C4FEAB4
:1012000044721AB380EA010414F0070F6BD100F0A6
:10121000070420F0070004F0030521F007014FEA5E
:10122000C505F0E8042314F0040FF1E804670CFA94
:1012300005F462EA040266EA04060BD063EA0403DA
:10124000624667EA0407664604E000BFF0E804234C
:10125000F1E8046782FA4CF582EA0604A4FA8CF4F9
:101260006CBB83FA4CF583EA0705A5FA8CF595B9B2
:1012700050E9022351E9026782FA4CF582EA06043A
:10128000A4FA8CF483FA4CF583EA0705A5FA8CF5E9
:101290002543DBD09CB92DBAB5FA85F424F00704B8
:1012A00027FA04F1DDE9026723FA04F303F0FF00F3
:1012B00001F0FF01FDE80445A0EB0100704724BAEE
:1012C000B4FA84F424F0070426FA04F1DDE9026795
:1012D00022FA04F202F0FF0001F0FF01FDE80445EC
:1012E000A0EB0100704714F0030F3CD110F0030491
:1012F00028D150F8082B51F8083B82FA4CF582EAC5
:101300000305A5FA8CF55DB950F8042C51F8043C9E
:1013100082FA4CF582EA0305A5FA8CF5002DE8D097
:101320002DBAB5FA85F424F0070423FA04F122FA61
:1013300004F202F0FF0001F0FF01FDE80445A0EB1C
:10134000010070474FEAC40420F0030050F8082B56
:1013500021F0030151F8083B0CFA04F462EA04029C
:1013600063EA0403C9E710F003041DD0A1EB0401F4
:1013700020F00300E40750F8042B06D012D28B783B
:101380005FFAA2F4E41A06D12BB1CB785FFAB2F47B
:10139000E41A00D133B920465DF8104B7047A2EB38
:1013A0000300704701F1040150F8042BCC0721F031
:1013B000030151F8043B48D824D222F07F4482FA3A
:1013C0004CF594EA1325A5FA8CF50AD165B951F8C4
:1013D000043B84EA0204B4EB036F0ED150F8042BF3
:1013E000EBE74FEA132355E035F07F454DD1087800
:1013F000FDE80445C0F1000070474FEA126203F0B7
:10140000FF0347E002EA1C4482FA4CF594EA1345D4
:10141000A5FA8CF50AD165B951F8043B84EA0204B7
:10142000B4EB034F0CD150F8042BEBE74FEA134316
:1014300030E015EA1C4528D10B884FEA124229E01A
:101440004FEA124203EA1C4324E002F0FF0482FA4E
:101450004CF594EA1365A5FA8CF50AD165B951F8F3
:10146000043B84EA0204B4EB032F09D150F8042BA7
:10147000EBE74FEA13630DE015F0FF0F05D10B68A2
:101480004FEA122223F07F4304E04FF00000FDE812
:101490000445704712BA1BBA82FA4CF482EA03047C
:1014A000A4FA8CF5B5FA85F402FA04F203FA04F30F
:1014B0004FEA1260FDE80445A0EB1360704700BFDF
:1014C00081F0004102E000BF83F0004330B54FEAF5
:1014D00041044FEA430594EA050F08BF90EA020F62
:1014E0001FBF54EA000C55EA020C7FEA645C7FEAF5
:1014F000655C00F0E2804FEA5454D4EB5555B8BF18
:101500006D420CDD2C4480EA020281EA030382EA88
:10151000000083EA010180EA020281EA0303362D1A
:1015200088BF30BD11F0004F4FEA01314FF4801CED
:101530004CEA113102D0404261EB410113F0004FFF
:101540004FEA03334CEA133302D0524263EB4303B6
:1015500094EA050F00F0A780A4F10104D5F1200E54
:101560000DDB02FA0EFC22FA05F2801841F10001AF
:1015700003FA0EF2801843FA05F359410EE0A5F183
:1015800020050EF1200E012A03FA0EFC28BF4CF0B4
:10159000020C43FA05F3C01851EBE37101F000456A
:1015A00007D54FF0000EDCF1000C7EEB00006EEB77
:1015B0000101B1F5801F1BD3B1F5001F0CD3490801
:1015C0005FEA30004FEA3C0C04F101044FEA445258
:1015D00012F5800F80F09A80BCF1004F08BF5FEADF
:1015E000500C50F1000041EB045141EA050130BDBF
:1015F0005FEA4C0C404141EB0101013C28BFB1F5D1
:10160000801FE9D291F0000F04BF01460020B1FA1B
:1016100081F308BF2033A3F10B03B3F120020CDAEE
:101620000C3208DD02F1140CC2F10C0201FA0CF0CC
:1016300021FA02F10CE002F11402D8BFC2F1200C31
:1016400001FA02F120FA0CFCDCBF41EA0C019040E7
:10165000E41AA2BF01EB0451294330BD6FEA040430
:101660001F3C1CDA0C340EDC04F11404C4F120021B
:1016700020FA04F001FA02F340EA030021FA04F32D
:1016800045EA030130BDC4F10C04C4F1200220FA84
:1016900002F001FA04F340EA0300294630BD21FAC2
:1016A00004F0294630BD94F0000F83F4801306BF88
:1016B00081F480110134013D4EE77FEA645C18BF7C
:1016C0007FEA655C29D094EA050F08BF90EA020F13
:1016D00005D054EA000C04BF1946104630BD91EA0B
:1016E000030F1EBF0021002030BD5FEA545C05D10E
:1016F0004000494128BF41F0004130BD14F580044D
:101700003CBF01F5801130BD01F0004545F0FE41C0
:1017100041F470014FF0000030BD7FEA645C1ABFF5
:10172000194610467FEA655C1CBF0B46024650EA2C
:10173000013406BF52EA033591EA030F41F4002158
:1017400030BD00BF90F0000F04BF0021704730B5DE
:101750004FF4806404F132044FF000054FF00001B3
:1017600050E700BF90F0000F04BF0021704730B574
:101770004FF4806404F1320410F0004548BF404249
:101780004FF000013EE700BF42004FEAE2014FEA9E
:1017900031014FEA02701FBF12F07F4393F07F4F79
:1017A00081F06051704732F07F4208BF704793F07C
:1017B0007F4F04BF41F40021704730B54FF460748F
:1017C00001F0004521F000411CE700BF50EA010292
:1017D00008BF704730B54FF000050AE050EA01023B
:1017E00008BF704730B511F0004502D5404261EBAB
:1017F00041014FF4806404F132045FEA915C3FF4EC
:10180000D8AE4FF003025FEADC0C18BF03325FEA88
:10181000DC0C18BF033202EBDC02C2F1200300FA39
:1018200003FC20FA02F001FA03FE40EA0E0021FA5E
:1018300002F11444BDE600BF70B54FF0FF0C4CF44C
:10184000E06C1CEA11541DBF1CEA135594EA0C0FFE
:1018500095EA0C0F00F0DEF82C4481EA030621EA39
:101860004C5123EA4C5350EA013518BF52EA033574
:1018700041F4801143F4801338D0A0FB02CE4FF026
:101880000005E1FB02E506F00042E0FB03E54FF056
:101890000006E1FB03569CF0000F18BF4EF0010E4E
:1018A000A4F1FF04B6F5007F64F5407404D25FEA4A
:1018B0004E0E6D4146EB060642EAC62141EA5551FD
:1018C0004FEAC52040EA5E504FEACE2EB4F1FD0C3F
:1018D00088BFBCF5E06F1ED8BEF1004F08BF5FEABD
:1018E000500E50F1000041EB045170BD06F000466F
:1018F00046EA010140EA020081EA0301B4EB5C041C
:10190000C2BFD4EB0C0541EA045170BD41F4801113
:101910004FF0000E013C00F3AB8014F1360FDEBF38
:10192000002001F0004170BDC4F10004203C35DA14
:101930000C341BDC04F11404C4F1200500FA05F397
:1019400020FA04F001FA05F240EA020001F0004238
:1019500021F0004110EBD37021FA04F642EB0601AE
:101960005EEA430E08BF20EAD37070BDC4F10C04D8
:10197000C4F1200500FA04F320FA05F001FA04F29C
:1019800040EA020001F0004110EBD37041F1000188
:101990005EEA430E08BF20EAD37070BDC4F1200593
:1019A00000FA05F24EEA020E20FA04F301FA05F2FB
:1019B00043EA020321FA04F001F0004121FA04F2A3
:1019C00020EA020000EBD3705EEA430E08BF20EA73
:1019D000D37070BD94F0000F0FD101F000464000AD
:1019E00041EB010111F4801F08BF013CF7D041EA2F
:1019F000060195F0000F18BF704703F00046520033
:101A000043EB030313F4801F08BF013DF7D043EA03
:101A10000603704794EA0C0F0CEA135518BF95EAB9
:101A20000C0F0CD050EA410618BF52EA4306D1D140
:101A300081EA030101F000414FF0000070BD50EA5F
:101A4000410606BF1046194652EA430619D094EAE9
:101A50000C0F02D150EA013613D195EA0C0F05D1D3
:101A600052EA03361CBF104619460AD181EA030127
:101A700001F0004141F0FE4141F470014FF00000DF
:101A800070BD41F0FE4141F4780170BD70B54FF07A
:101A9000FF0C4CF4E06C1CEA11541DBF1CEA1355FA
:101AA00094EA0C0F95EA0C0F00F0A7F8A4EB0504DC
:101AB00081EA030E52EA03354FEA013100F08880D3
:101AC0004FEA03334FF0805545EA131343EA12639C
:101AD0004FEA022245EA111545EA10654FEA002651
:101AE0000EF000419D4208BF964244F1FD0404F50A
:101AF000407402D25B084FEA3202B61A65EB030566
:101B00005B084FEA32024FF480104FF4002CB6EB22
:101B1000020E75EB030E22BFB61A754640EA0C00A2
:101B20005B084FEA3202B6EB020E75EB030E22BFE2
:101B3000B61A754640EA5C005B084FEA3202B6EB23
:101B4000020E75EB030E22BFB61A754640EA9C00E2
:101B50005B084FEA3202B6EB020E75EB030E22BFB2
:101B6000B61A754640EADC0055EA060E18D04FEA70
:101B7000051545EA16754FEA06164FEAC30343EA10
:101B800052734FEAC2025FEA1C1CC0D111F4801FDD
:101B90000BD141EA00014FF000004FF0004CB6E7D6
:101BA00011F4801F04BF01430020B4F1FD0C88BF75
:101BB000BCF5E06F3FF6AFAEB5EB030C04BFB6EB80
:101BC000020C5FEA500C50F1000041EB045170BD73
:101BD0000EF0004E4EEA113114EB5C04C2BFD4EBA0
:101BE0000C0541EA045170BD41F480114FF0000E24
:101BF000013C90E645EA060E8DE60CEA135594EAA0
:101C00000C0F08BF95EA0C0F3FF43BAF94EA0C0FA2
:101C10000AD150EA01347FF434AF95EA0C0F7FF417
:101C200025AF104619462CE795EA0C0F06D152EA6B
:101C300003353FF4FDAE1046194622E750EA41064F
:101C400018BF52EA43067FF4C5AE50EA41047FF460
:101C50000DAF52EA43057FF4EBAE12E77BB972B9E0
:101C60000029BEBF00204FF0004106E008BF002859
:101C70001CBF6FF000414FF0FF3000F057B8ADF1DE
:101C8000080C6DE904CE002909DB002B1ADB00F0FB
:101C900047F9DDF804E0DDE9022304B07047404273
:101CA00061EB4101002B1BDB00F03AF9DDF804E0A9
:101CB000DDE9022304B0404261EB4101524263EB93
:101CC00043037047524263EB430300F029F9DDF808
:101CD00004E0DDE9022304B0404261EB41017047BA
:101CE000524263EB430300F01BF9DDF804E0DDE949
:101CF000022304B0524263EB4303704753B94AB91D
:101D0000002908BF00281CBF4FF0FF314FF0FF3003
:101D100000F00CB8ADF1080C6DE904CE00F000F94C
:101D2000DDF804E0DDE9022304B07047704700BF2E
:101D300080EA0102844612F0030F4FD111F0030F25
:101D400032D14DF8044D11F0040F51F8043B0BD083
:101D5000A3F101329A4312F0803F04BF4CF8043BD8
:101D600051F8043B16D100BF51F8044BA3F10132E6
:101D70009A4312F0803FA4F101320BD14CF8043B9E
:101D8000A24312F0803F04BF51F8043B4CF8044BCF
:101D9000EAD023460CF8013B13F0FF0F4FEA332340
:101DA000F8D15DF8044B704711F0010F06D011F81F
:101DB000012B0CF8012B002A08BF704711F0020F0D
:101DC000BFD031F8022B12F0FF0F16BF2CF8022BF8
:101DD0008CF8002012F47F4FB3D1704711F8012B1B
:101DE0000CF8012B002AF9D1704700BF844641EA64
:101DF000000313F003036DD1403A41D351F8043B83
:101E000040F8043B51F8043B40F8043B51F8043BD4
:101E100040F8043B51F8043B40F8043B51F8043BC4
:101E200040F8043B51F8043B40F8043B51F8043BB4
:101E300040F8043B51F8043B40F8043B51F8043BA4
:101E400040F8043B51F8043B40F8043B51F8043B94
:101E500040F8043B51F8043B40F8043B51F8043B84
:101E600040F8043B51F8043B40F8043B51F8043B74
:101E700040F8043B51F8043B40F8043B403ABDD2E3
:101E8000303211D351F8043B40F8043B51F8043B85
:101E900040F8043B51F8043B40F8043B51F8043B44
:101EA00040F8043B103AEDD20C3205D351F8043B14
:101EB00040F8043B043AF9D2043208D0D2071CBFE0
:101EC00011F8013B00F8013B01D30B880380604609
:101ED000704700BF082A13D38B078DD010F003037F
:101EE0008AD0C3F10403D21ADB071CBF11F8013BEF
:101EF00000F8013B80D331F8023B20F8023B7BE73E
:101F0000043AD9D3013A11F8013B00F8013BF9D268
:101F10000B7803704B7843708B7883706046704702
:101F20002DE9F04786468C460846089E15467446BD
:101F30001946002B40F0C2808542B2FA82F245D9A0
:101F40004AB1C2F1200300FA02FC2EFA03F39540D5
:101F500043EA0C0C94404FEA154EA8B2BCFBFEF8C5
:101F6000230C0EFB18CC08FB00F943EA0C439945FF
:101F700028D9EB1808F1FF3704D2994502D9A8F106
:101F800002072B44A3EB0903A4B2B3FBFEFC0EFB38
:101F90001C330CFB00F044EA0344A04214D92C1972
:101FA0000CF1FF3304D2A04202D9ACF102032C445D
:101FB000241A43EA07401EB1D44000233460736002
:101FC000BDE8F0874746DDE76346F1E792BB431B78
:101FD00001214FEA154EAFB2B3FBFEFC200C0EFB05
:101FE0001C330CFB07F840EA0343984562D9EB1811
:101FF0000CF1FF3004D2984502D9ACF102002B4419
:10200000A3EB0803A4B2B3FBFEFC0EFB1C330CFBDA
:1020100007F744EA0344A7424ED92C190CF1FF33C9
:1020200004D2A74202D9ACF102032C44E41B43EAD8
:102030000040C0E7C2F1200320FA03F19540904030
:102040002EFA03F303434FEA154EAFB2B1FBFEFC89
:102050000EFB1C10190C0CFB07F841EA00418845E7
:1020600004FA02F422D969180CF1FF3004D2884531
:1020700002D9ACF102002944A1EB08019BB2B1FBEB
:10208000FEFC0EFB1C110CFB07F743EA01439F42C9
:102090000ED9EB180CF1FF3104D29F4202D9ACF1FA
:1020A00002012B44DB1B41EA004192E76046E3E773
:1020B0006146F7E76046A3E76346B7E7834206D980
:1020C00016B9002108467BE7C6E900E0F9E7B3FA54
:1020D00083F78FB9834201D3724508D8BEEB02045F
:1020E00060EB030301209C461EB9002168E73846D7
:1020F000FAE7C6E9004CF8E7C7F1200CBB4022FA2A
:102100000CF41C432EFA0CF120FA0CF3B8400143F6
:102110004FEA14490EFA07F5B3FBF9F81FFA84FEEB
:1021200009FB18300B0C08FB0EFA43EA00439A45F2
:1021300002FA07F240D9E31808F1FF3004D29A45B9
:1021400002D9A8F102002344A3EB0A0389B2B3FB2E
:10215000F9F809FB183308FB0EFE41EA03418E45EE
:102160002CD9611808F1FF3304D28E4502D9A8F1A9
:102170000203214443EA0040A0FB0298A1EB0E01B8
:102180004145CE46434602D306D14D4504D2B9EB74
:10219000020E68EB04030138002EA6D0B5EB0E0248
:1021A00061EB030101FA0CFC22FA07F34CEA03038A
:1021B000F940C6E9003198E74046C5E74346D9E70C
:1021C00070B4840746D0541E002A41D0CDB20346D5
:1021D00002E0621EE4B3144603F8015B9A07F8D1EB
:1021E000032C2ED9CDB245EA05250F2C45EA05452D
:1021F00019D9264603F11002103E0F2E42F8105C4A
:1022000042F80C5C42F8085C42F8045C02F11002EF
:10221000F2D8A4F1100222F00F0204F00F041032E1
:10222000032C13440DD91E462246043A032A46F8CD
:10223000045BFAD8221F22F003020432134404F094
:1022400003042CB1C9B21C4403F8011BA342FBD107
:1022500070BC704714460346C2E70000000000004F
:1022600010B5414A436893428AB0044649D03F4A78
:10227000934219D03E4A93423FD03E4A934205D002
:102280003D4A934221D000200AB010BD83683B4AEA
:10229000934247D03A4A9342F5D1237B022BF2D1A5
:1022A0000123ADF820303AE0037A062B36D0072B15
:1022B000E9D10123ADF82030ADF82430002200230D
:1022C00009A9304813F0F0FADDE7037A002BDAD1E0
:1022D000BFF35B8F2C4B1B68BFF35B8F002BD2D0FF
:1022E0000124ADF82040ADF8244026480022002308
:1022F00009A913F0D9FA2046C6E7037A012BC2D107
:10230000CFE7037A8DF8253002228DF824200022B1
:10231000002309A91B4813F0C7FAB4E70023ADF85E
:102320002430F4E7027B002AB4D19FED0D7B6FF0DF
:102330000F01CDE90312CDE9012200928DED067B5C
:10234000124B134913484FF4006213F0E1F912499C
:10235000104813F093F9A3689CE700BFAFF3008027
:10236000000000000000000060F80100A0F701007C
:1023700070F7010018F80100B8F7010018F9010022
:1023800028F9010040080020581F0020B93A000039
:1023900080870020900B002094B501000000000011
:1023A00070B586B00D461446064690F8FE200092A1
:1023B000002305AA05932846B74B01944FF400610A
:1023C00002F030FC30680294FFF7DEF905AACDE98F
:1023D0000001B24B28464FF4006102F023FC706804
:1023E0000294FFF7D1F905AACDE90001AC4B2846CC
:1023F0004FF4006102F016FCB0680294FFF7C4F9D4
:1024000005AACDE90001A74B28464FF4006102F070
:1024100009FCF0680294FFF7B7F905AACDE90001BD
:10242000A14B28464FF4006102F0FCFB3069029496
:10243000FFF7AAF905AACDE900019C4B28464FF405
:10244000006102F0EFFB92A3D3E900232846CDE917
:102450000023029405AA964B4FF4006102F0E2FBC0
:10246000B0690294FFF790F905AACDE90001914BFC
:1024700028464FF4006102F0D5FBF0690294FFF7A3
:1024800083F905AACDE900018B4B28464FF4006182
:1024900002F0C8FB306A0294FFF776F905AACDE98D
:1024A0000001864B28464FF4006102F0BBFB706AC6
:1024B0000294FFF769F905AACDE90001804B28468F
:1024C0004FF4006102F0AEFB7E4B02940022CDE996
:1024D0000023284605AA7C4B4FF4006102F0A2FBC2
:1024E000B06E0294FFF750F905AACDE90001774BD1
:1024F00028464FF4006102F095FBF06E0294FFF75E
:1025000043F905AACDE90001714B28464FF400615B
:1025100002F088FB306F0294FFF736F905AACDE987
:1025200000016C4B28464FF4006102F07BFB706F9A
:102530000294FFF729F905AACDE90001664B284668
:102540004FF4006102F06EFBB06A0294FFF71CF9D1
:1025500005AACDE90001614B28464FF4006102F065
:1025600061FBF06A0294FFF70FF905AACDE90001BB
:102570005B4B28464FF4006102F054FB306B029431
:10258000FFF702F905AACDE90001564B28464FF4A2
:10259000006102F047FB706B0294FFF7F5F805AAA3
:1025A000CDE90001504B28464FF4006102F03AFBA0
:1025B000B06B0294FFF7E8F805AACDE900014B4B98
:1025C00028464FF4006102F02DFBB6F8783005AADA
:1025D000CDE900342846464B4FF4006102F022FB5F
:1025E0004FF0805305AA1B6E01949BB200932846BE
:1025F000404B4FF4006102F015FB96F8FB3005AA42
:10260000CDE9003428463C4B4FF4006102F00AFB50
:10261000F06B0294FFF7B8F805AACDE90001374B3B
:1026200028464FF4006102F0FDFA306C0294FFF787
:10263000ABF805AACDE90001314B28464FF4006103
:1026400002F0F0FA706C0294FFF79EF805AACDE94B
:1026500000012C4B28464FF4006102F0E3FAB06C05
:102660000294FFF791F805AACDE90001264B284610
:102670004FF4006102F0D6FAF06C0294FFF784F890
:1026800005AACDE90001214B28464FF400613FE047
:10269000ACD2B64FC983FD3BACB70100C0B7010057
:1026A000CCB70100D8B70100E4B70100F0B70100D2
:1026B000FCB701000CB801001CB801002CB80100E7
:1026C0003CB801000000F03F4CB801005CB80100CC
:1026D0006CB801007CB801008CB801009CB8010006
:1026E000A8B80100B4B80100C0B80100CCB801001E
:1026F000D8B80100E4B80100F0B80100FCB801004E
:1027000008B9010014B9010020B901002CB9010079
:1027100002F088FA306D0294FFF736F805AACDE989
:1027200000014C4B28464FF4006102F07BFA706DBB
:102730000294FFF729F805AACDE90001464B284687
:102740004FF4006102F06EFAB06D0294FFF71CF8CE
:1027500005AACDE90001414B28464FF4006102F083
:1027600061FAF06D0294FFF70FF805AACDE90001B8
:102770003B4B28464FF4006102F054FA306E02944D
:10278000FFF702F805AACDE90001364B28464FF4C1
:10279000006102F047FAD6F880000294FEF7F4FFD9
:1027A00005AACDE90001304B28464FF4006102F044
:1027B00039FAD6F884000294FEF7E6FF05AACDE9BF
:1027C00000012A4B28464FF4006102F02BFAD6F89C
:1027D00088000294FEF7D8FF05AACDE90001244B3A
:1027E00028464FF4006102F01DFAD6F88C000294DE
:1027F000FEF7CAFF05AACDE900011E4B28464FF49B
:10280000006102F00FFAD6F890000294FEF7BCFFC8
:1028100005AACDE90001184B28464FF4006102F0EB
:1028200001FAB6F8FF20154BCDE90024284605AA89
:102830004FF4006102F0F6F92846114B009405AA06
:102840004FF4006102F0EEF9059820EAE07006B05E
:1028500070BD00BF38B9010044B9010050B9010092
:102860005CB9010068B9010074B9010084B90100C4
:1028700094B90100A4B90100B4B90100C4B90100C0
:10288000D0B901000000000000B589B09FED0E7BBB
:1028900006ABCDE9063302AA8023CDE902220093DC
:1028A0000B4A02AB8DED047B0BF050FD002805DBDD
:1028B0004FF48042002302A813F060FA09B05DF8DB
:1028C00004FB00BFAFF30080000000000100000027
:1028D0008DE400000000000030B585B0264CA568EE
:1028E0003A21EB682046984730B90C212B6902AA9F
:1028F00020469847054650B1204C214900232370BB
:102900000B800FF039FA0123237005B030BD039B13
:102910001C4A0298194C82FB0312DB17C3EB2243BB
:1029200003EB800316492078B1F900201BB2002880
:10293000E6D09A1A002AB8BF524212B2012ADFDC4E
:10294000114A1368013801339FED097B2070136031
:102950004FF400328DED007B0C48002314F0CAFBCD
:102960000B4B186804F09AFA0A4B1D6005B030BD95
:102970000000000000000000C0AA0100AD8200209D
:102980009C82002083DE1B432C71002080060020E7
:10299000187100203471002030B50F490B680133E5
:1029A00083B09FED0B7B4FF4003400250B600B4888
:1029B00022468DED007B2B4614F09CFB084B1868DB
:1029C00004F06CFA074B00221A6003B030BD00BF60
:1029D0000000000000000000307100208006002090
:1029E00018710020347100202DE9F04F4068046810
:1029F0008C4289B058D9D31856D24FF47A75A3FBBC
:102A00000543002B50D1A2FB05320393002A4BD182
:102A100043680A0103EB01119E588B89D1F80480A9
:102A20000493B36806AA5B6841463046984700287D
:102A300034DB05FB04F3DDE9064BA3FB049203FB47
:102A40000B2748461AA3D3E900233946FFF756F966
:102A50004FF0FF3A184B0590CA45BB4121D303996B
:102A600005FB01F1A1FB045401FB0B4410A3D3E9C6
:102A7000002321462846FFF741F90F4AAA4572EB89
:102A8000040403460DD30599B26899420CD3049807
:102A90000090146830460A464146A04709B0BDE898
:102AA000F08F6FF08500F9E76FF01500F6E700BFD3
:102AB00000CA9A3B00000000FFC99A3B00000000DA
:102AC0004368186888427AD92DE9F04F642A89B0A2
:102AD00014466ED85B680A0103EB011153F80280BB
:102AE0008B89D1F804A08D680393D8F8083006AA22
:102AF0005B68514640469847002857DBDDE906767B
:102B0000A5FB072305FB06390492104649462EA370
:102B1000D3E90023FFF7F2F8049A2D4B05904FF00C
:102B2000FF3B934573EB090346D3A4FB05542B0DE0
:102B300043EA0433C5F313001844264BA3FB0023D8
:102B4000DB0803EB830303EB8303C01A281A64F149
:102B50000002214C214B00FB04F403FB0244A0FBC8
:102B600003031C44800840EA847000FB06F6A408B6
:102B700007FB0466A0FB0770064413A3D3E90023F8
:102B800031463846FFF7BAF8114ABB4572EB0606E4
:102B9000034611D30599D8F80820994209D3039820
:102BA0000090146840460A465146A04709B0BDE867
:102BB000F08F6FF01500F9E76FF08500F6E76FF022
:102BC00015007047AFF3008000CA9A3B0000000078
:102BD000FFC99A3B1F85EB51F5285C8F295C8FC29A
:102BE0002DE9F04F89B0144605908846506812F0E0
:102BF0002DFB002875D0002211460546A06815F06F
:102C0000D3FC002211460646E06815F0CDFC0022F8
:102C100007461146206915F0C7FCB8F1060F03906E
:102C20004BD000230493AB6806AA5B683146284664
:102C30009847041E4BDB069CDDF81CA04FF47A7B02
:102C40000BFB07F3A3FB049703FB0A7739462AA380
:102C5000D3E900234846FFF751F84FF0FF38284BDF
:102C60000290C84573EB07072FD3039B0BFB03F3BD
:102C7000A3FB047403FB0A4421461FA3D3E90023EA
:102C80003846FFF73BF81E4AB84572EB040403468A
:102C90001BD30299AA68994238BF6FF0150416D366
:102CA000049900911468029A31462846A0470446C8
:102CB00068B9204609B0BDE8F08F0022606911466E
:102CC00015F072FC83B20493ADE76FF085040598AC
:102CD0000C4A2346012107F015F9204609B0BDE84A
:102CE000F08F094A0598012107F00CF96FF01504DF
:102CF000DFE700BFAFF3008000CA9A3B000000008E
:102D0000FFC99A3BACDC010094DC0100000000002C
:102D10002DE9F04F89B0144605908846506812F0AE
:102D200095FA00286ED0002211460546A06815F0DD
:102D30003BFC002211460746E06815F035FC0022F6
:102D400081461146206915F02FFCB8F1060F0646A2
:102D500044D000230393AB6806AA5B683946284633
:102D60009847041E44DBDDE90643A9FB04A809FBE0
:102D700003880493414628A3D3E900235046FEF775
:102D8000BDFF4FF0FF3B264BD34573EB0808814650
:102D90002CD3049BA6FB048406FB034421461EA3FC
:102DA000D3E900234046FEF7A9FF1D4AC34572EB55
:102DB000040403461AD38145AA6838BF6FF015048E
:102DC00016D303990091146839464A462846A0470D
:102DD000044668B9204609B0BDE8F08F002260695A
:102DE000114615F0E1FB83B20393B4E76FF085045D
:102DF00005980C4A2346012107F084F8204609B0C3
:102E0000BDE8F08F084A0598012107F07BF86FF0C4
:102E10001504DFE7AFF3008000CA9A3B0000000012
:102E2000FFC99A3BACDC010094DC0100000000000B
:102E30002DE9F04F2DED028B064683B014F064F8B7
:102E40004B014FEA4018B8EB000843EAD06363EB4C
:102E500001039B0043EA98734FEA880818EB0008C7
:102E600041EB03094FEAC90949EA5879C8F3103818
:102E700048EA49484FEAD939B368394CDB683A2106
:102E8000304698479FED348B0025237E022B29D0B6
:102E9000EA1E082A04D840F21113D340DB072BD4D2
:102EA000B3686A461B69A9B23046984710F1860F8D
:102EB000034624D0B0B9019A00982A4FD4F808C02C
:102EC000D117C0FB0721206810186268206041EB11
:102ED00002010CF101026160A260BCF1000F14D18B
:102EE000C4E9048901353A2D04F12004CDD103B0A1
:102EF000BDEC028BBDE8F08F01352034C5E7237EA1
:102F0000002BEFD102232376ECE7276941F2883CBE
:102F10001CEB070C676947F1000EC4457EEB090EF8
:102F2000E0D2FEF79BFE00230E4A8B468246FEF758
:102F300095FE0C4B009003FB00F0BAEB00036BEB2B
:102F4000E07BBBF1000F00DA5B42002284ED008BD6
:102F50000193A260C6E700BF00000000000000006F
:102F60003814002040420F002DE9F04FDFF808A18F
:102F7000DFF808B189B090461F463A229DF84830E4
:102F8000059381460E46404651460DF089FC0F22BE
:102F90000446594638460DF083FC00239C42CDE997
:102FA00006334EDB0028054642DBA1B282B2B3688D
:102FB0005F68002F4ED006AB3046B84790B110F195
:102FC000160F01D1059B83B35BF8251001905AF8C9
:102FD0002430254A00914846012106F093FF09B0AC
:102FE000BDE8F08F0798D6F80080FEF7BBFB1CA366
:102FF000D3E90023FEF74AFD064606980F46FEF782
:10300000B1FB02460B4630463946FEF75FFACDE982
:1030100002015BF825105AF82430144ACDE900313A
:1030200048464346022106F06DFF09B0BDE8F08F27
:103030000F4A3B460121484606F064FF09B0BDE84F
:10304000F08F0C4A43460121484606F05BFF09B069
:10305000BDE8F08F6FF05700B6E700BFAFF3008018
:103060000000000080842E4128E0010058E00100AB
:1030700010E00100F8DF0100880400204C0400206B
:1030800070B59FED1B7B1C4C1C4B1D49C4F80833CD
:103090000025C4F848331B4AC4F808554FF4803360
:1030A00081ED027B0226C4F804334FF4003384B070
:1030B000C4F804630121C2F8803111202A4608F0C7
:1030C00061FE112008F02EFE0F4A10490123A36073
:1030D00028462360CDE9015513600D4A0091002375
:1030E0000EF0D6F830460BF0E1FB284604B070BD78
:1030F000FFFFFFFFFFFFFFFF0010014003000F0075
:10310000781B002000E100E0D07D00204512010086
:10311000FFFF7F00000000003F4BD3F8042390071F
:1031200002D5D3F804212AB93B4BD3F80423D103A9
:103130000ED47047394A0021C3F80411D3F8043182
:10314000136801331360344BD3F80423D103F0D553
:10315000F0B5334ABFF35B8F83B052E8001F21F014
:10316000010042E80004002CF7D1BFF35B8FCA07CF
:1031700004D4D3F840310BB903B0F0BD264A274B35
:103180000021C2F84011D2F840111B68190A1B0631
:10319000BFF35F8FD2F80425D31841F10001B2F5D7
:1031A000801F0AD21F4AD2E90067B34271EB0702BF
:1031B00003D213F1807341F10001EFF3108272B674
:1031C000194CD4E90267B342B9411AD39FED107B81
:1031D000114B2168656884ED027B00204FF4803C30
:1031E0002060C3F848C3C3F84001D3F8403182F3EC
:1031F00010880029C0D0009532463B46884703B06E
:10320000F0BD82F3108803B0F0BD00BFAFF30080C3
:10321000FFFFFFFFFFFFFFFF00100140D47D0020F4
:10322000CC7D0020901B0020781B002000000000B7
:103230002DE9F04F2DED028B9FED4F8B87B000F104
:10324000D0034F4F0593054600F1D8094FF0000811
:103250004FF04003EFF3118683F31288BFF36F8FB3
:10326000D5F8C840002C5FD0D5F8CC202368C5F82D
:10327000C830944208BFC5F8CC30D5F8E03043F0F0
:103280000203C5F8E030E368626823F0040343F00A
:103290000103E36086F31188BFF36F8F20469047E8
:1032A0004FF04003EFF3118A83F31288BFF36F8F5F
:1032B000E3689A0723F001010FD4E160D5F8E0300C
:1032C00023F00203C5F8E0308AF31188BFF36F8F53
:1032D000DB05BDD413F05CFABAE7386823F00303CA
:1032E000E3600028EAD0436806689C424FF0000B78
:1032F000014608D0002EE1D030468B464368366840
:103300009C420146F6D10168BBF1000F2DD0CBF8ED
:1033100000107B68984208BFC7F804B040F8088BDB
:1033200012F002FD5946E5E7D5F8E03023F004023B
:103330005907C5F8E02009D48DED008B059ACDF82A
:10334000088031460F4813F009FC81E70022012173
:10335000484613F0CDFB0028EED00022012148465C
:1033600013F0C6FB0028F1D1E6E77B68396098428C
:10337000D4D17960D2E700BFFFFFFFFFFFFFFFFF5F
:10338000281D0020A880002030B5044689B0002008
:10339000C4F8C800C4F8CC000C9D04F1D000C4E906
:1033A000340004F1D800C4E936000DB328790028B0
:1033B00040F2011008BF01209FED0F7BC4F8E00030
:1033C0000020CDE90100039304908DED067B0C4BAA
:1033D0000094204612F09CF925B1296811B12046CD
:1033E00012F04CF9204609B0BDE8304012F04AB95D
:1033F0000120E1E7AFF30080FFFFFFFFFFFFFFFFCA
:10340000313200000000000010B54FF04003EFF330
:10341000118483F31288BFF36F8F10F80B3C13F005
:10342000280217D150F8101C69B150E906319FED00
:103430000C7B0B60596010F80B3C40F8102C00ED31
:10344000067B03F0FD0323F0140300F80B3C18384F
:1034500012F030FF84F31188BFF36F8F10BD00BFEF
:1034600000000000000000004FF04003EFF3118265
:1034700083F31288BFF36F8F83686BB1D0E900319B
:103480009FED097B0B605960437B80ED007B23F04F
:10349000020300214373816082F31188BFF36F8FB1
:1034A000704700BFAFF30080000000000000000084
:1034B00003464FF04001EFF3118281F31288BFF30E
:1034C0006F8F0068834213D068B1D0E900319FED5F
:1034D0000C7B0B605960437B80ED007B23F0020383
:1034E00000214373816082F31188BFF36F8F7047AF
:1034F000002082F31188BFF36F8F7047AFF3008015
:1035000000000000000000004FF04003EFF31182C4
:1035100083F31288BFF36F8F83686BB1D0E90031FA
:103520009FED097B0B605960437B80ED007B23F0AE
:10353000020300214373816082F31188BFF36F8F10
:10354000183013F0E9BB00BF0000000000000000CD
:1035500008B508F0FFF808B1002008BD102008F0F9
:1035600099F808B1044B4360044A82600023037356
:1035700008F0D2F8F0E700BF18F8010018F90100D0
:10358000704700BF10B40C4C0023224602E0013308
:10359000182B0CD01178814202F10C02F7D103EB09
:1035A000430304EB8304A0685DF8044B70476FF09D
:1035B00001005DF8044B70470CB30100704700BF79
:1035C000704700BF704700BF704700BF704700BF23
:1035D000704700BF704700BF704700BF10B50B4C6D
:1035E000BFF35B8F2368BFF35B8F3BB100BFBFF3BB
:1035F0005B8F2368BFF35B8F002BF7D14FF0FF3158
:103600004FF0FF3013F074F9EAE700BF581F0020B5
:1036100038B5384B1A68384B0021C2F84011D2F83F
:103620004021BFF35B8F53E8002F02F5007143E8A0
:1036300000100028F7D1BFF35B8FC2F30801002907
:1036400057D1BFF35B8F03F1140050E8004F40E8FF
:103650000015002DF9D1BFF35B8FBFF35B8F2749B6
:1036600051E8005F254441E800500028F8D1BFF33D
:103670005B8FBFF35B8F224951E8004F601C41E82C
:103680000005002DF8D1BFF35B8FBFF35B8F04F013
:10369000010404EB44241B49A40004F500650D4417
:1036A00055E8000F013045E8000CBCF1000FF7D1E0
:1036B000BFF35B8F0C44A3F58053C2F3090103EB06
:1036C00081014FF400622046FEF790FB1C2007F0BA
:1036D000E1FF08B10C4B43600C4B8460C0E905531B
:1036E0004FF400610022C1600274BDE8384008F068
:1036F00013B838BDC0010020683F00204C1F0020D7
:103700005C1F0020601F002088F70100501F002070
:10371000012970B5044636D055681E492846FDF784
:103720005FFD98B12E78312E0DD01B492846FDF74C
:1037300057FD60B1302E28D0184A2B460321204671
:1037400006F0E0FB1DE06B78002BEED10120144A5F
:10375000BFF35B8F52E8003F42E800010029F9D136
:10376000BFF35B8FBFF35B8F0E4910680E4B0F4AA0
:10377000BFF35B8F002818BF0B460821204606F0D8
:10378000C1FB002070BD064AECE768780028DED057
:10379000D2E700BFC8B40100D0B40100D8B4010022
:1037A000541F0020BCB40100B8B40100F4B40100FF
:1037B00010B5184813F0D0FC17480FF047FB164817
:1037C0000FF052FB15480FF041FB14480FF04CFB73
:1037D000134A0023C2F814310123D2F81411936064
:1037E000D2F81431002BFBD00024C2F8F445142089
:1037F00008F0A6FA0B4B0C4AC3F80041D3F80011AD
:10380000C3F804411078D3F804310FF0D5F8012043
:1038100010BD00BFF0060020C8010020C00100203C
:1038200000700040004001409F820020F0B5134B23
:10383000BFF35B8F1446124A1B68BFF35B8F85B0E2
:10384000BFF35B8F1768BFF35B8FBFF35B8F566867
:10385000BFF35B8F029600972268B21A03920A6840
:10386000BA1A0D4601924FF48071064A14F050FCCA
:1038700000202F60266005B0F0BD00BF703F002023
:103880004C1F002014B5010010B5C0B004460B4A0F
:103890000B496846FFF7CAFF38B12046094A0121A3
:1038A00006F030FB002040B010BD2046064A6B46B3
:1038B000082106F027FB002040B010BD381E002074
:1038C0003C1E002070B5010014CC010038B55C48E6
:1038D0005C4C13F041F80123A3600120002113F098
:1038E00007F8BFF35B8F584A002352E8001F42E8F5
:1038F00000300028F9D1BFF35B8FBFF35B8F111D40
:1039000051E8000F41E80035002DF9D1BFF35B8F7E
:10391000BFF35B8F02F1080151E8000F41E8003569
:10392000002DF9D1BFF35B8FBFF35B8F02F1100164
:1039300051E8000F41E80035002DF9D1BFF35B8F4E
:10394000BFF35B8F02F10C0151E8000F41E8003535
:10395000002DF9D1BFF35B8FBFF35B8F143252E8B8
:10396000001F42E800300028F9D1BFF35B8FBFF39E
:103970005B8F364A52E8001F42E800300028F9D138
:10398000BFF35B8FBFF35B8F02F6040252E8001FA8
:1039900042E800300028F9D1BFF35B8FBFF35B8FA3
:1039A0002B4A52E8001F42E800300028F9D1BFF34B
:1039B0005B8F28490A787AB1120102F1804202F540
:1039C000E0420620C2F81435C2F810350822C4F8C7
:1039D0001405C4F810250B701A4C1F4B0025C4F8B1
:1039E000F455C3F80051D3F80021C3F80451D3F8BB
:1039F0000421C3F808511420D3F8083108F092F9D3
:103A0000C4F80051D4F80031C4F804510123D4F8AB
:103A1000042123600120002112F06AFFD4F8003154
:103A2000002BF7D00D480FF01FFA0C480FF000FAEA
:103A30000B480FF019FABDE8384009480FF0F8B903
:103A4000C80A002000700040683F00206027002066
:103A50005C1F00209E82002000400140C001002029
:103A6000C801002070B41343DE028568046902D5E2
:103A700013F4402F0BD123F48012DB070BD52668FB
:103A800001238B40334323602B6870BC1847DA074F
:103A90000CD423F4801223684FF0010C0CFA01FCC3
:103AA00023EA0C0323602B6870BC184783F440237F
:103AB000E1E700BF704700BF2DE9F04F2DED028B0D
:103AC0003D4BBFF35B8F89B0012653E8002F43E8DD
:103AD00000610029F9D1BFF35B8F00200AF0DCFE02
:103AE0003649374C8E600023CB604B6003F066F99B
:103AF0004FF0804304F140079E670A2100E02179DE
:103B0000E588206845F48032D0F810C0D0F808E08D
:103B100015F0010FDCF8005006FA01F314BF2B4337
:103B200025EA0303CCF80030DEF80030083498476B
:103B3000A742E4D1234C4FF4B013012209212046BF
:103B4000FFF790FF00214FF4A47012F0D1FE23691B
:103B50001B689B05A368DFF8748054BFDB681B6992
:103B60004FF4007120469847092117484FF48033DD
:103B70000022FFF777FF08F12006444600214FF0AE
:103B80000109B4F806C020684CF480320769D0F807
:103B900008E03D6809FA01F31CF0010F14BF2B4344
:103BA00025EA03033B60DEF8003008349847A6425C
:103BB0000ED02179E5E700BF541F0020843F00208C
:103BC00008B7010020AA01000CAA0100E8B6010014
:103BD000D248D34ED34A0323C0F8F0350021012345
:103BE000C0F8F4150C46C0F8F815C0F82C26C0F83B
:103BF00030363246937892F803E0157992F805C092
:103C000097791B024FEA0E3E0EF4805E03F4E063E8
:103C10002D0443EA0E0305F4E0252B434FEA0C5C28
:103C20000D010CF4801C3F0605F1804500EB011EE0
:103C300005F5E04543EA0C0307F0807701313B438B
:103C40000629CEF8183502F11002C5F81445C5F85A
:103C50001045CFD10123C0F80035D0F84056C0F848
:103C60001041AE4CD0F81021C3608420002112F026
:103C70003FFED4F81031002BF7D0DFF8E892C4F8FB
:103C8000405699E807000623C4F8143505AD08230B
:103C9000A54FC4F81035002485E80700A34AA448BE
:103CA0003C7029460FF09AF84FF0010AA0480094A2
:103CB0002346702221460FF0DBF89D480094022332
:103CC000A02251460FF0D4F899480094234664226C
:103CD00002210FF0CDF809F10C0923469448009415
:103CE000662203210FF0C4F899E8070085E8070071
:103CF000904A914829460FF071F8224651461A2001
:103D000008F040F81A2008F00DF853468A48CDF81C
:103D100000A04FF4007221460FF0AAF85246214647
:103D2000142008F02FF8854B0322C3F804230EF06B
:103D300091FA002800F0E581DFF82CB203950DF12F
:103D40001809AA46D8F8003098F804405B45504658
:103D500008BF20340EF08EFA9AF800309B0003F171
:103D6000804303F5C0432202D3F8101521F44F31EC
:103D700021F44071C3F81015D3F8101502F47C52E9
:103D80000A4342F44032C3F810251AF8013B9B0065
:103D900003F1804303F5C043CA45D3F8102542F030
:103DA000010208F10808C3F81025CBD1644C039D2B
:103DB000DFF87C81DFF8B4A120460EF0F7FD04A8FF
:103DC0000EF08AFD554A5F499DF810000EF08AFDFD
:103DD0009DF810000EF0CEFD04A80EF07DFDD8F881
:103DE0000010594A9DF8100001F5A0710EF07AFDFF
:103DF0009DF810000EF0BEFD04A80EF06DFDD8F881
:103E000000104E4A9DF8100001F5A4710EF06AFDF5
:103E10009DF810000EF0AEFD04A80EF05DFD2278B6
:103E2000D8F800109DF81000D20002F1804202F58F
:103E3000F83201F5A6710EF055FD9DF810000EF058
:103E400099FD04A80EF048FD2378D8F800103F4AE9
:103E50009DF81000DB001A4401F5A2710EF042FD3E
:103E60009DF810000EF086FD04A80EF035FD324BD3
:103E700034491A689DF8100008320EF033FD3449B9
:103E80009DF810000EF05CFD9DF810000EF072FD24
:103E90004FF0010815F8013B4FEA830B5A1E0BF156
:103EA000804B002B00F02A81062A1AD80BF5C24B52
:103EB00004A80EF011FD524659469DF810000EF070
:103EC00011FD9DF810000EF055FD9DF810002178B1
:103ED00008FA00F00EF084FD4D45DBD120780EF09D
:103EE0006BFDDFF88C801B4D0C4C4FF0FF324FF018
:103EF000FF3304A9284611F033FD0028F5D19DF8C1
:103F00001030032BF1D8DFE803F0D5C43502124A94
:103F100012491348FFF78AFCE7E700BF0070004032
:103F200088B60100803F00209E820020D935000025
:103F3000C8010020B53A0000C00100200040014047
:103F40009F820020047100400470004004F0014092
:103F50000440014040080020401E0020441E002074
:103F6000481E002070AE01000CAA0100084001406C
:103F7000581F002000239DF81190BFF35B8F58E875
:103F8000000F48E80032002AF9D1BFF35B8F08B177
:103F9000FFF70EFCD4F80413C4F808133B789945D6
:103FA00000F0A9801B0103F1804303F5E04306EB19
:103FB000091C4FF0000E4FEA091AC3F814E50AF184
:103FC0008042C3F810E5634602F5E0429CF80CC05D
:103FD0005B7BC2F8143587F80090C2F810C508233F
:103FE000C4F8F4350023C4F800310123D4F80021CB
:103FF0002360D4F80031002BFBD00022C4F80C2140
:10400000D4F80C314FF0010CC4F80821D4F8083171
:10401000C4F804C0D4F80831002BFBD0D4F80C311C
:10402000002BF1D0394BB3F9003008EE103A0023E1
:10403000C4F80431D4F80421C4F81431D4F814318C
:104040000123A360D4F81431002BFBD00023C4F863
:104050000413C4F8F43500283DD1102007F01AFBF2
:10406000834608B12A4B4360B244DAED027A8BF8FA
:10407000089018EE103AB8EEC80AABF80A3020EEF5
:10408000270A16F021FAABF80C00584607F044FB5B
:104090002BE70022BFF35B8F58E8003F48E8002180
:1040A0000029F9D1BFF35B8F002B3FF41EAFFFF760
:1040B0007FFB1AE70122BFF35B8F58E8003F48E817
:1040C00000210029F9D1BFF35B8F002B7FF40DAFE6
:1040D000FFF7FCFB09E70122BFF35B8F58E8003FC5
:1040E00048E800210029F9D1BFF35B8F002BB4D140
:1040F000FFF7ECFBB1E74FEA091A70E7DFF814B0FD
:10410000D6E607200EF07EF816E600BF803F0020BE
:1041100048F801000061004000B583B00323ADF80A
:104120000030ADF8043000220023034801A911F04B
:10413000BBFB03B05DF804FB4008002030B44FF037
:10414000A0431C4AD3F81015BFF35B8F890A52E8CD
:10415000003F581C42E80004002CF8D1BFF35B8FED
:10416000C3F3090414B3621E1348144DD0F81005AC
:1041700055F82220C0F340209B0043EA4003C2F3DD
:104180000040034363F3174261F31F6245F82420A4
:104190000B4BBFF35B8F53E8001F013143E8001264
:1041A000002AF8D1BFF35B8F30BC704740F2FF327A
:1041B000DAE700BF6C3F002000030050682F0020AA
:1041C000703F002038B5724BD3F80021002A67D128
:1041D0006F4CD4F8043103B938BD6E4B0025C4F8D8
:1041E0000451BFF35B8F1B68BFF35B8F002BF3D0D1
:1041F000BFF35B8F684B1B68BFF35B8F002B7ED0D8
:10420000D4F80831002B6BD14FF0A0406349D0F8AF
:104210001005634A634C0968B2F900C0BFF35B8FB5
:10422000800A54E8002F551C44E8005EBEF1000FE0
:10423000F7D1BFF35B8F1C465B4BD3F81035BCF155
:10424000000F4FEA5323C8BFCCF38B0C4FEA434314
:104250004FEA8131C2F30905C8BF6CF30D0401F4C4
:10426000E03103F4003392040B4302F47C0224F4A3
:104270007F01134321F4404143EA01044B4A4C4B74
:1042800060F31F6442F82540BFF35B8F53E8001FC3
:10429000013143E80012002AF8D1BFF35B8F38BD2B
:1042A0004FF0A0420021C3F80011D2F81035414A66
:1042B0001340032B12D009D93F498B420CD09342B3
:1042C0000CBF04230723354A136081E7002BFAD083
:1042D000012B18BF0723F6E70323F4E70223F2E7D5
:1042E000FFF72CFF354BC4F80851BFF35B8F53E841
:1042F000001F013143E80012002ACED0F7E74FF04B
:10430000A040274AD0F81045B2F900C02349254AF9
:104310000868BFF35B8FA40A52E8001F4D1C42E8F7
:10432000005EBEF1000FF7D1BFF35B8F1A461E4B44
:10433000D3F81035BCF1000F4FEA5323C8BFCCF3BC
:104340008B0C4FEA43434FEA8030C1F30905C8BFE5
:104350006CF30D0203F4003300F4E030890401F43F
:104360007C01034322F47F020B4322F440421A43B0
:104370000E490F4B64F31F6241F82520BFF35B8F9A
:1043800053E8001F013143E80012002A85D0F7E707
:1043900000400140581F0020541F0020481F0020EB
:1043A000803F00206C3F002000030050682F002059
:1043B000703F00200300000C030000047C3F00203D
:1043C00070B5054684B00C46104E304610F07CFFA8
:1043D000C0B10F4ACDF804D0515D8DF80140C4F34F
:1043E0000123022243EA011302928DF80C208DF87A
:1043F0000030B2682C23946801A901223046A047FE
:1044000004B070BD6FF01200FAE700BF70AA01009F
:1044100058B7010010B5294C237853B1022B22D094
:10442000274B19880020FFF7CBFF70B100232370C2
:1044300010BD2448224A03601E210223002011805F
:104440002370FFF7BDFF0028F0D102230C2023705A
:1044500007F020F908B11C4B436001230372BDE84B
:10446000104007F059B9174980B20A68C0F13A0301
:1044700001321BB20A60002BD8D0142AD6D0104AC1
:10448000002B118808DB012B02D0042BA8BF0423CA
:10449000194489B21180C5E7B3F1FF3F0CD0033353
:1044A000A6BF3A3880B20420884201D9481C80B2A5
:1044B000091A89B21180B5E70120F9E7A18200202D
:1044C0009A820020943F002060F8010030B5754DBD
:1044D0002978ADF50B7DA1B94368734A9342044630
:1044E00049D0724A93422AD0714A93425DD0714AB0
:1044F000934278D0704A934200F084806F4A93428E
:1045000003D000200DF50B7D30BD017A0029F8D1D4
:104510004FF4827208A8FDF753FE01244FF4827213
:1045200008A949A88DF82040FDF760FC64480022E6
:10453000002349A911F0B8F92C702046E2E74FF4A6
:10454000827208A8FDF73CFE227AB4F90C308DF88F
:10455000222003218DF820104FF4827208A9ADF8B3
:10456000243049A8FDF742FC0022002349A9544801
:1045700011F09AF9C5E7037A0D2B7AD0112B60D090
:104580000C2BBED14FF4827208A8FDF719FE637A96
:10459000003B4FF0020118BF01238DF820104FF4AB
:1045A00082728DF8223008A9DBE790F88430962BD0
:1045B00019B2C8BFC3F19601424B4FF48272198001
:1045C00008A80021FDF7FCFD04F1080140F20112EA
:1045D0000DF12200FDF70AFC04234FF4827208A9B2
:1045E0008DF82030BDE7037A012B8AD14FF4827217
:1045F00008A8FDF7E5FD02234FF4827208A98DF8A3
:104600002030AEE7304B82689A427FF47AAF027B6B
:10461000002A7FF476AF002400250B20CDE90302A9
:10462000CDE901220092CDE90645284B28492948C9
:104630004FF4006211F06CF82749264811F01EF87B
:104640005FE74FF4827208A8FDF7BAFD0121637A93
:104650008DF820104FF4827208A949A88DF82230F5
:10466000FDF7C4FB0022002349A9154811F01CF9ED
:1046700047E74FF4827208A8FDF7A2FDB4F80930AD
:104680005BBA9BB241F28832934228BF1346B3F51E
:10469000C87F38BF4FF4C8734FF4827208A9ADF8D1
:1046A00022305EE7A0820020A0F7010048F8010058
:1046B00000F8010070F7010018F80100B8F70100D8
:1046C000A00800209482002018F90100B1480000E1
:1046D00000900020580C002048B7010010B4046975
:1046E0000123246803FA01F1214218BF5A4022B184
:1046F00083685DF8044BDB68184783685DF8044BFA
:104700001B6918472DE9F04141F28834844228BFE3
:104710000446B4F5487F22462E4D2F492F4E38BF10
:104720004FF4487212B200F5AF739BB22A800A8030
:1047300041F27C52934228BF134640F68C218B42B3
:10474000274A284838BF0B4602FB03F300250560C3
:1047500003F52133244D8833A5FB032341F2A171D6
:10476000A1EB134101EB012101F28261A6FB0131B2
:1047700040F201171D4BA7EB112189B24FF0010840
:10478000022083F80080FFF71BFEB4F5C87F184BAA
:1047900038BF4FF4C87403FB04F4A5FB045440F67F
:1047A0009753A3EB144303EB0323A6FB0363A7EB8D
:1047B0001321404689B2FFF703FE0C2006F06AFF82
:1047C00008B10C4B436003230372BDE8F04106F0CF
:1047D000A3BF00BF98820020968200200DABA913D2
:1047E000C8140500943F00206B0DD732A182002031
:1047F000605B030060F80100012838B5044627D04B
:10480000022839D000B138BD264D2B691B685B06E4
:1048100023D4AB6840211B69284698472B691B6845
:10482000190623D5AB681F48DB68802198471E4DC9
:104830002B78A3420AD00C2006F02CFF08B11B4BAA
:10484000436001230372847206F066FF2C7038BD4A
:10485000144D2B691B685806DBD4AB684021DB681C
:10486000284698472B691B681906DBD4AB680D48AE
:104870001B6980219847DAE70A4D2B691B685A06A5
:10488000AB684FF040014CBFDB681B692846984776
:104890002B691B681B06E9D4AB680248DB688021E2
:1048A0009847C4E720AA0100A282002030F8010046
:1048B0002DE9F04FA64DA74C0023ADF5037D2B70DD
:1048C00004F128070621012600E021792068E38809
:1048D000D0F810E0D0F80880DEF800C0DA0754BF46
:1048E00043F4B01383F4D01323F4801206FA01F9D1
:1048F000DB074CBF4CEA09032CEA0903CEF8003071
:10490000D8F8003008349847BC42DED1924E934C20
:104910003269B168136823F4007313600B684FF4B5
:10492000803209213046984704F1200817210127D9
:104930002068E388D0F810E0D0F80890DEF800C0D6
:10494000DA0754BF43F4B01383F4D01323F4801276
:1049500007FA01FADB074CBF4AEA0C032CEA0A0308
:10496000CEF80030D9F8003008349847444501D0DB
:104970002179DDE77848DFF80092DFF800A2DFF860
:104980000082DFF800B2764C734F01220D21FFF751
:10499000A5FE012208217348FFF7A0FE0020FFF7C3
:1049A0002BFF66210220FFF70BFD8F210120FFF76F
:1049B00007FD0020FFF72EFD4FF0FF324FF0FF33D1
:1049C0006946204610F0CCFF0028F5D19DF8003054
:1049D000042BF1D8DFE803F0726D7C1403009DF81E
:1049E000FD00FFF709FF9DF8FD30022BE4D12B7885
:1049F000002B40F08C80BDF87A00FFF783FEDBE7E8
:104A00002B78022B79D0012BD6D19DF80230032BC5
:104A1000D2D1BAF80020B9F800301344BDF8042010
:104A20009B1A1BB283EAE371D8F80020A1EBE37173
:104A300089B201320729C8F8002076D9642A74D0D7
:104A400013F1090FC0F281800A2BA8BF0A239BB281
:104A5000BBF8002013449BB241F288329342ABF87A
:104A6000003028BF1346B3F5C87F3F4A38BF4FF424
:104A7000C87302FB03F33D4AB3FBF2F3C3F559637A
:104A8000073303EB032340F60552B3FBF2F1C1F504
:104A90008071013189B20120FFF792FC0C2006F0F1
:104AA000F9FD08B1324B43600323037206F034FE74
:104AB00082E79DF80200FFF79FFE7DE72B78BDF9A6
:104AC0000200002B7FF478AF80B2FFF71BFE73E784
:104AD00032699DF802301268D20648BF83F00103A4
:104AE0002BB1B3681021DB683846984764E7B36898
:104AF00010211B69384698475EE79DF80230012B6C
:104B00007FF45AAFBDF90400FFF784FC54E74FF47B
:104B1000827269460DEB0200FDF768F9002241A997
:104B20002046002310F0C0FE46E700230C202B7027
:104B300006F0B0FD08B10F4B4360B9F80030438177
:104B40000023037206F0E8FD36E74FF6F6737FE7C1
:104B5000A182002084B701000CAA010064B7010003
:104B6000A008002020AA0100605B030010090500D6
:104B700060F8010030F80100988200209482002043
:104B8000943F0020968200202DE9F0410746884698
:104B9000FCF7B6FA98B106464046FCF7B1FA002495
:104BA000054602E00134B44209D038192A4641468C
:104BB00013F01EF80028F5D12544AE4203D29FED34
:104BC000050ABDE8F08101467819BDE8F04113F00F
:104BD000D3BA00BF0000C07F2DE9F04107468846E8
:104BE000FCF78EFAD0B106464046FCF789FA00245D
:104BF000054602E00134A64210D038192A46414643
:104C000012F0F6FF0028F5D12544AE4206D3014646
:104C10000A227819BDE8F04113F04ABC4FF0FF308A
:104C2000BDE8F08108B410B5144683B0216805AB27
:104C3000084453F8042B0193C1F5006114F05CFDA6
:104C4000002806DB2368C3F50062824224BFC01837
:104C5000206003B0BDE8104001B070472DE9F04F6F
:104C60000129C3B0814600F05F8102290E469046BB
:104C700000F05581DFF80CA401299AF800B040F249
:104C80002D81C94F4546012402E0A64200F026814D
:104C900055F8040F39460134FCF7A2FA0028F4D184
:104CA000D8F804402046FCF72BFA002800F00D81CC
:104CB00040F20112002101A8FDF782FABB4920460B
:104CC000FFF762FFBA498DED010A2046FFF75CFF4E
:104CD000B8498DED020A2046FFF756FFB6498DED23
:104CE000030A2046FFF750FFB4498DED040A204621
:104CF000FFF74AFFB2498DED050A2046FFF744FF52
:104D0000B0498DED060A2046FFF73EFFAE498DED16
:104D1000070A2046FFF738FFAC498DED080A204608
:104D2000FFF732FFAA498DED090A2046FFF72CFF55
:104D3000A8498DED0A0A2046FFF726FFA6498DED0A
:104D40001A0A2046FFF720FFA4498DED1B0A2046D2
:104D5000FFF71AFFA2498DED1C0A2046FFF714FF4A
:104D6000A0498DED1D0A2046FFF70EFF9E498DEDEF
:104D70001E0A2046FFF708FF9C498DED0B0A2046CE
:104D8000FFF702FF9A498DED0C0A2046FFF7FCFE63
:104D900098498DED0D0A2046FFF7F6FE96498DEDF8
:104DA0000E0A2046FFF7F0FE94498DED0F0A2046CB
:104DB000FFF7EAFE92498DED100A2046FFF7E4FE68
:104DC00090498DED110A2046FFF7DEFE8E498DEDEC
:104DD000120A2046FFF7D8FE8C498DED130A2046B3
:104DE000FFF7D2FE8A498DED140A2046FFF7CCFE6C
:104DF00088498DED150A2046FFF7C6FE86498DEDE0
:104E0000160A2046FFF7C0FE84498DED170A20469A
:104E1000FFF7BAFE82498DED180A2046FFF7B4FE6F
:104E200080498DED190A2046FFF7AEFE7E498DEDD3
:104E3000210A2046FFF7A8FE7C498DED220A204674
:104E4000FFF7A2FE7A498DED230A2046FFF79CFE6C
:104E500078498DED240A2046FFF796FE76498DEDC0
:104E6000250A2046FFF7B8FE7449ADF87C002046BD
:104E7000FFF7B2FE72498DF8FF002046FFF7ACFE47
:104E800070498DF800012046FFF7A6FE6E490346E3
:104E900020468DF80231FFF79FFE6C49ADF8030103
:104EA0000A2201A8FDF77CFA00284DD001A800F0E5
:104EB000ABFD002856D00346654A4846012105F05F
:104EC00021F8002043B0BDE8F08F624A0121484636
:104ED00005F018F8002043B0BDE8F08FBBF1000FDB
:104EE0007FF4DEAE5C4A0321484605F00BF85B4ACE
:104EF0000321484605F006F8594A0321484605F0C3
:104F000001F8584A0321484604F0FCFF564A0321A1
:104F1000484604F0F7FF01238AF80030DAE75349E6
:104F20005068FCF75DF9C0B940F20112002101A8F8
:104F3000FDF746F901A800F03FFD60BB43492C2274
:104F400001A8FDF72DFAB8B94846494A032104F0F3
:104F5000D9FF002043B0BDE8F08FDFF828A19AF810
:104F600000B08EE64846394B424A082104F0CAFF99
:104F7000002043B0BDE8F08F48463F4A082104F0C6
:104F8000C1FF4846314B3D4A082104F0BBFF0020D9
:104F900043B0BDE8F08F4846394A012104F0B2FF22
:104FA000002043B0BDE8F08F70BA010088BB01005B
:104FB00090BB010098BB0100A0BB0100A8BB010091
:104FC000B0BB0100B8BB0100C0BB0100C8BB010001
:104FD000D0BB0100D8BB0100E0BB0100E8BB010071
:104FE000F0BB0100F8BB010000BC010008BC0100DF
:104FF00010BC010018BC010020BC010028BC01004D
:1050000030BC010038BC010040BC010048BC0100BC
:1050100050BC010058BC010060BC010068BC01002C
:1050200070BC010078BC010080BC010088BC01009C
:1050300090BC010098BC0100A0BC0100A8BC01000C
:10504000B0BC0100B8BC0100C8BC0100983F002002
:10505000D0BC01006CBB01008CBA010098BA010001
:10506000E0BA010024BB010038BB0100D8B901003F
:10507000FCB90100F8BC010020BA01004CBA0100E3
:10508000E0B90100A382002010B5C2B0044640F28E
:105090000112002101A8FDF793F801A800F08CFC93
:1050A000B0B90F490A2201A8FDF77AF940B12046AC
:1050B0000B4B0C4A082104F025FF002042B010BD24
:1050C0002046094A032104F01DFF002042B010BD14
:1050D0002046064A012104F015FF002042B010BD11
:1050E000983F002014CC0100FCB90100E0B9010098
:1050F0002DE9F04F4F4F504EDFF84C9100234FF405
:1051000058614FF47F4285B00C20337087F87C30B3
:10511000A7F8781087F8FE30A7F8FB2006F0BAFA57
:1051200008B1C0F804900123037206F0F5FADFF825
:105130001CA1424CDFF8FC8000254FF0FF324FF0FD
:10514000FF3301A9204610F00BFC0028F5D19DF893
:105150000430052BF1D8DFE803F0373328211203A0
:105160003378002BE9D09DF8063097F8FB209A425F
:10517000E3D0404687F8FB3000F046FCDDE73378AB
:10518000002BDAD0BDF80630B7F878209A42D4D098
:10519000A7F87830404600F037FCCEE7BDF806307F
:1051A000A7F8FF3055BB0025C7E70C2006F072FAC0
:1051B00008B1C0F804900125057206F0ADFABCE70D
:1051C0003378002BB9D0E5E7404600F0F5FB002826
:1051D000B3D101234FF48670337006F05BFA834637
:1051E00008B1174B436040F2011241460BF1080031
:1051F000FCF7FCFD584606F08FFA9EE708210DEB00
:1052000001000AF03FF91C2006F044FA054608B1F7
:105210000C4B4360C5F808A00A2251464046FDF7F2
:10522000BFF80023E8602B746B61284606F074FA1F
:10523000B9E700BF984F0020A4820020700800202A
:1052400000F8010088F7010060F80100984700208D
:10525000D0B5304A436893428AB02FD02E4A934249
:105260003BD02E4A934245D02D4A934202D0002093
:105270000AB0D0BD2B4B82689A42F8D1047B002C37
:10528000F5D1002600270B22CDE90324CDE90667DE
:10529000CDE90144244B254900944FF40062244891
:1052A00010F036FA2349224810F0E8F90994224810
:1052B00032463B4609A910F0F7FAD8E7037A192BD2
:1052C000D5D10223CDE908330022002309A91A48C9
:1052D00010F0EAFA00200AB0D0BD037A012BC6D143
:1052E000B0F90C30032223EAE3738DF82420ADF8E3
:1052F0002630E9E7037A4BB1012BB8D1837A052236
:1053000008928DF82230089B0993DDE74389042237
:10531000EBE700BFA0F7010048F8010030F80100FA
:1053200018F8010018F90100F150000080980020E1
:10533000200D002020BD010070080020014810F061
:1053400053BE00BFD0010020114883681B6DEBB134
:1053500010B582B001AA0421984720B90D4C019ADA
:1053600023689A4201D102B010BD0C2006F092F9D8
:1053700008B1094B4360019BB3FA83F35B090372E5
:1053800006F0CAF9019B236002B010BD704700BF50
:1053900048AA0100AC52002070F70100FFF7D4BF0B
:1053A00030B5364A4368934283B0044623D0344A2A
:1053B000934202D0002003B030BD324B82689A4243
:1053C000F8D1037B002BF5D12F4802F0C1FB044636
:1053D0000028EFD12D4B18602D4D28460FF074FF9B
:1053E000002838D14FF4804200232A48CDE9002319
:1053F00011F080FEDEE7254B186838B12448A1681B
:105400008368E2685B69002B34D09847636953B1C5
:10541000BFF35B8F53E8001F013943E80012002AF5
:10542000F8D1BFF35B8FA3696BB1E26882420AD007
:10543000BFF35B8F53E8001F013143E80012002ADD
:10544000F8D1BFF35B8F237C0BB90120B3E7A068D1
:1054500012F0B4F9F9E7AB682BB19B6C1BB10E49A4
:10546000224628469847AB689B6A002BBAD008486A
:105470009847B7E76FF05700C8E700BF88F701000B
:1054800018F8010018F9010055550000AC52002031
:1054900048AA0100B80600209D5400002DE9F04103
:1054A000054682B083685A6C0AB19047AB68264FB4
:1054B000DFF89C8029E0AB689B69002B32D0012289
:1054C0000DF1070128469847012829D19DF80700CA
:1054D000FEF758F80646382006F0DCF8044608B116
:1054E000C0F804809DF8072022720023636346B150
:1054F000AB689B6904F109011BB332462846984703
:105500006063204606F008F9AB685B6B13B1284670
:10551000984798B13B68002BCDD1FFF715FFCAE73C
:10552000AB689B69094C01E0AB689B694FF4007262
:105530002146284613B198470028F5DC02B0BDE8A3
:10554000F0816FF05700DBE7AC520020AC50002038
:10555000A0F70100022808B502D004280ED008BD2B
:10556000102006F097F808B10B4B436000230B4A5C
:1055700082600373BDE8084006F0CEB8102006F044
:1055800089F808B1044B43600223044A8260037324
:10559000BDE8084006F0C0B818F8010028F901007D
:1055A00010B54FF0805282B0D2F8A830084CD2F833
:1055B000A41000916FEA83436FEA9343054A9BB2BC
:1055C0000D21204612F0A4FD204602B010BD00BF00
:1055D0009C500020C8BD01008170704708B50C20A8
:1055E00006F058F808B1044B436000230372BDE88D
:1055F000084006F091B800BFB8F7010090F900C06C
:105600004378BCF1000F11DBEBB930B5136083B008
:105610004FF4005400250B601148CDE900452246A7
:105620002B4611F067FD002003B030BD072B0DD0D5
:10563000082B08D1C388282B05D90A4810602923D4
:105640000B60002070476FF085007047C388172BF0
:10565000F9D90548106018230B600020704700BF7F
:1056600028070020E0010020B052002010B50B4BAD
:105670000B4AD3E9041486B0CDE90414DC685989D7
:10568000CDE902141C89D3E90031CDE900140821C9
:1056900004F038FC002006B010BD00BFC852002046
:1056A000DCBD010008B5034A034B082104F02AFCC5
:1056B000002008BD74BE0100E00100202DE9F04388
:1056C000354A4368934285B006D0344A934249D064
:1056D000002005B0BDE8F083314B82689A42F7D1D3
:1056E000047B002CF4D12F4802698568136843F4C9
:1056F000002313602B682C4A132198472B4A07CAB2
:1057000001AB83E807000A221846694612F0D0FE72
:10571000009B0DF10E029342814686B202D21A78A6
:105720002E2A2ED0A04627460CF0F8FF05460CF096
:10573000FDFF1F4A1F4B1681014651611E495160F2
:10574000C3E90450596000204FF48051C2E90305B9
:10575000A3F808909C7283F80B805781D860116081
:105760001960B5E7037A002BB2D10E4803691B68B4
:105770001B0383684FF4002154BFDB681B69984703
:10578000A6E721460A22581C12F092FE87B2C4B244
:10579000C0F30728C8E700BF18F80100B8F70100F8
:1057A00018F9010020AA010001000A0080BE0100D2
:1057B000C8520020B05200203CE9010000B5084A60
:1057C00083B0082104F09EFB4FF4005200230548EB
:1057D000CDE9002311F08EFC002003B05DF804FB3E
:1057E0008CBE010028070020114B1B78012B0FD025
:1057F000022B0BD10F4B1B78B3B90F4A0F4B12780A
:1058000003F10800002A08BF184670470C4870478B
:10581000084B1B7853B9084A0A4B127803F1080069
:10582000002A08BF18467047074870470748704766
:10583000A5820020A8820020A782002090BF01003E
:10584000B0BF0100A0BF010080BF010088BF010000
:1058500010B54C4C22787AB943684B498B4212D030
:105860004A498B420AD04A498B423DD0494A934229
:1058700046D0494A934225D0002010BD474B90F8AE
:1058800003211A70F8E7037A063B0B2BF4D801A228
:1058900052F823F06F590000555900007958000064
:1058A0007958000079580000795800002959000003
:1058B00079580000795800007958000079580000A4
:1058C00069590000037A002BD6D1102005F0E2FEC2
:1058D00008B1334B4360334B0022C0E9022305F08B
:1058E0001BFF0120207010BD037A002B42D0012B3A
:1058F000C2D12D4B10201A7005F0CCFE58B90CE027
:105900002A4B82689A42B7D1037B002BB4D1102076
:1059100005F0C0FE08B1224B4360254B0022C0E9D0
:10592000022305F0F9FEA7E7437A224A003B18BF9D
:1059300001231020137005F0ADFE014608B1184B8D
:105940004B6000238B60FFF74FFFC860084605F0EF
:10595000E3FE91E7144B002210201A7005F09AFE26
:1059600001460028EBD1ECE70C4B427AF4E70E4BF2
:105970000122F1E7102005F08DFE01460028DED15E
:10598000DFE700BFA6820020A0F7010000F80100B9
:1059900070F7010018F80100B8F70100A582002097
:1059A000D0F7010070BF0100A882002018F90100A3
:1059B00078BF0100A782002070B5C0B0F8B10546DD
:1059C000104C20460FF080FCB0B1A36820461E6842
:1059D0006A46FF230021B047044650B99DF8FE30C7
:1059E000012B18BF8DF8FE00FF2269462846FCF700
:1059F000FDF9204640B070BD6FF01204F9E76FF07A
:105A00001504F6E75CAA0100C0B130B50446C1B088
:105A10000C4D28460FF058FC68B1FF22214668461D
:105A2000FCF7E4F9AA68FF23546800216A46284677
:105A3000A04741B030BD6FF01200FAE76FF01500DB
:105A4000704700BF5CAA010043689868704700BFB8
:105A5000F0B545680669A868CC18844289B025D895
:105A600022B30592032249BA06938DF81C2002271F
:105A700001AA0023ADF8041002928DF810300397AC
:105A80004FF40042002330460FF0D2FF044650B9D5
:105A90002868AB8881683A468C6802A9A04704460A
:105AA000304610F045F8204609B0F0BD6FF01504FF
:105AB000F9E700BF10B5446800690FF0B1FF206836
:105AC0000FF002FC00280CBF6FF01200002010BD88
:105AD0002DE9F04FD0F8048006691F46D8F8083049
:105AE0001546CA199A428BB04ED8002D4CD00C46A0
:105AF0004FF40042304600230FF09AFF0146002881
:105B000036D187B305EB070AAB46CDE90061A4B2F5
:105B100002258946012707E0A420002110F0E8FEB5
:105B20000134D345A4B227D00DF10B03CDE90737DB
:105B300003AA1BF8013B05958DF818908DF82450A9
:105B4000049262BA8DF80B30D8F80000B8F804302F
:105B5000ADF80C20826804A996680222B04700289C
:105B6000DAD0009E0146009130460FF0E1FF009927
:105B700008460BB0BDE8F08FDDE9006100913046CA
:105B80000FF0D6FF0099F3E76FF01501F0E700BFC3
:105B90004B1CDBB28170817680F82530C37600F82B
:105BA000061C704750E90231D0F8AC00184700BF1E
:105BB0000369002283F84A20704700BF036993F805
:105BC0004A0008B193F84800704700BF03690022FB
:105BD00083F84B20704700BF036993F84900704772
:105BE000036993F8482012B193F84A202AB993F830
:105BF000490018B193F84B0070470120704700BF6F
:105C0000012070470369C3E9001270470229036944
:105C100006D0042910D0012909D06FF08500704703
:105C200093F8AB30C3F34003136000207047D3F800
:105C3000A43013600020704793F8AB3003F00103E9
:105C4000F2E700BF002070470369D3F8A4200A6080
:105C500093F8A820EAB1012A0CBF022203224A715C
:105C600093F8A920501E032803D8DFE800F00303AF
:105C7000030300220A7193F8AA30062B10D0072BD9
:105C800009D0052B0CBF0023032300208B71C871A2
:105C900070470122E3E7022300208B71C87170472F
:105CA000012300208B71C871704700BF08B5014601
:105CB000034802F013F910B1012300F8073C08BDB6
:105CC000E80D002001690B68012281F84B2013B117
:105CD00091F8493003B970470148083110F060B9B4
:105CE000C00E002001690B68012281F84A2013B11F
:105CF00091F8483003B970470148083110F050B9A5
:105D0000C00E002070B5144602F14C060A1E82B087
:105D1000054615DDD4F88C00314601F087F923687B
:105D2000012284F8492013B194F84B30C3B9D4F858
:105D30008C104B684A699A1ACB699B1A3F2B0AD977
:105D40000A4B4022CDE9003431460123284602F0B7
:105D5000C1F902B070BD012384F8B03002B070BD4B
:105D600004F10801024810F01BF9E0E7055D0000AE
:105D7000C00E002010B514460122236884F8482084
:105D800082B013B194F84A30C3B9D4F89C30F3B957
:105D9000D4F890309A681B699A4205D1D4F89830AB
:105DA0001A699B689A4220D011480022002304F10E
:105DB000180102B0BDE8104010F048B90C4804F1D9
:105DC000080110F0EDF8D4F89C30002BE0D0D4F8A6
:105DD00098000822694601F0A3F90828D8D1019952
:105DE000D4F894000FF01CFCD2E702B010BD00BF45
:105DF000C00E002038B50E4B04695968C4F8B400D1
:105E0000002504F1B802C4F8B85069B10A605A60BC
:105E100004F10800074910F0A7F804F1180006493A
:105E200010F008F9002038BDC3E90022F0E700BFF8
:105E3000E80D0020A55B00003D5E0000F0B5D0F845
:105E40009C305B681B6A1E7D87B00446304602F0BA
:105E5000EDF810BBD4F88430A4F11807FBB9D4F8DE
:105E60008820D2B1A06F03A901F020F90546A0B1A6
:105E700083064FF0000384F83030144B039908BFB9
:105E800000F1FF35CDE900372A460223304602F003
:105E900021F9A06F294601F02DF907B0F0BD0546A4
:105EA0000822D4F8800004A901F07AF90828F4D176
:105EB000064B059984F83050049A0391CDE90037D8
:105EC0003046022302F006F907B0F0BD755D000010
:105ED00070B504460E4601791548154601F0EEFFEF
:105EE00010B394F900206378002A06DB202B10D031
:105EF000222B0AD06FF0850070BD212BFAD110380B
:105F0000072328603360002070BD638800F8093CD7
:105F1000F9E72B681A6840F8102C9A889B7900F8EA
:105F20000A3C20F80C2CEEE76FF0120070BD00BFA9
:105F3000E80D0020F0B5056995F8AE3083B08BB15F
:105F400095F8AF3073B9D5F89C3093421446164695
:105F50000BD2D5F8A0302BB1D5F8900001F066F83F
:105F6000064606BB002003B0F0BD0F46D5F89400EE
:105F700001A9002200230FF023FB0028F2D13946AB
:105F800022460198FBF732FFD5F8980000940822CA
:105F9000694601F04BF80828E3D00199D5F8940040
:105FA0000FF03EFBDEE7002385F848300022002397
:105FB00005F11801024810F049F8304603B0F0BD71
:105FC000C00E002038B5154B054693E803000024A9
:105FD0000B0CC5F8A400A5F8A81085F8AA30A5F800
:105FE000AE40A5F84840A5F8AB4085F8B040402247
:105FF000214605F14C00FCF7E3F8D5F88C30C3E9F5
:106000000244C3E905445C601C61D5F89030C3E9E3
:106010000244C3E905445C601C6138BD88AE0100E0
:1060200030B5002385B081F8AD300D46016AADF87A
:106030000C204FF40030029008790A4C42F2A10182
:1060400001910A2201A901F06BFD04E001200FF08B
:10605000F7F8013C03D095F8AD30002BF6D005B031
:1060600030BD00BFA186010010B540290469134668
:1060700060D019D801391F2913D81F2911D8DFE89A
:1060800001F03B1010101010103E101010101010E6
:10609000104D1010101010101010101010101010C3
:1060A00010326FF0120010BDB1F5807F4BD0B1F50A
:1060B000007F0DD194F8AC2002F0BF02002B36D146
:1060C00084F8AC2001694068FFF7AAFF002010BDEA
:1060D0008029E6D194F8AC2002F0EF02002BEFD03B
:1060E00042F01002ECE794F8AC2002F0FB02002B27
:1060F000E6D042F00402E3E7C4F8A430E6E794F8FF
:10610000AC2002F0FE020BB142F0010284F8AC2098
:10611000016940680122FFF783FFD7E794F8AC20BC
:1061200002F0FD02002BCBD042F00202C8E742F0A1
:106130004002C5E794F8AC2002F0F702002BBFD074
:1061400042F00802BCE794F8AC2002F0DF02002B1A
:10615000B6D042F02002B3E770B5046982B00546BC
:10616000D4F88C0000F0DCFFD4F88C309A68196900
:10617000914204BF002284F8492094F8B0200646DA
:1061800062B15A685969DB69521A9B1A3F2B05D9CB
:1061900094F8AE302BB9002384F8B030304602B00A
:1061A00070BD6B68054A196A0123087BCDE900249C
:1061B00004F14C01402201F08DFFECE7055D000089
:1061C00030B5024683B00C462648114601F068FE01
:1061D00070B1054650F8B439611E5B68052907D8CF
:1061E000DFE801F008061508030D012305F8053C5A
:1061F00003B030BD03B0BDE83040FFF7E3BE15F893
:10620000053C002BF4D0002305F8053CF0E715F819
:10621000062CB2B115F86C3C002BE9D155F8B43C12
:10622000012205F86C2C002BE2D015F86A3C002BFB
:10623000DED00D48A5F1AC0103B0BDE830400FF051
:10624000AFBE1B6A094A1C7BA5F16801CDE900209D
:1062500001234022204601F03DFF012305F8063CC2
:10626000D8E700BFE80D0020C00E0020055D00004B
:106270002DE9F04707468846164600F0A5F8C368A2
:1062800004461BB943691A78002A37D16268002393
:10629000E360BA4258F8223071DA591C616193F810
:1062A00000A0BAF12D0F6AD19D1C656193F8019091
:1062B000C4F80890B9F12D0F34D0B9F1000F23D1F3
:1062C000324D65615146304611F02AFC88B3C4F85E
:1062D00008A02D21304611F023FCE0B143783A2B81
:1062E0002DD0002323612B7813B9636801336360D9
:1062F000204600F04DF8A068BDE8F0875D1C4561C0
:1063000093F80090C0F808904946304611F008FC18
:10631000B9F13A0FE1D12B7803B3204600F038F8F9
:106320003F20E9E79B78002BD3D1184B6361013202
:106330006260204600F02CF84FF0FF30DCE72A784E
:1063400063682AB901339F4263600BDD58F823501C
:106350000E4A0133C4E904526360C9E7636801333C
:106360006360DAE7094B636135783A2D204602D045
:1063700000F00EF8D4E700F00BF82846BCE7034B1A
:106380006361204600F004F8D6E700BF6CBA010054
:1063900030B4084C0568084B084A256044681C6006
:1063A00084681460D0E903420549064B0C601A600A
:1063B00030BC70471803002014030020FC5200205A
:1063C000F8520020F452002000487047FC020020E0
:1063D00000207047014B1B68184700BF1C030020BA
:1063E0000FB400B587B008AA002352F8041BCDE90A
:1063F0000433CDE901234FF0020C064B8DF80AC09F
:1064000002A8039312F038FA07B05DF804EB04B069
:10641000704700BFD563000080B505460E461446A0
:106420001F4610F0D3FA034614F078FA21460446CA
:106430003046034E3A463351A847A05906F0AAF811
:1064400008000000CB00023370B5C45AA2EB010E65
:10645000891A01EB54014C00C4F34E0C00EBC20549
:1064600094444FEA4E06C6526C8020F832E020F881
:106470003C1070BDC90002314FEAC20C0CF1020C95
:10648000435A00B530F80CE05B0803EB5E034FEABB
:10649000430E20F801E030F80C1002EB510220F816
:1064A00032305DF804FB00BF30B500EBC1044FEAA9
:1064B000C10C63885B08B3FA83F3C3F11F0300EBDD
:1064C00083050CF1040C2A691FFA81FE72B96EF380
:1064D0000F02C4686EF31F424FF0010E0EFA03F371
:1064E0001C43C460296140F80C2030BDD300043344
:1064F000C15A20F80C1000EBC101E280A1F806E0BF
:1065000020F803E030BD00BF00EBC10CBCF8063042
:1065100099420CD0BCF80410043200EBC10C40F8D6
:10652000223000EBC300ACF8063081807047C368AE
:1065300001219140043223EA01030021C36040F8A5
:1065400022107047F8B5B1FA81F3C3F11F0200EBD6
:10655000820635698DB12C464FF0030C00EBC40E5A
:10656000BEF80270B1EB570F18D9BEF8064034617F
:10657000BCF1010C01D0A542F0D1C268C3F12003E7
:106580004FF0FF349C40144001D12046F8BD94FAEE
:10659000A4F2B2FA82F2131D50F823402146FFF70D
:1065A000B3FF2046F8BD00BFF8B5CE00B71C0D46BE
:1065B000C15B05EB510100EBC10304465A88D307C8
:1065C0000CD5A15B691A04EBC1035A88D30714D513
:1065D00029462046BDE8F840FFF766BF5208B2FAE8
:1065E00082F2C2F11F02FFF78FFFE25B294605EB43
:1065F00052022046FFF73EFFE3E75208B2FA82F26A
:106600002046C2F11F02FFF77FFFA15B2046691AF7
:106610002A46FFF72FFFA35BED1A29462046BDE867
:10662000F840FFF741BF00BF61B100680439091AA3
:1066300021F007030344C9085A8822F001025A8056
:10664000FFF7B2BF704700BFF8B50568C1B1AB68CE
:10665000B3EBD10F14D90B31CC0821462846FFF7F4
:1066600071FF68B105EBC007C6007B88B4EB530F20
:1066700008D37B8843F0010304367B80A819F8BD5A
:106680000020F8BD021901462846FFF7DBFE11463F
:10669000FFF70AFFEDE700BF2DE9F04101F1FF38F8
:1066A00018EA010806680D46144643D04B420B40D9
:1066B000042B1A46454628BF04229846B4B3B36853
:1066C000B3EBD40F32D904F10B012944891AC9085C
:1066D0003046FFF737FF074640B308F1040303EBEA
:1066E000C0036A1E33441344B3FBF5F303FB05F503
:1066F000A5EB08052C4407342B1F9B1B24F0070433
:10670000A41BB0EBD30F4FEAE4044FEAD30815D330
:1067100006EBC8077B8808EB53039C421DD37B889C
:1067200043F001037B802846BDE8F0810025284620
:10673000BDE8F081042919D90422BFE70146424689
:106740003046FFF77FFE394606EBC807FFF7ACFE81
:106750007B8808EB53039C42E1D2414630462246F7
:10676000FFF770FE2146FFF79FFED8E7BDE8F04136
:106770001146FFF769BF00BF043A2DE9F0418D18BB
:10678000CC1D24F0070425F007052D1BEF08B7FAF0
:1067900087F2C2F12406B6004FF000080736C2F1B6
:1067A0002002F60804604146C4E90278920004F130
:1067B0001000FBF705FD7200BB1B04EBC60142F0A5
:1067C0000102628058006219A4F80080488024F811
:1067D000366063530123538031462046BDE8F041C3
:1067E000FFF762BE70B487B00A9C002C54D0D4E985
:1067F0000052954221693ED0826852F82560DBB193
:10680000314342F8251082686168656952F8213089
:106810002B4342F82130D4E900320133934208D2AD
:106820004FF0FF31826842F82310626801339A42C8
:10683000F8D807B070BC704726EA010642F8256018
:1068400081686568666951F8252022EA060241F8E8
:106850002520D4E9002101328A42EAD2816841F838
:106860002230616801329142F8D807B070BC70479D
:10687000214004912A46806850F822402BB12143E0
:1068800040F8221007B070BC704724EA010440F8B9
:10689000224007B070BC7047013A0A4401F01F045F
:1068A0004D0902F01F060121039601FA06F652096E
:1068B000A1400294741E49423443954200950192CE
:1068C00004910594D4D06C4696E700BFF0B4551EF1
:1068D0000D44049A05F01F04012601F01F07D4603F
:1068E00006FA04F46D09BE4049099760671E274304
:1068F0007642A942059C55601160166157611AD015
:10690000806850F821C00CEA06027BB9BAB354B1D2
:10691000002A92FAA2F2B2FA82F208BF4FF0FF32D6
:1069200002EB411222600020F0BC7047B24230D02E
:1069300026EA0C02EBE73E401661826852F82120FD
:10694000DBB136EA020315D026EA0202DFE74A1C71
:10695000AA420FD200EB8505043D00EB81001146F1
:1069600050F8042F03B1D243002AD0D1A84201F13C
:106970000101F5D10120F0BC7047D243E1E750F8A6
:106980002520D24337EA0206E1D027EA020229464F
:10699000BDE750F82520F5E72DE9F04F8BB04FF01B
:1069A0004003EFF3118B83F31288BFF36F8F002A3C
:1069B0004CD00D46002949D007688F42064645D382
:1069C000406892467F1A044658B1B2680021043AE2
:1069D0000C4652F8043FB3F1FF3F31D04BBBBC42F1
:1069E0001ED80DF10C090DF1100803E0039C0134D1
:1069F000A74215D3CDE90089214600232A46304617
:106A0000FFF764FF0028F1D03046CDF800802A4619
:106A100001232146FFF7E6FECAF80040002001E00E
:106A20006FF01B008BF31188BFF36F8F0BB0BDE8C5
:106A3000F08FDB4393FAA3F3B3FA83F31C44CEE75E
:106A40000131814204F12004C3D1C8E76FF0150081
:106A5000E8E700BF2DE9F0434B1E89B0154613440B
:106A60004FF04002EFF3118982F31288BFF36F8F6A
:106A700009B302688A420C4680461CD3AA421AD93E
:106A80009A4218D9002602AF0A46019600970123C0
:106A90002946FFF71BFF88B140460097224629464A
:106AA0003346FFF79FFE304689F31188BFF36F8F9F
:106AB00009B0BDE8F0836FF01500F5E76FF00D0049
:106AC000F2E700BF2DE9F84FB0F818C01CF0080F2E
:106AD000064640F00A810CF00700DFF894A2044655
