:101000000000042071810000998100009B81000094
:101010009D8100009F810000A18100000000000070
:10102000000000000000000000000000A38100009C
:10103000A581000000000000A7810000A981000038
:10104000D5610000AB81000045660000F968000032
:10105000AB810000AB810000798600000D1F00000D
:101060005D6800006D680000AB810000AB8100008E
:10107000AB810000AB810000AB810000AB810000C0
:10108000AB81000031380000AB810000AB81000073
:10109000CD380000AB810000AB810000AB810000C7
:1010A000AB810000AB810000AB810000AB81000090
:1010B00005660000AB810000000000000000000099
:1010C000AB8100001566000025660000AB810000C2
:1010D000AB810000AB810000AB810000BD7D000052
:1010E000AB810000AB810000AB810000000000007C
:1010F000000000003566000000000000AB81000029
:1011000000000000000000000000000000000000DF
:1011100000000000000000000000000000000000CF
:1011200000000000000000000000000000000000BF
:1011300000000000000000000000000000000000AF
:10114000000000000000000000000000000000009F
:10115000000000000000000000000000000000008F
:10116000000000000000000000000000000000007F
:10117000000000000000000000000000000000006F
:10118000000000000000000000000000000000005F
:10119000000000000000000000000000000000004F
:1011A000000000000000000000000000000000003F
:1011B000000000000000000000000000000000002F
:1011C000000000000000000000000000000000001F
:1011D000000000000000000000000000000000000F
:1011E00000000000000000000000000000000000FF
:1011F00000000000000000000000000000000000EF
:1012000010B5054C237833B9044B13B10448AFF340
:1012100000800123237010BD000C0020000000009E
:10122000D009010008B5034B1BB103490348AFF3D4
:10123000008008BD00000000040C0020D00901005F
:10124000154B002B08BF134B9D46A3F5803A002198
:101250008B460F461348144A121A07F0B5FB0F4B82
:10126000002B00D098470E4B002B00D09847002051
:10127000002104000D000D48002802D00C480BF09E
:1012800045F807F0E3FA2000290000F04DFB07F0D5
:10129000CDFA00BF0000080000000420000000009C
:1012A00000000000000C00203C9A02200DC300004A
:1012B00005D50000BFF34F8F0549064BCA6802F4FD
:1012C000E0621343CB60BFF34F8F00BFFDE700BF69
:1012D00000ED00E00400FA051F2886BF00F01F00A3
:1012E000044A4FF0A042012303FA00F0C2F80805B7
:1012F000704700BF0003005008B50D4802F020FA07
:1013000018B10C4A7F2104F079FB094802F02FFA4A
:10131000094A106018B9074A812104F06FFB074B96
:10132000074800221A60BDE8084004F020BC00BF56
:10133000EC0901004D030100E4980220089102200D
:10134000D409010037B5244B1B680C46002B41D053
:1013500001F0A2FC214B22481B6801930123A3400A
:101360008DF8033004F0A6FB002833D11D4C236810
:10137000B3F5006F04D31C4A4FF4D47104F03EFB64
:101380001A4D23682868032201A9184407F082FA3D
:10139000236828680333184401220DF1030107F084
:1013A00079FA2368043323602368B3F5006F11D101
:1013B0002B684BB129460A4804F088FB20B10A4A41
:1013C0004FF4D97104F01AFB094802F0D0F9002358
:1013D0002860236003B030BD4C0C0020400C00207E
:1013E000D4090100089102204D030100E498022075
:1013F000EC0901001F2886BF00F01F00044A4FF0CF
:10140000A042012303FA00F0C2F80C05704700BFA8
:101410000003005008B505281AD8DFE800F00317CC
:1014200019190D140B4802F082F92520FFF7E2FF8D
:10143000BDE80840FFF760BF074B08481968BDE8E2
:10144000084002F0B6B900F0C1FDF1E7FFF732FF46
:1014500008BD00BF4C0C002010990220EC090100CF
:10146000F0B504468DB099B30023DAB2914203F18E
:101470000103FAD82378063B202B29D8DFE813F0A4
:1014800021002A0028002800280079006900360081
:101490004C0050007000560087009500F100C3001A
:1014A0009F012800A60132002800280028002800FB
:1014B00028002800AE01AA014801B001D301D701DC
:1014C000E801FFF719FFCF4802F031F900F072FD93
:1014D0000DB0F0BDCB4802F030F900F077FDFFF71A
:1014E0000BFFF5E7C84802F022F9F1E76378A4782A
:1014F00004EB0324A4B2A4F548739BB241F2680143
:1015000040F605528B4288BF1446204601F0B6FAD9
:10151000204601F011FDDBE7607801F063FAD7E7C0
:10152000607800F5967001F033FAD1E76078431ED9
:10153000012BCDD801F0F0FA0546607801F0EFFC00
:10154000002DC5D0B14A4FF49071284604F056FAE8
:10155000BEE76078003018BF012001F039FBB7E723
:10156000647800F033FD00F03DFD204600F054FDAE
:10157000B5E7A378607861791B0403EB0063E0783A
:1015800003EB00232079184400F0A4FCA0E7A37823
:10159000607861791B0403EB0063E07803EB0023C0
:1015A0002079184400F0B0FC92E71422002107A82B
:1015B00007F00AFA611C042207A807F06BF9611D05
:1015C000042208A807F066F904F10901042209A819
:1015D00007F060F904F10D0104220AA807F05AF996
:1015E000042204F111010BA807F054F99DED0B2A18
:1015F000DDED0A1A9DED091ADDED080A9DED070AD9
:1016000001F0A0FB64E71422002107A807F0DCF931
:10161000611C042207A807F03DF9611D042208A8F7
:1016200007F038F904F10901042209A807F032F99A
:1016300004F10D0104220AA807F02CF9042204F198
:1016400011010BA807F026F99DED0B2ADDED0A1A12
:101650009DED091ADDED080A9DED070A01F012FC67
:1016600036E76B4D28220021284607F0ADF9611CB2
:101670000422284607F00EF90422611DA81807F07D
:1016800009F904F10901042205F1080007F002F943
:1016900004F10D01042205F10C0007F0FBF804F140
:1016A0001101042205F1100007F0F4F804F115010E
:1016B000042205F1140007F0EDF804F119010422E9
:1016C00005F1180007F0E6F805F1200704F11D0107
:1016D000042205F11C0007F0DDF804F121010422C9
:1016E000384607F0D7F805F1100604F12501042269
:1016F00005F1240007F0CEF80FCE6C460FC497E832
:10170000030084E8030095E80F0001F07EFBDFE6AC
:101710003F4D28220021284607F056F9611C04227B
:10172000284607F0B7F80422611DA81807F0B2F8A0
:1017300004F10901042205F1080007F0ABF804F1F7
:101740000D01042205F10C0007F0A4F804F11101C9
:10175000042205F1100007F09DF804F115010422A0
:1017600005F1140007F096F804F11901042205F1BF
:10177000180007F08FF805F1200704F11D0104227D
:1017800005F11C0007F086F804F121010422384617
:1017900007F080F805F1100604F12501042205F197
:1017A000240007F077F80FCE6C460FC497E80300CB
:1017B00084E8030095E80F0001F0EAFA88E6607813
:1017C000003018BF012001F09DFB81E6607801F038
:1017D0007FFB7DE6607801F088FB79E6FFF76AFD24
:1017E0006378013B032B3FF673AEDFE803F002089A
:1017F0001316A37814209BB1FFF76EFD68E6A3785B
:101800001520F8E7480C0020440C00204D0301008F
:10181000E8980220A3781620EDE7A3781720EAE7DE
:10182000FFF7E8FD54E6164801F010F950E6667837
:10183000144D06F11E0305EB83050422A11C284666
:1018400007F028F895ED000A304601F082FB3FE6EC
:10185000B7EE000A002001F07CFBB7EE000A012081
:1018600001F077FBB7EE000A022001F072FBB7EE41
:10187000000A032001F06DFBB7EE000A0420E4E744
:101880000C9102207490022070B504460520154684
:101890000E4600F05BFD114B44F2010294421C60C5
:1018A0005E609D6011D044F20202944206D1DD6078
:1018B000DA6812889A61DA685268DA612A46314633
:1018C0002046BDE8704004F0A7B81D611A6992680F
:1018D0005A611A6912689A611A69EDE7200C0020B2
:1018E0001FB519211822CDE900124FF0CC72002348
:1018F00002920222039369468DF80C2007481A468B
:1019000004F0BEFA20B1064A40F2D11104F076F894
:10191000044805F017F905B05DF804FB0800002045
:101920004D0301000C0000202DE9F041C14CC24BD9
:10193000C4F88C30C14A4FF48073A4F8903001236E
:10194000C2F840354FF08042936704F077F920B138
:10195000BB4A4FF4F77104F051F8002004F088F905
:1019600004F0B0F90028FBD0FFF7BAFFB54801F04A
:10197000E7F920B1B24A4FF4FB7104F03FF801F0EF
:1019800071FB84F89000AB4801F086FBAE4801F093
:10199000C1FBAE4801F03AFCAD4801F07DFCAD481A
:1019A00001F020FBB4F88E30AB48A3F5E163B3F54A
:1019B000486F84BF40F60553A4F88E3001F032FB27
:1019C000A64801F03FFBA64801F0CCFA00F01CFF4E
:1019D00000F024FD00F082FD20B1994A40F20A2176
:1019E00004F00CF800F0A6FD20B1954A4FF4037105
:1019F00004F004F89B4801F02DF920B1904A4FF40F
:101A0000047103F0FBFF02F0BDF89749974801F01D
:101A1000D5FD974801F094FE20B1894A40F2192182
:101A200003F0ECFF934D4FF400620021286806F0AC
:101A3000CBFF8F4801F09BFE286020B9804A4FF40D
:101A4000077103F0DBFF8C4804F091F88B498C4858
:101A500000F004FB8B4801F0D5FA94F8913094F82B
:101A60008D207848FF2B04BF022384F8913094F82E
:101A7000911001F077F8B4F88E0000F0FFFF00201D
:101A800000F064FC00F012FC7F4BA4F892001F46AB
:101A90001A68002AFCD094F8910001F03DF87B4AC6
:101AA0001368002BFCD07A4D2B68002B40F09A81F4
:101AB00094F89010774806F0D7FF20680DF096FE56
:101AC00002460B46744806F0CFFF60680DF08EFEAC
:101AD00002460B46714806F0C7FFA0680DF086FE6F
:101AE00002460B466E4806F0BFFFE0680DF07EFE32
:101AF00002460B466B4806F0B7FF20690DF076FEF4
:101B00000B460246684806F0AFFF002200236748F4
:101B100006F0AAFFE06A0DF069FE02460B46644833
:101B200006F0A2FF206B0DF061FE02460B466148F5
:101B300006F09AFF606B0DF059FE02460B465E48B8
:101B400006F092FFA06B0DF051FE0B4602465B487B
:101B500006F08AFF00225A4B5A4806F085FF206C97
:101B60000DF044FE02460B46574806F07DFF606CC0
:101B70000DF03CFE02460B46544806F075FFA06C83
:101B80000DF034FE02460B46514806F06DFFE06C46
:101B90000DF02CFE02460B464E4806F065FF6069CC
:101BA0000DF024FE02460B464B4806F05DFFA0698F
:101BB0000DF01CFE02460B46484806F055FFE06952
:101BC0000DF014FE02460B46454806F04DFF206A14
:101BD0000DF00CFE02460B46424806F045FF606AD7
:101BE0000DF004FE02460B463F4806F03DFFB4F8F8
:101BF0008E103E4806F038FF4FF080533C48196E77
:101C000089B206F031FF94F891103A4806F02CFFA3
:101C1000206D0DF0EBFD02460B46374806F024FF21
:101C2000606D0DF0E3FD02460B46344806F01CFFE4
:101C3000A06D65E074900220FF00800D00E001407F
:101C40004D030100080000209C9002208890022093
:101C5000C4900220029102200091022001910220F2
:101C6000EC9002201C0C00206114000015140000F0
:101C7000EC090100E4980220D4090100451300009A
:101C8000400C0020059102204C0C0020440C002048
:101C9000480C0020A8010100B8010100C2010100A8
:101CA000CC010100D6010100E0010100EA010100C0
:101CB000F5010100000201000B0201001602010003
:101CC0000000F03F210201002C0201003702010058
:101CD000420201004D0201005802010062020100AF
:101CE0006C02010076020100800201008A020100FC
:101CF000930201009B020100A5020100AF02010056
:101D00000DF074FD02460B464D4806F0ADFEE06D49
:101D10000DF06CFD02460B464A4806F0A5FE206E0B
:101D20000DF064FD02460B46474806F09DFE606ECE
:101D30000DF05CFD02460B46444806F095FEA06E91
:101D40000DF054FD02460B46414806F08DFEE06E54
:101D50000DF04CFD02460B463E4806F085FE206F16
:101D60000DF044FD02460B463B4806F07DFE606FD9
:101D70000DF03CFD02460B46384806F075FEA06F9C
:101D80000DF034FD02460B46354806F06DFEE06F5F
:101D90000DF02CFD02460B46324806F065FED4F8E5
:101DA00080000DF023FD02460B462F4806F05CFE36
:101DB000D4F884000DF01AFD02460B462B4806F0BD
:101DC00053FED4F888000DF011FD02460B4628485A
:101DD00006F04AFEB4F89210264806F045FE264862
:101DE00006F042FEFFF788FA2B68002BFCD001209A
:101DF00000F0EEFE012000F0A9FA204C204EDFF8A2
:101E000084803B68002BFCD0204603F0BFFE0246D6
:101E10000028F6D12B68002BF6D03146204603F07F
:101E2000BCFE20B142464FF4127103F0E7FD4FF4BF
:101E30000061306801F0FEFB0D28E5D1FFF73AFAAA
:101E4000B9020100C3020100CD020100D702010066
:101E5000E1020100EB020100F5020100FF020100B6
:101E600009030100140301001F0301002A030100FC
:101E7000350301004003010048030100D4090100BB
:101E8000109902204D030100F7B50E4A0E4E0F4F78
:101E90000123136042F210745360354633682BB946
:101EA00047F0010340209847013CF7D1084A00233E
:101EB000136012680192019A2B602B680093009BBB
:101EC00003B0F0BD007000400471004090030100B9
:101ED0000071004038B50A480A4D01F028FC802204
:101EE000C5F8802047F23054013CA4B2FFF7CCFF84
:101EF000002CF9D1024801F020FC80232B6038BD72
:101F00001091022000E100E07047000010B51F4B67
:101F1000D3F80421002A37D01D4A1268002A33D191
:101F2000C3F8042100F056FB1A4B1B4C19782070A3
:101F300081421A4617D1194BD3F80C1141B9D3F885
:101F4000081129B9D3F8041111B9D3F8003153B1EC
:101F500000BF00F031FB124B124A21781B68107849
:101F6000BDE810401847104B1049D3F810350988C8
:101F700010701B0203F4003343EA91030C49096813
:101F800043EA80330B60E4E710BD00BF00700040FF
:101F900010910220240000201791022000600040D0
:101FA0001499022018000020000300501491022010
:101FB00018910220034B80221A60034B187804F01A
:101FC0005DB900BF00E100E01D910220034B8022BB
:101FD000C3F88020024B187804F066B900E100E0F5
:101FE0001D9102200A4A1078FF280DD0094B80214C
:101FF000C3F88010030103F1804303F5E04300219F
:10200000C3F81415C3F81015FF231370704700BFF1
:102010001800002000E100E010B50D4A1378FF2BF6
:1020200014D10C4B13F8101003EB40035C78030140
:1020300003F1804303F5E043C3F81445C3F81015DA
:10204000054B802119601070002010BD0820FCE7AE
:10205000180000201E91022000E100E06F4BF0B557
:1020600018606F4B19604FF08043012285B01A60F1
:10207000D3F80021002AFBD06A4C6B4E0025C3F830
:1020800000516A4BC4F818350627082328463370D8
:102090007770FFF7C1FF664BC4F828350122A3F51E
:1020A00080630421B270F7700220C4F82455C4F88C
:1020B0002055C4F83835317103217771C4F834558F
:1020C000C4F83055C4F8583531727772C4F8545595
:1020D000C4F85055C4F84835B071F771C4F8445588
:1020E000C4F84055C4F868350523B372514BF772F4
:1020F000C4F86455C4F86055C4F8F015C4F8F45534
:10210000C4F83026C4F82C364B4BC4F8F855C4F844
:1021100000251968E260D4F81021002AFBD00022C3
:10212000C4F81021D4F80024012AFBD01960434BD5
:10213000402283F807238022C3F880211A600223FB
:10214000C4F8043301232360364BD3F80021002A5E
:10215000FBD00022C3F8002103F050FE20B1384A22
:1021600040F2271103F04AFC364A92E8030002AB22
:1021700083E8030000221946334804F0C3FA20B173
:102180002F4A4FF4997103F039FC2F4C2368D3F890
:1021900010250021A020D2B220FA02F200912046A0
:1021A000012304F044FB204604F018FB2468274870
:1021B00004F5A07404F016F820B1214A4FF4A07180
:1021C00003F01CFC214B224A1878214604F036F813
:1021D00020B11B4A40F2451103F010FC1D4804F0E9
:1021E00001F820B1164A40F24B1103F007FC194DDB
:1021F0000C4A1949287804F021F80446287804F09C
:102200003DF82CB10E4A40F25111204603F0F6FB86
:10221000124B01221A7005B0F0BD00BF18910220C8
:1022200014990220007000401E9102200003170143
:1022300000071001149102204076004000E100E008
:1022400070030100680301001C0000201D910220A2
:10225000047000401C91022004710040169102207D
:1022600070B50F4B0F4D104E80220024C3F8802014
:102270002C802B88B3F5FA7F08D3094B80221A6093
:102280004FF4FA70B4FBF0F080B270BDFFF7FCFDC4
:10229000B6F900301C442B8801339BB22B80E8E751
:1022A00000E100E02A9102201491022010B5FFF70E
:1022B00099FE0120FFF7B0FEFFF77CFEFFF7D0FF8D
:1022C0000446FFF783FEFFF78DFE0020FFF7A4FE14
:1022D00020460DF079FA0022034B0DF0DFFA0DF0E5
:1022E000B5FD80B210BD00BF00C0923F38B5094CAB
:1022F00005460121204604F071F902230122064916
:10230000284604F015F995E8030084E8030000204E
:1023100038BD00BFC0920220D003010038B5094C7F
:1023200005460121204604F059F9022301220649FD
:10233000284604F0FDF895E8030084E80300002037
:1023400038BD00BFC0920220C003010070B505284F
:102350000FD8DFE800F003080F2036472948BDE812
:102360007040FFF7C3BF284C201DFFF7BFFF0123BC
:10237000237370BD244C0121201D04F02FF9237814
:10238000012B04D12148FFF7C9FF0023F0E7022BFE
:10239000FBD11F48F7E71C4E3446022504F8045BC6
:1023A0000121204604F01AF9337B0BB11848D6E717
:1023B0002846FFF7CBFF164B93E8030084E80300A1
:1023C000D7E7114D2C46012104F8041B204604F0E8
:1023D00005F92B7B0BB10D48C1E70220FFF7B6FFD3
:1023E0000A4BE9E70B4C0A4D0121204604F0F6F8B0
:1023F000094902230122284604F09AF895E80300CF
:10240000DCE700BF34000020BC9202202C0000203A
:102410003C000020C0920220B00301001FB540F232
:1024200007420023ADF808202549CDF80A3040F6D0
:10243000C412ADF80E30ADF80C2032339BB221F847
:10244000023BD01A9342A1F86200F6D11D4B322212
:10245000002123F8021B013A92B2A3F86210002A6D
:10246000F7D16FF0DA0301A91748019303F0A0FF39
:1024700018B1164AB02103F0C1FA6FF45943002293
:1024800001A91348019303F093FF18B10F4AB62135
:1024900003F0B4FA6FF45803002201A90D48019328
:1024A00003F086FF18B1094ABC2103F0A7FA0A4BD2
:1024B00001221A7000221A7305B05DF804FB00BFF8
:1024C000F49102202C9102203C0000209603010090
:1024D000340000202C000020BC92022010B505F032
:1024E000FBFF60B905F0C0FF044618B1054A0D2195
:1024F00003F084FA044B01221A70204610BD002418
:10250000F8E700BFE3030100CC92022008B50121E7
:10251000002006F067F80121084606F063F8012163
:102520001A2006F05FF801211B20BDE8084006F0E4
:1025300059B8000007B51D4B1B78A3B31C4B1A8874
:10254000ADF8042000229B788DF8063001A91046D2
:1025500005F0CCFF18B1174A1F2103F04FFA0022F3
:1025600001A9012005F0C2FF18B1124A212103F090
:1025700045FA002201A91A2005F0B8FF18B10D4A4A
:10258000232103F03BFA002201A91B2005F0AEFF36
:1025900018B1084A252103F031FAFFF7B7FF0020F0
:1025A00003B05DF804FB0820FAE700BFCC920220DC
:1025B000E0030100E3030100054B0022C3F8002102
:1025C000C3F80421C3F80821C3F80C21704700BFE9
:1025D000006000404FF0A043D3F810050B4B1840AB
:1025E00003280ED005D878B101280CBF01200720A0
:1025F0007047074A904206D098420CBF042007203B
:102600007047022070470320704700BF0300000C92
:102610000300000410B50FC8034C84E80F00034BFF
:1026200001221A7010BD00BF18990220CD9202201D
:102630001FB5114B1B78E3B1890001F00C0141EA91
:102640000011C2F30120014300238DF80C108DF816
:102650000D20009303AA02232C21084804F0D6FB86
:10266000044618B1064A662103F0C8F9E0B204B086
:1026700010BD0820FBE700BFCD9202201C9902206C
:10268000FD030100D1B94FF0A0430322C3F848274E
:102690004FF48022C3F80C254FF08043B122C3F8D9
:1026A0001C25BFF34F8F0649064BCA6802F4E0624F
:1026B0001343CB60BFF34F8F00BFFDE7704700BFF0
:1026C00000ED00E00400FA052DE9F047274D2A78D7
:1026D000002A48D126482749274B284E5A72091A02
:1026E00059609A72DA721A735A739A73DA73012103
:1026F0004FF080521860197211695961526920486F
:102700004A431A6106F01CFA4FF06108471C34185E
:102710004FF02D094FF0300A304606F011FA87428B
:1027200007D3184801F084FF08B901232B70BDE8D6
:10273000F087637823F02002413A192A0FD92B3B06
:10274000DBB20E2B05D847F6ED7222FA03F3DA0757
:1027500005D4B8F12D0F14BF4B465346637014F8DF
:10276000018F0137D8E70020E1E700BFCE920220B9
:1027700000100000080A0100E0920220440000203E
:1027800044040100200401001F2886BF00F01F0040
:10279000044B4FF0A04300F5E070002243F82020E6
:1027A000704700BF000300501F2886BF00F01F00C5
:1027B000044B4FF0A04300F5E070032243F82020C3
:1027C000704700BF000300501F2886BF00F01F00A5
:1027D000044A4FF0A042012303FA00F0C2F80805B2
:1027E000704700BF000300501F2886BF00F01F0085
:1027F000044A4FF0A042012303FA00F0C2F80C058E
:10280000704700BF0003005038B52420FFF7DCFFFD
:102810000620FFF7D9FF0720FFF7D6FF2420FFF798
:10282000C3FF0620FFF7C0FF0720FFF7BDFF2920E9
:10283000FFF7AAFF1420FFF7B7FF1520FFF7B4FF3B
:102840001620FFF7B1FF1720FFF7AEFF1420FFF7A8
:10285000CBFF1520FFF7C8FF1620FFF7C5FF172095
:10286000FFF7C2FF0020FFF78FFF0120FFF78CFF6B
:102870001A20FFF789FF1B20FFF786FF0920FFF7CB
:1028800093FF0920314DFFF79FFF0A2445F0010512
:102890004FF47A40A847013CFAD10920FFF7A4FF82
:1028A0000A20FFF781FF0B20FFF77EFF0C20FFF7C8
:1028B0007BFF0D20FFF778FF0E20FFF775FF0F203D
:1028C000FFF772FF1020FFF76FFF1120FFF76CFF7B
:1028D0000A20FFF789FF0B20FFF786FF0C20FFF788
:1028E00083FF0D20FFF780FF0E20FFF77DFF0F20F5
:1028F000FFF77AFF1020FFF777FF1120FFF774FF33
:102900000A20FFF761FF0B20FFF75EFF0C20FFF7A7
:102910005BFF0D20FFF758FF0E20FFF755FF0F203C
:10292000FFF752FF1020FFF74FFF1120FFF74CFF7A
:102930002D20FFF739FF0820FFF736FF2D20FFF786
:1029400043FF0820BDE83840FFF73EBF60040100A8
:102950001F2886BF00F01F00044A4FF0A042012349
:1029600003FA00F0C2F80805704700BF00030050EA
:102970001F2886BF00F01F00044A4FF0A042012329
:1029800003FA00F0C2F80C05704700BF00030050C6
:1029900010B540F68C24844238BF044641F27C5086
:1029A00084420D4A0D4B28BF04466243B2FBF3F24A
:1029B000C2F5BD52013240F6055302EB0222B2FBD2
:1029C000F3F2C2F580720021013292B20846FFF79D
:1029D0002FFE034B1C8010BDC81405001009050014
:1029E0007C000020B0F5C87F38B538BF4FF4C87000
:1029F00041F288339842114A28BF18464243104B8F
:102A0000B2FBF3F2C2F55962073240F6055302EB0E
:102A10000222B2FBF3F2C2F580720132044692B296
:102A200000210120FFF704FE054618B1054A772171
:102A300002F0E4FF044B1C80284638BD605B0300B5
:102A400010090500660401007E00002038B5054627
:102A5000FFF7C8FA04460520FFF7DEFAFFF700FC8F
:102A60004FF4E1635843401300EB80002880FFF7E8
:102A7000B9FA2046FFF7D0FA002038BD2DE9F0471B
:102A8000054600F5AF7080B2FFF782FF2846FFF7DA
:102A9000A9FFFFF7A7FA1F4E07460320FFF7BCFA6E
:102AA000FFF7DEFB96F90040041BA4B24FF4E16887
:102AB00008FB04F4641304EB8404A4B2AA464FF0A8
:102AC0006509281B05F0AEFE082817DD54451DD901
:102AD000AAF1020A1FFA8AFA5046FFF783FFFFF7AE
:102AE000BFFB96F90040041BA4B208FB04F4641376
:102AF00004EB8404B9F10109A4B2E2D1FFF772FA40
:102B00003846FFF789FA0020BDE8F087E4D20AF1E1
:102B1000020ADFE7F8920220012810B504460DD022
:102B2000062014B1022C13D010BDFFF711FF0720AF
:102B3000FFF70EFF0A4B00201C70F5E70720FFF798
:102B400007FF0620FFF714FF0420FFF7FFFBF1E764
:102B5000FFF7FEFE0720FFF70BFF0320F5E700BF9E
:102B6000F992022038B50D461446FFF753FD4FF495
:102B70007A60FFF70DFF18B1134AD82102F03EFF2B
:102B80002846FFF7C9FF18B10F4ADA2102F036FFD5
:102B900040F6B830FFF726FF18B10B4ADC2102F0EF
:102BA0002DFF1E2200210720FFF742FD18B1064A23
:102BB000DE2102F023FF962C88BFC4F19604034B5C
:102BC00064B21C7038BD00BF66040100F892022098
:102BD00008B5B8B1114B1B78022B0AD10620FFF7BC
:102BE000B7FE0720FFF7C4FE2420BDE80840FFF72A
:102BF000BFBE012BF8D10620FFF7BAFE0720FFF772
:102C0000A7FEF1E72420FFF7A3FE0620FFF7A0FEB2
:102C10000720BDE80840FFF79BBE00BFF9920220E5
:102C200018B1034B1860002070470720704700BFA1
:102C3000FC92022008B5024B1B689847002008BD93
:102C4000FC92022000F5E0704FF0A043002243F810
:102C50002020704708B5D8B10E4B18600A20FFF746
:102C6000F1FF0B20FFF7EEFF0C20FFF7EBFF0D202D
:102C7000FFF7E8FF0E20FFF7E5FF0F20FFF7E2FF69
:102C80001020FFF7DFFF1120FFF7DCFF002008BD59
:102C90000720FCE7289902204FF0A043034AD3F80D
:102CA00010351268C3F387231360704728990220F8
:102CB0007FB500238DF80D00022203A904A88DED35
:102CC000010A8DF80C3005F0E5FD04220DEB020140
:102CD0000DF1120005F0DEFD062204A9012000F02E
:102CE00073FB18B1034A1C2102F088FE07B05DF89F
:102CF00004FB00BF8504010030B585B014460023F5
:102D000005468DF801100222694601A88DF80030B1
:102D100005F0C0FD224629460DF1060005F0BAFD7A
:102D2000A21CD2B201A9012000F04EFB18B1034A47
:102D3000302102F063FE002005B030BD85040100A3
:102D400000F030BB08B500202DED048BF0EE609A4A
:102D5000B0EE419AF0EE618AB0EE428AFFF7A8FF2A
:102D6000B0EE690A0420FFF7A3FFB0EE490A08207D
:102D7000FFF79EFFB0EE680A0C20FFF799FF1020C6
:102D8000B0EE480AFFF794FFBDEC048B002008BDAD
:102D900084B008B50DF1080C8CE80F003C209DEDC7
:102DA000020AFFF785FF9DED030A4020FFF780FF31
:102DB0009DED040A4420FFF77BFF9DED050A4820A6
:102DC000FFF776FF9DED060A4C20FFF771FF9DEDA2
:102DD000070A5020FFF76CFF9DED080A5420FFF70B
:102DE00067FF9DED090A5820FFF762FF9DED0A0A73
:102DF0005C20FFF75DFF60209DED0B0AFFF758FF99
:102E0000BDE80840002004B0704784B008B50DF15B
:102E1000080C8CE80F0014209DED020AFFF748FF14
:102E20009DED030A1820FFF743FF9DED040A1C20C7
:102E3000FFF73EFF9DED050A2020FFF739FF9DEDCE
:102E4000060A2420FFF734FF9DED070A6420FFF7F0
:102E50002FFF9DED080A6820FFF72AFF9DED090A64
:102E60006C20FFF725FF9DED0A0A7020FFF720FF79
:102E700074209DED0B0AFFF71BFFBDE80840002002
:102E800004B0704708B528202DED048BF0EE609A51
:102E9000B0EE419AF0EE618AB0EE428AFFF708FF89
:102EA000B0EE690A2C20FFF703FFB0EE490A30208C
:102EB000FFF7FEFEB0EE680A3420FFF7F9FE382077
:102EC000B0EE480AFFF7F4FEBDEC048B002008BD0D
:102ED00007B501228DF80700FC210DF10700FFF76F
:102EE0000BFF002003B05DF804FB07B501228DF84D
:102EF00007007C210DF10700FFF7FEFE002003B064
:102F00005DF804FB07B501228DF80700FE210DF1E5
:102F10000700FFF7F1FE002003B05DF804FB07B5E2
:102F200002228DF80700FB210DF10700FFF7E4FEF8
:102F3000002003B05DF804FB07B50222ADF80600DF
:102F400078210DF10600FFF7D7FE002003B05DF8F1
:102F500004FB08B52030800000F0FC00FFF7A8FE5D
:102F6000002008BD10B5022304228021044600F091
:102F700063FA18B11A4AA72102F040FD0422022385
:102F80008421A01800F058FA18B1154AA92102F0BE
:102F900035FD02230422882104F1080000F04CFAD8
:102FA00018B10F4AAB2102F029FD022304228C2123
:102FB00004F10C0000F040FA18B1094AAD2102F00A
:102FC0001DFD02230422902104F1100000F034FAC8
:102FD00018B1034AAF2102F011FD002010BD00BF5F
:102FE0008504010008B502231A46782100F024FA6E
:102FF00018B1034AB62102F001FD002008BD00BF50
:103000008504010008B502231A46FB2100F014FADA
:1030100018B1034ABC2102F0F1FC002008BD00BF3A
:103020008504010008B501220223FC2100F004FA06
:1030300018B1034AC22102F0E1FC002008BD00BF24
:103040008504010008B5012202237C2100F0F4F977
:1030500018B1034AC82102F0D1FC002008BD00BF0E
:103060008504010007B500238DF8073001220223F3
:10307000FE210DF1070000F0DFF918B1054ACF215C
:1030800002F0BCFC9DF80700431E5842584103B0B3
:103090005DF804FB8504010010B502230422002121
:1030A000044600F0C9F918B1194ADC2102F0A6FC67
:1030B000042202231146A01800F0BEF918B1144AE8
:1030C000DE2102F09BFC082102230422601800F09C
:1030D000B3F918B10E4AE02102F090FC0C21022352
:1030E0000422601800F0A8F918B1094AE22102F0A0
:1030F00085FC102102230422601800F09DF928B1FC
:10310000034AE421BDE8104002F078BC10BD00BFC6
:103110008504010010B5022304221421044600F0A6
:103120008BF918B1384AEB2102F068FC0422022323
:103130001821A01800F080F918B1334AED2102F0EF
:103140005DFC022304221C2104F1080000F074F944
:1031500018B12D4AEF2102F051FC02230422202154
:1031600004F10C0000F068F918B1274AF12102F0CF
:1031700045FC02230422242104F1100000F05CF934
:1031800018B1214AF32102F039FC02230422642100
:1031900004F1140000F050F918B11B4AF52102F0B7
:1031A0002DFC02230422682104F1180000F044F9E8
:1031B00018B1154AF72102F021FC022304226C21E8
:1031C00004F11C0000F038F918B10F4AF92102F09F
:1031D00015FC02230422702104F1200000F02CF9D8
:1031E00018B1094AFB2102F009FC022304227421D0
:1031F00004F1240000F020F928B1034AFD21BDE8C4
:10320000104002F0FBBB10BD8504010010B5022385
:1032100004222821044600F00FF920B11D4A4FF482
:10322000827102F0EBFB042202232C21A01800F093
:1032300003F920B1174A4FF4837102F0DFFB022338
:103240000422302104F1080000F0F6F820B1114A00
:103250004FF4847102F0D2FB02230422342104F1E2
:103260000C0000F0E9F820B10A4A4FF4857102F031
:10327000C5FB02230422382104F1100000F0DCF821
:1032800030B1044A4FF48671BDE8104002F0B6BB7D
:1032900010BD00BF8504010010B5022304223C21AB
:1032A000044600F0C9F820B13D4A4FF48A7102F09B
:1032B000A5FB042202234021A01800F0BDF820B194
:1032C000374A4FF48B7102F099FB02230422442108
:1032D00004F1080000F0B0F820B1314A4FF48C71CD
:1032E00002F08CFB02230422482104F10C0000F0C0
:1032F000A3F820B12A4A4FF48D7102F07FFB02231C
:1033000004224C2104F1100000F096F820B1244A68
:103310004FF48E7102F072FB02230422502104F15B
:10332000140000F089F820B11D4A4FF48F7102F0AB
:1033300065FB02230422542104F1180000F07CF8FC
:1033400020B1174A4FF4907102F058FB0223042277
:10335000582104F11C0000F06FF820B1104A4FF41E
:10336000917102F04BFB022304225C2104F1200046
:1033700000F062F820B10A4A4FF4927102F03EFB6D
:1033800002230422602104F1240000F055F830B13A
:10339000034A4FF49371BDE8104002F02FBB10BDFB
:1033A0008504010010B540B10FC8054C84E80F003A
:1033B000044B01221A70002010BD1020FCE700BF52
:1033C0001899022000930220F7B5174B1B780F467F
:1033D000154623B329B38318B3F5807F21DC02B3EC
:1033E00000F00F00104410281BDC104E0A2446F099
:1033F00001064FF47A40B047013CFAD12B460094C5
:103400003A4650210A4803F001FD034620B1094A1B
:103410004F2102F0F3FA2346184603B0F0BD08230B
:10342000FAE70723F8E700BF00930220A004010099
:103430001C990220A6040100F0B514461E4A127819
:1034400087B00746A2B3A8B30A19B2F5807F31DC72
:1034500084B301F00F00204410282BDC00228DF8EB
:10346000082006AA8DF80910D11A0E391A4603A8A9
:10347000124E05F00FFA0A2546F001064FF47A4085
:10348000B047013DFAD10123009303AA0223502142
:103490000B4803F0BBFC18B10A4A672102F0AEFAF0
:1034A00023463A465021064803F0C6FC07B0F0BD5B
:1034B0000820FBE70720F9E700930220A0040100A1
:1034C0001C990220A6040100083810B506281DD852
:1034D000DFE800F0080F131C1C1C0400BDE81040BE
:1034E00001F082B804F084F980B9BDE8104001F021
:1034F00079B8BDE8104001F091B801F077F8044BBD
:1035000000211B680220BDE81040184710BD00BF15
:103510009093022070B50C4690B0032928D8DFE8BC
:1035200001F0023317291F4E1F4D32781D4910AB91
:103530002344284603F8402C01340122E4B202F06F
:103540006BF80028F1D021466846FFF773FB0FE0C7
:10355000164B174801241C7000F0E9F81149124875
:10356000224602F059F8134B1B6800210846984781
:1035700010B070BD0D4B0E4800221A7000F0D7F845
:103580000C4B01211B68F1E70A4B00211B6804204A
:103590009847094B06484022C3F80C2500F0C7F8AD
:1035A000E6E700BF8D930220C40401008C93022043
:1035B00084000020909302200003005038B50C4690
:1035C000054658B351B3164800F0B1F8154B2046E4
:1035D0001D60FFF725FB00F01DFE134800F06EFF95
:1035E00018B1124AA42102F009FAFFF76DF818B1D8
:1035F0000E4AA72102F002FA0D4801F019F818B19D
:103600000A4AAC2102F0FAF900F0CEFF044618B1E4
:10361000064AB12102F0F2F9204638BD0724FBE743
:10362000840000209093022010050100E8040100AE
:10363000C4040100F8B51E4D2B7806460F4603F072
:10364000FF0493B92046F8BD013B116889B9002BEE
:10365000FAD1012317482B7000F069F8164B0221AC
:103660001B68052098470D24ECE74FF0FF33114A03
:10367000EBE7002BEDD00F4800F05FF83A463146FB
:103680000E4801F0ABFF082804460AD1002409487F
:103690002C7000F04CF8084B1B6803210120984760
:1036A000D0E70028CED0044B04211B680520F6E7A4
:1036B0008C9302208400002090930220C404010017
:1036C00038B508480D46144600F037F8224629461A
:1036D000054801F083FF034A1368002BFCD0204605
:1036E00038BD00BF84000020C404010050E8003F42
:1036F00043EA010240E8002C9CF0000FF6D110468E
:10370000704750E8002F02EA010340E8003C9CF0BB
:10371000000FF6D11046704750E8003F03EA01025F
:1037200040E8002C9CF0000FF6D1104670470121B4
:10373000FFF7DCBF0021FFF7E4BF0021FFF7ECBF7C
:1037400010B590B1D0E9012301689B1ADBB20A6081
:10375000013BDBB2FF2B026802D10020107110BDCB
:1037600011684C1C14600B70F2E70E20F7E738B5B7
:103770000446002002F08EF92268616813688B42CB
:1037800015D9591E116013F8015C228AE36802FB07
:1037900005352268A36811685B1A1179DBB299427A
:1037A00000D21371002002F077F9284638BD0025B9
:1037B000F8E738B5054600200C4602F06BF92A6898
:1037C0001368591C1160E968641A298AB4FBF1F482
:1037D0001C700020BDE8384002F05EB9024B4FF487
:1037E0003C6043F0010318472005010038B50C4B3D
:1037F0000C4C4FF40032C3F8802001254FF4803385
:10380000C4F84833C4F808336560FFF7E7FF064B98
:10381000A56000241C60FFF7E1FF044B1C7038BD5D
:1038200000E100E000100140B0940220A1940220C9
:10383000F8B51F491F4B0025C1F84051C1F844514C
:10384000C1F84851C1F84C51C1F80051C1F80451B8
:103850001B684BB3D1F8044517490968641A24F072
:103860007F442F461A68A24209D8A41A15441A7C2C
:10387000DE691AB11F74D3E905209047AEB90F4A2B
:103880000F4B11781B788B4205D10133DBB2022B31
:1038900008BF0023137012780A4B43F822500A4BDA
:1038A0004FF48012C3F80021F8BD3346DAE700BFB9
:1038B00000100140B4940220B0940220AD94022084
:1038C000AC940220A494022000E100E02DE9F04F26
:1038D000A14AA24913780978A14D994285B03CD0FC
:1038E0000133DBB2022B08BF002313709D4912780D
:1038F0009D4B0F6853F822003B1823F07F430022B2
:103900000B602B6816461446944613B942B12B60DF
:1039100006E0196881420ED902B12B60091A1960BC
:1039200001272B68DFF848A201934FF00008BEB9C9
:10393000DFF844B266E0401A0C44D968C3F800C00E
:10394000D3F81CE031B13A1922F07F42C3E90121DA
:10395000DE611E4601227346D7E700263746E0E7C0
:103960003446F6697F4A63681268DFF810C2A068BF
:10397000991A21F07F41614500F2A680014421603F
:10398000012222742A680023C4E90133E361002A7A
:1039900040F0A3802C60CAE75A1C9BF80210D2B2F8
:1039A00091428BF8002004BF00228BF800201822DF
:1039B00002FB03B31A799C68022A1CD0032A12D096
:1039C000012A1FD1207CE8B9D96861601A69A26018
:1039D0005A69E2609B69A361644B1B78002B18BF96
:1039E00001466160BEE700222B681146002B67D1BB
:1039F00042B12B6006E029680A468946002A5AD15E
:103A0000002323749BF800309BF801209A42C3D115
:103A10002B68B8F1000F04D1019A9A4201D1002F0E
:103A200043D0002B73D0D3F800A0514D4D4BD5F8A7
:103A300004751C68DFF848813E1B98F8003026F0BA
:103A40007F4603369BB94FF48033C5F84433C5F83D
:103A50000433484B4FF400324FF00109C3F8802182
:103A60001A60C5F80090FFF7B9FE88F80090B245DB
:103A70002CBF5444A41924F07F44C5F84045D5F820
:103A80000435DB1B23F07F43E41B033324F07F4426
:103A9000A3420AD9D5F80435C5F84035FFF79EFE94
:103AA000344B4FF40032C3F80021304B00221A701F
:103AB00005B0BDE8F08F94422CD09146D2699DE7C5
:103AC00019740122DB6991E7D31A23F07F43834203
:103AD00034BFC31A0023236052E721681368994258
:103AE00013D8591A1160E26154E7091AD8691A46C5
:103AF00038B1034618688842F7D3401A1860184650
:103B000013462160E061DC6111E71346F2E7FFF73D
:103B10006DFECAE74C4511D1CB692B6073B9DFF854
:103B200044E00120CDE90212CAF80800CEF80030C6
:103B30000E4B1870FFF752FEDDE902121368D269CE
:103B4000C9F81C2012B11068034413602B68994215
:103B500018BF4FF0010853E7AC940220AD94022047
:103B6000B4940220B0940220A4940220A0940220D5
:103B70000010014000E100E094930220FEFF7F006E
:103B8000A194022008B5FFF731FE104B00200B2254
:103B900018809A700E4B18600E4B18700E4B1870F0
:103BA0000E4B4FF48012C021C3F8802183F8141308
:103BB0001A6002F18042A2F56F22C2F8080583F86C
:103BC0001113074BD2F804251A6008BD9493022004
:103BD000B4940220AC940220AD94022000E100E0F5
:103BE000B0940220002070472DE9F04F85B04B685B
:103BF000009282460C465BB90B681B681B683BB998
:103C00008D682DB9C0E90055284605B0BDE8F08F94
:103C100003F040FF009BE7689F4228BF1F464FF01C
:103C2000000904F1100383464E46012501934FB36A
:103C3000A3686168BB42984628BFB84629B342468C
:103C40000BEB060004F026FE00236360A268E36825
:103C5000A2EB0802A3EB0803A260E360A7EB08074E
:103C6000464402BBB9F1000F03D022681268126803
:103C70002260D3B12368D3B963601EB1009BB34205
:103C800088BF0025CAE900B6BEE7002BDED0216858
:103C900001984B680BEB0602D3F804904346C847E3
:103CA0004FF00109D2E7002BC1D10025BFE7002367
:103CB000029321684B680022D3F8048002A80123F4
:103CC000C04708B92061B2E7A3680133A360F0E7F9
:103CD000084B1A7882420CD0052818BF064A187083
:103CE00018BF137805481CBF23F00203137000F0BF
:103CF000FFBD7047C4940220E09402203805010003
:103D000008B5002000F0F0FC8020BDE8084000F07D
:103D1000EBBC08B5002000F0F5FC8020BDE80840B1
:103D200000F0F0BC38B505460C4603F057FFA8423A
:103D300003BFD4E90001034BC3E90001102008BF11
:103D4000002038BDE49402207FB5C38893421D460D
:103D500028BF154693420E46144620D9802003F012
:103D6000E1FDB4FBF0F303FB1040B0FA80F0400932
:103D700003900020CDE9016501F08CFE01A98020AF
:103D800000F012FD044620B906498020FFF7CAFF63
:103D90000446002001F080FE204604B070BD0020E3
:103DA000E6E700BF6C0501002DE9F04F0C78062C0A
:103DB00087B00E4600F0F88120D8022C3DD003D801
:103DC000012C32D00624E9E1032C32D0052CF9D1A4
:103DD0000DF10D00B04D8DF80C4003F095FE002361
:103DE0002B609DF80D3003F01F07032F00F2848134
:103DF000DFE817F02D001D01790165000D2C00F0A2
:103E0000C18107D80B2C18D00C2CDBD10020FFF778
:103E10005FFF12E00E2C00F0C581852CD2D19F4BA4
:103E20001B78032BCED1042000E00320FFF750FFC6
:103E3000C8E79B48FFF77EFC08B90024AEE1994B28
:103E400001221A60BFF36F8FBFF34F8FF5E7C3F303
:103E50004116A6BBDB099DF80E1000F0A2800629D2
:103E600016D0082900F0908049BB8F4C02222046D2
:103E700004F0AAFD237843F0010222708B4A1278E5
:103E8000920744BF43F003032370022286490EE0E9
:103E90009DF81030022B16D0032B65D0012B0ED1CC
:103EA000BDF81330002B00F06A81814912220DF118
:103EB0000D00FFF749FF0446062C40F0258103A8BA
:103EC00000F060FC0DE1BDF81330002B00F05781CD
:103ED000092B28BF0923984600F016FC4FF009096A
:103EE00004465CBB704C73494246204604F0D2FC49
:103EF0002771A4F8029000F0EFFB18B1E37943F0CA
:103F00002003E37100F000FC6B4BC3E90004C3F82D
:103F10000880BDF81320DA60002001F0BBFD67497E
:103F2000802000F055FC044620B965498020FFF749
:103F3000F9FE0446002001F0AFFDBDE701964FF009
:103F4000000A63680022D3F804B02146012301A8C7
:103F5000D84730B9237A1F442368D144FFB21C6884
:103F6000BFE70AF1010AECE7BDF81330002B00F0BF
:103F70000681BDF811109DF80F0000F093F901467D
:103F800000289CD0027892E7444A1278052A03D18F
:103F9000454A1370012279E7042A90D1424B1E70E2
:103FA000F8E703290FD009292BD0012987D1BDF8C3
:103FB0000F30012B83D100F08FFB60B13B4A1378A7
:103FC00023F002030FE0BDF80F30012B7FF477AF31
:103FD00000F082FB18B90F2403F0FDFDDEE0334A48
:103FE000137843F0020313702B68002B00F0C78096
:103FF00003F0F4FD044600287FF41FAF03F0AAFD90
:10400000CCE0264B1B78043B012B01D90824E3E7C5
:104010009DF80F302BB900F057FC0420FFF758FE35
:10402000E2E7012B56D100F03BFC0520F6E701A9A1
:104030009DF8110000F06EFB074608B91024CBE78D
:1040400003AA9DF8041000F07DFB062804465BD10E
:104050009DF80D2012F0600FBED1104B9DF804109A
:1040600018789DF80E30D6092CD073B10A2BB3D135
:104070000528CBD1384600F00DFC0B4932460870BC
:104080000DF10D00FFF760FE2BE00528BED10649BB
:104090000B800222F4E700BFE4940220C4940220C3
:1040A000EC9402205C700240F0940220E094022024
:1040B0005805010039050100C8940220740501006B
:1040C0006C0501000B2B87D105289FD1BDF80F305F
:1040D000FF2B01D907247FE79DF80F20384600F019
:1040E0008BFB044610E09DF81100070706D19DF8F0
:1040F0000D3013F0600F0BD006246DE703A900F01C
:1041000024FB06280446F2D0002C3FF46DAF63E791
:104110009DF80E20364B9DF811401B78012A1CD0CB
:1041200082B1032AE8D12007E6D4BDF80F20002A87
:10413000E2D1052B02D021077FF468AF204603F0BF
:10414000ADFC51E7052B02D026077FF45FAF204678
:1041500003F0B0FC274908809BE72207CCD4BDF8C8
:104160000F20002AC8D1052B02D023077FF44EAFC1
:10417000204603F0B9FC204603F0DEFF34E703F0ED
:1041800027FD5AE64FF08043D3F8384414F0010479
:1041900001D002203BE60120FFF79AFD204607B040
:1041A000BDE8F08F012032E6C8780328F6D0124D22
:1041B0002B68D3B100222A6069689847044600281A
:1041C0007FF40AAF2B6823B1B378002B7FF435AEB0
:1041D00014E70A4B1B68082B04D1094B1B68002B02
:1041E0003FF42BAE03F0F4FCD8E70E24F4E600BF56
:1041F000C4940220F0940220E494022030010010C4
:104200003401001008B1402303600148704700BF2B
:10421000F094022070B54FF0805286B0D2F8A830EA
:10422000D2F8A42000926FEA83436FEA93439BB2D3
:104230000A4A0B4E0D2102A804F02AFC02AD00240C
:1042400002A804F07DFC844201D306B070BD15F8CD
:10425000013B06F8013B0134F2E700BF7C05010099
:104260002C99022010B50E4B53F8204023780BB93F
:10427000A01C10BD0020FFF7C5FF013C00235A1C05
:10428000A15C39B9DBB201335B00DBB243F44073AC
:104290000380EEE7D3B220F813101346EFE700BF18
:1042A000C805010008B9FFF7DDBF052807D8054A92
:1042B000105C20B1044B53F82030002BF3D10020C8
:1042C000704700BFE0050100C805010043681B6896
:1042D00018470000024B5B6803B11847704700BFE6
:1042E00030950220020600F00F034CBF024803483D
:1042F000DB001844704700BF3C95022084950220E3
:1043000008B5FFF7EFFF016009B14B68196841601C
:1043100008BD0000024B01465A681868104700BFEC
:10432000849502200378052B0CD1084AD2F88434F6
:10433000D2F8802412F0FF0F04D1054ADBB2052B1E
:1043400008BF1046034B1B68184700BF00700240AF
:104350003C06010030950220012806D010B1022849
:1043600005D070470348FFF7DDBF0348FBE703486C
:10437000F9E700BF300601003406010038060100ED
:10438000FFF7D0BF0148FFF7CDBF00BF40060100D7
:1043900038B5831EDBB2062B98BF1A4A1A4C98BF59
:1043A000D25C2378A3F10203DBB288BF0022062B84
:1043B0009ABF1449CB5C00239342054603D0B2B1A7
:1043C000124801F087FC022D14D0A5F108004242EA
:1043D00042412378022B0FD0A3F108014B424B41FD
:1043E000934202D052B103F049FA257038BD01F072
:1043F0009BFCE8E70122ECE70123F1E703F034FA44
:10440000F3E700BFE6050100D595022088000020F3
:104410002DE9F04F87B0002605468946924698461A
:1044200002966B6800225C682946012302A8A04717
:1044300040B98DF80600049004460746BE4203D8F2
:1044400005202AE00136ECE76B680DF10602D3F88F
:1044500004B02946012304A8D8476B680DF1070270
:10446000D3F804B02946012304A8D8479DF80730A3
:104470004B459DF8063015D1544511D1109A136063
:1044800088F8003088F801906A68023B5468294631
:1044900008F1020204A8A047002007B0BDE8F08F91
:1044A0000134E4B26A68023BD2F804B02946002223
:1044B00004A8D8479DF806301F44BFE72DE9F7430D
:1044C00005462F4803F0F0F90446002839D12D4B5A
:1044D00018702D4B18602D4B0146186048222C484F
:1044E00004F072FA482221462A4804F06DFA2A4B59
:1044F0005DBB2A4A1D72C3E90025002001F058FC6B
:1045000030B1852804D0264A40F2393101F076FADC
:10451000244E96F80890002506F10908ECB2A14552
:1045200004D904EB440414EB080427D10B2301A99C
:104530001C488DF80430FFF7C9FE044608B103F0AB
:104540006BF8204603B0BDE8F08395E8070083E8E8
:1045500007000028D1D1114A1A60CEE73146E05C4D
:10456000FFF7CEFE6378FAB2934205D9A3781344DD
:10457000DC4207F10107F1D10135CFE70027F1E770
:1045800081430000D5950220CC950220D0950220D1
:104590003C9502208495022030950220F1480000CD
:1045A000ED0501002805010010B503F019F910B957
:1045B0000823184610BD03F01BF904460028F7D164
:1045C000064801F010FC03460028F2D0044A4FF4DC
:1045D000677101F013FA2346EBE700BF2C060100D8
:1045E000ED05010003F022B803F0E6BC094B1B689F
:1045F00043B94FF08043D3F83824920704D50648D6
:10460000FFF790BE1B68F2E7D3F83824D107F2D445
:10461000704700BFCC9502204106010007B58223F8
:1046200001A88DF80430FFF77DFE03B05DF804FBB0
:104630002DE9F74300F1090490F80890064600259B
:104640002746EBB24B4532D224B394F801800021C7
:1046500006E0E05CFFF746FE03680131002B37D12E
:10466000CBB2984503D9A3780B44DC42F1D1013594
:104670000334E6E73146E85CFFF742FE6B785FFA09
:1046800088F2934205D9AB781344DD4208F1010862
:10469000F0D10134337AE5B2AB4203D905EB4505DD
:1046A0007D1901D10B4B05E04FF00008E6E700242F
:1046B000F0E713681A68002AFBD11E6001A90B23DA
:1046C00030468DF80430FFF701FE03B0BDE8F083FB
:1046D0001120FAE7CC950220024B1878003018BF61
:1046E00001207047D4950220030710B5044604D476
:1046F00003F0FAF9204603F01FFD2046BDE8104004
:1047000003F0CCBC03F098BC014B1868704700BFA5
:10471000CC950220F0B50A4B1B687BB11D7A0022B4
:104720009E1DD4B2A54201D81B68F5E7013202EB09
:104730004207F75D8742F4D101B10C701846F0BD15
:10474000CC9502201146FFF7C1BD08B500F00F035C
:10475000082B07D8FFF7C6FD006818B1BDE8084070
:10476000FFF7B4BD102008BD38B5054B05461C68E1
:1047700004B938BD29462046FFF7A8FD2368F6E7AF
:10478000CC95022038B5074B05461C680CB90620AD
:1047900038BD29462046FFF799FD0628F8D1236841
:1047A000F3E700BFCC95022038B504460D4603F070
:1047B000BEF848B1054B1B78022B05D1294620468F
:1047C000BDE8384003F0B6B8082038BDD5950220C2
:1047D00038B504460D4603F0AAF848B1054B1B78DE
:1047E000022B05D129462046BDE8384003F016B912
:1047F000082038BDD5950220F8B543689B6805466A
:104800000C46164613B92EB1072002E09847062839
:10481000F9D0F8BD2B7AA34213D9093504EB44042F
:104820002C446778F3B29F4201D80020F1E7627808
:104830009A4208D9A219A378D05CFFF755FF013638
:10484000F0E77378FFDE00231B78FBE770B5436861
:10485000DB6805460C4603B198472B7AA34213D96F
:10486000093504EB44042C4400256678EBB29E42E3
:1048700000D870BD62789A4209D96219A378D05CD9
:1048800003F0DAFB0135F1E700235B78FFDE00235C
:104890001B78FBE743681B6903B11847184670474C
:1048A00070B5084B1C6804B970BD267A0025E9B2C2
:1048B0008E4201D82368F5E700222046FFF79CFFCF
:1048C0000135F4E7CC95022070B5084B1C6804B99B
:1048D00070BD267A0025E9B28E4201D82368F5E73B
:1048E0002046FFF7B3FF0135F5E700BFCC95022066
:1048F00038B50478092C054620D023D8032C00F0C5
:10490000BC8012D8012C00F0A68040F28D800320DC
:10491000FFF73EFD0220FFF7DDFC2846FFF724FFEE
:104920002846BDE83840FFF7F5BC052CF8D0C0F0AC
:10493000B380062C00F0BF80082C13D12046FFF76F
:10494000C9FC95E0812C0ED005D80F2CF6D0802C18
:1049500044D00A2CF1E7832C4CD021D3842C53D0A3
:10496000852CDDD038BD5E48FFF7D4FC5C48FFF7EE
:10497000FBFE0D20FFF7AEFCFFF7A6FFFFF7C9F91E
:10498000584B1B6853B9584B187A00F0010002F0DD
:10499000FDFE0120BDE83840FFF7FABC0120F4E736
:1049A000FFF792FF03F0EAFA0020FFF7F1FC4F480F
:1049B000FFF7DAFE4D48FFF7ADFC0E20FFF78AFC4B
:1049C0004B4B1B78023BDBB2062BCBD8494AD35C5E
:1049D000002BC7D0BDE8384001F0A6B9444B1B7886
:1049E000062B05D0072B01D0052BBBD10220D1E728
:1049F0000820CFE73E4B1B78032BB3D103F0F6FA28
:104A00000028AFD00420C5E7394B1B78032B05D114
:104A100003F0ECFA10B10420FFF7BAFC02F0F2FE4A
:104A200000289FD00620B5E7314B1B78032B01D01F
:104A3000082B02D13048FFF75BFF0020FFF74AFC4C
:104A4000284B1C68002C8DD020462946FFF73EFCE1
:104A500023685C68F6E7FFF737FFFFF751F902209C
:104A6000FFF796FC2046FFF735FC2846FFF752FC7F
:104A70002846BDE83840FFF777BE1D4B1B78082B52
:104A800006D10220FFF784FC02F002FF0320EAE7D0
:104A90000520FFF77DFCF9E70320FFF71BFC174813
:104AA000FFF738FC1548FFF75FFE114B1B78062B0C
:104AB0009CD107206EE78078FFF714FC29464368F5
:104AC0000068984700283FF44DAFA87802073FF4EC
:104AD00049AF03073FF546AFBDE8384002F0DEBFFF
:104AE00042060100D09502203095022043060100C5
:104AF000D5950220E60501004406010045060100A7
:104B0000C36903B118477047036800221A845A62C8
:104B1000DA62C3E91E22C3E9202203F134025A6794
:104B200070470000F0B5BE4D0C7A2C70046840F25E
:104B30001E36B44200F0CD8200F2DD80B4F5407F35
:104B400000F0428270D8B4F53C7F00F0008226D895
:104B500040F2ED26B44200F0DF810AD8002C00F0CC
:104B6000C981B4F53B7F00F0CD8100230360184676
:104B7000C7E140F2EE26B44200F0DC8140F2EF26BD
:104B8000B442F2D100240AB1067916550134022646
:104B90009C420671C0F0DC814FF43C73AFE140F2FF
:104BA000F326B44200F0EC81B4F53D7F15D240F21B
:104BB000F126B44200F0D78140F2F226B442D4D1BB
:104BC00000240AB106791655013400269C4206716C
:104BD000C0F0D78140F2F32391E140F2FA26B442CB
:104BE00000F0E58140F2FB26B442BED100240AB1B8
:104BF000067916558B4E0F7A3678DFF82CC2B742FD
:104C000004F1010440F2558301F1090706EB460661
:104C100007EB060E9C42BE5DCCF800E00671C0F0CA
:104C2000D4814FF440736AE140F20D36B44200F093
:104C30000A8239D840F20636B44200F0E0811DD82D
:104C400040F20136B44200F0CB8140F20236B44269
:104C50008BD100240AB106791655734E0F7D366844
:104C60003678B74204F1010440F0E28102269C420A
:104C70000671C0F0C58140F2063340E140F20736CC
:104C8000B44200F0C881B4F5427F7FF46EAF0024D7
:104C90000AB10679165501340026A342067100F2C6
:104CA000EC8140F216332AE140F21636B44200F0AD
:104CB000E38108D840F20E36B44200F0D08140F2D1
:104CC0000F36B442E1E7B4F5477F00F0EA8100F225
:104CD000F48140F21B36B4427FF447AF00240AB19E
:104CE00006791655013424269C420671C0F0DA81FB
:104CF0004FF4477303E1B4F54C7F00F054826BD856
:104D000040F22636B44200F01C8232D840F22336FC
:104D1000B44200F0FD81B4F5497F16D240F21F364F
:104D2000B44200F0E28140F22236B4427FF41DAF7B
:104D300000240AB106791655013424269C420671D6
:104D4000C0F0E78140F22333D9E000F0ED8140F27A
:104D50002536B4427FF409AF00240AB1067916550E
:104D600001348E7D06719C42C0F0EC8140F2263306
:104D7000C5E040F22B36B44200F0FC81B4F54B7F25
:104D800016D240F22936B44200F0E78140F22A36CA
:104D9000B4427FF4EAAE00240AB106791655013414
:104DA00002269C420671C0F0E68140F22B33A6E059
:104DB00000F0EC8140F22F36B4427FF4D6AE0024EE
:104DC0000AB106791655013424269C420671C0F0BA
:104DD000EB814FF44C7392E0B4F5537F00F02882DE
:104DE00048D840F23336B44200F0F681B4F54D7F36
:104DF0001CD240F23136B44200F0E18140F232364A
:104E0000B4427FF4B2AE00240AB1067916550134DB
:104E10008E7D06719C42C0F0E08140F233336EE03B
:104E2000D8950220D7950220DC95022040F2473623
:104E3000B44200F0F081B4F5527F7FF496AE0024C6
:104E40000AB106791655AF4EAF4F36683F7896F8DF
:104E500001C0BC4504F1010440F2308296F802C062
:104E60003E449C4216F80C600671C0F0E2814FF49B
:104E7000537344E040F25D36B44200F0F98115D836
:104E800040F25136B44204D040F25636B4427FF478
:104E90006CAE00240AB10679165501344026A342AF
:104EA000067100F2E68140F25D3328E040F263369D
:104EB000B44200F0F481B4F55A7F00F0F08140F282
:104EC0005E36B4427FF451AE00240AB1067916551D
:104ED0008C4E0F7D36683678B74204F1010440F0FD
:104EE000D4810E6A9C4236780671C0F0D98140F2B6
:104EF000633304E00824047123B94FF43B73036067
:104F00000120F0BD0AB1047914700B24012B047147
:104F10000ED840F2ED23F2E700240AB106791655C7
:104F200001340E7D06719C4205D340F2EE23E6E784
:104F30000124F2E700240AB106791655013402264D
:104F40009C420671FFF41FAE40F2EF23D7E7002426
:104F50000AB106791655013402269C42067103D324
:104F600040F2F123CBE700240AB10679165501344B
:104F70004E7E06719C42FFF424AE40F2F223BEE75F
:104F800000240AB106791655604E002701343770A7
:104F90005E4E37782E78B74202D340F27333AEE7D5
:104FA0000926A342067103D840F2FA23A7E700249A
:104FB0000AB106791655013404269C420671FFF4A5
:104FC00016AE40F2FB239AE700240AB10679165583
:104FD000013400269C42067103D340F201338EE770
:104FE00000240AB106791655464E366801347678A3
:104FF00006719C42FFF42EAE40F202337FE700249C
:105000000AB106791655013402269C42067103D373
:1050100040F2073373E700240AB1067916550134CC
:105020004E7E06719C42FFF433AE4FF4427366E746
:105030008F7DB7427FF430AE0A269C42067103D3BF
:1050400040F20D335BE700240AB1067916550134AE
:1050500000269C42067103D340F20E334FE7002432
:105060000AB106791655013400269C420671FFF4F8
:105070000FAE40F20F3342E700240AB1067916550D
:10508000204E0F7D36683678B74204F1010440F0B7
:10509000A88005269C420671FFF421AE40F21B3326
:1050A0002DE700240AB106791655013400269C42EA
:1050B000067103D340F21D3321E700240AB10679BB
:1050C0001655013410269C42067103D340F21E335C
:1050D00015E700240AB106791655013401269C42D1
:1050E000067103D340F21F3309E700240AB10679A1
:1050F0001655013405269C420671FFF41AAE40F2A3
:105100002233FCE6DC950220D9950220D7950220B7
:1051100000240AB106791655013401269C42067115
:1051200003D34FF44973EAE600240AB10679165511
:10513000013403269C420671FFF40FAE40F2253382
:10514000DDE600240AB106791655013404269C4296
:10515000067103D340F22933D1E600240AB106795F
:105160001655013424269C420671FFF415AE40F218
:105170002A33C4E600240AB1067916550134022602
:105180009C42067103D34FF44B73B8E600240AB176
:1051900006791655013405269C420671FFF410AEBF
:1051A00040F22F33ABE600240AB1067916550134DC
:1051B00006269C42067103D340F231339FE6002459
:1051C0000AB10679165501340E7D06719C42FFF432
:1051D0001BAE40F2323392E600240AB1067916552E
:1051E0000134374E36687778364E3770364E0027A2
:1051F0003770354E3778334E3678B74204D3334F55
:105200003E7801363E70C3E60726A342067103D8F6
:1052100040F2473373E600240AB10679165501348B
:1052200005269C420671FFF40BAE4FF4527366E6FE
:1052300000240AB106791655214E0F7D366836785E
:10524000B74204F1010407D103269C420671FFF422
:1052500021AE40F2513352E68F7DB7427FF41EAE4D
:1052600002269C420671FFF415AE40F2563346E624
:1052700000240AB106791655013400269C420671B5
:10528000FFF423AE40F25E3339E68F7DB7420BD197
:1052900000269C42067103D34FF45A732FE6002474
:1052A0000AB1067916550134074F3E7801363E7033
:1052B0009FE70023CCF800301B78FFDE0023FBE7DC
:1052C000DC950220D6950220D9950220D7950220A0
:1052D00010B5044658B90868037B202B09D100F1AA
:1052E0000E010722183003F0D5FA204610BD032026
:1052F000FCE70620FAE74360CA699A420DD38A693F
:105300000260C8691A448A610A6FC01A1A44C861E7
:1053100000300A6718BF0120704701F128020260BF
:105320008B6700207047037A012B08D9427B012A42
:1053300000F10C0306D9827B134458787047002390
:105340005B78FFDE00231B78FBE700002DE9F047C8
:105350000B7888B006460D460E2B17D8DFE803F011
:105360000A080A0A160CA1161608160A0A0A0A00E2
:10537000FFF7CAFB002427E04A78D1094FEA52130D
:1053800030D013F0030303D0012B21D006241BE0FF
:1053900002F01F02012AF9D1AC78062CF6D105A83B
:1053A0000393FEF72FFF03AB009307460346EA780B
:1053B00029793046FFF72CF8052805D0039A39469D
:1053C000681CFEF7C1FC0446204608B0BDE8F08723
:1053D000AB78212BDAD1B5F80720072AD6D101689E
:1053E0001831EDE7012BD1D1AB780768202B36D0EF
:1053F000222BCBD1B5F80730002BC7D197F820204E
:10540000B5F803303B8402F0010203F001039A4235
:105410009CB2AFD0002C14BF02210321FFF770FB18
:10542000002CA7D1337A012B40F2CE80737B06F19A
:105430000C02002B00F0CA80B37BD05C02F082FC2F
:105440003046FFF770FF02F07DFC07F134037C6209
:10545000FC62C7E91E44C7E920447B67B4E7B5F89E
:105460000720072A92D13B73B5F807300024DBB23E
:105470007B7320460E37CDE90573079400F00AFBD5
:10548000204605A9FFF790F9044630B9514B03A90E
:10549000CDE90336FEF746FC0446002000F0FCFA96
:1054A00092E7037A002B00F09380837A00F10901E0
:1054B000002B00F08B80C27AAB788A5C9A423FF472
:1054C00059AF1B06EC780AD524B1032C0CBF00247D
:1054D000032479E701213046FFF712FB74E7012C22
:1054E0003FF448AF67B2002FEFD10568FFF71BFF0D
:1054F000394B059305F10C030693AC6A8146BCB9A0
:10550000EB6FAC67C5E91F43EB6A73B105F12C0281
:1055100092E8030005F1240383E80300EC6205A987
:105520004846FFF755F9044600E06C620021D2E7D7
:10553000D5F884A0686A544528BF544605F134085C
:105540002246414603F0A6F9EB6F2344C5E91F73D9
:10555000AAEB0403AB67EB6A44446C672BB305F119
:10556000240405F12C0898E8030084E80300AB6FDD
:10557000EF62686A1BB96B6A002BD0D116E0AA6A89
:10558000696F9A4214D803F085F9AB6AAA6FC5F81F
:105590008030D21AAA676A6F1A446A6700213046BF
:1055A000FFF7AEFAEB6A002BDDD16B620024BDE79A
:1055B0001A4603F06FF9AA6FAB6AEA679B1AAB62EF
:1055C0006B6A13446B62D6E76378FFDE1B78FCE7F7
:1055D0005B78FAE7D1520000F75200001FB503686C
:1055E0001B8CDB0711D5037A012B10D9437B00F10B
:1055F0000C047BB1837BCDE90112E05C002201A9A0
:105600000392FFF7D1F804B010BD0820FBE7002398
:105610005B78FFDE1B78FCE72DE9F3410468238CFF
:10562000DB0780460F46164646D5002000F032FACA
:10563000656A002D38D1A16FB14213D33246616F34
:10564000384603F027F9A36FC4F880609B1BA3675B
:10565000636F33446367002000F01EFA284602B0EF
:10566000BDE8F081C4E909764046FFF75CFE134BC4
:10567000009304F10C030646019369B10A463846CB
:10568000616F03F007F9A36FA26AD21AA262626A7D
:10569000C4E91E531A44626269463046FFF798F81F
:1056A000051E08BF9225D6E7E36A1BB9C4E90B764D
:1056B0009225D0E71125CEE70825CFE7F752000065
:1056C00070B50D7A0DB101F10905046840F2391683
:1056D000B44200F0E380B4F59D7F40D2B4F59A7FE8
:1056E00000F0AB8020D840F23116B44200F08B803D
:1056F000B4F5997F05D2002C7FD0002303601846B3
:1057000080E000F08B8040F23315AC42F5D10024EC
:105710000AB105791555013400259C420571C0F088
:105720008D804FF49A7377E0B4F59B7F00F09D80F5
:10573000C0F08F8040F23715AC4200F0A280B4F583
:105740009C7FDAD100240AB1057915550134002572
:105750009C420571C0F0A38040F239135CE040F236
:105760004115AC4200F0C080B4F5A17F2DD240F2CB
:105770003D15AC4200F09F80B4F59F7F0FD2B4F589
:105780009E7FBAD100240AB105791555013421252F
:105790009C420571C0F0908040F23D133CE040F225
:1057A0003F15AC4200F09380B4F5A07FA5D1002452
:1057B0000AB1057915550D8A01342D0A9C420571EF
:1057C000C0F0938040F2411326E040F24315AC4212
:1057D00000F0A380B4F5A17F40F29280B4F5A27FDF
:1057E00000F0A78040F245139C4286D100240AB104
:1057F0000379135540F247130EE00924047113B9DD
:105800000660012070BD0AB1047914700424012BD4
:10581000047110D84FF499730360F2E700240AB1C1
:105820000679165501342D7805719C42FFF470AF4E
:1058300040F23313F0E70124F1E700240AB10579BF
:105840001555013400259C42057103D340F23513F0
:10585000E2E700240AB1057915550134FF259C4281
:10586000057103D34FF49B73D6E700240AB1057981
:105870001555013401259C42057103D340F23713BD
:10588000CAE700240AB105791555013401259C4267
:105890000571FFF458AF4FF49C73BDE700240AB1C3
:1058A00005791555013409259C420571FFF46BAF4C
:1058B0004FF49E73B0E700240AB105791555013401
:1058C00009259C42057103D340F23F13A4E700244D
:1058D0000AB10579155501340D8A05719C42FFF412
:1058E00067AF4FF4A07397E700240AB10579155507
:1058F00001344D8A05719C4203D34FF4A1738BE7A9
:1059000000240AB1057915554D8A01342D0A9C42AF
:10591000057103D340F243137EE700240AB10579F1
:10592000155501348D8A05719C4203D34FF4A2733F
:1059300072E700240AB105791555898A0134090AEC
:105940009C420171FFF453AF40F2451364E7F0B598
:105950000A780E2A85B006460D4615D801239340D5
:1059600047F64F041C4003D00024204605B0F0BD8C
:105970009B0609D54A78D1094FEA521331D013F06A
:10598000030303D0012B1ED00624EEE702F01F0212
:10599000012AF9D1AF78062FF6D103A80294FEF7B9
:1059A00031FC02AB009304460346EA78297930467D
:1059B000FEF72EFD0528E7D0029A2146681CFEF767
:1059C000C3F90446D1E7AB78072B04D0082BDBD111
:1059D000C2688169F2E7B5F80720182AD4D1C169F5
:1059E000ECE7012BD0D1AA78002ACDD1026813733D
:1059F000036A002BB8D021469847B6E700B583B0BC
:105A000002900091019244F2010071466A46FBF750
:105A10003BFF03B000BD000082B001238DF80730CA
:105A20009DF80730114B1860596044F2010188421B
:105A30009A6012D044F20201884206D1DA60DA6834
:105A400012889A61DA685268DA6172B69DF8073096
:105A5000002BFBD162B602B070471A611A699268D6
:105A60005A611A6912689A611A69ECE7E095022096
:105A700072B6024A13680133136070470096022021
:105A8000034A1368013B136003B962B6704700BF55
:105A900000960220FFF7ECBFFFF7F2BF0268136821
:105AA0005268934291BFD01A80680130801888BF35
:105AB000C01A7047036881681A685B688B4234BFFC
:105AC00001330023D31A584258417047F8B50446B1
:105AD00000200D46FFF7DEFF2046FFF7EBFF10B179
:105AE000237C002B3DD12168A6684B684A68B242EE
:105AF00034BF013200224A6038B12168A0680A68C8
:105B0000824234BF013200220A60E2686068511E9E
:105B1000072920D8DFE801F004101F141F1F1F18E9
:105B20002A78C2542046FFF7B9FF23689A68824258
:105B300000D29860002415E02A8820F81320F1E7AD
:105B40002A6840F82320EDE7D5E9006700EBC300A1
:105B5000C0E90067E6E7294603FB020002F09AFE6F
:105B6000E0E704240020FFF797FF2046F8BD10B5BA
:105B700004460020FFF78EFF20680C22002102F06F
:105B800023FF0020BDE81040FFF786BF03681868B8
:105B90005B68C31A58425841704770B505460020EB
:105BA0000C461646FFF776FF2846FFF7EFFF002862
:105BB00030D129680B682EB90A68A868824238BFBC
:105BC000561C0E60EA686968501E07281CD8DFE87A
:105BD00000F0040C1B101B1B1B14CB5C2370002457
:105BE0000020FFF759FF204670BD31F813302380A5
:105BF000F5E751F823302360F1E701EBC301D1E968
:105C00000023C4E90023EAE703FB0211204602F067
:105C100041FEE4E70524E3E738B5074C051E04F12F
:105C2000080318BF1C4623682BB11A6822605B6802
:105C300028469847F7E738BD0C96022070B50A4C05
:105C400025787DB909486560A5602561E56000F0AB
:105C500099F9064600F0A2F9012384F82050237038
:105C6000304670BD8526FBE704960220515D00009A
:105C700038B5134CA378054603F0FF0073B115B196
:105C80006B68012098470020FFF704FFE3680133A9
:105C9000E3600020BDE83840FFF7FEBEFFF7FAFEE4
:105CA00025B1226913463BB92A602561E368002BC0
:105CB000ECD100F089F9E9E79D42F7D01B68F2E7E3
:105CC000049602204FF08043D3F81804C0F300403C
:105CD0007047000038B5134C6378054603F0FF00A9
:105CE00073B115B16B68002098470020FFF7D2FE12
:105CF0006368013363600020BDE83840FFF7CCBE25
:105D0000FFF7C8FE25B1A26813463BB92A60A5601B
:105D10006368002BECD100F069F9E9E79D42F7D008
:105D20001B68F2E70496022038B5084C0020FFF704
:105D3000B1FE6368013B6360656815B900F068F9FE
:105D400065700020BDE83840FFF7A6BE049602202B
:105D500010B5044630B9144B01225A70BDE810400A
:105D6000FFF75ABF012806D0022807D10F48BDE827
:105D70001040FFF7AFBF0C4B9870EFE7032800D03F
:105D800010BDFFF7D1FF084A002192F8203082F8B9
:105D90002010D269DBB2002AF2D0042B0CBF2046BF
:105DA0000220BDE8104010470496022018960220F9
:105DB00010B5074C23784BB9064B002808BF18468E
:105DC00000F07CF908B90123237010BD8520FCE7A1
:105DD000289602207006010008B500F09EF9BDE883
:105DE000084000F0A1B910B50446FFF7F5FF2046C2
:105DF00000F086F900F08AF9002010BD034B1878F6
:105E000010B901221A707047852070472996022028
:105E10001FB503788DF800308388ADF804308368AF
:105E20008DF80630C3688DF8073003690293436923
:105E30000393054A054B684653F8213052F8211068
:105E4000984705B05DF804FB2C960220349602209A
:105E5000024B4FF4807043F00103184780060100A5
:105E60001F2886BF00F01F00044A4FF0A042012304
:105E700003FA00F0C2F80805704700BF00030050A5
:105E80002DE9F047164607783A4A42F827603A4A21
:105E900042F827304B7B80460C46ABB30B68DFF8EB
:105EA000E0904FF0A04103F5E07340F20C6241F83E
:105EB0002320636803F5E073002541F82320206860
:105EC000FFF7CEFF6068FFF7CBFF236803F5E073B1
:105ED00040F20D6241F82320636803F5E0734FF050
:105EE000010A41F82320FFF7B3FF63681F2B8ABF25
:105EF0004A464FF0A04203F01F03D2F8102522FAC1
:105F000003F3DB070CD50DBB002E3B461B4A214695
:105F100008BF324608F10400BDE8F04700F090BD2C
:105F200023681F2B86BF03F01F034A464FF0A04291
:105F30000AFA03F3C2F80C35FFF78AFF013520682F
:105F4000FFF78EFFFFF784FF092DCED163681F2B6B
:105F500086BF03F01F030A494FF0A041012202FA55
:105F600003F3C1F80C35FFF773FF6068FFF778FFA4
:105F7000CAE700BF349602202C960220115E000072
:105F800000030050044A137923B901211060918065
:105F900018467047852070473C960220084B1A68C7
:105FA000D2075FBFC02283F8002301221A604FF09E
:105FB00080430022C3F81825024B01221A70704753
:105FC00000E100E039990220074B00221A6082B0FC
:105FD0001B680193019B4FF080430222C3F8042306
:105FE00001229A6002B0704704010040074B002272
:105FF0001A6082B01B680193019B4FF0804301221D
:10600000C3F804231A6002B0704700BF00010040CB
:10601000074B01221A604FF08042D2F80C3403F093
:106020000113B3F1011FF8D0024B00225A717047DF
:10603000040000403C96022007B5154B1A687AB15F
:1060400000221A601B680093009B4FF080430122DE
:10605000C3F808230F4B587910B95A711B68984739
:106060000D4B1A6882B100221A601B680193019BD4
:106070004FF080430222C3F80823064B1B6801201F
:1060800003B05DF804EB184703B05DF804FB00BFF4
:10609000000100403C9602200401004000F18043D2
:1060A00082B01A68002A14BF0120002004D0002208
:1060B0001A601B680193019B02B070470E4B1A785F
:1060C000C2B902784FF08041C2F34002C1F8802586
:1060D000027802F00102C1F87825084A1168C90760
:1060E0005FBFC02182F800130121116001221A70E4
:1060F00000207047852070473A99022000E100E0B7
:10610000014B02681A6070474C9602204FF08043A2
:106110004FF46072C3F8042370474FF080434FF48C
:106120006072C3F808237047014B00221A60704761
:106130004C96022010B54FF08043D3F80443620719
:1061400007D54FF48470FFF7A9FF10B11E4B1B68F1
:106150009847A30608D54FF48A70FFF79FFF18B140
:106160001A4B00201B689847600608D54FF48C70C6
:10617000FFF794FF18B1154B01201B6898472106C3
:1061800008D54FF48E70FFF789FF18B1104B00202F
:106190001B689847E20508D54FF49070FFF77EFF23
:1061A00018B10B4B01201B689847A3050AD54FF483
:1061B0009270FFF773FF28B1054B02201B68BDE802
:1061C0001040184710BD00BF449602204896022098
:1061D0004C96022008B5FFF7ADFFBDE80840FFF779
:1061E0002BBF00002DE9F84F124D134F80464FF0A2
:1061F000000A04264FF001095FFA8AFB002009FA21
:106200000BF4FFF747FC2C4208D03B6814EA03026A
:1062100001BF23433B6088F800B016460020FFF71B
:106220003BFC1EB1A5430AF1010AE5D13046BDE8A9
:10623000F88F00BFFFFF0F005096022010B5A1B1EC
:106240009AB101238340C3F3130484B10A4C246838
:1062500023420ED0C00000F1804000F5F830C0F8B5
:106260001015C0F81425002010BD0E20FCE70720F3
:10627000FAE70820F8E700BF50960220012303FA4E
:1062800000F0C0F313031BB1054B1B68184204D088
:10629000044BC3F80405002070470820704700BF76
:1062A0005096022000F00140012303FA00F0C0F3F1
:1062B00013031BB1054B1B68184204D0044BC3F8F1
:1062C0000805002070470820704700BF5096022044
:1062D00000F001400023435082B043580193019BDA
:1062E00002B0704770B5D0F8103105460C4653B176
:1062F0004FF48871FFF7EEFF63795A0703D52368DF
:106300000BB101209847D5F814315BB14FF48A7175
:106310002846FFF7DFFF63791B0703D523680BB11E
:1063200002209847D5F81C315BB128464FF48E7196
:10633000FFF7D0FF607910F0100002D1236803B19D
:106340009847D5F8043163B14FF482712846FFF7BE
:10635000C1FF0123237123681BB10320BDE87040F6
:10636000184770BD38B51D4602230B710B684A7182
:1063700004467BB112F0040F0CBF8221922110075A
:1063800048BF41F02001D306236848BF21F08001B7
:10639000C3F8001320684FF48271FFF79BFF206859
:1063A00012F0800F05BF012343514019002038BD72
:1063B0002DE9F04F07795A4D4FEAC70805EB08035E
:1063C00085B01B7904460E46002B40F0A68045F8A8
:1063D0003720DFF858E101F1FF3C06F1030B694675
:1063E0004FF001091CF8012FFF2A00F0928022F0E3
:1063F000800310060B607FD51F2B87BF02F01F00A4
:10640000F24618464FF0A04A09FA00F0CAF808050B
:106410001F2B8ABF02F01F034FF0A042724603F504
:10642000E073032042F82300DC4501F10401D9D1D7
:106430002368009AC3F86025019AC3F86425029A7C
:10644000C3F86825039AC3F86C2523680122C3F8B2
:1064500000252368B17932897079C3F80C05C3F837
:106460000415C3F8082523687289C3F8102522682B
:106470000023C2F800322268C2F800334FF48E7154
:106480002068FFF727FF4FF488712068FFF722FF8D
:106490004FF48A712068FFF71DFF4FF48271206866
:1064A000FFF718FF55F83730FBB121683279090B37
:1064B0004BB2002BAEBF03F1604301F00F01194B4B
:1064C0004FEA4212D2B2AABF03F561435A5483F88D
:1064D000002323681B0B5AB2012103F01F0301FAAA
:1064E00003F35209104941F82230454401232B712E
:1064F000002005B0BDE8F08F1F2B87BF02F01F0002
:10650000F24618464FF0A04A09FA00F0CAF80C0506
:106510007EE74FF0FF330B6086E70820E9E700BF16
:106520005496022014ED00E000E100E0000300506A
:1065300070B40C461D461E490379266801EBC30161
:106540000368C3F82065A688C3F82465A668C3F865
:106550002865E668C3F82C6503682668C3F84065BB
:10656000A688C3F84465A668C3F84865E468C3F81C
:106570004C45046802F0010303EB5202C4F81425F1
:10658000EA0712D415F0020203D0002B14BF082230
:1065900004220468002BC4F8002218BF0C23EAB2BE
:1065A00008BF082370BCFFF7DDBE1022F1E700BF73
:1065B000549602200379084A016802EBC30213795A
:1065C000D1F80411DBB219B9981E18BF0120704729
:1065D00001201071704700BF5496022038B505465F
:1065E0000C46FFF7E7FF50B92B6801225A60284696
:1065F000FFF7E0FF18B9002CF9D1204638BD01247F
:10660000FBE7000001490248FFF76CBE54960220E8
:1066100000C0014001490248FFF764BE5C960220B9
:106620000010024001490248FFF75CBE6496022058
:106630000020024001490248FFF754BE6C96022038
:1066400000D00240014B1B68184700BF749602201F
:1066500038B50B4B98420D4601D0002038BD0020C4
:10666000FFF718FA074B1C7914B901221D601A7143
:106670000020FFF711FA002CEFD01120EEE700BF49
:106680000020004074960220044A91689368CB1A57
:1066900023F07F438342F9D3704700BF10E000E04E
:1066A000034B044A1B68B3FBF2F35843FFF7ECBFFC
:1066B0009000002040420F002DE9F74300240646D9
:1066C0000F4600F5A0754FF48038A1462B688BB1BA
:1066D000D6F8043308FA04F21A420BD0C5F8009039
:1066E0002B680193A00000F5A070019B80B2D7E950
:1066F000003198470134042C05F10405E6D103B0BC
:10670000BDE8F083F7B50679314D0C2474432F1999
:106710003B7A002B5AD12A514A687A609C461A4625
:1067200047790368D4B2A74246D81B0B5AB2CC783B
:10673000284F002AAEBF02F1604303F00F03264A40
:106740004FEA4414E4B2AABF03F56143D45483F87A
:10675000004303681B0B5CB26409012203F01F03B2
:1067600002FA03F347F8243007684B78D7F804455A
:1067700003F0030324F003042343C7F80435076838
:106780008B78D7F8084503F0030324F00304234370
:10679000C7F8083504680B78D4F8100503F00F0328
:1067A00020F00F000343C4F810350C2303FB0655FB
:1067B00000202A7203B0F0BDA40004F5A0740132D9
:1067C00043F804C01B590193019BA9E70820F1E796
:1067D0007C96022000E100E014ED00E00368012255
:1067E0001A600379034A0C2101FB032302221A7267
:1067F000704700BF7C96022073B54FF480348C4004
:1068000005688BB18B0003F5A0730026EE50EB58A2
:106810000193019B0368C3F80443036801F5A87161
:1068200043F8212002B070BDC5F80843F5E7F0B485
:10683000076840F20115D7F800428D4024EA0504AC
:10684000C7F800420568D5F800422343C5F8003276
:106850009DF81030F0BCFFF7CFBF0000014902489F
:10686000FFF72ABF7C9602200080004001490248C1
:10687000FFF722BF8896022000900040002343507B
:1068800082B043580193019B02B070470B7B032BEE
:106890002DD8DFE803F025291D028A68154B9A429E
:1068A00004D1D0F84C350A699A4209D18A6840F27D
:1068B00002239A421BD1D0F84C354A699A4216D02D
:1068C00000230622C0F80035C0F80025184670479E
:1068D000D0F84C350A699A42F2D1D0F83C35ECE751
:1068E000D0F84C350A69E9E7D0F83C35FAE70120E1
:1068F000704700BF00020400F0B54D4A4D4CD2F87D
:10690000243187B01546B3B14FF492711046FFF7AA
:10691000B5FFD2F8043173B9A368C2F80833022373
:10692000A360A368C2F8043301231362536184F89F
:106930002E3007B0F0BDD5F80431002B42D03E4DCB
:106940003B484FF48271FFF799FF0FCD01AE0FC6A0
:106950002B68336094F82E3043B9A5F11C013448FC
:10696000FFF794FF80F0010084F82E004FF4B0711F
:106970002F48FFF783FF4FF4AE712D48FFF77EFFDE
:1069800094F8303013B194F82E303BB1284B0022EC
:10699000C3F80022A260294AC3F80823244AD2F887
:1069A000C434C2F8C4349A0736D501238DF80030B8
:1069B00094F830300BB984F82F30D4E900316846B0
:1069C0009847B6E74FF4A4711948FFF757FF237BA8
:1069D00083B9194F0FCF01AE0FC63B68336094F8EF
:1069E0003030002BDAD1C5F80032A360134BC5F864
:1069F0000833D3E74FF40073C5F8003240F20223A6
:106A0000A36003F1CE73C5F80833A368C5F8043357
:106A10000123AB602B628CE713F0050F01D002233A
:106A2000C4E794F82E30002BC0D00423BEE700BF8B
:106A30000030004094960220A096022002029C01A1
:106A40002DE9F84F06793A4D4FF0340A0AFB06FA61
:106A500005EB0A099B4699F82D3007460C469046EF
:106A6000002B61D133490068FFF7F2FD00285DD1AA
:106A700045F80A80C9F80800C9F804B089F82F0061
:106A800089F83000637B89F8323023681F2B86BF7A
:106A900003F01F0328494FF0A04103F5E07340F2D3
:106AA0000C6241F8232063681F2B86BF03F01F038D
:106AB00021494FF0A04103F5E07341F82320D4E9C8
:106AC00000213B68C3F80825C3F80C15A268C3F879
:106AD0002425B8F1000F1FD03968227B090B4BB277
