:101000000000042021970000499700004B97000042
:101010004D9700004F97000051970000000000001E
:1010200000000000000000000000000053970000D6
:1010300055970000000000005797000059970000E6
:10104000857700005B970000F57B0000A97E00001B
:101050005B9700005B970000299C0000692300005B
:101060000D7E00001D7E00005B9700005B97000076
:101070005B9700005B9700005B9700005B970000A8
:101080005B970000594800005B9700005B970000E9
:10109000F54800005B9700005B9700005B9700003D
:1010A0005B9700005B9700005B9700005B97000078
:1010B000B57B00005B97000000000000000000000E
:1010C0005B970000C57B0000D57B00005B970000AC
:1010D0005B9700005B9700005B9700006D9300003A
:1010E0005B9700005B9700005B970000000000002A
:1010F00000000000E57B0000000000005B9700009E
:1011000000000000000000000000000000000000DF
:1011100000000000000000000000000000000000CF
:1011200000000000000000000000000000000000BF
:1011300000000000000000000000000000000000AF
:10114000000000000000000000000000000000009F
:10115000000000000000000000000000000000008F
:10116000000000000000000000000000000000007F
:10117000000000000000000000000000000000006F
:10118000000000000000000000000000000000005F
:10119000000000000000000000000000000000004F
:1011A000000000000000000000000000000000003F
:1011B000000000000000000000000000000000002F
:1011C000000000000000000000000000000000001F
:1011D000000000000000000000000000000000000F
:1011E00000000000000000000000000000000000FF
:1011F00000000000000000000000000000000000EF
:1012000010B5054C237833B9044B13B10448AFF340
:1012100000800123237010BD4C0A00200000000054
:101220004427010008B5034B1BB103490348AFF342
:10123000008008BD00000000500A00204427010083
:10124000154B002B08BF134B9D46A3F5803A002198
:101250008B460F461348144A121A08F08DFE0F4BA6
:10126000002B00D098470E4B002B00D09847002051
:10127000002104000D000D48002802D00C480CF09D
:1012800085FB08F0BBFD2000290000F0FFFB08F003
:10129000A5FD00BF000008000000042000000000C1
:1012A000000000004C0A0020449F02208DD900005D
:1012B00085EB0000BFF34F8F0549064BCA6802F467
:1012C000E0621343CB60BFF34F8F00BFFDE700BF69
:1012D00000ED00E00400FA051F2886BF00F01F00A3
:1012E000044A4FF0A042012303FA00F0C2F80805B7
:1012F000704700BF0003005008B51248124B134955
:10130000C01AC008000440F0040003F03DF8104883
:1013100002F0CAFC18B10F4A7F2105F0D3FB0C483C
:1013200002F0D9FC0C4A106018B90A4A812105F074
:10133000C9FB0A4B0A4800221A60BDE8084005F0C4
:101340007ABC00BF8827010048270100D11B01009B
:10135000E8270100F01B0100709D0220B48B0220E1
:10136000D027010037B5274B1B680C46002B3AD01D
:1013700001F0FEFE244B25481B6801930123A34086
:101380008DF8033005F0FAFB68BB214C2368B3F5F8
:10139000006F04D31F4A40F2B51105F093FB1E4DB8
:1013A00023682868032201A9184408F04BFD23682C
:1013B00028680333184401220DF1030108F042FDAF
:1013C0002368043323602368B3F5006F0BD12B68C7
:1013D0005BB91248012102F048FC114802F07BFC85
:1013E00000232860236003B030BD2946074805F07C
:1013F000D1FB20B1074A4FF4E17105F063FB0121F5
:101400000848E8E7A00A0020940A0020D02701003D
:10141000B48B0220F01B0100709D0220900A002076
:10142000E82701008C0A00201F2886BF00F01F005B
:10143000044A4FF0A042012303FA00F0C2F80C0561
:10144000704700BF0003005070B50E46052842D813
:10145000DFE800F0033F4141171E1F4802F01BFC6C
:101460002520FFF7E1FF1D4B1D481E49C01AC0088B
:10147000000440F0030002F087FFBDE87040FFF772
:101480003BBF194B19481968BDE8704002F045BCD4
:10149000124B134CE41AE408240444F001050A46F4
:1014A0002846134902F074FF00F0BCFFFFF724FF49
:1014B000022E0AD10F49284602F066FF44F00400CC
:1014C0000D49BDE8704002F05FBF042E03D10B4907
:1014D000F1E7FFF7EFFE70BDA00A002048270100EA
:1014E00088270100081C01009C9D0220E8270100BC
:1014F000191C0100301C0100491C01006A1C01007C
:101500002DE9F04104468CB00F46002949D0A34B89
:10151000A34DA449DFF8C882ED1AED082D0445F06B
:101520000405284602F030FF0026F3B29F4206F180
:10153000010625D82378063B1F2B32D8DFE813F0AD
:1015400026003400310031003100A7008A00480035
:1015500062006A0099007400BC00D1005201FF00D3
:10156000000231000702400031003100310031003B
:10157000310031000F020B02A90111022C023002CE
:10158000E25C4146284602F003FFCEE78649284642
:1015900002F0FAFEFFF7B0FE844802F07CFB00F098
:1015A00019FF0CB0BDE8F0818149284602F0ECFE3D
:1015B0007E4802F076FB00F035FFFFF79DFEF0E776
:1015C00028467C4902F0E0FE7B4802F064FBE8E735
:1015D00028467A4902F0D8FE6378A47804EB032405
:1015E000A4B2A4F548739BB241F2680140F60552DB
:1015F0008B4288BF1446204601F082FC204601F051
:1016000007FFCEE728466E4902F0BEFE607801F083
:101610002BFCC6E728466B4902F0B6FE607800F561
:10162000967001F0F7FBBCE76078431E012B0CD8E5
:1016300001F0DCFC0646607801F0DDFE2EB1624A66
:1016400040F22511304605F03DFA6049284602F087
:101650009BFEA6E76478012C07D15D49284602F07D
:1016600093FE204601F01EFD9BE7002C99D15949BD
:10167000F4E7647858492246284602F089FE00F0D3
:10168000D1FE00F0F7FE204600F00EFF95E7A678A9
:1016900063785249360406EB0366E37806EB0326CB
:1016A00023791E4428466379324602F07AFE617936
:1016B000304600F0E5FC74E7A678637847493604C5
:1016C00006EB0366E37806EB032623791E442846DF
:1016D0006379324602F065FE6179304600F042FEE1
:1016E0005FE71422002107A808F046FC611C0422D1
:1016F00007A808F0A7FB611D042208A808F0A2FBB8
:1017000004F10901042209A808F09CFB04F10D0171
:1017100004220AA808F096FB042204F111010BA888
:1017200008F090FB9DED0B2ADDED0A1A9DED091ADC
:10173000DDED080A9DED070A01F070FD31E7142286
:10174000002107A808F018FC611C042207A808F073
:1017500079FB611D042208A808F074FB04F109015B
:10176000042209A808F06EFB04F10D0104220AA866
:1017700008F068FB042204F111010BA808F062FBD9
:101780009DED0B2ADDED0A1A9DED091ADDED080A23
:101790009DED070A01F0E2FD03E700BF48270100C5
:1017A00088270100F0180100101901009C0A002090
:1017B0001E1901002C190100980A0020431901008C
:1017C000501901005D190100F01B010071190100A1
:1017D00089190100A3190100BE190100CE190100E9
:1017E00003190100734D28220021284608F0C4FB8C
:1017F000611C0422284608F025FB0422611DA8185C
:1018000008F020FB04F10901042205F1080008F0AA
:1018100019FB04F10D01042205F10C0008F012FB84
:1018200004F11101042205F1100008F00BFB04F192
:101830001501042205F1140008F004FB04F119015C
:10184000042205F1180008F0FDFA05F1200704F163
:101850001D01042205F11C0008F0F4FA04F1210135
:101860000422384608F0EEFA05F1100604F12501CD
:10187000042205F1240008F0E5FA0FCE6C460FC4EF
:1018800097E8030084E8030095E80F0001F029FDC4
:1018900087E6484D28220021284608F06DFB611C90
:1018A0000422284608F0CEFA0422611DA81808F088
:1018B000C9FA04F10901042205F1080008F0C2FA8E
:1018C00004F10D01042205F10C0008F0BBFA04F14B
:1018D0001101042205F1100008F0B4FA04F1150119
:1018E000042205F1140008F0ADFA04F119010422F4
:1018F00005F1180008F0A6FA05F1200704F11D0112
:10190000042205F11C0008F09DFA04F121010422D3
:10191000384608F097FA05F1100604F12501042273
:1019200005F1240008F08EFA0FCE6C460FC497E83C
:10193000030084E8030095E80F0001F095FC30E611
:101940006078003018BF012001F048FD29E660787A
:1019500001F02AFD25E6607801F033FD21E6FFF76E
:10196000A9FC6378013B032B3FF61BAEDFE803F0D5
:1019700002080B0EA37814205BB1FFF7ADFC10E654
:10198000A3781520F8E7A3781620F5E7A3781720A9
:10199000F2E7FFF749FD04E6074801F099FA00E68F
:1019A0006078235C00EE103AB8EE400A01F03DFD8D
:1019B000F7E500BF749D0220B88B022073B5044682
:1019C000052015460E4600F0E7FE1A4A44F20103D0
:1019D0009C4214605660956022D044F202039C42FF
:1019E00006D1D560D3681B889361D3685B68D361E7
:1019F000114912489369D2690092401AC008000444
:101A000022460F4940F0010002F0D5FC02F056FBDF
:101A10002A463146204602B0BDE8704005F060B865
:101A2000156113699B68536113691B68936113699E
:101A3000DCE700BF6C0A002048270100882701006E
:101A4000C81801001FB519211822CDE900124FF066
:101A5000CC72002302920222039369468DF80C2077
:101A600007481A4605F0E4FC20B1064A4FF4F1712C
:101A700005F028F8044806F03DFB05B05DF804FBCE
:101A800008000020F01B01000C0000202DE9F843A5
:101A9000C04CC14BC4F88C30C04A4FF48073A4F8DA
:101AA00090300123C2F840354FF080424FF400419E
:101AB0009367002002F0A8FA20B1B94A4FF4FD71F3
:101AC00005F000F802F0DAF905F090FB20B1B44A15
:101AD00040F2FF1104F0F6FF002005F0A1FB05F035
:101AE000C9FB0028FBD0FFF7ADFF02F0E7FAAD48D5
:101AF00001F092FB20B1AA4A40F2072104F0E2FF74
:101B000001F01CFD84F89000A24801F031FDA648C8
:101B100001F06CFDA54801F0E5FDA54801F028FEA7
:101B2000A44801F0CBFCB4F88E30A348A3F5E163E0
:101B3000B3F5486F84BF40F60553A4F88E3001F02A
:101B4000DDFC9E4801F0EAFC9D4801F077FC01F0C5
:101B50009DF800F089FE00F0E7FE20B1904A40F2C7
:101B60001B2104F0AFFF00F00BFF20B18C4A40F2C4
:101B70001D2104F0A7FF934801F0D8FA20B1884A4C
:101B800040F2212104F09EFF03F010F88E498F48A7
:101B900001F0A8FF8E4802F087F820B1804A40F299
:101BA0002A2104F08FFF8B4D4FF40062002128683A
:101BB00008F0E2F9864802F08EF8286020B9784AE9
:101BC00040F22D2104F07EFF8348844D05F033F868
:101BD0008349844800F08AFC02F070FA002000F08B
:101BE000DBFD814B8149ED1AED082D0445F004051C
:101BF000284602F0C9FB7E4801F070FC94F8913051
:101C0000FF2B04BF022384F891307A4B99461A685F
:101C1000002AFCD0784A1368002BFCD0774E33683A
:101C2000002B40F0988194F89010754808F0F4F972
:101C300020680FF01BF902460B46724808F0ECF9D9
:101C400060680FF013F902460B466F4808F0E4F99C
:101C5000A0680FF00BF902460B466C4808F0DCF95F
:101C6000E0680FF003F902460B46694808F0D4F922
:101C700020690FF0FBF80B460246664808F0CCF9E5
:101C800000220023644808F0C7F9E06A0FF0EEF87C
:101C900002460B46614808F0BFF9206B0FF0E6F8EA
:101CA00002460B465E4808F0B7F9606B0FF0DEF8AD
:101CB00002460B465B4808F0AFF9A06B0FF0D6F870
:101CC0000B460246584808F0A7F90022574B5848DF
:101CD00008F0A2F9206C0FF0C9F802460B465548EF
:101CE00008F09AF9606C0FF0C1F802460B465248B2
:101CF00008F092F9A06C0FF0B9F802460B464F4875
:101D000008F08AF9E06C0FF0B1F802460B464C4837
:101D100008F082F960690FF0A9F802460B464948BD
:101D200008F07AF9A0690FF0A1F802460B46464880
:101D300008F072F9E0690FF099F802460B46434843
:101D400008F06AF9206A0FF091F802460B46404805
:101D500008F062F9606A0FF089F802460B463D48C8
:101D600008F05AF9B4F88E103B4808F055F94FF0D6
:101D700080533A48196E89B208F04EF994F89110E0
:101D8000374808F049F9206D0FF070F802460B460D
:101D900068E000BF208B0220FF00800D00E00140C2
:101DA000F01B010008000020488B0220348B022029
:101DB000708B0220AE8B0220AC8B0220AD8B0220F8
:101DC000988B0220680A00200115000049140000C9
:101DD000E8270100709D0220D0270100882701001C
:101DE00065130000940A002048270100F51901003E
:101DF000B18B0220A00A0020980A00209C0A002033
:101E00001B1A01002B1A0100351A01003F1A0100AC
:101E1000491A0100531A01005D1A0100681A0100F5
:101E2000731A01007E1A0100891A01000000F03FB8
:101E3000941A01009F1A0100AA1A0100B51A0100A4
:101E4000C01A0100CB1A0100D51A0100DF1A0100E7
:101E5000E91A0100F31A0100FD1A0100061B010036
:101E60000E1B01005E4808F0D7F8606D0EF0FEFF13
:101E700002460B465B4808F0CFF8A06D0EF0F6FF67
:101E800002460B46584808F0C7F8E06D0EF0EEFF2A
:101E900002460B46554808F0BFF8206E0EF0E6FFEC
:101EA00002460B46524808F0B7F8606E0EF0DEFFAF
:101EB00002460B464F4808F0AFF8A06E0EF0D6FF72
:101EC00002460B464C4808F0A7F8E06E0EF0CEFF35
:101ED00002460B46494808F09FF8206F0EF0C6FFF7
:101EE00002460B46464808F097F8606F0EF0BEFFBA
:101EF00002460B46434808F08FF8A06F0EF0B6FF7D
:101F000002460B46404808F087F8E06F0EF0AEFF3F
:101F100002460B463D4808F07FF8D4F880000EF0EA
:101F2000A5FF02460B463A4808F076F8D4F884003C
:101F30000EF09CFF02460B46364808F06DF8D4F8C8
:101F400088000EF093FF02460B46334808F064F811
:101F5000324808F061F8FFF7CFF994F88D2094F833
:101F600091102F4801F068F8B4F88E0000F0C8FF17
:101F7000012001F097F83368002BFCD0294C2A4F40
:101F8000DFF8AC80D9F8003043B902F097F8F9E7F0
:101F900020B1424640F2592104F094FD204604F05D
:101FA00059FE02460028F0D13368002BF6D039469E
:101FB000204604F056FE20B1424640F2512104F082
:101FC00081FD4FF40061386801F0C8FD0D28DFD1B4
:101FD0001649284602F0D8F902F070F8FFF76AF9BE
:101FE000181B0100221B01002C1B0100361B0100E5
:101FF000401B01004A1B0100541B01005E1B010035
:10200000681B0100721B01007C1B0100871B010083
:10201000921B01009D1B0100A81B0100B31B0100C6
:1020200008000020D02701009C9D0220B81B010061
:10203000F01B0100F7B50E4A0E4E0F4F012313603F
:1020400042F210745360354633682BB947F00103F0
:1020500040209847013CF7D1084A002313601268DA
:102060000192019A2B602B680093009B03B0F0BD96
:102070000070004004710040D01D0100007100405C
:10208000F0B52DED068BA44D9FEDA48A8BB00E46C6
:1020900003900FCD05AC0FC42B68A148236001F05D
:1020A000FAFDA04BA04D8022C3F8802047F23054A7
:1020B000FFF7C0FF2B88C3F30D0307EE903A013CF6
:1020C000F8EEE77AA4B238EE278A002CF0D1974BCD
:1020D000DDED037A964CB1000B4493ED007AF8EEF7
:1020E000676ADFED947A88EE27AAC6EE877A27EE34
:1020F0000A9AFCEEE77AC9EE268A17EE903A9BB26E
:1021000007EE903AF8EEE77A7AEE677AFDEEE77A34
:1021100017EE903A1DB207EE905A0AAB1944B8EE8A
:10212000E78A51ED057A68EEA78A3AEE488A18EEFA
:10213000900A28EE078A0EF099FE02460B4674A11B
:10214000D1E900010FF014F806460F461AEE100A06
:102150000EF08CFE32463B460EF0E0FE0FF0D6F954
:10216000754B7649E41AE408FCEECA7A240444F07C
:10217000030417EE902A09EE900A204602F008F9AF
:102180002A466F49204602F003F903980EF04CFEF0
:1021900032463B460EF0ECFF0FF098F9694982B2E7
:1021A000204602F0F5F8B5EEC09AF1EE10FA40F1D3
:1021B000A480FFEE007AB4EEE79AF1EE10FA40F355
:1021C0009C80614A9FED61AA6149BDEEC97AB5EE76
:1021D000C09AF8EEC77AF1EE10FACCBF39EE679AE2
:1021E00037EEC99A17EE103A29EE0A9A2046BDEE4C
:1021F000C99A8DED009A02F0DEF8F5EEC09AF1EE84
:1022000010FA7CD5FFEE007AF4EEE79AF1EE10FAC0
:1022100075DD4D4A4F49BDEEE97AF5EEC09AF8EE0C
:10222000C77AF1EE10FACCBF79EEE79A77EEE99A29
:1022300017EE103A69EE8A9A2046FDEEE99ACDED46
:10224000009A02F0B8F8B5EEC08AF1EE10FA58D54F
:10225000FFEE007AB4EEE78AF1EE10FA51DD3A4A69
:102260003D49BDEEC87AB5EEC08AF8EEC77AF1EE08
:1022700010FACCBF38EE678A37EEC88A17EE103AEC
:1022800028EE0A8A2046BDEEC88A8DED008A02F04B
:1022900092F868EE8A7AF5EEC07AF1EE10FA32D54D
:1022A000BFEE007AF4EEC77AF1EE10FA2BDD264A83
:1022B0002A49FDEEE76AF5EEC07AB8EEE67AF1EE6D
:1022C00010FACCBF77EEC77A77EE677A16EE903ABF
:1022D00067EE8A7A2046FDEEE77ACDED007A02F0CD
:1022E0006AF80F4801F0DDFC01F0E8FE0D4B80229A
:1022F0001A600BB0BDEC068BF0BD194A62E7184AB4
:1023000088E7174AACE7164AD2E700BFAFF3008070
:1023100000000000004C1D40801C01000000000077
:10232000BC8B022000E100E0C08B0220D81D010020
:10233000882701000060EA46482701009C1C010034
:10234000AA1C0100B91C0100D81C01000000C842F1
:10235000DA1C0100031D01002C1D01004C1D0100B1
:10236000EF1801007047000010B5124BD3F804219C
:10237000FAB1114A1268E2B9C3F8042100F042FB35
:102380000E4B0F4A18700F4B1288D3F810355B02B2
:1023900003F4802343EA92030B4A126843EA803332
:1023A00013600A4B0A4A1B680146BDE810401078CA
:1023B000184710BD00700040BC8B0220C38B022068
:1023C000C08B022000030050C48B0220A09D02207D
:1023D0001800002008B50D4B0D480E4980221A60E8
:1023E0000D4BC01AC008000440F0040001F0CCFFFF
:1023F0000A4B187805F01AFA30B1094A40F2DD119B
:10240000BDE8084004F05EBB08BD00BF00E100E08D
:1024100088270100921D010048270100C98B022076
:10242000B11D010008B50D4B0D480E498022C3F8BF
:1024300080200D4BC01AC008000440F0040001F0D9
:10244000A3FF0A4B187805F007FA30B1084A40F2AA
:10245000E711BDE8084004F035BB08BD00E100E02D
:1024600088270100721D010048270100C98B022046
:10247000B11D01000A4A1078FF280DD0094B8021B8
:10248000C3F88010030103F1804303F5E04300210A
:10249000C3F81415C3F81015FF231370704700BF5D
:1024A0001800002000E100E010B50D4A1378FF2B62
:1024B00014D10C4B13F8101003EB40035C780301AC
:1024C00003F1804303F5E043C3F81445C3F8101546
:1024D000054B802119601070002010BD0820FCE71A
:1024E00018000020CA8B022000E100E06E4BF0B51E
:1024F00018606E4B19604FF08043012285B01A605E
:10250000D3F80021002AFBD0694C6A4E0025C3F89D
:102510000051694BC4F81835062708232846337044
:102520007770FFF7C1FF654BC4F8283501220421FD
:10253000B270F7700220C4F82455C4F82055C4F8CE
:102540003835317103217771C4F83455C4F83055EA
:10255000C4F8583531727772C4F85455C4F85055E0
:10256000C4F84835B071F771C4F84455C4F8405503
:10257000C4F868350523B372514BF772C4F864553B
:10258000C4F86055C4F8F015C4F8F455C4F8302602
:10259000C4F82C364B4BC4F8F855C4F8002519681C
:1025A000E260D4F81021002AFBD00022C4F81021E8
:1025B000D4F80024012AFBD01960434B402283F851
:1025C00007238022C3F880211A600223C4F8043351
:1025D00001232360364BD3F80021002AFBD00022D0
:1025E000C3F8002104F0E2FE20B1384A40F2151190
:1025F00004F068FA364A92E8030002AB83E803006D
:1026000000221946334805F055FB20B12F4A4FF4FC
:10261000907104F057FA2F4C2368D3F8102500214D
:10262000A020D2B220FA02F200912046012305F048
:10263000D6FB204605F0AAFB2468274804F5A074C1
:1026400005F0A8F820B1214A4FF4977104F03AFA46
:10265000214B224A1878214605F0C8F820B11B4AC0
:1026600040F2331104F02EFA1D4805F093F820B122
:10267000164A40F2391104F025FA194D0C4A19494D
:10268000287805F0B3F80446287805F0CFF82CB187
:102690000E4A40F23F11204604F014FA124B012278
:1026A0001A7005B0F0BD00BFC48B0220A09D0220AF
:1026B00000700040CA8B02200004170100031001C3
:1026C000C08B02204076004000E100E0B11D010017
:1026D000941C01001C000020C98B022004700040E3
:1026E000C88B022004710040C28B022070B50F4BD2
:1026F0000F4D104E80220024C3F880202C802B88A0
:10270000B3F5FA7F08D3094B80221A604FF4FA70B0
:10271000B4FBF0F080B270BDFFF78CFCB6F900306E
:102720001C442B8801339BB22B80E8E700E100E0DA
:10273000D68B0220C08B022038B5094C05460121FA
:10274000204605F023FA022301220649284605F017
:10275000C7F995E8030084E80300002038BD00BFF6
:102760006C8D0220281E010038B5094C0546012158
:10277000204605F00BFA022301220649284605F0FF
:10278000AFF995E8030084E80300002038BD00BFDE
:102790006C8D0220181E010070B505280FD8DFE8E7
:1027A00000F003080F2036472948BDE87040FFF7C6
:1027B000C3BF284C201DFFF7BFFF0123237370BD4B
:1027C000244C0121201D05F0E1F92378012B04D1CF
:1027D0002148FFF7C9FF0023F0E7022BFBD11F4878
:1027E000F7E71C4E3446022504F8045B012120461D
:1027F00005F0CCF9337B0BB11848D6E72846FFF734
:10280000CBFF164B93E8030084E80300D7E7114D94
:102810002C46012104F8041B204605F0B7F92B7B58
:102820000BB10D48C1E70220FFF7B6FF0A4BE9E7FD
:102830000B4C0A4D0121204605F0A8F90949022355
:102840000122284605F04CF995E80300DCE700BFBB
:1028500030000020688D0220280000203800002071
:102860006C8D0220081E01001FB540F207420023B4
:10287000ADF808202549CDF80A3040F6C412ADF86D
:102880000E30ADF80C2032339BB221F8023BD01A47
:102890009342A1F86200F6D11D4B3222002123F8A9
:1028A000021B013A92B2A3F86210002AF7D16FF02E
:1028B000DA0301A91748019305F052F818B1164A36
:1028C000B22104F0FFF86FF45943002201A9134824
:1028D000019305F045F818B10F4AB82104F0F2F859
:1028E0006FF45803002201A90D48019305F038F850
:1028F00018B1094ABE2104F0E5F80A4B01221A700A
:1029000000221A7305B05DF804FB00BFA08C022002
:10291000D88B022038000020EC1D01003000002080
:1029200028000020688D022010B507F0ADF860B9CE
:1029300007F072F8044618B1054A0D2104F0C2F8F8
:10294000044B01221A70204610BD0024F8E700BF96
:102950003B1E0100788D022008B50121002007F000
:1029600019F90121084607F015F901211A2007F08D
:1029700011F901211B20BDE8084007F00BB9000048
:1029800007B51D4B1B78A3B31C4B1A88ADF8042068
:1029900000229B788DF8063001A9104607F07EF8DA
:1029A00018B1174A1F2104F08DF8002201A9012057
:1029B00007F074F818B1124A212104F083F80022BC
:1029C00001A91A2007F06AF818B10D4A232104F072
:1029D00079F8002201A91B2007F060F818B1084A15
:1029E000252104F06FF8FFF7B7FF002003B05DF872
:1029F00004FB0820FAE700BF788D0220381E010092
:102A00003B1E01004FF0A043D3F810050B4B1840BC
:102A100003280ED005D878B101280CBF012007206B
:102A20007047074A904206D098420CBF0420072006
:102A30007047022070470320704700BF0300000C5E
:102A40000300000410B50FC8034C84E80F00034BCB
:102A500001221A7010BD00BFA49D0220798D0220B2
:102A60007FB5184B1B780546144643B3890001F027
:102A70000C01C2F3012341EA0011194300238DF830
:102A80000C108DF80D20009303AA02232C210E4870
:102A900005F094FC064618B10C4A662104F012F8C1
:102AA0000B4B0C480C49C01AC008000440F004004D
:102AB00023462A4601F075FCF0B204B070BD082030
:102AC000FBE700BF798D0220A89D0220551E010062
:102AD0004827010088270100761E010008B551BB78
:102AE000154B16481649C01AC008000440F00300F0
:102AF00001F04AFC01F096FC01F0E0FA0028FBD15D
:102B00004FF0A0430322C3F848274FF48022C3F8B4
:102B10000C254FF08043B122C3F81C25BFF34F8F23
:102B20000849094BCA6802F4E0621343CB60BFF363
:102B30004F8F00BFFDE708BD48270100B027010007
:102B4000961E010000ED00E00400FA052DE9F047B3
:102B5000274D2A78002A48D126482749274B284E56
:102B60001A72091A59605A72DA721A735A739A737E
:102B7000DA7307214FF08052186099721169596118
:102B8000526920484A431A6107F01AFB4FF0610866
:102B9000471C34184FF02D094FF0300A304607F02B
:102BA0000FFB874207D3184802F092FD08B90123B2
:102BB0002B70BDE8F087637823F02002413A192A90
:102BC0000FD92B3BDBB20E2B05D847F6ED7222FA5C
:102BD00003F3DA0705D4B8F12D0F14BF4B46534663
:102BE000637014F8018F0137D8E70020E1E700BFD8
:102BF0007A8D022000100000182801008C8D022020
:102C000040000020F01E0100CC1E01001F2886BFDE
:102C100000F01F00044B4FF0A04300F5E0700022CD
:102C200043F82020704700BF000300501F2886BFD4
:102C300000F01F00044B4FF0A04300F5E0700322AA
:102C400043F82020704700BF000300501F2886BFB4
:102C500000F01F00044A4FF0A042012303FA00F0E5
:102C6000C2F80805704700BF000300501F2886BF48
:102C700000F01F00044A4FF0A042012303FA00F0C5
:102C8000C2F80C05704700BF0003005038B524207F
:102C9000FFF7DCFF0620FFF7D9FF0720FFF7D6FF7D
:102CA0002420FFF7C3FF0620FFF7C0FF0720FFF730
:102CB000BDFF2920FFF7AAFF1420FFF7B7FF15205B
:102CC000FFF7B4FF1620FFF7B1FF1720FFF7AEFFA5
:102CD0001420FFF7CBFF1520FFF7C8FF1620FFF7E2
:102CE000C5FF1720FFF7C2FF0020FFF78FFF01206D
:102CF000FFF78CFF1A20FFF789FF1B20FFF786FFE5
:102D00000920FFF793FF0920314DFFF79FFF0A24A9
:102D100045F001054FF47A40A847013CFAD109205B
:102D2000FFF7A4FF0A20FFF781FF0B20FFF77EFFCC
:102D30000C20FFF77BFF0D20FFF778FF0E20FFF739
:102D400075FF0F20FFF772FF1020FFF76FFF1120B4
:102D5000FFF76CFF0A20FFF789FF0B20FFF786FFC4
:102D60000C20FFF783FF0D20FFF780FF0E20FFF7F9
:102D70007DFF0F20FFF77AFF1020FFF777FF11206C
:102D8000FFF774FF0A20FFF761FF0B20FFF75EFFDC
:102D90000C20FFF75BFF0D20FFF758FF0E20FFF719
:102DA00055FF0F20FFF752FF1020FFF74FFF1120B4
:102DB000FFF74CFF2D20FFF739FF0820FFF736FF04
:102DC0002D20FFF743FF0820BDE83840FFF73EBF46
:102DD000201F01001F2886BF00F01F00044A4FF08B
:102DE000A042012303FA00F0C2F80805704700BFB3
:102DF000000300501F2886BF00F01F00044A4FF058
:102E0000A042012303FA00F0C2F80C05704700BF8E
:102E10000003005010B540F68C24844238BF0446AD
:102E200041F27C5084420D4A0D4B28BF0446624358
:102E3000B2FBF3F2C2F5BD52013240F6055302EB8C
:102E40000222B2FBF3F2C2F580720021013292B28B
:102E50000846FFF705FE034B1C8010BDC814050093
:102E60001009050070000020B0F5C87F38B538BFE4
:102E70004FF4C87041F288339842114A28BF18466F
:102E80004243104BB2FBF3F2C2F55962073240F6EF
:102E9000055302EB0222B2FBF3F2C2F5807201325B
:102EA000044692B200210120FFF7DAFD054618B171
:102EB000054A772103F006FE044B1C80284638BDE6
:102EC000605B030010090500261F0100720000204E
:102ED00038B50546FFF7CEFA04460520FFF7E4FAB9
:102EE000FFF704FC4FF4E1635843401300EB80000C
:102EF0002880FFF7BFFA2046FFF7D6FA002038BD3A
:102F00002DE9F84F064600F5AF7080B2FFF782FF5B
:102F10003046FFF7A9FFFFF7ADFADFF8CC802C4D64
:102F200082460320FFF7C0FAFFF7E0FB98F9004064
:102F3000284B2949041BED1AA4B24FF4E16909FB9F
:102F400004F4ED0864132D0445F0040504EB840437
:102F500032462846A4B201F01BFA22461F492846F1
:102F600001F016FAB3460027301B06F033FF08289D
:102F700017DD5C4527D9ABF1020B1FFA8BFB5846D6
:102F8000FFF772FFFFF7B2FB98F90040041BA4B2F1
:102F900009FB04F46413013704EB8404652FA4B225
:102FA000E2D1224628460E4901F0F2F93A460D498F
:102FB000284601F0EDF9FFF75DFA5046FFF774FA85
:102FC0000020BDE8F88FDAD20BF1020BD5E700BF85
:102FD0008827010048270100451F0100591F0100F3
:102FE0006E1F0100891F0100A48D0220012810B569
:102FF00004460DD0062014B1022C13D010BDFFF7EB
:10300000E9FE0720FFF7E6FE0A4B00201C70F5E7FB
:103010000720FFF7DFFE0620FFF7ECFE0420FFF796
:10302000BBFBF1E7FFF7D6FE0720FFF7E3FE032027
:10303000F5E700BFA58D022038B50D461446FFF711
:1030400001FD4FF47A60FFF7E5FE18B1134AD8216D
:1030500003F038FD2846FFF7C9FF18B10F4ADA21FF
:1030600003F030FD40F6B830FFF7FEFE18B10B4A12
:10307000DC2103F027FD1E2200210720FFF7F0FCD2
:1030800018B1064ADE2103F01DFD642C88BFC4F18F
:103090006404034B64B21C7038BD00BF261F0100DE
:1030A000A48D022008B5D0B1124B1B78022B0DD194
:1030B0000620FFF78FFE0720FFF79CFE2420FFF776
:1030C00099FE0120BDE80840FFF766BB012BF5D152
:1030D0000620FFF78FFE0720FFF77CFEEEE7242097
:1030E000FFF778FE0620FFF775FE0720FFF772FE58
:1030F0000220E7E7A58D022018B1034B18600020DD
:1031000070470720704700BFA88D022008B5024B0A
:103110001B689847002008BDA88D022000F5E070CC
:103120004FF0A043002243F82020704708B5D8B1E3
:103130000E4B18600A20FFF7F1FF0B20FFF7EEFFA0
:103140000C20FFF7EBFF0D20FFF7E8FF0E20FFF745
:10315000E5FF0F20FFF7E2FF1020FFF7DFFF112050
:10316000FFF7DCFF002008BD0720FCE7B49D02202C
:103170004FF0A043034AD3F810351268C3F38723F6
:1031800013607047B49D02207FB500238DF80D00B9
:10319000022203A904A88DED010A8DF80C3006F077
:1031A00051FE04220DEB02010DF1120006F04AFE61
:1031B000062204A9012000F073FB18B1034A1C2168
:1031C00003F080FC07B05DF804FB00BFA81F0100FE
:1031D00030B585B01446002305468DF80110022253
:1031E000694601A88DF8003006F02CFE22462946DB
:1031F0000DF1060006F026FEA21CD2B201A90120A4
:1032000000F04EFB18B1034A302103F05BFC0020B4
:1032100005B030BDA81F010000F030BB08B500208C
:103220002DED048BF0EE609AB0EE419AF0EE618ADB
:10323000B0EE428AFFF7A8FFB0EE690A0420FFF75C
:10324000A3FFB0EE490A0820FFF79EFFB0EE680A20
:103250000C20FFF799FF1020B0EE480AFFF794FF0B
:10326000BDEC048B002008BD84B008B50DF1080C3E
:103270008CE80F003C209DED020AFFF785FF9DEDD5
:10328000030A4020FFF780FF9DED040A4420FFF76A
:103290007BFF9DED050A4820FFF776FF9DED060AAE
:1032A0004C20FFF771FF9DED070A5020FFF76CFFE0
:1032B0009DED080A5420FFF767FF9DED090A58208D
:1032C000FFF762FF9DED0A0A5C20FFF75DFF6020BB
:1032D0009DED0B0AFFF758FFBDE80840002004B041
:1032E000704784B008B50DF1080C8CE80F0014206D
:1032F0009DED020AFFF748FF9DED030A1820FFF736
:1033000043FF9DED040A1C20FFF73EFF9DED050ADB
:103310002020FFF739FF9DED060A2420FFF734FF38
:103320009DED070A6420FFF72FFF9DED080A682036
:10333000FFF72AFF9DED090A6C20FFF725FF9DEDA1
:103340000A0A7020FFF720FF74209DED0B0AFFF79B
:103350001BFFBDE80840002004B0704708B52820D6
:103360002DED048BF0EE609AB0EE419AF0EE618A9A
:10337000B0EE428AFFF708FFB0EE690A2C20FFF793
:1033800003FFB0EE490A3020FFF7FEFEB0EE680AF8
:103390003420FFF7F9FE3820B0EE480AFFF7F4FEBC
:1033A000BDEC048B002008BD07B501228DF8070095
:1033B000FC210DF10700FFF70BFF002003B05DF8C3
:1033C00004FB07B501228DF807007C210DF10700F1
:1033D000FFF7FEFE002003B05DF804FB07B50122F5
:1033E0008DF80700FE210DF10700FFF7F1FE002028
:1033F00003B05DF804FB07B502228DF80700FB213E
:103400000DF10700FFF7E4FE002003B05DF804FBB8
:1034100007B50222ADF8060078210DF10600FFF78E
:10342000D7FE002003B05DF804FB08B52030800013
:1034300000F0FC00FFF7A8FE002008BD10B5022335
:1034400004228021044600F063FA18B11A4AA72129
:1034500003F038FB042202238421A01800F058FA5C
:1034600018B1154AA92103F02DFB0223042288215B
:1034700004F1080000F04CFA18B10F4AAB2103F038
:1034800021FB022304228C2104F10C0000F040FAFD
:1034900018B1094AAD2103F015FB02230422902143
:1034A00004F1100000F034FA18B1034AAF2103F020
:1034B00009FB002010BD00BFA81F010008B50223B2
:1034C0001A46782100F024FA18B1034AB62103F015
:1034D000F9FA002008BD00BFA81F010008B50223AB
:1034E0001A46FB2100F014FA18B1034ABC2103F07C
:1034F000E9FA002008BD00BFA81F010008B501229D
:103500000223FC2100F004FA18B1034AC22103F09F
:10351000D9FA002008BD00BFA81F010008B501228C
:1035200002237C2100F0F4F918B1034AC82103F00A
:10353000C9FA002008BD00BFA81F010007B500237D
:103540008DF8073001220223FE210DF1070000F063
:10355000DFF918B1054ACF2103F0B4FA9DF807004E
:10356000431E5842584103B05DF804FBA81F0100F8
:1035700010B5022304220021044600F0C9F918B155
:10358000194ADC2103F09EFA042202231146A018F6
:1035900000F0BEF918B1144ADE2103F093FA0821B5
:1035A00002230422601800F0B3F918B10E4AE0219A
:1035B00003F088FA0C2102230422601800F0A8F915
:1035C00018B1094AE22103F07DFA102102230422F6
:1035D000601800F09DF928B1034AE421BDE81040CD
:1035E00003F070BA10BD00BFA81F010010B5022380
:1035F00004221421044600F08BF918B1384AEB215B
:1036000003F060FA042202231821A01800F080F9C8
:1036100018B1334AED2103F055FA022304221C218C
:1036200004F1080000F074F918B12D4AEF2103F0FD
:1036300049FA02230422202104F10C0000F068F969
:1036400018B1274AF12103F03DFA02230422242174
:1036500004F1100000F05CF918B1214AF32103F0E5
:1036600031FA02230422642104F1140000F050F91D
:1036700018B11B4AF52103F025FA02230422682120
:1036800004F1180000F044F918B1154AF72103F0CD
:1036900019FA022304226C2104F11C0000F038F90D
:1036A00018B10F4AF92103F00DFA02230422702108
:1036B00004F1200000F02CF918B1094AFB2103F0B5
:1036C00001FA02230422742104F1240000F020F9FD
:1036D00028B1034AFD21BDE8104003F0F3B910BD45
:1036E000A81F010010B5022304222821044600F07F
:1036F0000FF920B11D4A4FF4827103F0E3F904225F
:1037000002232C21A01800F003F920B1174A4FF42E
:10371000837103F0D7F902230422302104F1080059
:1037200000F0F6F820B1114A4FF4847103F0CAF9A1
:1037300002230422342104F10C0000F0E9F820B146
:103740000A4A4FF4857103F0BDF90223042238219F
:1037500004F1100000F0DCF830B1044A4FF4867137
:10376000BDE8104003F0AEB910BD00BFA81F0100B6
:1037700010B5022304223C21044600F0C9F820B110
:103780003D4A4FF48A7103F09DF90422022340213F
:10379000A01800F0BDF820B1374A4FF48B7103F048
:1037A00091F902230422442104F1080000F0B0F84A
:1037B00020B1314A4FF48C7103F084F902230422C2
:1037C000482104F10C0000F0A3F820B12A4A4FF47C
:1037D0008D7103F077F9022304224C2104F11000CB
:1037E00000F096F820B1244A4FF48E7103F06AF984
:1037F00002230422502104F1140000F089F820B1C2
:103800001D4A4FF48F7103F05DF902230422542105
:1038100004F1180000F07CF820B1174A4FF49071C1
:1038200003F050F902230422582104F11C0000F097
:103830006FF820B1104A4FF4917103F043F902235D
:1038400004225C2104F1200000F062F820B10A4A51
:103850004FF4927103F036F902230422602104F13F
:10386000240000F055F830B1034A4FF49371BDE8DD
:10387000104003F027B910BDA81F010010B540B1DA
:103880000FC8054C84E80F00044B01221A70002079
:1038900010BD1020FCE700BFA49D0220AC8D0220CB
:1038A000F7B5174B1B780F46154623B329B383187A
:1038B000B3F5807F21DC02B300F00F001044102824
:1038C0001BDC104E0A2446F001064FF47A40B04744
:1038D000013CFAD12B4600943A4650210A4804F0A4
:1038E0006DFD034620B1094A4F2103F0EBF8234652
:1038F000184603B0F0BD0823FAE70723F8E700BF36
:10390000AC8D0220D01F0100A89D0220D61F01000F
:10391000F0B514461E4A127887B00746A2B3A8B382
:103920000A19B2F5807F31DC84B301F00F00204426
:1039300010282BDC00228DF8082006AA8DF809102B
:10394000D11A0E391A4603A8124E06F07BFA0A2540
:1039500046F001064FF47A40B047013DFAD1012309
:10396000009303AA022350210B4804F027FD18B14D
:103970000A4A672103F0A6F823463A465021064832
:1039800004F032FD07B0F0BD0820FBE70720F9E79F
:10399000AC8D0220D01F0100A89D0220D61F01007F
:1039A000083810B506283BD8DFE800F00819273A98
:1039B0003A3A0400BDE8104001F03ABE194B1A48EB
:1039C0001A49C01AC008000440F0030000F0DCFCF3
:1039D00005F0E6F920BBBDE8104001F027BE114B11
:1039E00011481349C01AC008000440F0030000F059
:1039F000CBFCBDE8104001F061BE01F01BFE094B9D
:103A000009480C49C01AC008000440F0030000F047
:103A1000BBFC094B00211B680220BDE81040184781
:103A200010BD00BF48270100882701004C2001007D
:103A30005F200100712001003C8E022070B50C4611
:103A400090B0032928D8DFE801F0023317291F4E70
:103A50001F4D32781D4910AB2344284603F8402CF3
:103A600001340122E4B202F03BFE0028F1D02146ED
:103A70006846FFF74BFB0FE0164B174801241C70FC
:103A800000F009F911491248224602F029FE134BB1
:103A90001B6800210846984710B070BD0D4B0E48BA
:103AA00000221A7000F0F7F80C4B01211B68F1E7B7
:103AB0000A4B00211B6804209847094B0648402206
:103AC000C3F80C2500F0E7F8E6E700BF398E0220C6
:103AD000F41F0100388E0220780000203C8E022066
:103AE0000003005038B50C46054658B351B316488C
:103AF00000F0D1F8154B20461D60FFF7FDFA01F0EC
:103B0000ADFB134801F0FEFC18B1124AA42102F0EB
:103B1000D9FFFFF71BF818B10E4AA72102F0D2FF18
:103B20000D4801F0D5FD18B10A4AAC2102F0CAFFD8
:103B300001F05EFD044618B1064AB12102F0C2FF51
:103B4000204638BD0724FBE7780000203C8E022089
:103B50004020010018200100F41F0100F8B51E4D9F
:103B60002B7806460F4603F0FF0493B92046F8BDB4
:103B7000013B116889B9002BFAD1012317482B703A
:103B800000F089F8164B02211B68052098470D2488
:103B9000ECE74FF0FF33114AEBE7002BEDD00F4875
:103BA00000F07FF83A4631460E4802F07BFD0828C7
:103BB00004460AD1002409482C7000F06CF8084B28
:103BC0001B68032101209847D0E70028CED0044B82
:103BD00004211B680520F6E7388E022078000020BB
:103BE0003C8E0220F41F010038B508480D461446EB
:103BF00000F057F822462946054802F053FD034AD3
:103C00001368002BFCD0204638BD00BF7800002090
:103C1000F41F010050E8002F0B4640E8003C9CF0E8
:103C2000000FF7D11046704750E8003F43EA010209
:103C300040E8002C9CF0000FF6D11046704750E889
:103C4000002F02EA010340E8003C9CF0000FF6D18F
:103C50001046704750E8003F03EA010240E8002C9C
:103C60009CF0000FF6D11046704750E8003F03EB80
:103C7000010240E8002C9CF0000FF6D1104670477E
:103C800050E8003FA3EB010240E8002C9CF0000F3D
:103C9000F6D1104670470121FFF7C6BF0021FFF79C
:103CA000CEBF0021FFF7D6BF10B590B1D0E90123F8
:103CB00001689B1ADBB20A60013BDBB2FF2B026892
:103CC00002D10020107110BD11684C1C14600B70E3
:103CD000F2E70E20F7E738B50446002002F03EFF79
:103CE0002268616813688B4215D9591E116013F858
:103CF000015C228AE36802FB05352268A36811682B
:103D00005B1A1179DBB2994200D21371002002F0E4
:103D100027FF284638BD0025F8E738B505460020BE
:103D20000C4602F01BFF2A681368591C1160E968F1
:103D3000641A298AB4FBF1F41C700020BDE83840F5
:103D400002F00EBF7047000007B5044B0093044A11
:103D5000402300F032F803B05DF804FB653D00003D
:103D6000418E02202DE9F84389461446B2B10F4B2B
:103D70000F4E0325002743F00108224609EB0701F7
:103D8000002003F0EBF90744241A48B933782BB12B
:103D90004FF47A40C047013D02D13570BDE8F88349
:103DA00001233370002CE8D1F8E700BF8020010028
:103DB000408E0220704703F005BAF0B595B01C465E
:103DC000164608460D4600F0E7FC1A9B0D93CDE918
:103DD000086400242346082205A928460A948DF881
:103DE0002C400C9400F0F5FC079B0293069B039378
:103DF0009DF814308DF8114003F00302012A1DD103
:103E0000BDF81440059EC3F3C203C4F383148DF8B8
:103E10001030A20008230EA9284600F0DAFCC6F3F1
:103E2000952608AB0093224602AB0EA9304600F05F
:103E300069FB284600F0B4FC15B0F0BD022AF8D1A9
:103E4000BDF81640C3F3C203A4098DF8103008274B
:103E5000082C264628BF08263B4632460EA928468F
:103E600000F0B7FCA41B08AB02AA31460EA83744E9
:103E700000F0ACFB002CEBD1DBE7000008B5FFF74E
:103E80009AFF0421034800F0A3FA034B01225A7160
:103E900008BD00BFC02701007C000020037813F09C
:103EA000040216D003F00303012B03D0022B09D028
:103EB000012070470A6800880232C0F38310024470
:103EC0000A60F5E70B684288023303EB92130B603C
:103ED000EEE71046704700002DE9F04F044685B02C
:103EE000851C00200F46904602F038FE45480668C3
:103EF0003E60D0E90132134401339B1B824600F23D
:103F00001C4600F5836900F21447AB421AD3002225
:103F1000B8F1000F6FD0052363F3070264F3891231
:103F2000DAF80010DAF808300B4003330D444AF891
:103F300023200020CAF8005002F012FE012005B034
:103F4000BDE8F08F01213046FFF78FFE4846FFF7AE
:103F5000A2FE3846FFF79FFEDAF80400DAF808B050
:103F6000009000EA0B0003300AEB80006946FFF77F
:103F700095FF009B50BB0BEA03020AEB820203F1A0
:103F8000020CD2680192013303EA0B0B0AEB8B0B94
:103F900002F00302012ACDF800C0DBF80C1022D099
:103FA000022A16D083463846FFF778FE10B1009BF0
:103FB000CAF8043059463046FFF757FEDAE90123C4
:103FC0001344DAF8002001339B1A9EE70BEA030042
:103FD000C9E7BDF806309B0903334FEA114B0CEBE0
:103FE00093030093DFE7BDF80430C3F383134FEA74
:103FF000114B6344F5E7062363F3070264F39F5212
:104000008EE700BF548F02200B4B0C48FF2210B5E7
:104010009A600022C3F81824C3E90022C3F81424CC
:1040200083F8202400F071FB044610B9044800F026
:10403000DAFB204610BD00BF548F0220FC27010090
:10404000A420010030B50A4C71B10A4A0A49121B7A
:10405000D20800239A4201D1002030BD31F823500C
:10406000854202D00133F5E7034654F83300F4E704
:1040700048270100C02701004C0A0020094B0139E4
:1040800003EBC000032909D8DFE801F00A020406A7
:1040900004207047007970474079704700207047CE
:1040A0000220704748270100034BD3E90030C31AB0
:1040B00058425841704700BF548F02202DE9F04309
:1040C00085B0FFF7F1FF0646002840F0F7807C4DF1
:1040D000C5F81804BFF34F8F6868AC6800902040A3
:1040E000033005EB80006946FFF7D8FE009B18B14E
:1040F000D5F81824002A5FD004EA0302991C013382
:1041000005EB8202234005EB8303D268DB68029350
:1041100002F00303022B0192009162D1BDF8063038
:1041200068484FEA9318B8F1500FC14628BF4FF0C6
:10413000500969F38F1309F10801ADF8063000F05A
:10414000FCFA0746002800F0A48000F025FB01A936
:1041500000230822384600F032FB009924EA0106C9
:104160000136B600B14535D95FFA89F97EB3F6B2AA
:10417000A9EB0609214003315FFA89F4B146524E9A
:1041800005EB810108234A46384600F018FB36B19A
:1041900009F1080322463146384600F010FB009B27
:1041A00008F1030803EB98030093D5F81834002BAB
:1041B0004BD1D5F810445BE02A689A4204D86A6073
:1041C000304605B0BDE8F08304EA030088E73E49C5
:1041D0003446D7E72140033108234A4605EB8101E5
:1041E000DAE7012B55D1BDF804303648C3F383110B
:1041F000062928BF062161F3891302318900ADF831
:10420000043000F09AFA0746002842D000F0C4FAC1
:104210000023082201A9384600F0D1FA0026BDF893
:104220000420C2F38312B300964203F10803BCD208
:1042300000994A1C21400331009205EB81010422C0
:10424000384600F0BCFA0136E9E7384600F0A8FA33
:10425000FFF72AFF80F00100C6B2B1E7E3685B799F
:1042600023B1236839461B6820469847E3681C68D9
:10427000002CF3D1384600F093FA204602F06EFC91
:10428000D5F818340BB9009B6B60002002F068FC75
:10429000DEE7D5F8104454B90C4B0D480D49C01A4F
:1042A000C008000440F0020000F06EF8D0E7236878
:1042B00020469B689847E3681C68ECE700267FE788
:1042C000548F0220FC270100608F02204827010044
:1042D00088270100B02001002DE9F74F284C8046C7
:1042E0000F46924601A9012218469B46D4F8089031
:1042F000FFF7F2FD80B3019D0026A91C5E4506EB89
:10430000010233D100211F48FFF784FC80F3100025
:104310006A1C02EA090204EB8202000405EA0903AE
:10432000033340EA1840D06014F8232068F3C50234
:1043300004F8232034F8232066F3891224F823207C
:1043400054F8232067F39F2244F8232002F0F80258
:1043500042F0010204F8232094F820341BB1FFF747
:10436000ADFE0028FBD103B0BDE8F08F09EA0202E0
:1043700004EB82025AF82630D3600136BEE700BF54
:10438000548F02207093022000231A46FFF7A4BF27
:1043900007B50123019201AAFFF79EFF03B05DF864
:1043A00004FB07B5CDE9002302236A46FFF794FF1B
:1043B00003B05DF804FB1FB5CDE90123069B039311
:1043C00001AA0323FFF788FF05B05DF804FB000096
:1043D00030B5134AD2F810440023214651B9C468BD
:1043E0002371D2F810445CB9C2F81004C26811609D
:1043F000184630BDC9680D799D420AD00968EDE7BD
:10440000E468C16824680C60D2F81024D268106097
:10441000EEE701330A2BE0D14FF0FF33E8E700BFAE
:10442000548F022038B5094A0123D2F8104482F88B
:1044300020341D4604B938BDE3685D712368204609
:104440005B689847E3681C68F4E700BF548F02205C
:1044500010B5037A052B0C460FD0437A23B1084AD6
:104460000849204602F0EAFD0749204602F0E6FD31
:104470002046BDE8104002F0D6BD002AF8D0F3E790
:10448000FB20010000210100ED18010073B5C38875
:1044900004460D4633B1144A00921449144A284682
:1044A00002F0CCFD217A05291CD0637A4BB1A0889B
:1044B000FFF7E4FD0F4B104953F82020284602F087
:1044C000BDFD227A0D4BA08853F822600021FFF732
:1044D000B9FD0B4903463246284602B0BDE870409C
:1044E00002F0ACBD02B070BDFB2001000B21010049
:1044F00003210100C820010000210100302101003A
:10450000232101002DE9F04385B01F460C9D0023B7
:1045100006460C46904695F80C902B732946384673
:10452000FFF7B4FFB8F1060F09D8DFE808F004126E
:10453000181F283340003146284602F07FFD002234
:1045400029463846FFF784FF85F80C9005B0BDE892
:10455000F08322683146284602F070FDEFE7D4E987
:1045600000233146284602F069FDE8E7A36800937E
:104570003146D4E90023284602F060FDDFE7E36816
:104580000193A36800933146D4E90023284602F042
:1045900055FDD4E723690293E3680193A368009370
:1045A0003146D4E90023284602F048FDC7E7636995
:1045B000039323690293E3680193A3680093314650
:1045C000D4E90023284602F039FDB8E708292DE98F
:1045D000F84F80460E4617461C463BD8002593F8F8
:1045E0000C901D7319461046FFF750FFDFF88CA0A2
:1045F000DFF88CB0AE422FD918F805205946204676
:1046000002F01CFD0135082DF4D11949194DDFF8D0
:1046100074B0204602F012FD4FF0000A564522D930
:1046200018F80A207E2A1CD812F80B1011F0970FE8
:1046300008BF2E221049204602F000FD0AF1010AAF
:10464000BAF1080FEAD1012221463846FFF700FFF0
:1046500084F80C90BDE8F88F5146204602F0EEFC3D
:10466000D0E72E22E6E72946204602F0E7FCE5E700
:10467000F6200100F4200100F8200100F2200100E2
:10468000EC2001009D2401002DE9F047B0F80690D0
:104690004479D2F800A09DF8208009FB04F4043C82
:1046A00006460AEB0300A0420F4688BFA4EB030AAC
:1046B000191DC2F800A0B1FBF9F509FB15114DB9A0
:1046C000A9EB0104544528BF5446BAF1000F04D1A8
:1046D000BDE8F0873668013DF1E704317B197018B9
:1046E0002246B8F1000F0ED001461846AAEB040A84
:1046F00005F0A8FBD145254436684C464FF0000133
:1047000028BF5446E1E71946F0E7FFF7CDBAF8B500
:1047100046790146721E0546002393422D6803D355
:104720000024A64202D8F8BD0133F6E70F682846F8
:10473000FFF7F3FA01343946F3E72DE9F843CD1CCE
:10474000068A0746FFF7C7FA043E35440446B5FB20
:10475000F6F5F0B14FF48073EDB28380C680013D71
:10476000076081464FF00008A84512D23846FFF78F
:10477000B2FA064648B163790133637108F1010862
:10478000C9F8000007608146EEE72046FFF7BFFF4B
:1047900034462046BDE8F88301210430FFF765BAAE
:1047A00010B5012104460430FFF76AFA10F0FF0F3C
:1047B00004D12046BDE81040FFF7A9BF10BD1FB5CA
:1047C00003920022009203AAFFF75EFF05B05DF896
:1047D00004FB1FB503920122009203AAFFF754FFC6
:1047E00005B05DF804FB8268002393608268136162
:1047F000826853618268D360826853608268136004
:1048000070470000024B4FF43C6043F0010318472F
:10481000A021010038B50C4B0C4C4FF40032C3F80A
:10482000802001254FF48033C4F84833C4F808339E
:104830006560FFF7E7FF064BA56000241C60FFF7EB
:10484000E1FF044B1C7038BD00E100E000100140A6
:104850002C9502201D950220F8B51F491F4B0025FD
:10486000C1F84051C1F84451C1F84851C1F84C5108
:10487000C1F80051C1F804511B684BB3D1F804458D
:1048800017490968641A24F07F442F461A68A24227
:1048900009D8A41A15441A7CDE691AB11F74D3E929
:1048A00005209047AEB90F4A0F4B11781B788B4209
:1048B00005D10133DBB2022B08BF0023137012783D
:1048C0000A4B43F822500A4B4FF48012C3F80021E0
:1048D000F8BD3346DAE700BF0010014030950220F2
:1048E0002C9502202995022028950220209502204F
:1048F00000E100E02DE9F04FA14AA24913780978C0
:10490000A14D994285B03CD00133DBB2022B08BFE8
:10491000002313709D4912789D4B0F6853F82200B5
:104920003B1823F07F4300220B602B681646144689
:10493000944613B942B12B6006E0196881420ED942
:1049400002B12B60091A196001272B68DFF848A211
:1049500001934FF00008BEB9DFF844B266E0401A98
:104960000C44D968C3F800C0D3F81CE031B13A193F
:1049700022F07F42C3E90121DE611E460122734617
:10498000D7E700263746E0E73446F6697F4A636892
:104990001268DFF810C2A068991A21F07F416145C2
:1049A00000F2A68001442160012222742A680023BB
:1049B000C4E90133E361002A40F0A3802C60CAE718
:1049C0005A1C9BF80210D2B291428BF8002004BF0F
:1049D00000228BF80020182202FB03B31A799C688E
:1049E000022A1CD0032A12D0012A1FD1207CE8B948
:1049F000D96861601A69A2605A69E2609B69A36123
:104A0000644B1B78002B18BF01466160BEE7002293
:104A10002B681146002B67D142B12B6006E0296854
:104A20000A468946002A5AD1002323749BF8003095
:104A30009BF801209A42C3D12B68B8F1000F04D132
:104A4000019A9A4201D1002F43D0002B73D0D3F8A2
:104A500000A0514D4D4BD5F804751C68DFF8488116
:104A60003E1B98F8003026F07F4603369BB94FF482
:104A70008033C5F84433C5F80433484B4FF4003253
:104A80004FF00109C3F880211A60C5F80090FFF7C4
:104A9000B9FE88F80090B2452CBF5444A41924F004
:104AA0007F44C5F84045D5F80435DB1B23F07F4330
:104AB000E41B033324F07F44A3420AD9D5F804351C
:104AC000C5F84035FFF79EFE344B4FF40032C3F873
:104AD0000021304B00221A7005B0BDE8F08F9442DF
:104AE0002CD09146D2699DE719740122DB6991E7C8
:104AF000D31A23F07F43834234BFC31A00232360B9
:104B000052E721681368994213D8591A1160E2617B
:104B100054E7091AD8691A4638B10346186888421A
:104B2000F7D3401A1860184613462160E061DC6133
:104B300011E71346F2E7FFF76DFECAE74C4511D1C6
:104B4000CB692B6073B9DFF844E00120CDE9021294
:104B5000CAF80800CEF800300E4B1870FFF752FE6E
:104B6000DDE902121368D269C9F81C2012B110687D
:104B7000034413602B68994218BF4FF0010853E7B4
:104B80002895022029950220309502202C9502209C
:104B9000209502201C9502200010014000E100E059
:104BA00010940220FEFF7F001D95022008B5FFF73C
:104BB00031FE104B00200B2218809A700E4B1860AB
:104BC0000E4B18700E4B18700E4B4FF48012C02114
:104BD000C3F8802183F814131A6002F18042A2F511
:104BE0006F22C2F8080583F81113074BD2F8042589
:104BF0001A6008BD109402203095022028950220EA
:104C00002995022000E100E02C9502200020704749
:104C10002DE9F04F85B04B68009282460C465BB997
:104C20000B681B681B683BB98D682DB9C0E900553E
:104C3000284605B0BDE8F08F04F004FA009BE76851
:104C40009F4228BF1F464FF0000904F1100383461E
:104C50004E46012501934FB3A3686168BB42984655
:104C600028BFB84629B342460BEB060005F0EAF828
:104C700000236360A268E368A2EB0802A3EB0803C9
:104C8000A260E360A7EB0807464402BBB9F1000F3E
:104C900003D02268126812682260D3B12368D3B9A6
:104CA00063601EB1009BB34288BF0025CAE900B60D
:104CB000BEE7002BDED0216801984B680BEB0602A3
:104CC000D3F804904346C8474FF00109D2E7002BC0
:104CD000C1D10025BFE70023029321684B68002261
:104CE000D3F8048002A80123C04708B92061B2E7C5
:104CF000A3680133A360F0E7084B1A7882420CD016
:104D0000052818BF064A187018BF137805481CBF3D
:104D100023F00203137000F03BBE70474095022061
:104D20005C950220D421010008B5002000F02CFD84
:104D30008020BDE8084000F027BD08B5002000F045
:104D400031FD8020BDE8084000F02CBD38B5054697
:104D50000C4604F01BFAA84203BFD4E90001034B40
:104D6000C3E90001102008BF002038BD6095022073
:104D70007FB5C38893421D4628BF154693420E4611
:104D8000144620D9802004F0A5F8B4FBF0F303FB0F
:104D90001040B0FA80F0400903900020CDE9016591
:104DA00001F0DCFE01A9802000F04EFD044620B990
:104DB00006498020FFF7CAFF0446002001F0D0FE1C
:104DC000204604B070BD0020E6E700BF08220100C5
:104DD0002DE9F04F0C78062C87B00E4600F00982C2
:104DE0002CD8022C49D003D8012C3ED00624FAE15D
:104DF000032C3ED0052CF9D1A14D8DF80C400DF1BE
:104E00000D0004F059F92B684BB19E489E4B9F4909
:104E1000C01AC008000440F00200FFF7B5FA0023F2
:104E20002B609DF80D3003F01F07032F00F28981DE
:104E3000DFE817F02D001D017E0165000D2C00F04C
:104E4000C68107D80B2C18D00C2CCFD10020FFF72F
:104E500053FF12E00E2C00F0CA81852CC6D18C4B7A
:104E60001B78032BC2D1042000E00320FFF744FF8E
:104E7000BCE78848FEF712FF08B90024B3E1864B6F
:104E800001221A60BFF36F8FBFF34F8FF5E7C3F3B3
:104E90004116A6BBDB099DF80E1000F0A280062982
:104EA00016D0082900F0908049BB7C4C0222204695
:104EB00005F062F8237843F001022270784A1278F4
:104EC000920744BF43F003032370022273490EE0AC
:104ED0009DF81030022B16D0032B65D0012B0ED17C
:104EE000BDF81330002B00F06F816E4912220DF1D6
:104EF0000D00FFF73DFF0446062C40F02A8103A871
:104F000000F090FC12E1BDF81330002B00F05C8142
:104F1000092B28BF0923984600F046FC4FF00909E9
:104F200004465CBB5D4C60494246204604F08AFF63
:104F30002771A4F8029000F01FFC18B1E37943F048
:104F40002003E37100F030FC584BC3E90004C3F8C0
:104F50000880BDF81320DA60002001F0FFFD5449FD
:104F6000802000F085FC044620B952498020FFF7DC
:104F7000EDFE0446002001F0F3FDBDE701964FF081
:104F8000000A63680022D3F804B02146012301A877
:104F9000D84730B9237A1F442368D144FFB21C6834
:104FA000BFE70AF1010AECE7BDF81330002B00F06F
:104FB0000B81BDF811109DF80F0000F097F9014624
:104FC00000289CD0027892E7314A1278052A03D152
:104FD000324A1370012279E7042A90D12F4B1E70B8
:104FE000F8E703290FD009292BD0012987D1BDF873
:104FF0000F30012B83D100F0BFFB60B1284A13783A
:1050000023F002030FE0BDF80F30012B7FF477AFE0
:1050100000F0B2FB18B90F2404F0B5F8E3E0204A21
:10502000137843F0020313702B68002B00F0CC8040
:1050300004F0ACF8044600287FF41FAF04F062F8D7
:10504000D1E0134B1B78043B012B01D90824E3E783
:105050009DF80F302BB900F087FC0420FFF74CFEC1
:10506000E2E7012B5BD100F06BFC0520F6E701A91C
:105070009DF8110000F09EFB0746E8B91024CBE72D
:10508000609502209827010048270100A621010011
:1050900040950220689502205C7002406C950220C9
:1050A0005C950220F4210100D521010044950220E5
:1050B000202201000822010003AA9DF8041000F03C
:1050C00091FB0628044644D19DF80D2012F0600F94
:1050D000A2D1594B9DF8041018789DF80E30D609CE
:1050E00015D073B10A2B97D10528AFD1384600F0FF
:1050F00021FC5249324608700DF10D00FFF738FED1
:1051000014E00528A2D14D490B800222F4E70B2BB5
:1051100082D105289AD1BDF80F30FF2B01D9072481
:105120007AE79DF80F20384600F0B6FB044610E001
:105130009DF81100070706D19DF80D3013F0600FA0
:105140000BD0062468E703A900F04FFB06280446AD
:10515000F2D0002C3FF468AF5EE79DF80E20364B8E
:105160009DF811401B78012A1CD082B1032AE8D196
:105170002007E6D4BDF80F20002AE2D1052B02D08B
:1051800021077FF463AF204603F060FF4CE7052B57
:1051900002D026077FF45AAF204603F063FF274969
:1051A0000880B2E72207CCD4BDF80F20002AC8D16E
:1051B000052B02D023077FF449AF204603F06CFF94
:1051C000204604F091FA2FE703F0DAFF55E64FF09E
:1051D0008043D3F8384414F0010401D0022036E6AD
:1051E0000120FFF789FD204607B0BDE8F08F0120C0
:1051F0002DE6C8780328F6D0114D2B68D3B10022D4
:105200002A6069689847044600287FF405AF2B6838
:1052100023B1B378002B7FF430AE0FE7094B1B6846
:10522000082B04D1084B1B68002B3FF426AE03F07B
:10523000A7FFD8E70E24EFE6409502206C950220E8
:1052400060950220300100103401001008B14023A5
:1052500003600148704700BF6C95022070B54FF0A5
:10526000805286B0D2F8A830D2F8A42000926FEA1B
:1052700083436FEA93439BB20A4A0B4E0D2102A867
:1052800004F0DEFE02AD002402A804F099FF84427F
:1052900001D306B070BD15F8013B06F8013B01349F
:1052A000F2E700BF28220100B89D022010B50E4B86
:1052B00053F8204023780BB9A01C10BD0020FFF745
:1052C000C5FF013C00235A1CA15C39B9DBB2013394
:1052D0005B00DBB243F440730380EEE7D3B220F807
:1052E00013101346EFE700BF7422010008B9FFF75F
:1052F000DDBF052807D8054A105C20B1044B53F8E0
:105300002030002BF3D10020704700BF8C22010019
:105310007422010043681B6818470000024B5B6859
:1053200003B11847704700BFAC950220020600F099
:105330000F034CBF02480348DB001844704700BF0E
:10534000B89502200096022008B5FFF7EFFF016034
:1053500009B14B681968416008BD0000024B014665
:105360005A681868104700BF009602200378052B82
:105370000CD1084AD2F88434D2F8802412F0FF0FFE
:1053800004D1054ADBB2052B08BF1046034B1B684E
:10539000184700BF0070024040230100AC95022076
:1053A000012806D010B1022805D070470348FFF746
:1053B000DDBF0348FBE70348F9E700BF34230100E2
:1053C000382301003C230100FFF7D0BF0148FFF75D
:1053D000CDBF00BF4423010038B5831EDBB2062BCE
:1053E00098BF1A4A1A4C98BFD25C2378A3F10203E3
:1053F000DBB288BF0022062B9ABF1449CB5C002386
:105400009342054603D0B2B1124801F03BFF022D92
:1054100014D0A5F10800424242412378022B0FD05C
:10542000A3F108014B424B41934202D052B103F029
:10543000FDFC257038BD01F04FFFE8E70122ECE7E5
:105440000123F1E703F0E8FCF3E700BF922201003B
:1054500051960220840000202DE9F04F87B00026ED
:10546000054689469246984602966B6800225C681B
:105470002946012302A8A04740B98DF806000490F0
:1054800004460746BE4203D805202AE00136ECE771
:105490006B680DF10602D3F804B02946012304A875
:1054A000D8476B680DF10702D3F804B029460123F1
:1054B00004A8D8479DF807304B459DF8063015D114
:1054C000544511D1109A136088F8003088F8019083
:1054D0006A68023B5468294608F1020204A8A04702
:1054E000002007B0BDE8F08F0134E4B26A68023BE7
:1054F000D2F804B02946002204A8D8479DF8063007
:105500001F44BFE72DE9F74305462F4803F0A4FCED
:105510000446002839D12D4B18702D4B18602D4BA7
:105520000146186048222C4804F026FD48222146F6
:105530002A4804F021FD2A4B5DBB2A4A1D72C3E9AB
:105540000025002001F00CFF30B1852804D0264A48
:1055500040F2393101F0B6FA244E96F80890002551
:1055600006F10908ECB2A14504D904EB440414EB9C
:10557000080427D10B2301A91C488DF80430FFF73C
:10558000C9FE044608B103F01FFB204603B0BDE886
:10559000F08395E8070083E807000028D1D1114A7D
:1055A0001A60CEE73146E05CFFF7CEFE6378FAB2D0
:1055B000934205D9A3781344DC4207F10107F1D1E6
:1055C0000135CFE70027F1E7C953000051960220CB
:1055D000489602204C960220B895022000960220A0
:1055E000AC95022091590000BE220100C4210100A7
:1055F00010B503F0CDFB10B90823184610BD03F019
:10560000CFFB04460028F7D1064801F0C4FE03464C
:105610000028F2D0044A4FF4677101F053FA234690
:10562000EBE700BF30230100BE22010003F0D6BA31
:1056300003F09ABF2DE9F0411B4B1C4C1C4DDFF8C9
:105640007880E41AE408240444F0020400272B685C
:1056500053B94FF08043D3F8382492071ED515482C
:10566000BDE8F041FFF782BE00260DE001F1090020
:1056700003EB4303D8420ED0C35C934203D04146B0
:105680002046FEF78EFE01362968087AF3B2FA1832
:105690009842D2B2EAD80D681746D8E7D3F8382432
:1056A000D107D8D4BDE8F081482701009027010038
:1056B0004896022045230100FD22010007B5822300
:1056C00001A88DF80430FFF751FE03B05DF804FB2C
:1056D0002DE9F74300F1090490F8089006460025EB
:1056E0002746EBB24B4532D224B394F80180002117
:1056F00006E0E05CFFF71AFE03680131002B37D1AA
:10570000CBB2984503D9A3780B44DC42F1D10135E3
:105710000334E6E73146E85CFFF716FE6B785FFA84
:1057200088F2934205D9AB781344DD4208F10108B1
:10573000F0D10134337AE5B2AB4203D905EB45052C
:105740007D1901D10B4B05E04FF00008E6E700247E
:10575000F0E713681A68002AFBD11E6001A90B2329
:1057600030468DF80430FFF7D5FD03B0BDE8F08377
:105770001120FAE748960220024B1878003018BF33
:105780000120704750960220030710B5044604D448
:1057900003F082FC204603F0A7FF2046BDE810403E
:1057A00003F054BF03F020BF014B1868704700BFDF
:1057B00048960220F0B50A4B1B687BB11D7A002287
:1057C0009E1DD4B2A54201D81B68F5E7013202EB59
:1057D0004207F75D8742F4D101B10C701846F0BD65
:1057E000489602201146FFF795BD08B500F00F035B
:1057F000082B07D8FFF79AFD006818B1BDE80840EC
:10580000FFF788BD102008BD38B5054B05461C685C
:1058100004B938BD29462046FFF77CFD2368F6E72A
:105820004896022038B5074B05461C680CB906207F
:1058300038BD29462046FFF76DFD0628F8D12368BC
:10584000F3E700BF4896022038B504460D4603F042
:1058500046FB48B1054B1B78022B05D12946204653
:10586000BDE8384003F03EBB082038BD5196022009
:1058700038B504460D4603F032FB48B1054B1B78A2
:10588000022B05D129462046BDE8384003F09EBBD7
:10589000082038BD51960220F8B543689B6805463C
:1058A0000C46164613B92EB1072002E09847062889
:1058B000F9D0F8BD2B7AA34213D9093504EB44047F
:1058C0002C446778F3B29F4201D80020F1E7627858
:1058D0009A4208D9A219A378D05CFFF755FF013688
:1058E000F0E77378FFDE00231B78FBE770B54368B1
:1058F000DB6805460C4603B198472B7AA34213D9BF
:10590000093504EB44042C4400256678EBB29E4232
:1059100000D870BD62789A4209D96219A378D05C28
:1059200003F062FE0135F1E700235B78FFDE002320
:105930001B78FBE743681B6903B11847184670479B
:1059400070B5084B1C6804B970BD267A0025E9B211
:105950008E4201D82368F5E700222046FFF79CFF1E
:105960000135F4E74896022070B5084B1C6804B96D
:1059700070BD267A0025E9B28E4201D82368F5E78A
:105980002046FFF7B3FF0135F5E700BF4896022038
:1059900038B50478092C054620D023D8032C00F014
:1059A000BC8012D8012C00F0A68040F28D8003202C
:1059B000FFF712FD0220FFF7B1FC2846FFF724FF96
:1059C0002846BDE83840FFF7C9BC052CF8D0C0F028
:1059D000B380062C00F0CC80082C13D12046FFF7B2
:1059E0009DFC95E0812C0ED005D80F2CF6D0802C94
:1059F00044D00A2CF1E7832C4CD021D3842C53D0F3
:105A0000852CDDD038BD6548FFF7A8FC6348FFF75B
:105A1000FBFE0D20FFF782FCFFF7A6FFFFF78DF9D5
:105A20005F4B1B6853B95F4B187A00F0010003F01D
:105A300085F90120BDE83840FFF7CEBC0120F4E72E
:105A4000FFF792FF03F072FD0020FFF7C5FC5648F8
:105A5000FFF7DAFE5448FFF781FC0E20FFF75EFCEB
:105A6000524B1B78023BDBB2062BCBD8504AD35C9F
:105A7000002BC7D0BDE8384001F02EBC4B4B1B7843
:105A8000062B05D0072B01D0052BBBD10220D1E777
:105A90000820CFE7454B1B78032BB3D103F07EFDE5
:105AA0000028AFD00420C5E7404B1B78032B05D15D
:105AB00003F074FD10B10420FFF78EFC03F07AF9B7
:105AC00000289FD00620B5E7384B1B78032B01D068
:105AD000082B02D13748FFF75BFF0020FFF71EFCC1
:105AE0002F4B1C68002C8DD020462946FFF712FC56
:105AF00023685C68F6E7FFF737FFFFF715F9022028
:105B0000FFF76AFC2046FFF709FC2846FFF726FC52
:105B10002846BDE83840FFF777BE244B1B78082B9A
:105B200006D10220FFF758FC03F08AF90320EAE7C8
:105B30000520FFF751FCF9E70320FFF7EFFB1E48B4
:105B4000FFF70CFC1C48FFF75FFE184B1A78062A7B
:105B50000CD0082A9AD0194B19481A49C01AC00803
:105B6000000440F00200FEF713FC8FE7072061E716
:105B70008078FFF7DBFB29464368006898470028D8
:105B80003FF440AFA87802073FF43CAF03073FF56E
:105B900039AFBDE8384003F059BA00BF46230100D1
:105BA0004C960220AC95022047230100519602201A
:105BB00092220100482301004923010048270100E7
:105BC0009027010099220100C36903B1184770476B
:105BD000036800221A845A62DA62C3E91E22C3E90A
:105BE000202203F134025A6770470000F0B5BE4D21
:105BF0000C7A2C70046840F21E36B44200F0CD825C
:105C000000F2DD80B4F5407F00F0428270D8B4F538
:105C10003C7F00F0008226D840F2ED26B44200F02E
:105C2000DF810AD8002C00F0C981B4F53B7F00F079
:105C3000CD81002303601846C7E140F2EE26B4424E
:105C400000F0DC8140F2EF26B442F2D100240AB128
:105C500006791655013402269C420671C0F0DC819B
:105C60004FF43C73AFE140F2F326B44200F0EC8114
:105C7000B4F53D7F15D240F2F126B44200F0D78151
:105C800040F2F226B442D4D100240AB10679165566
:105C9000013400269C420671C0F0D78140F2F32304
:105CA00091E140F2FA26B44200F0E58140F2FB2691
:105CB000B442BED100240AB1067916558B4E0F7A34
:105CC0003678DFF82CC2B74204F1010440F2558364
:105CD00001F1090706EB460607EB060E9C42BE5D86
:105CE000CCF800E00671C0F0D4814FF440736AE153
:105CF00040F20D36B44200F00A8239D840F206363E
:105D0000B44200F0E0811DD840F20136B44200F008
:105D1000CB8140F20236B4428BD100240AB106791D
:105D20001655734E0F7D36683678B74204F101047C
:105D300040F0E28102269C420671C0F0C58140F22B
:105D4000063340E140F20736B44200F0C881B4F5B2
:105D5000427F7FF46EAF00240AB1067916550134F4
:105D60000026A342067100F2EC8140F216332AE1CC
:105D700040F21636B44200F0E38108D840F20E3605
:105D8000B44200F0D08140F20F36B442E1E7B4F5FE
:105D9000477F00F0EA8100F2F48140F21B36B44202
:105DA0007FF447AF00240AB1067916550134242642
:105DB0009C420671C0F0DA814FF4477303E1B4F5F9
:105DC0004C7F00F054826BD840F22636B44200F08B
:105DD0001C8232D840F22336B44200F0FD81B4F583
:105DE000497F16D240F21F36B44200F0E28140F201
:105DF0002236B4427FF41DAF00240AB1067916554D
:105E0000013424269C420671C0F0E78140F223331E
:105E1000D9E000F0ED8140F22536B4427FF409AFBD
:105E200000240AB10679165501348E7D06719C4214
:105E3000C0F0EC8140F22633C5E040F22B36B4428C
:105E400000F0FC81B4F54B7F16D240F22936B44203
:105E500000F0E78140F22A36B4427FF4EAAE002433
:105E60000AB106791655013402269C420671C0F02B
:105E7000E68140F22B33A6E000F0EC8140F22F36B1
:105E8000B4427FF4D6AE00240AB106791655013427
:105E900024269C420671C0F0EB814FF44C7392E0D3
:105EA000B4F5537F00F0288248D840F23336B4422C
:105EB00000F0F681B4F54D7F1CD240F23136B44289
:105EC00000F0E18140F23236B4427FF4B2AE0024F9
:105ED0000AB10679165501348E7D06719C42C0F0D8
:105EE000E08140F233336EE0549602205396022054
:105EF0005896022040F24736B44200F0F081B4F5E3
:105F0000527F7FF496AE00240AB106791655AF4E43
:105F1000AF4F36683F7896F801C0BC4504F10104E4
:105F200040F2308296F802C03E449C4216F80C6063
:105F30000671C0F0E2814FF4537344E040F25D36E5
:105F4000B44200F0F98115D840F25136B44204D081
:105F500040F25636B4427FF46CAE00240AB10679A2
:105F6000165501344026A342067100F2E68140F244
:105F70005D3328E040F26336B44200F0F481B4F5BA
:105F80005A7F00F0F08140F25E36B4427FF451AEA9
:105F900000240AB1067916558C4E0F7D3668367886
:105FA000B74204F1010440F0D4810E6A9C42367875
:105FB0000671C0F0D98140F2633304E00824047113
:105FC00023B94FF43B7303600120F0BD0AB104799B
:105FD00014700B24012B04710ED840F2ED23F2E76C
:105FE00000240AB10679165501340E7D06719C42D3
:105FF00005D340F2EE23E6E70124F2E700240AB1DC
:1060000006791655013402269C420671FFF41FAE34
:1060100040F2EF23D7E700240AB106791655013480
:1060200002269C42067103D340F2F123CBE7002401
:106030000AB10679165501344E7E06719C42FFF472
:1060400024AE40F2F223BEE700240AB106791655C9
:10605000604E0027013437705E4E37782E78B74295
:1060600002D340F27333AEE70926A342067103D888
:1060700040F2FA23A7E700240AB106791655013445
:1060800004269C420671FFF416AE40F2FB239AE709
:1060900000240AB106791655013400269C42067187
:1060A00003D340F201338EE700240AB10679165576
:1060B000464E36680134767806719C42FFF42EAE67
:1060C00040F202337FE700240AB106791655013405
:1060D00002269C42067103D340F2073373E7002483
:1060E0000AB10679165501344E7E06719C42FFF4C2
:1060F00033AE4FF4427366E78F7DB7427FF430AE24
:106100000A269C42067103D340F20D335BE700245C
:106110000AB106791655013400269C42067103D354
:1061200040F20E334FE700240AB1067916550134C8
:1061300000269C420671FFF40FAE40F20F3342E797
:1061400000240AB106791655204E0F7D3668367840
:10615000B74204F1010440F0A88005269C42067174
:10616000FFF421AE40F21B332DE700240AB106797B
:106170001655013400269C42067103D340F21D33AC
:1061800021E700240AB106791655013410269C42F5
:10619000067103D340F21E3315E700240AB10679D5
:1061A0001655013401269C42067103D340F21F3379
:1061B00009E700240AB106791655013405269C42E8
:1061C0000671FFF41AAE40F22233FCE65896022024
:1061D000559602205396022000240AB106791655DE
:1061E000013401269C42067103D34FF44973EAE659
:1061F00000240AB106791655013403269C42067123
:10620000FFF40FAE40F22533DDE600240AB1067933
:106210001655013404269C42067103D340F22933FB
:10622000D1E600240AB106791655013424269C4291
:106230000671FFF415AE40F22A33C4E600240AB119
:1062400006791655013402269C42067103D34FF499
:106250004B73B8E600240AB10679165501340526B9
:106260009C420671FFF410AE40F22F33ABE60024DF
:106270000AB106791655013406269C42067103D3ED
:1062800040F231339FE600240AB1067916550134F5
:106290000E7D06719C42FFF41BAE40F2323392E653
:1062A00000240AB1067916550134374E36687778DE
:1062B000364E3770364E00273770354E3778334EAE
:1062C0003678B74204D3334F3E7801363E70C3E68A
:1062D0000726A342067103D840F2473373E6002431
:1062E0000AB106791655013405269C420671FFF461
:1062F0000BAE4FF4527366E600240AB106791655C8
:10630000214E0F7D36683678B74204F1010407D17B
:1063100003269C420671FFF421AE40F2513352E64F
:106320008F7DB7427FF41EAE02269C420671FFF4B9
:1063300015AE40F2563346E600240AB106791655EA
:10634000013400269C420671FFF423AE40F25E3316
:1063500039E68F7DB7420BD100269C42067103D3EC
:106360004FF45A732FE600240AB10679165501340A
:10637000074F3E7801363E709FE70023CCF800308F
:106380001B78FFDE0023FBE758960220529602207E
:10639000559602205396022010B5044658B9086855
:1063A000037B202B09D100F10E010722183003F0E6
:1063B00049FD204610BD0320FCE70620FAE74360B4
:1063C000CA699A420DD38A690260C8691A448A610F
:1063D0000A6FC01A1A44C86100300A6718BF01204A
:1063E000704701F1280202608B6700207047037A32
:1063F000012B08D9427B012A00F10C0306D9827BCC
:1064000013445878704700235B78FFDE00231B7825
:10641000FBE700002DE9F0470B7888B006460D46F3
:106420000E2B17D8DFE803F00A080A0A160CA1168B
:106430001608160A0A0A0A00FFF7CAFB002427E01A
:106440004A78D1094FEA521330D013F0030303D036
:10645000012B21D006241BE002F01F02012AF9D1F2
:10646000AC78062CF6D105A80393FEF7EFFE03AB3C
:10647000009307460346EA7829793046FEF7ECFF99
:10648000052805D0039A3946681CFEF771FC0446BE
:10649000204608B0BDE8F087AB78212BDAD1B5F8FB
:1064A0000720072AD6D101681831EDE7012BD1D199
:1064B000AB780768202B36D0222BCBD1B5F807302C
:1064C000002BC7D197F82020B5F803303B8402F0A9
:1064D000010203F001039A429CB2AFD0002C14BF1A
:1064E00002210321FFF770FB002CA7D1337A012B87
:1064F00040F2CE80737B06F10C02002B00F0CA80C4
:10650000B37BD05C02F0F6FE3046FFF770FF02F07E
:10651000F1FE07F134037C62FC62C7E91E44C7E95F
:1065200020447B67B4E7B5F80720072A92D13B7374
:10653000B5F807300024DBB27B7320460E37CDE977
:106540000573079400F00AFB204605A9FFF77CF9C4
:10655000044630B9514B03A9CDE90336FEF7F6FBEB
:106560000446002000F0FCFA92E7037A002B00F0CA
:106570009380837A00F10901002B00F08B80C27AAE
:10658000AB788A5C9A423FF459AF1B06EC780AD587
:1065900024B1032C0CBF0024032479E701213046E9
:1065A000FFF712FB74E7012C3FF448AF67B2002FEE
:1065B000EFD10568FFF71BFF394B059305F10C037D
:1065C0000693AC6A8146BCB9EB6FAC67C5E91F4363
:1065D000EB6A73B105F12C0292E8030005F1240384
:1065E00083E80300EC6205A94846FFF741F9044639
:1065F00000E06C620021D2E7D5F884A0686A5445B7
:1066000028BF544605F134082246414603F01AFCDF
:10661000EB6F2344C5E91F73AAEB0403AB67EB6A76
:1066200044446C672BB305F1240405F12C0898E869
:10663000030084E80300AB6FEF62686A1BB96B6A02
:10664000002BD0D116E0AA6A696F9A4214D803F0E1
:10665000F9FBAB6AAA6FC5F88030D21AAA676A6FD5
:106660001A446A6700213046FFF7AEFAEB6A002B46
:10667000DDD16B620024BDE71A4603F0E3FBAA6F8D
:10668000AB6AEA679B1AAB626B6A13446B62D6E72C
:106690006378FFDE1B78FCE75B78FAE7996300001C
:1066A000BF6300001FB503681B8CDB0711D5037A9D
:1066B000012B10D9437B00F10C047BB1837BCDE926
:1066C0000112E05C002201A90392FFF7BDF804B0BB
:1066D00010BD0820FBE700235B78FFDE1B78FCE79A
:1066E0002DE9F3410468238CDB0780460F461646EC
:1066F00046D5002000F032FA656A002D38D1A16F2E
:10670000B14213D33246616F384603F09BFBA36F4F
:10671000C4F880609B1BA367636F334463670020EA
:1067200000F01EFA284602B0BDE8F081C4E90976FF
:106730004046FFF75CFE134B009304F10C03064642
:10674000019369B10A463846616F03F07BFBA36F82
:10675000A26AD21AA262626AC4E91E531A44626231
:1067600069463046FFF784F8051E08BF9225D6E734
:10677000E36A1BB9C4E90B769225D0E71125CEE771
:106780000825CFE7BF63000070B50D7A0DB101F1A8
:106790000905046840F23916B44200F0E380B4F50C
:1067A0009D7F40D2B4F59A7F00F0AB8020D840F2B4
:1067B0003116B44200F08B80B4F5997F05D2002CDD
:1067C0007FD000230360184680E000F08B8040F209
:1067D0003315AC42F5D100240AB1057915550134C1
:1067E00000259C420571C0F08D804FF49A7377E0CC
:1067F000B4F59B7F00F09D80C0F08F8040F237158C
:10680000AC4200F0A280B4F59C7FDAD100240AB13A
:1068100005791555013400259C420571C0F0A3800F
:1068200040F239135CE040F24115AC4200F0C08008
:10683000B4F5A17F2DD240F23D15AC4200F09F800F
:10684000B4F59F7F0FD2B4F59E7FBAD100240AB170
:1068500005791555013421259C420571C0F09080C1
:1068600040F23D133CE040F23F15AC4200F0938013
:10687000B4F5A07FA5D100240AB1057915550D8A7C
:1068800001342D0A9C420571C0F0938040F24113FF
:1068900026E040F24315AC4200F0A380B4F5A17F9E
:1068A00040F29280B4F5A27F00F0A78040F2451339
:1068B0009C4286D100240AB10379135540F2471354
:1068C0000EE00924047113B90660012070BD0AB1FD
:1068D000047914700424012B047110D84FF49973B7
:1068E0000360F2E700240AB10679165501342D78C9
:1068F00005719C42FFF470AF40F23313F0E70124BE
:10690000F1E700240AB105791555013400259C42B0
:10691000057103D340F23513E2E700240AB105798B
:1069200015550134FF259C42057103D34FF49B7329
:10693000D6E700240AB105791555013401259C429A
:10694000057103D340F23713CAE700240AB1057971
:106950001555013401259C420571FFF458AF4FF4E1
:106960009C73BDE700240AB105791555013409254A
:106970009C420571FFF46BAF4FF49E73B0E70024A7
:106980000AB105791555013409259C42057103D3D7
:1069900040F23F13A4E700240AB1057915550134EC
:1069A0000D8A05719C42FFF467AF4FF4A07397E71F
:1069B00000240AB10579155501344D8A05719C42B0
:1069C00003D34FF4A1738BE700240AB10579155561
:1069D0004D8A01342D0A9C42057103D340F24313C2
:1069E0007EE700240AB10579155501348D8A0571B9
:1069F0009C4203D34FF4A27372E700240AB10579D5
:106A00001555898A0134090A9C420171FFF453AF7C
:106A100040F2451364E7F0B50A780E2A85B00646C1
:106A20000D4615D80123934047F64F041C4003D070
:106A30000024204605B0F0BD9B0609D54A78D1094F
:106A40004FEA521331D013F0030303D0012B1ED0B1
:106A50000624EEE702F01F02012AF9D1AF78062FD3
:106A6000F6D103A80294FEF7F1FB02AB00930446B3
:106A70000346EA7829793046FEF7EEFC0528E7D090
:106A8000029A2146681CFEF773F90446D1E7AB78F9
:106A9000072B04D0082BDBD1C2688169F2E7B5F877
:106AA0000720182AD4D1C169ECE7012BD0D1AA78EC
:106AB000002ACDD102681373036A002BB8D0214697
:106AC0009847B6E700B583B002900091019244F276
:106AD000010071466A46FAF771FF03B000BD00007D
