:020000040000FA
:1000000010860020150200001D0200001F020000E3
:100010002102000023020000250200000000000071
:1000200000000000000000000000000027020000A7
:1000300029020000000000002B0200002D02000039
:100040002F0200002F02000021150000C91000003F
:10005000D51000002F020000E50700009D090000F8
:1000600081140000D11400002F0200002F020000B4
:100070002F0200002F0200002F0200002F020000BC
:100080002F0200002F0200002F0200002F020000AC
:100090002F0200002F0200002F0200002F0200009C
:1000A0002F0200002F0200002F0200002F0200008C
:1000B0002F0200002F0200000000000000000000DE
:1000C0002F0200002F0200002F0200002F0200006C
:1000D0002F0200002F0200002F020000000000008D
:1000E0000000000000000000000000000000000010
:1000F0000000000000000000000000000000000000
:1001000000000000000000000000000000000000EF
:1001100000000000000000000000000000000000DF
:1001200000000000000000000000000000000000CF
:1001300000000000000000000000000000000000BF
:1001400000000000000000000000000000000000AF
:10015000000000000000000000000000000000009F
:10016000000000000000000000000000000000008F
:10017000000000000000000000000000000000007F
:10018000000000000000000000000000000000006F
:10019000000000000000000000000000000000005F
:1001A000000000000000000000000000000000004F
:1001B000000000000000000000000000000000003F
:1001C000000000000000000000000000000000002F
:1001D000000000000000000000000000000000001F
:1001E000000000000000000000000000000000000F
:1001F00000000000000000000000000000000000FF
:10020000DFF80CD000F04EFA00480047ED32000055
:10021000108600200648804706480047FEE7FEE7B4
:10022000FEE7FEE7FEE7FEE7FEE7FEE7FEE7FEE7A6
:10023000E11000000102000040EA01039B0703D027
:1002400009E008C9121F08C0042AFAD203E011F815
:10025000013B00F8013B521EF9D27047D2B201E0D7
:1002600000F8012B491EFBD270470022F6E710B5BB
:1002700013460A4604461946FFF7F0FF204610BD14
:1002800000F0004230F000400AD0C10D01F560716D
:10029000C0F3160042EA0151C208400711437047FB
:1002A00000200146704730B50B4601460020202251
:1002B000012409E021FA02F59D4205D303FA02F573
:1002C000491B04FA02F52844151EA2F10102F1DCD3
:1002D00030BD2DE9F05F0546002092469B468846DA
:1002E0000646814640241BE02846414647462246B2
:1002F00000F0F9F953465A46C01A914110D31146FD
:100300001846224600F0E0F92D1A67EB01084F4627
:1003100022460120002100F0D7F917EB00094E41D9
:10032000201EA4F10104DFDC484631462A4643463C
:10033000BDE8F09F2DE9FE4F804681EA0300C00F23
:100340000C46009021F0004123F00045B8EB02007C
:10035000A94105D24046214690461C460B4602461E
:1003600023F00040104347D0270DC7F30A00C3F322
:100370000A510290401A019040286BDAC3F313002F
:1003800040F4801B0098924620B10023D2EB030A70
:1003900063EB0B0B01985946C0F14002504600F048
:1003A00093F906460D4650465946019A00F0ABF9BE
:1003B00010EB08006141002487EA115284EAE773D8
:1003C0001A4340D0009A62B3019A012A4FEA0752B9
:1003D00015DC001B61EB02014FF0004202EA0752FC
:1003E000CDE90042001C41F5801132462B4600F059
:1003F000ABF903B0BDE8F08F40462146F9E7001B9A
:1004000061EB0201001C41F5801300185B412018CC
:10041000A2F5001747EB030140EAD570B6196D410C
:1004200011E06D084FEA360645EAC0754FEA0752FB
:10043000001B61EB0201001C41F5801149084FEAE5
:1004400030000019514132462B4603B0BDE8F04F51
:1004500000F06BB90098012240000023D0EB0202AB
:1004600063EBE073009821464FEAE074B8EB0000BC
:1004700061EB0401E9E783F000435BE781F00041B1
:1004800058E72DE9FE4F81EA030404F0004421F00F
:10049000004100944FF0000B23F0004350EA0104A8
:1004A0005ED052EA03045BD0C3F30A54C1F30A5589
:1004B0002C44A4F2F3340194A0FB0254C1F31301C1
:1004C00041F48011C3F3130343F4801301FB02448E
:1004D00000FB034E840A970A44EA815447EA835793
:1004E000A4FB076802958D0A05FB07854FEA932C4C
:1004F00004FB0C542705029D4FEA065847EA1637BD
:10050000B5EB08056EEB070C870E920E47EA8117D4
:1005100042EA8312A7FB0201B6EB0B0164EB000475
:100520002B0D43EA0C335E1844EB1C50DA4651465F
:10053000E7FB0201C5F313044FEA0B3343EA1453FC
:100540004FEA0432019C43EA0603A4F10C0402942E
:10055000009CCDE900B400F0F7F803B0BDE8F08FDF
:1005600000200146F9E72DE9F04D81EA030404F08B
:10057000004B21F0004514464FF0000A23F00041E3
:1005800050EA050220D054EA01021DD0C5F30A57F3
:100590000246C5F31303C1F31300C1F30A5640F436
:1005A000801543F48013A7EB0608101BD64608F20B
:1005B000FD3873EB050002D308F1010801E0921841
:1005C0005B41B8F1000F03DA00200146BDE8F08D71
:1005D00000204FF48011064684460EE0171B73EB93
:1005E000050705D3121B63EB050306434CEA010C18
:1005F00049084FEA300092185B4150EA0107EDD1FB
:1006000052EA030012D082EA040083EA050108439B
:1006100005D0101BAB4106D20122002306E00022C8
:100620004FF0004302E06FF0010253101AEB060096
:100630004CEB085110EB0A0041EB0B01BDE8F04D0B
:1006400000F073B8C1F30A52C1F3130140F2FF3353
:1006500041F480119A4202DA00200146704740F2CC
:1006600033439A42A2F2334202DC524200F03BB8DA
:1006700000F02AB830B5041E71F1000404DB4FF01D
:100680000044404264EB0101141E73F1000405DBD9
:100690001C464FF00043524263EB0403994208BFEB
:1006A000904230BD064C074D06E0E06840F0010383
:1006B00094E8070098471034AC42F6D3FFF7A4FD46
:1006C0006044000080440000202A04DB203A00FA45
:1006D00002F1002070479140C2F1200320FA03F399
:1006E000194390407047202A04DB203A21FA02F097
:1006F0000021704721FA02F3D040C2F1200291405C
:10070000084319467047202A06DBCB17203A41FAE6
:1007100002F043EAE07306E041FA02F3D040C2F18E
:100720002002914008431946704710B5141E73F11A
:10073000000408DA401C41F1000192185B411A43A1
:1007400001D120F0010010BD2DE9F04D92469B46ED
:1007500011B1B1FA81F202E0B0FA80F22032904693
:10076000FFF7B2FF04460F4640EA0A0041EA0B01D8
:1007700053465A46084313D0114653EA010019D094
:10078000C8F140025046FFF7AEFF05460E46504600
:1007900059464246FFF798FF084305D0012004E080
:1007A00020463946BDE8F08D0020054346EAE07654
:1007B0002C4337430A986305E40AA0EB08000022A3
:1007C000FD0A44EA47540A3002D500200146E9E711
:1007D000010510196941DDE9084500196941BDE8C5
:1007E000F04DA2E72DE9F04F00258DB00122DFF892
:1007F0009CC1A8464FF480702B461746CDF8085090
:1008000000F1804101F5C0410C460968012908D179
:10081000DCF80413114204D0C4F8008021681543A9
:100820000591001D52005B1C80B2082BE8D358488C
:10083000DFF86091016801290AD1C0F800800068E2
:100840000090D9F8000045F00045D0F8100502905E
:10085000514C15F0FF0F1CBF4FF0010A002619D0B4
:100860001AEA050F11D0B00000F1804101F5C04136
:10087000D1F81005D1F81015C0F3042054F8262043
:10088000C1F30141002A18BF90474FEA4A0A761C7B
:10089000082EE5D315F0004F19BF4FF0FF30CDE91A
:1008A00009800DB0BDE8F08F002594F8443059B2AE
:1008B00023F0C000B1F1FF3F41D00AA9C20800F007
:1008C000070C895C07FA0CF60E4204BF0DB0BDE8B8
:1008D000F08F9909231893F9243054F8233013B179
:1008E000032905D00CE003291CBF0DB0BDE8F08F33
:1008F0000DF1240C1CF802B04BEA060A0CF802A019
:100900004FF0A04C0CEB800CDCF800870DF1080ACE
:10091000C8F301481AF80220164205D0B8F1020FB8
:1009200008D00DB0BDE8F08FB8F1030F1CBF0DB0BB
:10093000BDE8F08F032915D0002B18BF9847002D74
:1009400004BF0DB0BDE8F08FD9F80000D0F8100555
:100950000299884204BF0DB0BDE8F08F029009985B
:100960000A90A1E7B8F1020F14BF02220322DCF8BB
:10097000005725F44035CCF80057DCF8005745EA1D
:100980000242CCF800270125D6E7000000600040B5
:100990007C61004040440000C0500020F0B5A24DF2
:1009A000A2482DED028B81B0296ED0F80421002AD7
:1009B00002BF01B0BDEC028BF0BD0026C0F804619F
:1009C00001270760E87A002808BF6966401CE872C2
:1009D0009748D0F80011002904BFD0F8041100296D
:1009E0001DD0C0F80061C0F8046192490968009107
:1009F000009A11F4006F4FF0030102F4805203D00B
:100A0000002A08BF022102E0002A08BF39462973E4
:100A1000298BE98295ED1C0A85ED1B0A6F73D0F8CE
:100A200008119FED858A00291CBFC0F80861AF73CB
:100A300052D1687B98B1288BE88295ED1C0A85ED30
:100A40001B0A287A002808BF6E7345D0E87B401C3B
:100A5000C0B2E873022804BF6E73EE733CE0B5F9D0
:100A60001C000028B4BF002484B22878012808BFE5
:100A700044F4804411D0022808BF44F400440CD050
:100A8000032814BF042844F4404406D06B4A4FF4B2
:100A900084714FF0000001F0D1FBEC822978B5F9A8
:100AA0001C00012941D0022946D003294DD0042938
:100AB00004BF95ED150AF2EE040A43D05F4A4FF4E5
:100AC0009A71002001F0BAFBB0EE480A85ED1B0ACE
:100AD00085ED1C0AE88A2883287B2870286A01286B
:100AE00005D957A240F23E21002001F0A7FB286A59
:100AF000564B00EBC001564C01EB403103EB410378
:100B000054F82010EA8A23F81120491C44F82010D8
:100B100042F20900814205D349A240F24721002058
:100B200001F08CFBA87B10BB16E000EE100AD5ED9F
:100B3000170AB8EEC00A05E000EE100AD5ED160A55
:100B4000B8EEC00A20EE200AC0E700EE100AD5ED8C
:100B5000150AB8EEC00AF5E795ED0E0AD5ED1B0AA9
:100B6000B8EE400AF4EEC00AF1EE10FA01DBE879C3
:100B700098B3286A44F8206095ED1D0AD5ED1B0A4C
:100B800030EE200A85ED1D0AE97A688A814215D384
:100B900000EE900AF8EE600A80EE201A95ED0C0A3D
:100BA000D5ED0D0A31EE000A30EE600A85ED0B0A34
:100BB00085ED0C8AEF7085ED1D8AEE72687C03F07E
:100BC00057F900282BD001B01C4A4FF4AF71BDEC8F
:100BD000028BBDE8F04001F031BB287C28B1286EC3
:100BE000A8660E2003F0DAF82E74AF73286AA98A7B
:100BF00054F820008842BFD30E2003F0CFF82F74A2
:100C0000286A44F82060C5E90860AF70AE73A8791F
:100C10000028B1D0AE714FF0FF30A863ACE701B04F
:100C2000BDEC028BF0BD0000000000200070004011
:100C3000006000401005005000000000B0430000BC
:100C40002E2E5C6D61696E2E630000003C1000204A
:100C5000280000202DE9F8431E4D0124E84628789D
:100C6000002808BF00F0E8FC05F14807AE6DD5F894
:100C700054900025B14513D2B868801B012838BFB5
:100C8000044625467868224681194046FFF7D4FA83
:100C9000B8682E44A844C5F10104B04208BF00263C
:100CA000A9EB0600844288BF04463CB1786822461E
:100CB00081194046FFF7C0FA25442644002D18BF8D
:100CC0003E61012D0CBF9DF800004FF0FF30BDE8E4
:100CD000F88300007465002010B5064C20780028C9
:100CE00008BF00F0A9FCA06D616D814214BF012016
:100CF000002010BD7465002070B5084B14460D46E9
:100D00001B780646002B08BF00F096FC22462946B9
:100D10003046BDE8704000F003B800007465002064
:100D20002DE9F0411546284A00EB400002EBC000D7
:100D300000F11804C06A38B101281ED002283CD046
:100D400000252846BDE8F0812269E06882429DBF07
:100D5000A368181A1044101A401EA842F0D3E7687E
:100D60008846A068C61BB54219D260682A46384436
:100D7000FFF762FA7819E060E3E72269E0688242EF
:100D80009DBFA368181A1044101A401EA84238BF0D
:100D900005468846E768A068C61BAE42E5D860688D
:100DA00032463844FFF748FAAF1B08EB06013A46D3
:100DB0006068FFF741FAE760C3E72A46204600F083
:100DC0000EFD0546BDE70000746500200FB408B5B0
:100DD00004A900916A46039900F004F801B05DF897
:100DE00014FB00002DE9F04FADF2344D804602A80F
:100DF000CDF8180400274FF48060DFF8C89216463B
:100E00000C46CDF820744FF0080ACDF82884CDF8B0
:100E10002474CDF81C0400BF14F8011B002900F055
:100E20003981252904BF002001210BD00DF58360F5
:100E300000F0B6FCDDF824040028EDDA0DF2344DA4
:100E4000BDE8F08F2278232A08BF40F008000ED0BA
:100E50002B2A08BF40F0040009D02D2A08BF40F01B
:100E6000010004D0302A08BF40F0020002D1641C07
:100E70000029E7D100252178A1F130020A2A07D202
:100E800005EB850201EB4201A1F13005641CF2E79C
:100E90000023CAB22E2A08BF641C0CD12178A1F10C
:100EA00030020A2A07D203EB830201EB4201A1F1CF
:100EB0003003641CF2E76C2914BF682914F8011B85
:100EC000F9D0702973D008DC252971D0582970D049
:100ED000632909D0642910D0DAE073296AD0752912
:100EE00069D0782965D0D3E03068011D3160017880
:100EF0000DF5836000F054FCCAE031680A1D3260D1
:100F000009680DF58362CDF80C34CDF81024CDF8C6
:100F10000814CDF814040029B4BF484208464FF025
:100F2000010B0A2809DB00BF89FB00108110A1EB2F
:100F3000E0700BF1010B0A28F6DA18465B4588BF12
:100F400083464DB1DDF808040028A4BFDDF8140481
:100F500010F0040F18BF6D1EDDF8140410F0020F1E
:100F600000D09BB1DDF8140410F0010F0ED15DB973
:100F70000CE020216D1EDDF8100400F011FCDDF8FE
:100F80002404002871DB0DB1AB45F2D3DDF8240455
:100F900000287DDBDDF8080400280DDA4042CDF89A
:100FA00008042D21DDF8100400F0FAFB0EE05DE0EE
:100FB00069E040E049E034E0DDF8140410F0040F8B
:100FC00008D02B21DDF8100400F0EAFBDDF8240442
:100FD00000285DDBDDF8140400F00300022804BFE4
:100FE000DDF80C04002810D16DB90EE04FF030018F
:100FF000A5F10105DDF8100400F0D2FBDDF82404B2
:10100000002845DB0DB1AB45F0D3DDF814040A220E
:10101000CDE90050DDF80C34DDF80814DDF81004DB
:101020002EE031680A1D32600968CDE900500A22BD
:101030000DF5836024E031680A1D32600968CDE94E
:10104000005010220DF583601AE03068011D3160F8
:10105000D0F8005015F8011B39B10DF5836000F090
:101060009FFBDDF824040028F4DA11E0306808233F
:10107000011D31600168CDE900A710220DF58360E4
:1010800000F016FB04E025210DF5836000F088FBDD
:10109000641CCFE6DDF824040028DCBF0DF2344DDB
:1010A000BDE8F08FDDF8200420B1024602A94046D9
:1010B000FFF722FEDDF82014DDF824040844CDF803
:1010C0002404BBE667666666014880680047000046
:1010D000745000200148C068004700007450002090
:1010E00070B4BF480023021D01780124101D4FF089
:1010F000805C062904BF157815F00F0F06D006296D
:1011000004BF157815F00F0F13D10DE0057805F029
:10111000F005302D1CBF402D502DF0D1BCF82453CC
:10112000B04EC5F304253560057805F0F005302D87
:101130000CD0062904BF157815F00F0F0AD0062928
:1011400004BF157815F00F0F17D111E0A74EA64D6B
:10115000756707E0057805F0F005302D1CBF402DC0
:10116000502DECD1DCF84452A14EC5F34235356028
:10117000057805F0F005302D0CD0062904BF157850
:1011800015F00F0F0CD0062904BF157815F00F0FBE
:101190001BD115E0974D2E6826F080762E6007E073
:1011A000057805F0F005302D1CBF402D502DEAD1FB
:1011B0004FF08045C5F80C31C5F810318E4D2B60CD
:1011C000057805F0F005302D06D0062904BF157806
:1011D00015F00F0F0AD104E0884E4FF0030535607B
:1011E0000BE0057805F0F005302D06D0062904BF88
:1011F000157815F00F0F12D10CE0814E4FF0050558
:101200003560804D2C60804D2B6006F104064FF058
:101210003F053560057805F0F005502D0CD0062906
:1012200004BF157815F00F0F58D0062904BF1178A8
:1012300011F00F0F70D15FE0744D2D68744E356062
:10124000744D2D6806F104063560734D2D6806F166
:1012500004063560714D2D6806F104063560704D49
:101260002D6806F1040635606E4D2D6806F1040602
:1012700035606D4D2D686D4E35606D4D2D6806F1F4
:10128000040635606B4D2D6806F1040635606A4D25
:101290002D6806F104063560684D2D6806F10406D8
:1012A0003560674D2D6806F104063560654D2D6883
:1012B000654E3560654D2D6806F104063560644D58
:1012C0002D6806F104063560624D2D6806F10406AE
:1012D0003560614D2D6806F104063560057805F02E
:1012E000F005302D1CBF402D502D9ED1DCF858123A
:1012F0005A4A01F04F011160007800F0F0003028E8
:101300001CBF4028502807D15548016811F0010F33
:101310001CBF6FF0010101605248016841F4700187
:101320000160BFF34F8FBFF36F8F4FF01025D5F8DB
:101330000C024D4910F0010F4C4ADFF834C14D4802
:1013400018BFCCF800401BD00468002CFCD0D5F8A6
:101350000C4224F00104C5F80C420468002CFCD0B7
:10136000CCF800300368002BFCD0BFF34F8F086827
:1013700000F4E06040EA02000860BFF34F8FFEE730
:10138000D5F8006216F0004F06BFD5F8046216F0DB
:10139000004FCCF800401ED00468002CFCD04FF069
:1013A0001506C5F800620468002CFCD0C5F804627C
:1013B0000468002CFCD0CCF800300368002BFCD073
:1013C000BFF34F8F086800F4E06040EA0200086055
:1013D000BFF34F8FFEE729492748086070BC70476C
:1013E000E00F00F0403501400DF0ADBA00C00740FD
:1013F0003C050040FCED00E038050040A005004041
:101400001056004088560040185600400404001052
:1014100020C50040080400100C0400101004001047
:1014200014040010180400101C04001040C50040F3
:101430002004001024040010280400102C040010C4
:10144000300400103404001060C50040380400105F
:101450003C0400104004001044040010E40E00405E
:101460000004004088ED00E00CED00E00400FA0507
:1014700004E5014000E401400090D0039800002002
:101480002DE9F84F0426104C0025104F4FF4A0789A
:101490004FF48039AA4600BF08EB850009FA05F130
:1014A0002258002A1CBFD4F804230A4206D044F86C
:1014B00000A021580091D7E900219047681CC5B2CF
:1014C000B542E9D3BDE8F88F00800040A850002065
:1014D0002DE9F84F0427104C104E00254FF4A0784A
:1014E0004FF480394FEA050A08EB850009FA05F147
:1014F0002258002A1CBFD4F804230A4206D044F81C
:1015000000A021580091D6E900219047681CC5B27F
:10151000BD42E9D3BDE8F88F00900040B4500020F0
:10152000F0B5434C85B0D4F82401424D0127002684
:101530002968C0B1C4F82461D4F8240104900220C1
:101540008DF80000D4F88004C4F880040390D4F827
:101550003C058DF80800E8680190EE752E766A6803
:10156000684690472EE0D4F8100100B3C4F810612B
:10157000D4F810010090D4F83C05EA7DC0B2824254
:1015800020D12A7EA2B1EA68D4F8003223F02003E9
:10159000C4F800322B7EEB752B69EB602E768DF84C
:1015A00000708DF8080001926A686846904709E06B
:1015B000EE75EA688DF800708DF8080001926A688F
:1015C00068469047D4F8440198B1C4F84461D4F80F
:1015D00044010090E87D60B1EE75D4F83C05E968FF
:1015E0008DF808008DF800700191D5E90012684669
:1015F0009047D4F82001002804BF05B0F0BDC4F81E
:101600002061D4F820010090A87D002804BF05B017
:10161000F0BDD4F84C058DF800608DF80800A8687E
:101620000190AE75D5E900126846904705B0F0BD4F
:10163000002000400851002010B5124C022012A1D9
:101640002061C4E905011349E1614FF4A25121620F
:101650000021A162616210A2A264E062A4F1100202
:10166000E26410222265A1656165E0650DA00EA10E
:101670000068C4F80700204600F0F2F82020A071AE
:1016800010BD000074650020525454557050504BEA
:101690000000000024510020525454446F776E50D3
:1016A000504B0000525454005345474745520000E8
:1016B0002DE9F84F0126DDE90A5B904682469946FE
:1016C0000C4608463746414505D300BFB0FBF8F04D
:1016D0007F1C4045FAD2B94588BF1F461BF0010F59
:1016E00019D1C5B11BF0020F04D0B9F1000F08BF2A
:1016F000302000D0202000900BE050466D1E009955
:1017000000F04EF8DAF80C000028B8BFBDE8F88FFA
:101710000DB1AF42F1D3DAF80C000028B8BFBDE834
:10172000F88F00BFB9F1010F96BFB4FBF6F0A9F135
:101730000109404528BF06FB08F6F3D2DFF85C90AC
:10174000B4FBF6F000FB164419F80010504600F008
:1017500027F8DAF80C00002803DBB6FBF8F6002EB9
:10176000EED11BF0010F14BF002DBDE8F88F10E083
:101770004FF020015046A5F1010500F011F8DAF80C
:101780000C000028B8BFBDE8F88F002D08BFBDE8E9
:10179000F88FBD42ECD8BDE8F88F0000444400004B
:1017A00010B50446D4E90130421C934205D32368A6
:1017B0001954A260E068401CE060D4E90102824252
:1017C00018BF10BD21682069FFF796FAA16888420A
:1017D00019BF4FF0FF30E0600020A06010BD2DE980
:1017E000F047C4681746894606464FF0000830693E
:1017F000A0428FBF001B201AB168081A451EB068AE
:10180000001BA84298BF0546BD4228BF3D467068F0
:101810002A4620444946FEF70FFDB0687F1B2C4442
:10182000A844A944A04208BF0024F460002FDED1E0
:101830004046BDE8F08700000FB4084B10B504A97E
:1018400002AA039800F0E6F8044602A9002000F07E
:1018500078FC204610BC5DF814FB0000432100001A
:101860000A6802608B88838091F806C080F806C001
:10187000704702E008C8121F08C1002AFAD1704759
:101880007047002001E001C1121F002AFBD1704700
:101890002DE9FF5F82B00021DDE90430020DDDF8A3
:1018A00040B0034318D044F61050A2F2FF32424336
:1018B0001514119801281FD0A5EB0B00401C5FEAFE
:1018C000000A4FF000064E4FDFF83891B046504600
:1018D00015D5CAF1000413E0119801244AA3012888
:1018E00001D16FEA0B010298119AC0E90031C0E9F9
:1018F000024206B0BDE8F09FCBF10000DFE70446EE
:101900000021404A491842EB0450CDE9001012E092
:10191000E00707D032463B4640464946FEF7B1FD58
:101920008046894632463B4610461946FEF7A9FDD9
:1019300006460F466410002CEAD1DDE90401DDE91A
:101940000023BAF1000F06DAFEF79BFD42464B4634
:10195000FEF797FD05E0FEF706FE42464B46FEF712
:1019600002FE04460E460022284BFEF783FE03D8F3
:101970004FF0FF30014607E00022254B204631465C
:10198000FEF7D8FCFEF75EFE102409E0002C0ADB0F
:101990000A220023FEF79DFC039B30321A55641E79
:1019A00050EA0102F2D1641C039AC4F111031444F9
:1019B000119A012A03D0012208430DD10AE00843FD
:1019C00004D000204FF0110B119072E7A3EB0B0530
:1019D0006D1E0DE05B4504DD4FF0000205F10105D1
:1019E00004E003DA4FF00002A5F10105002AECD073
:1019F00002981199C0E90231C0E9004579E7000079
:101A0000000014400000F03F300000000000F043F0
:101A10000000E03F2DE9FF4F95B09B468946064602
:101A200000250FE2252877D100242746F84A012116
:101A3000059400E0044316F8013F203B01FA03F04F
:101A40001042F7D130782A2811D06FF02F03307868
:101A5000A0F13002092A16D8059A44F0020402EBDC
:101A6000820203EB42021044761C0590EFE759F81E
:101A7000042B0592002A03DA504244F400540590E6
:101A800044F00204761C30782E2816D116F8010F87
:101A900044F004042A280DD06FF02F023078A0F112
:101AA0003003092B09D807EB870302EB4303C71860
:101AB000761CF3E759F8047B761C30786C280FD03D
:101AC00006DC4C2817D068280DD06A2814D104E011
:101AD000742810D07A280FD10DE044F400140AE0E5
:101AE00044F4801401E044F440147278824202D13C
:101AF00004F58014761C761C307866280BD013DC35
:101B0000582877D009DC002875D04528F6D046281B
:101B1000F4D047281AD19DE118E0632835D0642815
:101B200079D0652812D195E1702873D008DC672838
:101B3000F1D069286FD06E280DD06F2806D1B5E09E
:101B400073282CD0752875D0782874D05A461799E8
:101B500090476D1C75E1C4F30250022809D0032898
:101B60000DD0D9F8001004280DD00D6009F104093A
:101B700067E1D9F80010EA17C1E90052F6E7D9F891
:101B800000100D80F2E70D70F0E719F8041B8DF8D6
:101B9000001000208DF80100EA46012003E059F80A
:101BA00004AB4FF0FF3061074FF0000102D40DE0AD
:101BB00008F101018846B9420FDA8045F8DB1AF8CE
:101BC00008100029F4D108E008F10101884681429B
:101BD000FADB1AF808100029F6D105985B46A0EB4D
:101BE000080721463846179A00F094FA284400EB7B
:101BF000080507E04DE029E10DE01AF8010B5A460F
:101C000017999047B8F10108F7D25B46214638464C
:101C1000179A13E142E00A220092C4F302524FF0F5
:101C2000000A022A08D059F804CB032A4FEAEC71C3
:101C30000AD00DE029E02AE009F1070121F00702AE
:101C4000F2E802C1914609E00FFA8CFC4FEAEC7110
:101C5000042A03D14FFA8CFC4FEAEC71002907DA11
:101C60000A460021DCF1000C61EB02012D2202E0AA
:101C7000220504D52B228DF80420012203E0E2077F
:101C800001D02022F7E7904659E00A2102E0102215
:101C90000DE010214FF0000A00910BE010224FF0F0
:101CA000000A44F004040827009203E008224FF0E1
:101CB000000A0092C4F30252022A05D059F804CB5C
:101CC0000021032A08D009E009F1070121F00702E9
:101CD000F2E802C1914605E01FFA8CFC042A01D10A
:101CE0000CF0FF0C4FF00008220728D5702806D012
:101CF000009B83F0100353EA0A0305D00EE0402254
:101D00008DF80420012208E05CEA010206D03022AE
:101D10008DF804208DF8050002229046009B83F088
:101D2000080353EA0A030AD15CEA010201D16207FF
:101D300005D530228DF804204FF001087F1E582869
:101D400004D034A003900EA802900DE036A0F9E76D
:101D500053466046009AFEF7BCFA84460398825CBC
:101D60000298401E029002705CEA0100F0D10298D5
:101D700006A9081A00F1200A600702D524F480346D
:101D800000E00127574502DDA7EB0A0000E0002034
:101D900000EB0A01009005984144401A0590E003C9
:101DA00006D45B462146179A059800F0B3F905441E
:101DB000002706E001A85A46C05D179990476D1CA0
:101DC0007F1C4745F6DBE0030CD55B462146179A9E
:101DD000059800F09FF9054404E030205A46179911
:101DE00090476D1C0099481E00900029F5DC08E022
:101DF000029802995A460078491C02911799904717
:101E00006D1CBAF10001AAF1010AF1DC65E10000E4
:101E100009280100303132333435363738396162C0
:101E20006364656600000000303132333435363784
:101E300038394142434445460000000000F058F95B
:101E40000544761C307800287FF4ECAD19B02846A4
:101E5000BDE8F08F620700D4062709F1070222F0DF
:101E6000070CFCE80223E14603F000485FEA080C97
:101E700002D00FF2702C0DE05FEA045C02D50FF285
:101E8000682C07E05FEAC47C02D00FF2602C01E00E
:101E9000AFF2700C4FF0FF3823F00043CDF850C084
:101EA00065280CD006DC452809D046281DD04728D7
:101EB0003DD13DE0662818D067287ED138E000216A
:101EC000112F01DB112000E0781CCDE9000106A9EB
:101ED0000EA8FFF7DDFCDDE90F010E9A039100214A
:101EE000009207F1010A04914DE04FF00040009785
:101EF000CDE9011006A90EA8FFF7CAFCDDE90F0223
:101F000003920E9B11990022DDF80CA0009304921D
:101F100011B9791C00EB010AB7EB0A0004D4C0F137
:101F2000FF3007F1010A0490AAEB0700019044E09A
:101F3000012F00DA01270021112F01DD112000E01F
:101F40003846CDE9000106A90EA8FFF7A1FCDDE99E
:101F50000F010E9A0391002104910092BA462107C5
:101F60000CD40399514500DA8A46BAF1010F05DD18
:101F7000009AAAF10101515C302908D0B84202DA76
:101F800010F1040F06DA0121CDE9011015E0AAF1E4
:101F90000101E9E7002805DC049901440491AAEB5A
:101FA000000102E0411C514500DD8A460499401AB7
:101FB000401C01904FF000400290200704D401988B
:101FC000504501DBCDF8048000208DF84F000298C9
:101FD0000DF14F07B0F1004F25D02B200E90029845
:101FE0004FF0020800280CDA404202902D200E909B
:101FF00007E00A210298FEF756F93031029007F8FF
:10200000011DB8F10001A8F10108F2DC02980028D6
:10201000EFD1791E0E980870307800F0200040F063
:10202000450007F8020D12A8C01B00F1070814981C
:10203000007800B1012000EB0A01019801EBE0718A
:1020400005984144401A401E0590E00306D45B46C3
:102050002146179A059800F05DF805441498007819
:1020600018B15A46179990476D1CE00324D55B467A
:102070002146179A059800F04DF805441CE0049895
:10208000002807DBDDE90301884203DD0098405C9E
:10209000179901E0179930205A469047049805F1A6
:1020A0000105401C04900198401E019004D12E208F
:1020B0005A46179990476D1CBAF10001AAF1010A1E
:1020C000DDDC05E017F8010B5A46179990476D1CA7
:1020D000B8F10001A8F10108F4DC5B462146179A2B
:1020E0000598ABE62D0000002B000000200000004A
:1020F0002DE9F041044600251E461746880404D405
:1021000005E039462020B0476D1C641EF9D52846ED
:10211000BDE8F0812DE9F041044600251E469046B9
:10212000C80301D5302700E02027880404D505E046
:1021300041463846B0476D1C641EF9D52846BDE8B7
:10214000F0810A68531C0B601070704710B582B0A4
:10215000506800901446138892682EA10020FEF764
:1021600035FE01208DF80400A06800902088ADF8AD
:102170000000BDF8000072B69DF80400002804BFFE
:1021800002B010BD2A4B2B482B4A0168184600BFED
:1021900000BF00BF00BF00BF00BF00BF00BF914233
:1021A0002FD000BF00BF00BF00BF00BF00BF00BFF7
:1021B00000BF00BF00BF00BF00BF00BF00BF00BF27
:1021C00000BF00BF00BF00BF00BF00BF00BF00BF17
:1021D00000BF00BF00BF00BF00BF00BF00BF00BF07
:1021E00000BF00BF00BF00BF00BF00BF00BF00BFF7
:1021F00000BF00BF00BF00BF00BF00BF00BF00BFE7
:1022000000BF0138C3D19DF804000028BED102B040
:1022100010BD00006572723A202578206C696E65E9
:102220003A2025782066696C653A20257300000005
:10223000400D0300980000200024F40000B583B096
:10224000ADF80010CDE901206A46002144F20100FA
:10225000FFF77CFF03B000BD72B602480168491C5D
:10226000016070479400002003490868401E086020
:1022700018BF704762B6704794000020214810B420
:10228000438B2149B3F57A7F1CD840F2E93C012207
:10229000ACEB0303012BA8BF90ED0B0A12DB00BFD0
:1022A000B5EEC00AF1EE10FAFAD0B0F81AC0521C1E
:1022B00001EB8C040CF1010C84ED000AA0F81AC0AB
:1022C0009A42EDDD91ED000AD0ED1E0A4FF4FA724C
:1022D00070EE200AC0ED1E0A91ED010A30EE200AD0
:1022E000D1ED020A0831521E70EE800AF4D19FED42
:1022F000071A80EE810A80ED1E0A80ED0D0A10BCDF
:1023000070470000000000209C00002000007A447C
:102310002DE9F05F0E0007464FF0000508BFBDE84D
:10232000F09F4FF0020B214CDFF884A04FF0000823
:102330004FF00109785D217821B101290BD00229E4
:1023400029D023E0022808BFC4F804801ED100BFB2
:1023500084F800901AE01F2808BF84F800B015D058
:1023600003280CD0022808BFC4F804800ED061688E
:102370000AF80100481C00F00F00606006E0A26847
:1023800012B10B486168904784F800806D1CB5421B
:10239000D0D3BDE8F09F80F0200160680AF80010FB
:1023A000401C00F00F006060D2E700007C000020BD
:1023B00062500020084910B5886008490320C1F820
:1023C000000707490120C1F804030621142001F089
:1023D0000FFB002010BD00007C0000202C000050EE
:1023E000004001402DE9F04385B081464FF00200E6
:1023F00016000D468DF808004FF000044FF003075B
:1024000018BF4FF01F0844D0285D032818BF1F28AD
:1024100013D08DF808004FF0010202A94846FEF7DC
:102420006BFC012832D08DF80070012269464846C5
:10243000FEF762FC0128F8D141E08DF80880012206
:1024400002A94846FEF758FC012809D08DF8007013
:10245000012269464846FEF74FFC0128F8D12EE0DC
:10246000285D012280F020008DF8080002A948466E
:10247000FEF742FC012809D08DF800700122694660
:102480004846FEF739FC0128F8D118E0641CB44234
:10249000BAD38DF80870012202A94846FEF72CFC39
:1024A000012811BF8DF80070002005B0BDE8F08351
:1024B000012269464846FEF71FFC0128F8D105B005
:1024C0001120BDE8F083000010B5064C206880782C
:1024D00000F0C4FC00281CBF012010BD00202060BB
:1024E00010BD0000F8650020014900200860704719
:1024F000F865002070B5084D0446286848B944B115
:10250000A078211D00F086FD002802BF00202C606D
:1025100070BD012070BD0000F8650020F7B5164CB5
:1025200006461546206820B35EB19DF80410038866
:102530004A199A4205D825B101F00F012944102902
:1025400002D903B00220F0BD8078022100F0C6FD60
:10255000206801AA0121807800F0C8FD48B92068F0
:1025600032462946807800F06BFD002804BF03B096
:10257000F0BD012003B0F0BDF865002070B5174D27
:1025800014462A6812B349B112880319934205D838
:1025900024B100F00F022244102A01D9022070BD9C
:1025A00028712246681DFDF747FE286801218078C2
:1025B00000F094FD28682A1D611C807800F096FDCB
:1025C000002804BF00204FF6FF7101D0012070BD2C
:1025D000401C80B28842FBD3002070BDF86500200B
:1025E00010B5064C2068407800F038FC00281CBF6D
:1025F000012010BD0020206010BD0000EC6500200F
:102600000149002008607047EC65002070B5234C3C
:102610000546206828B925B16878291D00F0FAFC24
:1026200008B1012070BD25602878102833D2DFE87A
:1026300000F0080813131E1E29290D0D1818232356
:102640002D2D8120208141F2883023E040F20110BD
:10265000208141F288301DE08120208142F21070FB
:1026600018E040F20110208142F2107012E0812047
:1026700020814CF250300DE040F2011020814CF2EC
:10268000503007E081202081054803E040F201102E
:10269000208103486060002070BD0000EC650020D0
:1026A000A08601002DE9F843164640A204281268CE
:1026B00000923ABF6A461DF80020FF223C4FD7F82F
:1026C0000080B8F1000F6DD0002E18BFFF2A04D093
:1026D00000291CBF0129022903D04FF00200BDE8E8
:1026E000F88335684B2D34BF4B242C46304BB3F860
:1026F00008905B68A9F1010C21B1012910D00229D1
:102700001ED036E0A4F14B000CFB00F0B0FBF3F060
:1027100080B203FB00F1B1FBFCF101F14B0428E0B6
:10272000A4F14B000CFB00F000EB5300B0FBF3F006
:1027300080B203FB00F1B1FBFCF101F14B0418E0A6
:10274000A4F14B000CFB00F0B0FBF3F080B203FBF4
:1027500000F1B1FBFCF101F14B04814588BFA542BA
:1027600007D9401C80B203FB00F1B1FBFCF101F181
:102770004B04C0F3012141EA02118DF800108DF8DD
:10278000010098F80100012100F0A8FC38686A46B1
:102790000221407800F0AAFC002802BF002034602B
:1027A000BDE8F8830120BDE8F883000000010607BA
:1027B000EC650020FFF798BE08B500208DF80000FA
:1027C0000F48FFF797FE18B10EA2DD21FFF736FD87
:1027D00001220F216846FFF7A1FE18B109A2E021EE
:1027E000FFF72CFDFFF770FE18B106A2E321FFF7FB
:1027F00025FD9DF80000012818BF002008BD00003D
:10280000544400002E2E5C2E2E5C2E2E5C736F75B1
:102810007263655C656570726F6D2E630000000009
:1028200008B500208DF800000F48FFF763FE18B1CF
:102830000EA2F321FFF702FD01222F216846FFF7C8
:102840006DFE18B109A2F621FFF7F8FCFFF73CFE78
:1028500018B106A2F921FFF7F1FC9DF8000001284C
:1028600018BF002008BD0000544400002E2E5C2E2E
:102870002E5C2E2E5C736F757263655C656570727D
:102880006F6D2E630000000010B504461848FFF776
:1028900031FE18B117A2B821FFF7D0FC04220021A5
:1028A0002046FFF73BFE18B112A2BB21FFF7C6FC82
:1028B00004220521201DFFF731FE18B10DA2BD2114
:1028C000FFF7BCFC04220A2104F10800FFF726FEF2
:1028D00018B108A2BF21FFF7B1FCFFF7F5FD0028F2
:1028E00008BF10BD03A2BDE81040C221FFF7A6BC7F
:1028F000544400002E2E5C2E2E5C2E2E5C736F75C1
:102900007263655C656570726F6D2E630000000018
:1029100010B504461848FFF7EDFD18B117A2CA21FB
:10292000FFF78CFC042220212046FFF7F7FD18B1A9
:1029300012A2CD21FFF782FC04221B21201DFFF7EC
:10294000EDFD18B10DA2CF21FFF778FC04222A215A
:1029500004F10800FFF7E2FD18B108A2D121FFF74A
:102960006DFCFFF7B1FD002808BF10BD03A2BDE854
:102970001040D421FFF762BC544400002E2E5C2E80
:102980002E5C2E2E5C736F757263655C656570726C
:102990006F6D2E630000000010B504460E48FFF76F
:1029A000A9FD18B10DA2A921FFF748FC0222302190
:1029B0002046FFF7B3FD18B108A2AC21FFF73EFC9B
:1029C000FFF782FD002808BF10BD04A2BDE810403B
:1029D000AF21FFF733BC0000544400002E2E5C2EC4
:1029E0002E5C2E2E5C736F757263655C656570720C
:1029F0006F6D2E630000000010B504461348FFF70A
:102A000079FD18B112A29721FFF718FC0222342198
:102A10002046FFF783FD18B10DA29A21FFF70EFCA7
:102A200002223221A01CFFF779FD18B108A29C21D7
:102A3000FFF704FCFFF748FD002808BF10BD04A203
:102A4000BDE810409F21FFF7F9BB0000544400008F
:102A50002E2E5C2E2E5C2E2E5C736F757263655C61
:102A6000656570726F6D2E630000000001B50D4842
:102A7000FFF740FD18B10CA26521FFF7DFFB022232
:102A800069463220FFF77AFD18B107A26821FFF7E7
:102A9000D5FBFFF719FD18B103A26B21FFF7CEFBA1
:102AA000002008BD544400002E2E5C2E2E5C2E2EDD
:102AB0005C736F757263655C656570726F6D2E63B4
:102AC0000000000001B50D48FFF714FD18B10CA27D
:102AD0007621FFF7B3FB022269463420FFF74EFD53
:102AE00018B107A27921FFF7A9FBFFF7EDFC18B198
:102AF00003A27C21FFF7A2FB002008BD5444000084
:102B00002E2E5C2E2E5C2E2E5C736F757263655CB0
:102B1000656570726F6D2E630000000001B51E4880
:102B20002DED040BFFF7E6FC18B11CA24821FFF7BE
:102B300085FB042269460020FFF720FD18B117A28B
:102B40004E21FFF77BFB042201A90520FFF716FDAC
:102B500018B112A25121FFF771FB042202A90A2029
:102B6000FFF70CFD18B10DA25421FFF767FB0122FE
:102B700004A90F20FFF702FD18B108A25721FFF7A3
:102B80005DFBFFF7A1FC18B104A25A21FFF756FB29
:102B900005B0002000BD0000544400002E2E5C2E25
:102BA0002E5C2E2E5C736F757263655C656570724A
:102BB0006F6D2E630000000001B51E482DED040B63
:102BC000FFF798FC18B11CA22221FFF737FB042263
:102BD00069462020FFF7D2FC18B117A22821FFF781
:102BE0002DFB042201A91B20FFF7C8FC18B112A27B
:102BF0002B21FFF723FB042202A92A20FFF7BEFCAA
:102C000018B10DA22E21FFF719FB012204A92F20D4
:102C1000FFF7B4FC18B108A23121FFF70FFBFFF753
:102C200053FC18B104A23421FFF708FB05B00020C3
:102C300000BD0000544400002E2E5C2E2E5C2E2E73
:102C40005C736F757263655C656570726F6D2E6322
:102C50000000000001B50D48FFF74CFC18B10CA2B4
:102C60008721FFF7EBFA022269463020FFF786FC46
:102C700018B107A28A21FFF7E1FAFFF725FC18B186
:102C800003A28D21FFF7DAFA002008BD54440000AA
:102C90002E2E5C2E2E5C2E2E5C736F757263655C1F
:102CA000656570726F6D2E63000000001E4901287B
:102CB0000A6805D0022804BF4B79002B1DD001E023
:102CC000087910B14FF0000070471088174BC0F31F
:102CD00085101860106803F10403C0F30530186014
:102CE0001078134A00F03F001060124A4FF00100C4
:102CF000106008711048886013E01379DFF83CC059
:102D000003F03F03CCF8003092880CF10403C2F3C7
:102D100085121A600A4B4FF005021A604871094883
:102D2000C8604FF001007047745000200C3500401F
:102D30000835004000350040D52D00000845004012
:102D4000004500404D2E000000210B4A012805D00F
:102D5000022804BF5079022809D002E01079012826
:102D600001D00020704705480160117102E004485D
:102D700001605171012070477450002000350040FF
:102D8000004500401049086008214FF0E020002273
:102D9000C0F880110D4B1A6000F1030C60238CF811
:102DA0000034C0F88012C0F800111021C0F8801162
:102DB000DFF81CC0CCF80020021D82F80034C0F8F7
:102DC0008012C0F800117047745000200035004098
:102DD000004500401B4830B40168002914BF01239E
:102DE00000230024184900BFD1F80821F2B1D1F81E
:102DF0001825C1F80841D2B2D0F808C0BCF1000FC4
:102E00001CBF057B0CF80520027B521CD2B202735A
:102E100090F80DC062450DD2D0F804C0BCF1000F8F
:102E200014BF1CF802200022C1F81C25002BDBD0A7
:102E300030BC70470168002904BF30BC70470020D7
:102E400030BC0847845000200030004002494FF059
:102E5000402000F019B800009450002010B501285F
:102E600006D10220FFF770FF00281CBF002010BD14
:102E7000032010BD03480021016081744174017476
:102E800070470000945000202DE9F0030A68002AE2
:102E900018BF01224FF4207500244FF40176022759
:102EA0004FF0010C0B7C012B02D0022B56D0ABE073
:102EB000D0F81C31002B3DD0C0F81C410B7B5B1CB3
:102EC000DBB20B7391F80D8043451CD2C0F8004271
:102ED0000B7B91F80D805B1C434538BFC0F800C2E6
:102EE00007D38B7C032B12BF012BC0F80441C0F821
:102EF000007291F80C804B6813F80830C0F81C354C
:102F0000C0F820C080E0C0F80853D0F8002212F0CA
:102F1000020F03D0D0F80421002AFBD00C740968FA
:102F2000002904BFBDE8F00370474FF00000BDE882
:102F3000F0030847D0F82431002B65D0C0F82441B5
:102F4000C0F80853032008740968002904BFBDE8CD
:102F5000F00370470220BDE8F0030847D0F80831BD
:102F6000F3B3C0F80841D0F8183591F80E90D1F8B5
:102F7000088008F809308B7B5B1CDBB28B7391F8FF
:102F80000F80434515D2C0F800428B7B91F80F802B
:102F90005B1C434538BFC0F800C207D38B7C032BB2
:102FA00012BF022BC0F80441C0F80072C0F820C064
:102FB0002AE0C0F80863D0F8002212F0020F03D014
:102FC000D0F80421002AFBD00C740968002904BF42
:102FD000BDE8F00370474FF00100BDE8F00308477B
:102FE000FFE7D0F824317BB1C0F82441C0F8086372
:102FF000042008740968002904BFBDE8F003704785
:103000000320BDE8F0030847002A3FF44BAFBDE8BA
:10301000F003704710B50C4601280BD10220FFF7D2
:1030200045FE38B1044920790860044920680860E9
:10303000002010BD032010BD8845004024450040FD
:1030400070B5012846D1244C4FF040200B4694F82F
:1030500010C0BCF1010F12BFBCF1020F032070BD04
:103060004FF00001BCF1040F18BFA1734FF0020C28
:1030700084F810C0A260DBB2E3734FF42172C0F891
:103080000823C0F82411C0F81C11C0F80811C0F8BA
:103090000012A27B551C01229D4238BFC0F80022BD
:1030A00007D3A37C032B12BF022BC0F80411C0F876
:1030B00000C2216829B14FF40171C0F80413026005
:1030C00006E002602146FFF7DFFE207C042801D0E5
:1030D000002070BD022070BD94500020012804BF64
:1030E00001488174704700009450002010B50128F9
:1030F0004FD1294C4FF040200B4694F810C0BCF142
:10310000010F12BFBCF1020F032010BD4FF00001F0
:10311000BCF1030F18BF21734FF0010C84F810C0ED
:103120006260DAB262734FF42173C0F80833C0F8FA
:103130002411C0F81C11C0F80811C0F80012237B3C
:103140005B1C934238BFC0F800C20AD3A27C032A9A
:1031500018BF012A05D1C0F804114FF00201C0F8D0
:103160000012227B6168895CC0F81C15216831B1AE
:103170004FF42071C0F80413C0F808C007E0C0F88D
:1031800008C02146FFF780FE207C032801D00020E4
:1031900010BD012010BD00009450002014490A7891
:1031A000002A04BF0820704738B548801149A0F2B2
:1031B000E24091FBF0F0C0F5F16000F500300090C6
:1031C00002240D48FFF722FA18B10CA26F21FFF775
:1031D00035F86A4601212046FFF764FA041E03D041
:1031E00006A27221FFF72AF8FFF7FAF9204638BD48
:1031F00088000020608E9E04344400002E2E5C2E39
:103200002E5C2E2E5C736F757263655C6D5F7672DB
:1032100065672E630000000010B5FFF7F1F9024961
:103220000120087010BD00008800002038B5400063
:1032300000900E480078002804BF082038BD0C48D4
:10324000FFF7E4F918B10BA28A21FEF7F7FF6A46EF
:1032500001210020FFF726FA041E03D005A28D21CC
:10326000FEF7ECFFFFF7BCF9204638BD88000020D0
:10327000344400002E2E5C2E2E5C2E2E5C736F7557
:103280007263655C6D5F767265672E630000000097
:1032900038B5400000900C480078002804BF082092
:1032A00038BD0A48FFF7B2F918B109A2A121FEF70B
:1032B000C5FF01216A460846FFF7F4F90446FFF707
:1032C0008FF9204638BD00008800002034440000FB
:1032D0002E2E5C2E2E5C2E2E5C736F757263655CD9
:1032E0006D5F767265672E6300000000B0B0FF4826
:1032F000012505608605D6F80405E9058143C6F871
:10330000081500F40000C6F80C054FF000094C4603
:10331000F748FFF737FDFFF7ADFDFFF74BFAFFF773
:103320004BFADFF8D0A3A8B108A8FFF7ADFA0898C8
:10333000CAF83C000998CAF840000A98CAF8440044
:103340000898CAF848000998CAF84C000A9801245D
:10335000CAF85000FFF764FA68B14FF0010908A8F5
:10336000FFF7D6FA0898CAF83C000998CAF8400056
:103370000A98CAF8440007A8FFF73EFB06A8FFF723
:103380000BFBBDF818104FF6FF70A1F5E162B2F526
:10339000E16F01D8814203D140F6B831ADF8181081
:1033A000BDF81C10814204BF4AF6EE41ADF81C1076
:1033B000BDF81E10814204BF44F62060ADF81E0027
:1033C000DAED0F0A9FEDCC0A20EE801ADFEDCB0A72
:1033D000C0EE811A9FEDCA1ACA494FF0030B4FF095
:1033E000A04061EE811ACAED151ADAED101A21EE2D
:1033F000802AC0EE821A61EE811ACAED161ADAED41
:10340000111A21EE800AC0EE801A21EE810A8AED9F
:10341000170AC1F800B701218A02C0F80C25BA4A80
:10342000C2F800B7121FC2F800B70A06C0F8082594
:10343000CA05C0F80C2580008167B4A2B8A100209D
:10344000FDF7C4FCBCB1DAF84800FCF719FF0746E9
:103450008846DAF84C00FCF713FF05460E46DAF80A
:103460005000FCF70DFF8DE8E3012246AFA10BA849
:10347000FEF7E2F916E0DAF83C00FCF701FF074638
:103480008846DAF84000FCF7FBFE05460E46DAF8FF
:103490004400FCF7F5FE8DE8E3012246A3A10BA84A
:1034A000FEF7CAF90BAAA0A10020FDF78FFC4FF090
:1034B0008050026EA5A10020FDF788FCB9F1000F35
:1034C0001ED0DAF83C00FCF7DBFE06460F46DAF8C1
:1034D0004000FCF7D5FE04460D46DAF84400FCF740
:1034E000CFFE41EC100B8DE8F00053EC102B9BA1AC
:1034F0001DA8FEF7A1F91DAA8BA10020FDF766FC0F
:10350000BDF81C000090BDF81E30BDF818209CA12D
:103510000020FDF75BFCA24FA0483968060100BF00
:1035200000BF00BF00BF00BF00BF00BF00BFB1426F
:103530002FD000BF00BF00BF00BF00BF00BF00BF53
:1035400000BF00BF00BF00BF00BF00BF00BF00BF83
:1035500000BF00BF00BF00BF00BF00BF00BF00BF73
:1035600000BF00BF00BF00BF00BF00BF00BF00BF63
:1035700000BF00BF00BF00BF00BF00BF00BF00BF53
:1035800000BF00BF00BF00BF00BF00BF00BF00BF43
:1035900000BF0138C3D18348FEF70CFF00F048FBA1
:1035A00020B181A240F2F231FEF748FE814D0022A7
:1035B00001A9A8680190E8680290286803900B2090
:1035C00000F0C4FA20B17C4A40F27D11FEF736FECD
:1035D000002201A90C2000F0B9FA20B1764A4FF47C
:1035E000C071FEF72BFE002202A90D2000F0AEFAFA
:1035F00020B1714A4FF4C171FEF720FE03A90E20DD
:1036000000F04CFB20B16C4A4FF4C271FEF716FE7D
:1036100001210B2000F038FA01210C2000F034FACF
:103620000D2000F001FA0E2000F0A6FBD5E90C01F8
:10363000CDE90201614A02A9614800F085FC20B190
:103640005D4A40F2CB11FEF7F9FD5D480068D0F805
:1036500010055C49012421FA00F223460021584854
:10366000009400F04BFC00F019FC20B1524A4FF4DA
:10367000C971FEF7E3FDD5E90A01CDE90201524A1D
:1036800002A9524800F060FC20B14B4A4FF4CF71C0
:10369000FEF7D4FD4D480068D0F81005D02121FA7E
:1036A00000F2012300214948009400F027FC00218A
:1036B000464800F0FFFBDFF81881464D464800F011
:1036C0007DFB20B13C4A4FF4D671FEF7B7FD2A4688
:1036D00041469AF8110000F0A5FB20B1364A40F2AD
:1036E000AF11FEF7ABFD00F0EFFD77E040E50140E4
:1036F0001C44000000000020000000479A99193F78
:1037000000247449280000506000005070706B2D38
:1037100066772D322E302E300000000000000000B1
:1037200056455253494F4E202573000043414C3AB1
:1037300025642052313A252E33662052323A252E06
:1037400033662052333A252E3366000020426F61E3
:103750007264204944202558200000000A0A55536D
:103760004552205345542052313A252E336620527B
:10377000323A252E33662052333A252E3366000026
:103780000A52656673205644443A2025642048490D
:103790003A202564204C4F3A2025640040420F0017
:1037A00098000020F53F00002E2E5C6D61696E2EA2
:1037B00063000000FC430000B0430000E943000048
:1037C0001444000000D43000D94300000C44000031
:1037D000408100400470004011000020FFF71CFDF4
:1037E000BDF81800FFF7DAFC28B1AFF2440240F24E
:1037F0000141FEF723FDBDF81C00FFF749FD28B18C
:10380000AFF25C0240F20341FEF718FDBDF81E0066
:10381000FFF70CFD28B1AFF2700240F20541FEF750
:103820000DFD6A480068009010F4006F00F48050AD
:1038300004D0002808BF4FF0020B02E0002808BFA8
:10384000A3468AF800B0624800F04AFB4FF0A0455A
:103850004FF48060C5F80C055E48396800BF00BFB2
:1038600000BF00BF00BF00BF00BF00BFB1422FD0EC
:1038700000BF00BF00BF00BF00BF00BF00BF00BF50
:1038800000BF00BF00BF00BF00BF00BF00BF00BF40
:1038900000BF00BF00BF00BF00BF00BF00BF00BF30
:1038A00000BF00BF00BF00BF00BF00BF00BF00BF20
:1038B00000BF00BF00BF00BF00BF00BF00BF00BF10
:1038C00000BF00BF00BF00BF00BF00BF00BF00BF00
:1038D0000138C3D1FEF7D2FC4FF48060C5F808056B
:1038E0004703DFF8F480DFF8F4B0DFF8F490002647
:1038F0009AF8020050B3DAF8680000F05FFD8AF829
:103900000A408AF80740374800F0EAFA8AF802606D
:10391000DAF8240008F80040BAF814104A0000EB66
:10392000C00101EB40300BEB40010020FEF75AFDD7
:10393000DAF8240008F80060D5F8040527EA000149
:10394000C5F8081500F40000C5F80C059AF8030046
:1039500000281CBF9AF80500002810D09AF80A0029
:1039600000281CBFDAF8640000F028FD8AF8036024
:1039700004221D490020FEF735FD8AF80A60FDF794
:10398000ABF90028B4D0FDF765F9C1B29AF8090087
:10399000032909F8001000F1010018BF8AF8090096
:1039A000A6D1C1B28AF809100D48FEF7B1FC0F4844
:1039B0008AF80960C0F8B263C0F8B663C0F8BA63A9
:1039C000C0F8BE63C0F8C26392E700001005005063
:1039D0000C440000E0930400010000203C10002093
:1039E0004E500020144400002C0000209C4C00206D
:1039F0004907090E0028BDBF00F00F0202F1E022C6
:103A000082F8141D00F1E022A8BF82F8001400F033
:103A10001F02012191404009800000F1E020C0F820
:103A20008012C0F8001170471549014491F9241023
:103A300008290EDB4FF0A04101EB8000D0F8001701
:103A400021F44031C0F80017D0F80017C0F8001773
:103A5000704728BF70474FF001024FEA810000F124
:103A6000804000F5C040D0F8103523F00103C0F8C5
:103A7000103502FA01F00349C1F80803704700004D
:103A8000C050002000600040F8B42E4B002403EB2F
:103A9000000C9CF92420082A26DB02EB03014FF0DE
:103AA000A04291F83C104FEA9111032902D001295C
:103AB00018D005E0D2F81015C14011F0010F11D057
:103AC0005FF0030102EB8000D0F8002722F44032BF
:103AD000C0F80027D0F8002742EA0141C0F80017DB
:103AE000F8BC70470221EDE724BFF8BC7047012500
:103AF0002802960006F1804606F5C04600EB8200DB
:103B0000D6F8107580B247F00107C6F8107500F1BD
:103B1000804000F5C040046000680090002904BFA8
:103B2000F8BC70479CF9240053F82000002804BF1B
:103B3000F8BC704705FA02F00349C1F80403F8BC69
:103B400070470000C0500020006000402DE9F001E7
:103B5000DFF8D8C000260CEB0003012493F92430D1
:103B600014EBE37318BF082611D1CD78002D19BFCF
:103B70000023082708230927BB4207D25CF823400B
:103B8000B4F1FF3F07D05B1CBB42F7D3042630469D
:103B9000BDE8F00170470CEB00085CB288F82440E7
:103BA0004CF82320002D04BF0CEB030282F83C00EC
:103BB000B4F1FF3FEAD08B784FF0A04202EB8002D5
:103BC000002B03BF4B78002545EA8303D2F800376A
:103BD00018BF23F00203C2F80037CA78E2B10A78AE
:103BE000A10001F1804101F5C041D1F8103523F465
:103BF000F85323F44033C1F810354FF4F85303EA77
:103C000000204FF4403303EA02421043D1F810255C
:103C10001043C1F81005BAE70CEB0400097890F8DE
:103C20003C2042EA811180F83C10B0E7C0500020EF
:103C300038B5174C94F8450000281CBF082038BD43
:103C40004FF0FF32202104F12400FCF707FB002095
:103C5000B0F1010144F82010082824BF221882F88E
:103C60003C10401CC0B20928F4D307210620FFF7FE
:103C7000BFFE0849002008600968074A00914FF01C
:103C80000041C2F80413012184F8451038BD00003A
:103C9000C05000207C610040006000402DE9F00130
:103CA000DFF8D0C000250CEB000292F92430B3F10C
:103CB000FF3F18BF082514D18B78002B04BF6FF08D
:103CC000010382F8243044D0002701263A46082414
:103CD0005CF82230B3F1FF3F07D0521CA242F7D369
:103CE00004252846BDE8F00170470CEB000853B2EC
:103CF00088F824304CF82270002E04BF624482F809
:103D00003C00B3F1FF3FEBD09A0002F1804202F594
:103D1000C04291F800C04C78D2F8103523F4F85323
:103D200023F49813C2F81035D2F810354FF4F85632
:103D300006EA002633434FF4403606EA0C4C4FF4B3
:103D4000801606EA04544CEA040C43EA0C03C2F859
:103D500010354B78012181404FF0A042012B0CBF60
:103D6000C2F80815C2F80C15032102EB8000C0F858
:103D70000017B6E7C05000200749084490F9240016
:103D8000800000F1804000F5C040D0F8101541F0EF
:103D90000301C0F810157047C050002006490844C0
:103DA00090F824008006000E00F1804000F5C0402D
:103DB0000121016070470000C05000202DE9F0474C
:103DC0000426164DDFF85880814600244FF0010A82
:103DD0000020FEF741FA0AFA04F72F4211D0D8F872
:103DE000040007420DD1D8F804100AFA04F0084381
:103DF000C8F80400002689F800403046FEF734FA7F
:103E000008E00020FEF730FA26B104F10100BD43BE
:103E1000C4B2DDD13046BDE8F0870000FFFF0F00DF
:103E20008C000020002912BF002A0E20704710B419
:103E30004FF0010C0CFA00FC0023CCF31304002C0F
:103E400008BF07230FD0094C64681CEA040F08BFA1
:103E5000082308D0C00000F1804000F5F830C0F819
:103E60001015C0F8142510BC184670478C000020AF
:103E70000146012202FA01F100200A03120B05D0CB
:103E8000044A5268114204BF08207047024A116078
:103E9000704700008C00002004F5014004480178C0
:103EA00000291CBF85207047012101700020704748
:103EB0008C0000204FF4A07303EB810302689BB2D7
:103EC00081B04FF0000C42F803C0D2580092006855
:103ED0004FF4803202FA01F1C0F8041301B07047C8
:103EE000016801220A600079034A00EB400002EBFE
:103EF0008000022101727047A850002070B404684D
:103F0000DDF80CC040F20115D4F800628D4026EABD
:103F10000505C4F800520468D4F800522B43C4F8D5
:103F200000324FF480338B40BCF1000FD0F800C05A
:103F300014BFCCF80433CCF80833006800EB8100E0
:103F4000C0F8402570BC7047F8B504460D460079AE
:103F5000234900EB400001EB8006307A00281CBFAB
:103F60000820F8BD002A04BF0720F8BD3260686849
:103F7000706061790020002984BF00214FF4A07C8B
:103F80000BD900BF23680CEB800299509A5800921D
:103F9000401C6279C0B28242F4D82068E978000BF4
:103FA00040B2FFF725FD20686978D0F8042561F359
:103FB0000102C0F804252068A978D0F8082561F32B
:103FC0000102C0F8082520682978D0F8102561F38F
:103FD0000302C0F81025012030720020F8BD000057
:103FE000A85000200068012141607047006801214D
:103FF00001607047002908BF704710B50178172984
:1040000028BF10BDDFE801F01718232A170C313A3A
:10401000171744495468887B95FEDAFDFCFBFA00CB
:104020000122A2498A71427883781204C07802EB97
:1040300003221044886310BD9C4900228A71427893
:1040400083781204C07802EB0322104423E08178C5
:10405000407801EB00209549488210BD8178407876
:1040600001EB00209149888210BD904901204FF05A
:10407000A04388720206C3F80C2507E04FF0A04168
:104080004FF08070C1F8080588490020487110BDC4
:1040900086494FF0FF30886310BD85480121C1601B
:1040A000D0F810110029FBD00021C0F8101110BD6C
:1040B0004078012809D0002818BF10BD4FF0A0415A
:1040C0004FF48060C1F80C0510BD4FF0A0414FF4D3
:1040D0008060C1F8080510BD8178407801EB0020B0
:1040E00084B27448FFF77EFF2046FFF757F8714807
:1040F000FFF77CFF2046BDE81040FEF7ABBD81789E
:10410000407801EB002084B22046FFF78FF820466C
:10411000BDE81040FEF7AABC8178407801EB002092
:1041200084B22046FFF7B4F82046BDE81040FEF701
:10413000C9BC4FF0A041D1F804254FF400039343CC
:10414000C1F8083502F40002C1F80C25574CD0F82C
:1041500001106164D0F805102164D0F80900E06313
:10416000012094ED111A00EE901A94ED0F0AFEF75B
:10417000D5FCD4ED0F0A9FED500A20EE801ADFED3A
:104180004F0AC0EE811A9FED4E1A61EE811AC4EDFE
:10419000151AD4ED101A21EE802AC0EE821A61EEB3
:1041A000811AC4ED161AD4ED111A21EE800AC0EE60
:1041B000801A21EE810A84ED170A10BD3B4CD0F81D
:1041C00001106164D0F805102164D0F80900E063A3
:1041D000012094ED111A00EE901A94ED0F0AFEF7EB
:1041E000EBFCD4ED0F0A9FED340A20EE801ADFEDD0
:1041F000330AC0EE811A9FED321A04E04EE051E01E
:1042000025E019E03BE061EE811AC4ED151AD4ED0A
:10421000101A21EE802AC0EE821A61EE811AC4EDD6
:10422000161AD4ED111A21EE800AC0EE801A21EE82
:10423000810A84ED170A10BD9FED220ABDE81040E7
:104240000020B0EE401AF0EE400AFEF7B5BC4FF089
:10425000A040D0F804154FF400028A43C0F80825A6
:1042600001F40001C0F80C159FED160ABDE81040DE
:104270000020B0EE401AF0EE400AFEF74FBC0B4CA7
:10428000207920B10D20FFF7CFFB002004E00121B1
:104290000D20FFF7F9FB0120207110BD034900201C
:1042A000087210BD01490120087210BD00000020F5
:1042B000007000400C440000000000479A99193F2C
:1042C000002474490000000070B401239807224DB7
:1042D000C0F80030D0F800110029FBD04FF0000CDE
:1042E000C0F800C11E491D4808601E480360022432
:1042F000001D04601C4903200860081D04601B4861
:1043000003601C491A4808601B48C0F800C01B48DD
:1043100003601B482E68C360D0F810110029FBD041
:10432000C0F810C117490A68012AFCD016492E604E
:1043300081F800C44FF0E0228021C2F88012C2F858
:104340000011C0F804430360D0F800110029FBD02D
:10435000C0F800C170BC70474076004000071701EC
:104360001875004010750040F07500403076004030
:104370001C0000202C760040F875004000750040BD
:10438000007000400074004007E000E0074810B5EE
:10439000407CFFF76DFD002808BF10BD04A2BDE8FA
:1043A00010404FF4AF71FDF749BF0000000000203E
:1043B0002E2E5C6D61696E2E6300000000B583B027
:1043C00005220090FF208DF8040069460020FEF7CA
:1043D00009F803B000BD00000248016E491C0166E7
:1043E0007047000000000020B0F5A07F18BF7047A4
:1043F00000200149C871704700000020030101003E
:1044000003000100030000010203000100800040DE
:10441000000400000090004001040000D985010064
:104420009B060000000003070000000000000307D7
:10443000000000000E010000000068062C000000D3
:10444000000000503031323334353637383941428C
:10445000434445460001010000006806500000008A
:1044600010000100000000209C00000072180000F5
:10447000AC0001009C000020748500008218000040
:10448000000000000000000000000000000000002C
:10449000000000000000000000000000000000001C
:1044A000000000000000000000000000000000000C
:1044B00000000000000000000000000000000000FC
:020000040001F9
:1000000070706B2D66772D322E302E300000000080
:1000100004000000000000000100010001000000D9
:1000200001000A00C2010000000000000000000002
:1000300000000000000000000000000000000000C0
:100040000000000000000000FFFFFFFFF628EC3F6B
:100050000000F4410000FF439A99F93F0000E0419D
:100060000000FF430000000000000000000000004E
:100070000000000000000000000000000000000080
:100080000000000000000000000000000000000070
:100090000000000000000000000000000000000060
:0C00A00000000000000000000090D003F1
:0400000500000201F4
:00000001FF
