:020000040000FA
:1000000068760020150200001D0200001F0200009B
:100010002102000023020000250200000000000071
:1000200000000000000000000000000027020000A7
:1000300029020000000000002B0200002D02000039
:100040002F0200002F0200003516000021110000D1
:100050002D1100002F020000E50700009D0900009F
:1000600095150000E51500002F0200002F0200008A
:100070002F0200002F0200002F0200002F020000BC
:100080002F0200002F0200002F0200002F020000AC
:10009000391100002F0200002F0200002F02000083
:1000A0002F0200002F0200002F0200002F0200008C
:1000B0002F0200002F0200000000000000000000DE
:1000C0002F0200002F0200002F0200002F0200006C
:1000D0002F0200002F0200002F020000000000008D
:1000E0000000000000000000000000000000000010
:1000F0000000000000000000000000000000000000
:1001000000000000000000000000000000000000EF
:1001100000000000000000000000000000000000DF
:1001200000000000000000000000000000000000CF
:1001300000000000000000000000000000000000BF
:1001400000000000000000000000000000000000AF
:10015000000000000000000000000000000000009F
:10016000000000000000000000000000000000008F
:10017000000000000000000000000000000000007F
:10018000000000000000000000000000000000006F
:10019000000000000000000000000000000000005F
:1001A000000000000000000000000000000000004F
:1001B000000000000000000000000000000000003F
:1001C000000000000000000000000000000000002F
:1001D000000000000000000000000000000000001F
:1001E000000000000000000000000000000000000F
:1001F00000000000000000000000000000000000FF
:10020000DFF80CD000F04EFA004800479D330000A4
:10021000687600200648804706480047FEE7FEE76C
:10022000FEE7FEE7FEE7FEE7FEE7FEE7FEE7FEE7A6
:10023000F51100000102000040EA01039B0703D012
:1002400009E008C9121F08C0042AFAD203E011F815
:10025000013B00F8013B521EF9D27047D2B201E0D7
:1002600000F8012B491EFBD270470022F6E710B5BB
:1002700013460A4604461946FFF7F0FF204610BD14
:1002800000F0004230F000400AD0C10D01F560716D
:10029000C0F3160042EA0151C208400711437047FB
:1002A00000200146704730B50B4601460020202251
:1002B000012409E021FA02F59D4205D303FA02F573
:1002C000491B04FA02F52844151EA2F10102F1DCD3
:1002D00030BD2DE9F05F0546002092469B468846DA
:1002E0000646814640241BE02846414647462246B2
:1002F00000F0F9F953465A46C01A914110D31146FD
:100300001846224600F0E0F92D1A67EB01084F4627
:1003100022460120002100F0D7F917EB00094E41D9
:10032000201EA4F10104DFDC484631462A4643463C
:10033000BDE8F09F2DE9FE4F804681EA0300C00F23
:100340000C46009021F0004123F00045B8EB02007C
:10035000A94105D24046214690461C460B4602461E
:1003600023F00040104347D0270DC7F30A00C3F322
:100370000A510290401A019040286BDAC3F313002F
:1003800040F4801B0098924620B10023D2EB030A70
:1003900063EB0B0B01985946C0F14002504600F048
:1003A00093F906460D4650465946019A00F0ABF9BE
:1003B00010EB08006141002487EA115284EAE773D8
:1003C0001A4340D0009A62B3019A012A4FEA0752B9
:1003D00015DC001B61EB02014FF0004202EA0752FC
:1003E000CDE90042001C41F5801132462B4600F059
:1003F000ABF903B0BDE8F08F40462146F9E7001B9A
:1004000061EB0201001C41F5801300185B412018CC
:10041000A2F5001747EB030140EAD570B6196D410C
:1004200011E06D084FEA360645EAC0754FEA0752FB
:10043000001B61EB0201001C41F5801149084FEAE5
:1004400030000019514132462B4603B0BDE8F04F51
:1004500000F06BB90098012240000023D0EB0202AB
:1004600063EBE073009821464FEAE074B8EB0000BC
:1004700061EB0401E9E783F000435BE781F00041B1
:1004800058E72DE9FE4F81EA030404F0004421F00F
:10049000004100944FF0000B23F0004350EA0104A8
:1004A0005ED052EA03045BD0C3F30A54C1F30A5589
:1004B0002C44A4F2F3340194A0FB0254C1F31301C1
:1004C00041F48011C3F3130343F4801301FB02448E
:1004D00000FB034E840A970A44EA815447EA835793
:1004E000A4FB076802958D0A05FB07854FEA932C4C
:1004F00004FB0C542705029D4FEA065847EA1637BD
:10050000B5EB08056EEB070C870E920E47EA8117D4
:1005100042EA8312A7FB0201B6EB0B0164EB000475
:100520002B0D43EA0C335E1844EB1C50DA4651465F
:10053000E7FB0201C5F313044FEA0B3343EA1453FC
:100540004FEA0432019C43EA0603A4F10C0402942E
:10055000009CCDE900B400F0F7F803B0BDE8F08FDF
:1005600000200146F9E72DE9F04D81EA030404F08B
:10057000004B21F0004514464FF0000A23F00041E3
:1005800050EA050220D054EA01021DD0C5F30A57F3
:100590000246C5F31303C1F31300C1F30A5640F436
:1005A000801543F48013A7EB0608101BD64608F20B
:1005B000FD3873EB050002D308F1010801E0921841
:1005C0005B41B8F1000F03DA00200146BDE8F08D71
:1005D00000204FF48011064684460EE0171B73EB93
:1005E000050705D3121B63EB050306434CEA010C18
:1005F00049084FEA300092185B4150EA0107EDD1FB
:1006000052EA030012D082EA040083EA050108439B
:1006100005D0101BAB4106D20122002306E00022C8
:100620004FF0004302E06FF0010253101AEB060096
:100630004CEB085110EB0A0041EB0B01BDE8F04D0B
:1006400000F073B8C1F30A52C1F3130140F2FF3353
:1006500041F480119A4202DA00200146704740F2CC
:1006600033439A42A2F2334202DC524200F03BB8DA
:1006700000F02AB830B5041E71F1000404DB4FF01D
:100680000044404264EB0101141E73F1000405DBD9
:100690001C464FF00043524263EB0403994208BFEB
:1006A000904230BD064C074D06E0E06840F0010383
:1006B00094E8070098471034AC42F6D3FFF7A4FD46
:1006C0006844000088440000202A04DB203A00FA35
:1006D00002F1002070479140C2F1200320FA03F399
:1006E000194390407047202A04DB203A21FA02F097
:1006F0000021704721FA02F3D040C2F1200291405C
:10070000084319467047202A06DBCB17203A41FAE6
:1007100002F043EAE07306E041FA02F3D040C2F18E
:100720002002914008431946704710B5141E73F11A
:10073000000408DA401C41F1000192185B411A43A1
:1007400001D120F0010010BD2DE9F04D92469B46ED
:1007500011B1B1FA81F202E0B0FA80F22032904693
:10076000FFF7B2FF04460F4640EA0A0041EA0B01D8
:1007700053465A46084313D0114653EA010019D094
:10078000C8F140025046FFF7AEFF05460E46504600
:1007900059464246FFF798FF084305D0012004E080
:1007A00020463946BDE8F08D0020054346EAE07654
:1007B0002C4337430A986305E40AA0EB08000022A3
:1007C000FD0A44EA47540A3002D500200146E9E711
:1007D000010510196941DDE9084500196941BDE8C5
:1007E000F04DA2E72DE9F04F00258DB00122DFF892
:1007F0009CC1A8464FF480702B461746CDF8085090
:1008000000F1804101F5C0410C460968012908D179
:10081000DCF80413114204D0C4F8008021681543A9
:100820000591001D52005B1C80B2082BE8D358488C
:10083000DFF86091016801290AD1C0F800800068E2
:100840000090D9F8000045F00045D0F8100502905E
:10085000514C15F0FF0F1CBF4FF0010A002619D0B4
:100860001AEA050F11D0B00000F1804101F5C04136
:10087000D1F81005D1F81015C0F3042054F8262043
:10088000C1F30141002A18BF90474FEA4A0A761C7B
:10089000082EE5D315F0004F19BF4FF0FF30CDE91A
:1008A00009800DB0BDE8F08F002594F8443059B2AE
:1008B00023F0C000B1F1FF3F41D00AA9C20800F007
:1008C000070C895C07FA0CF60E4204BF0DB0BDE8B8
:1008D000F08F9909231893F9243054F8233013B179
:1008E000032905D00CE003291CBF0DB0BDE8F08F33
:1008F0000DF1240C1CF802B04BEA060A0CF802A019
:100900004FF0A04C0CEB800CDCF800870DF1080ACE
:10091000C8F301481AF80220164205D0B8F1020FB8
:1009200008D00DB0BDE8F08FB8F1030F1CBF0DB0BB
:10093000BDE8F08F032915D0002B18BF9847002D74
:1009400004BF0DB0BDE8F08FD9F80000D0F8100555
:100950000299884204BF0DB0BDE8F08F029009985B
:100960000A90A1E7B8F1020F14BF02220322DCF8BB
:10097000005725F44035CCF80057DCF8005745EA1D
:100980000242CCF800270125D6E7000000600040B5
:100990007C6100404844000018410020F0B50E2062
:1009A0002DED028B81B003F011FA9548D0F80411B7
:1009B000002902BF01B0BDEC028BF0BD0026C0F8DB
:1009C0000461012707608F4D687A401C68728E4869
:1009D000D0F80011002904BFD0F8041100291DD05F
:1009E000C0F80061C0F80461884909680091009A64
:1009F00011F4006F4FF0030102F4805203D0002A7B
:100A000008BF022102E0002A08BF3946A972E98A1C
:100A1000A98295ED1A0A85ED190AEF72D0F808112E
:100A20009FED7B8A00291CBFC0F808612F7343D15A
:100A3000E87A18B1E88AA882EE723DE0B5F91800AC
:100A40000028B4BF002484B22878012808BF44F4E9
:100A5000804411D0022808BF44F400440CD003287D
:100A600014BF042844F4404406D06A4A4FF0FC0105
:100A70004FF0000001F072FCAC822978B5F9180043
:100A8000012942D0022947D003294ED0042904BFAE
:100A900095ED130AF2EE040A44D05E4A4FF49471C5
:100AA000002001F05BFCB0EE480A00BF85ED190A9A
:100AB00085ED1A0AA88AE882A87A2870E8690128D0
:100AC00005D955A240F22121002001F047FCE86938
:100AD000544B00EBC001544C01EB403103EB41039C
:100AE00054F82010AA8A23F81120491C44F8201039
:100AF00042F20900814205D347A240F22A21002098
:100B000001F02CFC287B10BB16E000EE100AD5ED9E
:100B1000150AB8EEC00A05E000EE100AD5ED140A79
:100B2000B8EEC00A20EE200AC0E700EE100AD5EDAC
:100B3000130AB8EEC00AF5E795ED0C0AD5ED190ACF
:100B4000B8EE400AF4EEC00AF1EE10FA01DBE879E3
:100B5000B0B3E86944F8206095ED1B0AD5ED190A99
:100B600030EE200A85ED1B0A697A288A814218D363
:100B700000EE900AAA6DA0EB0011F8EE600A02EBFD
:100B800041010F31E96580EE201A95ED0B0A31EE37
:100B9000000A85ED0A0A85ED0B8AEF7085ED1B8A48
:100BA0006E72A87B03F07CF9002824D001B0194AAA
:100BB0004FF4A971BDEC028BBDE8F04001F0CEBB53
:100BC000687B10B1A86D28666E732F73E8696A8A16
:100BD00054F820109142BFD36F7344F82060C5E9E8
:100BE0000760AF702E73A8790028B5D0AE714FF0B2
:100BF000FF302863B0E701B0BDEC028BF0BD000010
:100C0000007000400000002000600040100500500F
:100C100000000000B84300002E2E5C6D61696E2E4E
:100C20006300000090000020240000202DE9F8431C
:100C30001E4D0124E8462878002808BF00F086FDF4
:100C400005F14807AE6DD5F854900025B14513D293
:100C5000B868801B012838BF0446254678682246BC
:100C600081194046FFF7E8FAB8682E44A844C5F158
:100C70000104B04208BF0026A9EB0600844288BFE9
:100C800004463CB17868224681194046FFF7D4FA01
:100C900025442644002D18BF3E61012D0CBF9DF850
:100CA00000004FF0FF30BDE8F8830000CC55002075
:100CB00010B5064C2078002808BF00F047FDA06D55
:100CC000616D814214BF0120002010BDCC55002071
:100CD0002DE9F0471D4E0446884630781546002819
:100CE00008BF00F033FD04EB440006EBC00000F148
:100CF0004807866DD0F8549000244E4511D9B86845
:100D0000841BA54298BF2C4678682246811940462C
:100D1000FFF792FAB8682D1B2644A044B04208BFE2
:100D20000026A9EB0600854288BF05463DB17868DC
:100D30002A4681194046FFF77FFA2C442E44002CA6
:100D400018BF3E612046BDE8F0870000CC5500206A
:100D500070B5084B14460D461B780646002B08BF9D
:100D600000F0F4FC224629463046BDE8704000F011
:100D700003B80000CC5500202DE9F0411546284A63
:100D800000EB400002EBC00000F11804C06A38B16B
:100D900001281ED002283CD000252846BDE8F0815D
:100DA0002269E06882429DBFA368181A1044101A95
:100DB000401EA842F0D3E7688846A068C61BB5422B
:100DC00019D260682A463844FFF736FA7819E0608D
:100DD000E3E72269E06882429DBFA368181A1044C5
:100DE000101A401EA84238BF05468846E768A0682A
:100DF000C61BAE42E5D8606832463844FFF71CFA9D
:100E0000AF1B08EB06013A466068FFF715FAE7608A
:100E1000C3E72A46204600F06CFD0546BDE700000A
:100E2000CC5500200FB408B504A900916A46039977
:100E300000F004F801B05DF814FB00002DE9F04F5C
:100E4000ADF2344D804602A8CDF8180400274FF4C7
:100E50008060DFF8C89216460C46CDF820744FF03B
:100E6000080ACDF82884CDF82474CDF81C0400BFFE
:100E700014F8011B002900F03981252904BF002046
:100E800001210BD00DF5836000F014FDDDF8240482
:100E90000028EDDA0DF2344DBDE8F08F2278232AD8
:100EA00008BF40F008000ED02B2A08BF40F0040015
:100EB00009D02D2A08BF40F0010004D0302A08BF15
:100EC00040F0020002D1641C0029E7D100252178FE
:100ED000A1F130020A2A07D205EB850201EB42019B
:100EE000A1F13005641CF2E70023CAB22E2A08BF24
:100EF000641C0CD12178A1F130020A2A07D203EB3D
:100F0000830201EB4201A1F13003641CF2E76C297A
:100F100014BF682914F8011BF9D0702973D008DCBC
:100F2000252971D0582970D0632909D0642910D09F
:100F3000DAE073296AD0752969D0782965D0D3E0C1
:100F40003068011D316001780DF5836000F0B2FC5E
:100F5000CAE031680A1D326009680DF58362CDF878
:100F60000C34CDF81024CDF80814CDF81404002961
:100F7000B4BF484208464FF0010B0A2809DB00BF06
:100F800089FB00108110A1EBE0700BF1010B0A2826
:100F9000F6DA18465B4588BF83464DB1DDF8080494
:100FA0000028A4BFDDF8140410F0040F18BF6D1E54
:100FB000DDF8140410F0020F00D09BB1DDF814042A
:100FC00010F0010F0ED15DB90CE020216D1EDDF88F
:100FD000100400F06FFCDDF82404002871DB0DB173
:100FE000AB45F2D3DDF8240400287DDBDDF80804EE
:100FF00000280DDA4042CDF808042D21DDF8100458
:1010000000F058FC0EE05DE069E040E049E034E0CB
:10101000DDF8140410F0040F08D02B21DDF81004C3
:1010200000F048FCDDF8240400285DDBDDF8140442
:1010300000F00300022804BFDDF80C04002810D1E2
:101040006DB90EE04FF03001A5F10105DDF8100497
:1010500000F030FCDDF82404002845DB0DB1AB4581
:10106000F0D3DDF814040A22CDE90050DDF80C3489
:10107000DDF80814DDF810042EE031680A1D326036
:101080000968CDE900500A220DF5836024E031683B
:101090000A1D32600968CDE9005010220DF5836009
:1010A0001AE03068011D3160D0F8005015F8011BBE
:1010B00039B10DF5836000F0FDFBDDF82404002854
:1010C000F4DA11E030680823011D31600168CDE9D0
:1010D00000A710220DF5836000F074FB04E02521C9
:1010E0000DF5836000F0E6FB641CCFE6DDF8240418
:1010F0000028DCBF0DF2344DBDE8F08FDDF8200490
:1011000020B1024602A94046FFF722FEDDF8201476
:10111000DDF824040844CDF82404BBE6676666665F
:101120000148806800470000CC4000200148C068AA
:1011300000470000CC4000202DE9F84F2948002747
:10114000C0F80071D0F800010090102226493846FE
:10115000FFF7BEFD06003D4608BFBDE8F88FDFF88B
:1011600088A0224C4FF0020B4FF001080AF1100941
:101170001AF80500217821B101290AD0022926D0C8
:1011800020E0022808BF67601CD100BF84F80080FF
:1011900018E01F2808BF84F800B013D003280BD034
:1011A000022808BF67600DD0616809F80100481C7B
:1011B00000F00F00606005E0A26812B10C486168A1
:1011C000904727706D1CB542D2D3BDE8F88F80F0F0
:1011D0002001606809F80010401C00F00F006060FA
:1011E000D4E7000000400140AC4000207000002027
:1011F000BC40002070B4BF480023021D01780124C8
:10120000101D4FF0805C062904BF157815F00F0FF4
:1012100006D0062904BF157815F00F0F13D10DE085
:10122000057805F0F005302D1CBF402D502DF0D174
:10123000BCF82453B04EC5F304253560057805F09D
:10124000F005302D0CD0062904BF157815F00F0FCE
:101250000AD0062904BF157815F00F0F17D111E039
:10126000A74EA64D756707E0057805F0F005302D0F
:101270001CBF402D502DECD1DCF84452A14EC5F3DB
:1012800042353560057805F0F005302D0CD0062983
:1012900004BF157815F00F0F0CD0062904BF157880
:1012A00015F00F0F1BD115E0974D2E6826F08076B4
:1012B0002E6007E0057805F0F005302D1CBF402DAD
:1012C000502DEAD14FF08045C5F80C31C5F81031EA
:1012D0008E4D2B60057805F0F005302D06D00629DF
:1012E00004BF157815F00F0F0AD104E0884E4FF0B7
:1012F000030535600BE0057805F0F005302D06D0CC
:10130000062904BF157815F00F0F12D10CE0814E9D
:101310004FF005053560804D2C60804D2B6006F147
:1013200004064FF03F053560057805F0F005502DB7
:101330000CD0062904BF157815F00F0F58D00629D8
:1013400004BF117811F00F0F70D15FE0744D2D685C
:10135000744E3560744D2D6806F104063560734D8A
:101360002D6806F104063560714D2D6806F10406FE
:101370003560704D2D6806F1040635606E4D2D68A0
:1013800006F1040635606D4D2D686D4E35606D4D6E
:101390002D6806F1040635606B4D2D6806F10406D4
:1013A00035606A4D2D6806F104063560684D2D687C
:1013B00006F104063560674D2D6806F104063560B8
:1013C000654D2D68654E3560654D2D6806F1040646
:1013D0003560644D2D6806F104063560624D2D6858
:1013E00006F104063560614D2D6806F1040635608E
:1013F000057805F0F005302D1CBF402D502D9ED1F5
:10140000DCF858125A4A01F04F011160007800F0E0
:10141000F00030281CBF4028502807D155480168EB
:1014200011F0010F1CBF6FF001010160524801680B
:1014300041F470010160BFF34F8FBFF36F8F4FF026
:101440001025D5F80C024D4910F0010F4C4ADFF879
:1014500034C14D4818BFCCF800401BD00468002CA4
:10146000FCD0D5F80C4224F00104C5F80C42046805
:10147000002CFCD0CCF800300368002BFCD0BFF36C
:101480004F8F086800F4E06040EA02000860BFF394
:101490004F8FFEE7D5F8006216F0004F06BFD5F873
:1014A000046216F0004FCCF800401ED00468002CF7
:1014B000FCD04FF01506C5F800620468002CFCD083
:1014C000C5F804620468002CFCD0CCF80030036836
:1014D000002BFCD0BFF34F8F086800F4E06040EAB7
:1014E00002000860BFF34F8FFEE7294927480860D4
:1014F00070BC7047E00F00F0403501400DF0ADBA10
:1015000000C007403C050040FCED00E0380500400D
:10151000A005004010560040885600401856004074
:101520000404001020C50040080400100C04001042
:101530001004001014040010180400101C04001003
:1015400040C50040200400102404001028040010AE
:101550002C040010300400103404001060C500405A
:10156000380400103C040010400400104404001033
:10157000E40E00400004004088ED00E00CED00E0C7
:101580000400FA0504E5014000E401400090D003A6
:101590008C0000202DE9F84F0426104C0025104F38
:1015A0004FF4A0784FF48039AA4600BF08EB8500BD
:1015B00009FA05F12258002A1CBFD4F804230A4274
:1015C00006D044F800A021580091D7E900219047A7
:1015D000681CC5B2B542E9D3BDE8F88F0080004071
:1015E000004100202DE9F84F0427104C104E002533
:1015F0004FF4A0784FF480394FEA050A08EB8500D4
:1016000009FA05F12258002A1CBFD4F804230A4223
:1016100006D044F800A021580091D6E90021904757
:10162000681CC5B2BD42E9D3BDE8F88F0090004008
:101630000C410020F0B5434C85B0D4F82401424D54
:10164000012700262968C0B1C4F82461D4F8240118
:10165000049002208DF80000D4F88004C4F88004BF
:101660000390D4F83C058DF80800E8680190EE7509
:101670002E766A68684690472EE0D4F8100100B3D1
:10168000C4F81061D4F810010090D4F83C05EA7D4C
:10169000C0B2824220D12A7EA2B1EA68D4F80032D8
:1016A00023F02003C4F800322B7EEB752B69EB602E
:1016B0002E768DF800708DF8080001926A686846F1
:1016C000904709E0EE75EA688DF800708DF8080023
:1016D00001926A6868469047D4F8440198B1C4F80A
:1016E0004461D4F844010090E87D60B1EE75D4F80F
:1016F0003C05E9688DF808008DF800700191D5E986
:10170000001268469047D4F82001002804BF05B0B5
:10171000F0BDC4F82061D4F820010090A87D002815
:1017200004BF05B0F0BDD4F84C058DF800608DF80D
:101730000800A8680190AE75D5E900126846904788
:1017400005B0F0BD002000406041002010B5124CF3
:10175000022012A12061C4E905011349E1614FF49F
:10176000A25121620021A162616210A2A264E06222
:10177000A4F11002E26410222265A1656165E065B2
:101780000DA00EA10068C4F80700204600F0F7F88D
:101790002020A07110BD0000CC550020525454559B
:1017A0007050504B000000007C41002052545444C3
:1017B0006F776E50504B00005254540053454747CA
:1017C000455200002DE9F84F0126DDE90A5B9046FD
:1017D000824699460C4608463746414505D300BF28
:1017E000B0FBF8F07F1C4045FAD2B94588BF1F46D0
:1017F0001BF0010F19D1C5B11BF0020F04D0B9F1D4
:10180000000F08BF302000D0202000900BE0504691
:101810006D1E009900F04EF8DAF80C000028B8BFF1
:10182000BDE8F88F0DB1AF42F1D3DAF80C00002813
:10183000B8BFBDE8F88F00BFB9F1010F96BFB4FB88
:10184000F6F0A9F10109404528BF06FB08F6F3D2DE
:10185000DFF85C90B4FBF6F000FB164419F80010BA
:10186000504600F027F8DAF80C00002803DBB6FB3E
:10187000F8F6002EEED11BF0010F14BF002DBDE8CD
:10188000F88F10E04FF020015046A5F1010500F05F
:1018900011F8DAF80C000028B8BFBDE8F88F002D69
:1018A00008BFBDE8F88FBD42ECD8BDE8F88F000056
:1018B0004C44000010B50446D4E90130421C934268
:1018C00005D323681954A260E068401CE060D4E9A5
:1018D0000102824218BF10BD21682069FFF738FA63
:1018E000A168884219BF4FF0FF30E0600020A0607F
:1018F00010BD2DE9F047C4681746894606464FF0EB
:1019000000083069A0428FBF001B201AB168081A76
:10191000451EB068001BA84298BF0546BD4228BFBF
:101920003D4670682A4620444946FEF785FCB0686B
:101930007F1B2C44A844A944A04208BF0024F460A3
:10194000002FDED14046BDE8F08700000FB4084B01
:1019500010B504A902AA039800F0ECF8044602A905
:10196000002000F07EFC204610BC5DF814FB000057
:1019700063220000002101604160018170470A6814
:1019800002608B88838091F806C080F806C070479B
:1019900002E008C8121F08C1002AFAD17047704738
:1019A000002001E001C1121F002AFBD17047000096
:1019B0002DE9FF5F82B00021DDE90430020DDDF882
:1019C00040B0034318D044F61050A2F2FF32424315
:1019D0001514119801281FD0A5EB0B00401C5FEADD
:1019E000000A4FF000064E4FDFF83891B0465046DF
:1019F00015D5CAF1000413E0119801244AA3012867
:101A000001D16FEA0B010298119AC0E90031C0E9D7
:101A1000024206B0BDE8F09FCBF10000DFE70446CC
:101A20000021404A491842EB0450CDE9001012E071
:101A3000E00707D032463B4640464946FEF721FDC7
:101A40008046894632463B4610461946FEF719FD48
:101A500006460F466410002CEAD1DDE90401DDE9F9
:101A60000023BAF1000F06DAFEF70BFD42464B46A3
:101A7000FEF707FD05E0FEF776FD42464B46FEF712
:101A800072FD04460E460022284BFEF7F3FD03D8F4
:101A90004FF0FF30014607E00022254B204631463B
:101AA000FEF748FCFEF7CEFD102409E0002C0ADB0F
:101AB0000A220023FEF70DFC039B30321A55641EE8
:101AC00050EA0102F2D1641C039AC4F111031444D8
:101AD000119A012A03D0012208430DD10AE00843DC
:101AE00004D000204FF0110B119072E7A3EB0B050F
:101AF0006D1E0DE05B4504DD4FF0000205F10105B0
:101B000004E003DA4FF00002A5F10105002AECD051
:101B100002981199C0E90231C0E9004579E7000057
:101B2000000014400000F03F300000000000F043CF
:101B30000000E03F2DE9FF4F95B09B4689460646E1
:101B400000250FE2252877D100242746F84A0121F5
:101B5000059400E0044316F8013F203B01FA03F02E
:101B60001042F7D130782A2811D06FF02F03307847
:101B7000A0F13002092A16D8059A44F0020402EBBB
:101B8000820203EB42021044761C0590EFE759F8FD
:101B9000042B0592002A03DA504244F400540590C5
:101BA00044F00204761C30782E2816D116F8010F66
:101BB00044F004042A280DD06FF02F023078A0F1F1
:101BC0003003092B09D807EB870302EB4303C7183F
:101BD000761CF3E759F8047B761C30786C280FD01C
:101BE00006DC4C2817D068280DD06A2814D104E0F0
:101BF000742810D07A280FD10DE044F400140AE0C4
:101C000044F4801401E044F440147278824202D11A
:101C100004F58014761C761C307866280BD013DC13
:101C2000582877D009DC002875D04528F6D04628FA
:101C3000F4D047281AD19DE118E0632835D06428F4
:101C400079D0652812D195E1702873D008DC672817
:101C5000F1D069286FD06E280DD06F2806D1B5E07D
:101C600073282CD0752875D0782874D05A461799C7
:101C700090476D1C75E1C4F30250022809D0032877
:101C80000DD0D9F8001004280DD00D6009F1040919
:101C900067E1D9F80010EA17C1E90052F6E7D9F870
:101CA00000100D80F2E70D70F0E719F8041B8DF8B5
:101CB000001000208DF80100EA46012003E059F8E9
:101CC00004AB4FF0FF3061074FF0000102D40DE08C
:101CD00008F101018846B9420FDA8045F8DB1AF8AD
:101CE00008100029F4D108E008F10101884681427A
:101CF000FADB1AF808100029F6D105985B46A0EB2C
:101D0000080721463846179A00F094FA284400EB59
:101D1000080507E04DE029E10DE01AF8010B5A46ED
:101D200017999047B8F10108F7D25B46214638462B
:101D3000179A13E142E00A220092C4F302524FF0D4
:101D4000000A022A08D059F804CB032A4FEAEC71A2
:101D50000AD00DE029E02AE009F1070121F007028D
:101D6000F2E802C1914609E00FFA8CFC4FEAEC71EF
:101D7000042A03D14FFA8CFC4FEAEC71002907DAF0
:101D80000A460021DCF1000C61EB02012D2202E089
:101D9000220504D52B228DF80420012203E0E2075E
:101DA00001D02022F7E7904659E00A2102E01022F4
:101DB0000DE010214FF0000A00910BE010224FF0CF
:101DC000000A44F004040827009203E008224FF0C0
:101DD000000A0092C4F30252022A05D059F804CB3B
:101DE0000021032A08D009E009F1070121F00702C8
:101DF000F2E802C1914605E01FFA8CFC042A01D1E9
:101E00000CF0FF0C4FF00008220728D5702806D0F0
:101E1000009B83F0100353EA0A0305D00EE0402232
:101E20008DF80420012208E05CEA010206D030228D
:101E30008DF804208DF8050002229046009B83F067
:101E4000080353EA0A030AD15CEA010201D16207DE
:101E500005D530228DF804204FF001087F1E582848
:101E600004D034A003900EA802900DE036A0F9E74C
:101E700053466046009AFEF72CFA84460398825C2B
:101E80000298401E029002705CEA0100F0D10298B4
:101E900006A9081A00F1200A600702D524F480344C
:101EA00000E00127574502DDA7EB0A0000E0002013
:101EB00000EB0A01009005984144401A0590E003A8
:101EC00006D45B462146179A059800F0B3F90544FD
:101ED000002706E001A85A46C05D179990476D1C7F
:101EE0007F1C4745F6DBE0030CD55B462146179A7D
:101EF000059800F09FF9054404E030205A461799F0
:101F000090476D1C0099481E00900029F5DC08E000
:101F1000029802995A460078491C029117999047F5
:101F20006D1CBAF10001AAF1010AF1DC65E10000C3
:101F3000092801003031323334353637383961629F
:101F40006364656600000000303132333435363763
:101F500038394142434445460000000000F058F93A
:101F60000544761C307800287FF4ECAD19B0284683
:101F7000BDE8F08F620700D4062709F1070222F0BE
:101F8000070CFCE80223E14603F000485FEA080C76
:101F900002D00FF2702C0DE05FEA045C02D50FF264
:101FA000682C07E05FEAC47C02D00FF2602C01E0ED
:101FB000AFF2700C4FF0FF3823F00043CDF850C063
:101FC00065280CD006DC452809D046281DD04728B6
:101FD0003DD13DE0662818D067287ED138E0002149
:101FE000112F01DB112000E0781CCDE9000106A9CA
:101FF0000EA8FFF7DDFCDDE90F010E9A0391002129
:10200000009207F1010A04914DE04FF00040009763
:10201000CDE9011006A90EA8FFF7CAFCDDE90F0201
:1020200003920E9B11990022DDF80CA000930492FC
:1020300011B9791C00EB010AB7EB0A0004D4C0F116
:10204000FF3007F1010A0490AAEB0700019044E079
:10205000012F00DA01270021112F01DD112000E0FE
:102060003846CDE9000106A90EA8FFF7A1FCDDE97D
:102070000F010E9A0391002104910092BA462107A4
:102080000CD40399514500DA8A46BAF1010F05DDF7
:10209000009AAAF10101515C302908D0B84202DA55
:1020A00010F1040F06DA0121CDE9011015E0AAF1C3
:1020B0000101E9E7002805DC049901440491AAEB39
:1020C000000102E0411C514500DD8A460499401A96
:1020D000401C01904FF000400290200704D401986A
:1020E000504501DBCDF8048000208DF84F000298A8
:1020F0000DF14F07B0F1004F25D02B200E90029824
:102100004FF0020800280CDA404202902D200E9079
:1021100007E00A210298FEF7C6F83031029007F86E
:10212000011DB8F10001A8F10108F2DC02980028B5
:10213000EFD1791E0E980870307800F0200040F042
:10214000450007F8020D12A8C01B00F107081498FB
:10215000007800B1012000EB0A01019801EBE07169
:1021600005984144401A401E0590E00306D45B46A2
:102170002146179A059800F05DF8054414980078F8
:1021800018B15A46179990476D1CE00324D55B4659
:102190002146179A059800F04DF805441CE0049874
:1021A000002807DBDDE90301884203DD0098405C7D
:1021B000179901E0179930205A469047049805F185
:1021C0000105401C04900198401E019004D12E206E
:1021D0005A46179990476D1CBAF10001AAF1010AFD
:1021E000DDDC05E017F8010B5A46179990476D1C86
:1021F000B8F10001A8F10108F4DC5B462146179A0A
:102200000598ABE62D0000002B0000002000000028
:102210002DE9F041044600251E461746880404D4E3
:1022200005E039462020B0476D1C641EF9D52846CC
:10223000BDE8F0812DE9F041044600251E46904698
:10224000C80301D5302700E02027880404D505E025
:1022500041463846B0476D1C641EF9D52846BDE896
:10226000F0810A68531C0B601070704710B582B083
:10227000506800901446138892682EA10020FEF743
:10228000D1FD01208DF80400A06800902088ADF8F1
:102290000000BDF8000072B69DF80400002804BFDD
:1022A00002B010BD2A4B2B482B4A0168184600BFCC
:1022B00000BF00BF00BF00BF00BF00BF00BF914212
:1022C0002FD000BF00BF00BF00BF00BF00BF00BFD6
:1022D00000BF00BF00BF00BF00BF00BF00BF00BF06
:1022E00000BF00BF00BF00BF00BF00BF00BF00BFF6
:1022F00000BF00BF00BF00BF00BF00BF00BF00BFE6
:1023000000BF00BF00BF00BF00BF00BF00BF00BFD5
:1023100000BF00BF00BF00BF00BF00BF00BF00BFC5
:1023200000BF0138C3D19DF804000028BED102B01F
:1023300010BD00006572723A202578206C696E65C8
:102340003A2025782066696C653A202573000000E4
:10235000400D03008C0000200024F40000B583B081
:10236000ADF80010CDE901206A46002144F20100D9
:10237000FFF77CFF03B000BD72B602480168491C3C
:10238000016070478800002003490868401E08600B
:1023900018BF704762B67047880000202DE9F05FD3
:1023A0000E0007464FF0000508BFBDE8F09F4FF054
:1023B000020B214CDFF884A04FF000084FF0010918
:1023C000785D217821B101290BD0022929D023E0A1
:1023D000022808BFC4F804801ED100BF84F8009012
:1023E0001AE01F2808BF84F800B015D003280CD0CD
:1023F000022808BFC4F804800ED061680AF8010002
:10240000481C00F00F00606006E0A26812B10B48A3
:102410006168904784F800806D1CB542D0D3BDE858
:10242000F09F80F0200160680AF80010401C00F066
:102430000F006060D2E7000070000020BC40002068
:10244000084910B5886008490320C1F8000707490A
:102450000120C1F804030621142001F0E1FA002054
:1024600010BD0000700000202C0000500040014012
:102470002DE9F04385B08146022017460D468DF8C0
:102480000800012202A94846FEF762FC0326012843
:1024900018BF8DF8006007D0012269464846FEF754
:1024A00057FC0128F8D161E00024002F88BF4FF0CD
:1024B0001F0845D9285D02281CBF03281F2813D0F8
:1024C0008DF808004FF0010202A94846FEF740FCD3
:1024D000012832D08DF80060012269464846FEF797
:1024E00037FC0128F8D141E08DF80880012202A9CB
:1024F0004846FEF72DFC012809D08DF80060012226
:1025000069464846FEF724FC0128F8D12EE0285DF4
:10251000012280F020008DF8080002A94846FEF74D
:1025200017FC012809D08DF8006001226946484651
:10253000FEF70EFC0128F8D118E0641CBC42B9D3A8
:102540008DF80860012202A94846FEF701FC012827
:1025500011BF8DF80060002005B0BDE8F0830122B6
:1025600069464846FEF7F4FB0128F8D105B0112072
:10257000BDE8F08310B5064C2068807800F0C6FCFA
:1025800000281CBF012010BD0020206010BD0000ED
:102590005056002001490020086070475056002026
:1025A00070B5084D0446286848B944B1A078211D8B
:1025B00000F088FD002802BF00202C6070BD0120C3
:1025C00070BD000050560020F7B5164C0646154663
:1025D000206820B35EB19DF8041003884A199A421E
:1025E00005D825B101F00F012944102902D903B003
:1025F0000220F0BD8078022100F0C8FD206801AA09
:102600000121807800F0CAFD48B920683246294689
:10261000807800F06DFD002804BF03B0F0BD0120FC
:1026200003B0F0BD5056002070B5184D14462A680E
:1026300012B349B112880319934205D824B100F0AE
:102640000F022244102A01D9022070BD28712246AF
:10265000681DFDF7F1FD28680121807800F096FDE6
:1026600028682A1D611C807800F098FD002804BFAE
:1026700000204FF6FF7101D0012070BD00BF401C4B
:1026800080B28842FAD3002070BD0000505600206E
:1026900010B5064C2068407800F038FC00281CBFBC
:1026A000012010BD0020206010BD00004456002015
:1026B00001490020086070474456002070B5234C43
:1026C0000546206828B925B16878291D00F0FAFC74
:1026D00008B1012070BD25602878102833D2DFE8CA
:1026E00000F0080813131E1E29290D0D18182323A6
:1026F0002D2D8120208141F2883023E040F201100D
:10270000208141F288301DE08120208142F210704A
:1027100018E040F20110208142F2107012E0812096
:1027200020814CF250300DE040F2011020814CF23B
:10273000503007E081202081054803E040F201107D
:10274000208103486060002070BD000044560020D6
:10275000A08601002DE9F8431646042828BFFF2271
:1027600004D23EA2126800921DF800203C4FD7F818
:102770000080B8F1000F6DD0002E18BFFF2A04D0E2
:1027800000291CBF0129022903D04FF00200BDE837
:10279000F88335684B2D34BF4B242C46304BB3F8AF
:1027A00008905B68A9F1010C21B1012910D0022920
:1027B0001ED036E0A4F14B000CFB00F0B0FBF3F0B0
:1027C00080B203FB00F1B1FBFCF101F14B0428E006
:1027D000A4F14B000CFB00F000EB5300B0FBF3F056
:1027E00080B203FB00F1B1FBFCF101F14B0418E0F6
:1027F000A4F14B000CFB00F0B0FBF3F080B203FB44
:1028000000F1B1FBFCF101F14B04814588BFA54209
:1028100007D9401C80B203FB00F1B1FBFCF101F1D0
:102820004B04C0F3012141EA02118DF800108DF82C
:10283000010098F80100012100F0A8FC38686A4600
:102840000221407800F0AAFC002802BF002034607A
:10285000BDE8F8830120BDE8F88300000001060709
:1028600044560020FFF796BE08B500208DF8000002
:102870000F48FFF795FE18B10EA2DD21FFF76EFDA0
:1028800001220F216846FFF79FFE18B109A2E0213F
:10289000FFF764FDFFF76EFE18B106A2E321FFF714
:1028A0005DFD9DF80000012818BF002008BD000054
:1028B0005C4400002E2E5C2E2E5C2E2E5C736F75F9
:1028C0007263655C656570726F6D2E630000000059
:1028D00008B500208DF800000F48FFF761FE18B121
:1028E0000EA2F321FFF73AFD01222F216846FFF7E0
:1028F0006BFE18B109A2F621FFF730FDFFF73AFE93
:1029000018B106A2F921FFF729FD9DF80000012862
:1029100018BF002008BD00005C4400002E2E5C2E75
:102920002E5C2E2E5C736F757263655C65657072CC
:102930006F6D2E630000000010B504461848FFF7C5
:102940002FFE18B117A2B821FFF708FD04220021BD
:102950002046FFF739FE18B112A2BB21FFF7FEFC9B
:1029600004220521201DFFF72FFE18B10DA2BD2165
:10297000FFF7F4FC04220A2104F10800FFF724FE0B
:1029800018B108A2BF21FFF7E9FCFFF7F3FD00280B
:1029900008BF10BD03A2BDE81040C221FFF7DEBC96
:1029A0005C4400002E2E5C2E2E5C2E2E5C736F7508
:1029B0007263655C656570726F6D2E630000000068
:1029C00010B504461848FFF7EBFD18B117A2CA214D
:1029D000FFF7C4FC042220212046FFF7F5FD18B1C3
:1029E00012A2CD21FFF7BAFC04221B21201DFFF704
:1029F000EBFD18B10DA2CF21FFF7B0FC04222A2174
:102A000004F10800FFF7E0FD18B108A2D121FFF79B
:102A1000A5FCFFF7AFFD002808BF10BD03A2BDE86D
:102A20001040D421FFF79ABC5C4400002E2E5C2E8F
:102A30002E5C2E2E5C736F757263655C65657072BB
:102A40006F6D2E630000000010B504460E48FFF7BE
:102A5000A7FD18B10DA2A921FFF780FC02223021A9
:102A60002046FFF7B1FD18B108A2AC21FFF776FCB4
:102A7000FFF780FD002808BF10BD04A2BDE810408C
:102A8000AF21FFF76BBC00005C4400002E2E5C2ED3
:102A90002E5C2E2E5C736F757263655C656570725B
:102AA0006F6D2E630000000010B504461348FFF759
:102AB00077FD18B112A29721FFF750FC02223421B2
:102AC0002046FFF781FD18B10DA29A21FFF746FCC1
:102AD00002223221A01CFFF777FD18B108A29C2129
:102AE000FFF73CFCFFF746FD002808BF10BD04A21D
:102AF000BDE810409F21FFF731BC00005C4400009E
:102B00002E2E5C2E2E5C2E2E5C736F757263655CB0
:102B1000656570726F6D2E630000000001B50D4891
:102B2000FFF73EFD18B10CA26521FFF717FC02224A
:102B300069463220FFF778FD18B107A26821FFF738
:102B40000DFCFFF717FD18B103A26B21FFF706FC80
:102B5000002008BD5C4400002E2E5C2E2E5C2E2E24
:102B60005C736F757263655C656570726F6D2E6303
:102B70000000000001B50D48FFF712FD18B10CA2CE
:102B80007621FFF7EBFB022269463420FFF74CFD6C
:102B900018B107A27921FFF7E1FBFFF7EBFC18B1B1
:102BA00003A27C21FFF7DAFB002008BD5C44000093
:102BB0002E2E5C2E2E5C2E2E5C736F757263655C00
:102BC000656570726F6D2E630000000001B51E48D0
:102BD0002DED040BFFF7E4FC18B11CA24821FFF710
:102BE000BDFB042269460020FFF71EFD18B117A2A5
:102BF0004E21FFF7B3FB042201A90520FFF714FDC6
:102C000018B112A25121FFF7A9FB042202A90A2040
:102C1000FFF70AFD18B10DA25421FFF79FFB012217
:102C200004A90F20FFF700FD18B108A25721FFF7F4
:102C300095FBFFF79FFC18B104A25A21FFF78EFB0A
:102C400005B0002000BD00005C4400002E2E5C2E6C
:102C50002E5C2E2E5C736F757263655C6565707299
:102C60006F6D2E630000000001B51E482DED040BB2
:102C7000FFF796FC18B11CA22221FFF76FFB04227C
:102C800069462020FFF7D0FC18B117A22821FFF7D2
:102C900065FB042201A91B20FFF7C6FC18B112A294
:102CA0002B21FFF75BFB042202A92A20FFF7BCFCC3
:102CB00018B10DA22E21FFF751FB012204A92F20EC
:102CC000FFF7B2FC18B108A23121FFF747FBFFF76D
:102CD00051FC18B104A23421FFF740FB05B00020DD
:102CE00000BD00005C4400002E2E5C2E2E5C2E2EBB
:102CF0005C736F757263655C656570726F6D2E6372
:102D00000000000001B50D48FFF74AFC18B10CA205
:102D10008721FFF723FB022269463020FFF784FC5E
:102D200018B107A28A21FFF719FBFFF723FC18B19E
:102D300003A28D21FFF712FB002008BD5C440000B8
:102D40002E2E5C2E2E5C2E2E5C736F757263655C6E
:102D5000656570726F6D2E63000000001E490128CA
:102D60000A6805D0022804BF4B79002B1DD001E072
:102D7000087910B14FF0000070471088174BC0F36E
:102D800085101860106803F10403C0F30530186063
:102D90001078134A00F03F001060124A4FF0010013
:102DA000106008711048886013E01379DFF83CC0A8
:102DB00003F03F03CCF8003092880CF10403C2F317
:102DC00085121A600A4B4FF005021A6048710948D3
:102DD000C8604FF001007047CC4000200C35004027
:102DE0000835004000350040852E000008450040B1
:102DF00000450040FD2E000000210B4A012805D0AF
:102E0000022804BF5079022809D002E01079012875
:102E100001D00020704705480160117102E00448AC
:102E20000160517101207047CC4000200035004006
:102E3000004500401049086008214FF0E0200022C2
:102E4000C0F880110D4B1A6000F1030C60238CF860
:102E50000034C0F88012C0F800111021C0F88011B1
:102E6000DFF81CC0CCF80020021D82F80034C0F846
:102E70008012C0F800117047CC400020003500409F
:102E8000004500401B4830B40168002914BF0123ED
:102E900000230024184900BFD1F80821F2B1D1F86D
:102EA0001825C1F80841D2B2D0F808C0BCF1000F13
:102EB0001CBF057B0CF80520027B521CD2B20273AA
:102EC00090F80DC062450DD2D0F804C0BCF1000FDF
:102ED00014BF1CF802200022C1F81C25002BDBD0F7
:102EE00030BC70470168002904BF30BC7047002027
:102EF00030BC0847DC4000200030004002494FF061
:102F0000402000F019B80000EC40002010B5012866
:102F100006D10220FFF770FF00281CBF002010BD63
:102F2000032010BD034800210160817441740174C5
:102F300070470000EC4000202DE9F0030A68002AE9
:102F400018BF01224FF4207500244FF401760227A8
:102F50004FF0010C0B7C012B02D0022B56D0ABE0C2
:102F6000D0F81C31002B3DD0C0F81C410B7B5B1C02
:102F7000DBB20B7391F80D8043451CD2C0F80042C0
:102F80000B7B91F80D805B1C434538BFC0F800C235
:102F900007D38B7C032B12BF012BC0F80441C0F870
:102FA000007291F80C804B6813F80830C0F81C359B
:102FB000C0F820C080E0C0F80853D0F8002212F01A
:102FC000020F03D0D0F80421002AFBD00C7409684A
:102FD000002904BFBDE8F00370474FF00000BDE8D2
:102FE000F0030847D0F82431002B65D0C0F8244105
:102FF000C0F80853032008740968002904BFBDE81D
:10300000F00370470220BDE8F0030847D0F808310C
:10301000F3B3C0F80841D0F8183591F80E90D1F804
:10302000088008F809308B7B5B1CDBB28B7391F84E
:103030000F80434515D2C0F800428B7B91F80F807A
:103040005B1C434538BFC0F800C207D38B7C032B01
:1030500012BF022BC0F80441C0F80072C0F820C0B3
:103060002AE0C0F80863D0F8002212F0020F03D063
:10307000D0F80421002AFBD00C740968002904BF91
:10308000BDE8F00370474FF00100BDE8F0030847CA
:10309000FFE7D0F824317BB1C0F82441C0F80863C1
:1030A000042008740968002904BFBDE8F0037047D4
:1030B0000320BDE8F0030847002A3FF44BAFBDE80A
:1030C000F003704710B50C4601280BD10220FFF722
:1030D00045FE38B104492079086004492068086039
:1030E000002010BD032010BD88450040244500404D
:1030F00070B5012846D1244C4FF040200B4694F87F
:1031000010C0BCF1010F12BFBCF1020F032070BD53
:103110004FF00001BCF1040F18BFA1734FF0020C77
:1031200084F810C0A260DBB2E3734FF42172C0F8E0
:103130000823C0F82411C0F81C11C0F80811C0F809
:103140000012A27B551C01229D4238BFC0F800220C
:1031500007D3A37C032B12BF022BC0F80411C0F8C5
:1031600000C2216829B14FF40171C0F80413026054
:1031700006E002602146FFF7DFFE207C042801D034
:10318000002070BD022070BDEC400020012804BF6B
:103190000148817470470000EC40002010B5012800
:1031A0004FD1294C4FF040200B4694F810C0BCF191
:1031B000010F12BFBCF1020F032010BD4FF0000140
:1031C000BCF1030F18BF21734FF0010C84F810C03D
:1031D0006260DAB262734FF42173C0F80833C0F84A
:1031E0002411C0F81C11C0F80811C0F80012237B8C
:1031F0005B1C934238BFC0F800C20AD3A27C032AEA
:1032000018BF012A05D1C0F804114FF00201C0F81F
:103210000012227B6168895CC0F81C15216831B1FD
:103220004FF42071C0F80413C0F808C007E0C0F8DC
:1032300008C02146FFF780FE207C032801D0002033
:1032400010BD012010BD0000EC40002014490A7898
:10325000002A04BF0820704738B548801149A0F201
:10326000E24091FBF0F0C0F5F16000F50030009015
:1032700002240D48FFF722FA18B10CA26F21FFF7C4
:103280006DF86A4601212046FFF764FA041E03D058
:1032900006A27221FFF762F8FFF7FAF9204638BD5F
:1032A0007C000020608E9E043C4400002E2E5C2E8C
:1032B0002E5C2E2E5C736F757263655C6D5F76722B
:1032C00065672E630000000010B5FFF7F1F90249B1
:1032D0000120087010BD00007C00002038B54000BF
:1032E00000900E480078002804BF082038BD0C4824
:1032F000FFF7E4F918B10BA28A21FFF72FF86A460D
:1033000001210020FFF726FA041E03D005A28D211B
:10331000FFF724F8FFF7BCF9204638BD7C000020F9
:103320003C4400002E2E5C2E2E5C2E2E5C736F759E
:103330007263655C6D5F767265672E6300000000E6
:1033400038B5400000900C480078002804BF0820E1
:1033500038BD0A48FFF7B2F918B109A2A121FEF75A
:10336000FDFF01216A460846FFF7F4F90446FFF71E
:103370008FF9204638BD00007C0000203C4400004E
:103380002E2E5C2E2E5C2E2E5C736F757263655C28
:103390006D5F767265672E6300000000D8B0FF484D
:1033A000012505608405D4F80405E9058143C4F8C6
:1033B000081500F40000C4F80C054FF0000AD146CF
:1033C000A846F748FFF736FDFFF7ACFDFFF74AFACE
:1033D000FFF74AFADFF8CCB3B0B106A8FFF7ACFAB2
:1033E0000698CBF834000798CBF838000898CBF84B
:1033F0003C000698CBF840000798CBF844000898AA
:103400004FF00109CBF84800FFF762FA68B14FF0BE
:10341000010A06A8FFF7D4FA0698CBF834000798FB
:10342000CBF838000898CBF83C0052A8FFF73CFBDB
:103430001BA8FFF709FBBDF86C104FF6FF70A1F554
:10344000E162B2F5E16F01D8814203D140F6B831B3
:10345000ADF86C10BDF84811814204BF4AF6EE4148
:10346000ADF84811BDF84A11814204BF44F620600E
:10347000ADF84A01DBED0D0A9FEDCB0A20EE801A74
:10348000DFEDCA0AC0EE811A9FEDC91AC9480321AF
:103490004FF0A04261EE811ACBED131ADBED0E1A4C
:1034A00021EE802AC0EE821A61EE811ACBED141A49
:1034B000DBED0F1A21EE800AC0EE801A21EE810AA0
:1034C0008BED150AC0F8001701239802C2F80C050D
:1034D000B948C0F80017001FC0F800171806C2F856
:1034E00008054010C2F80C05C0018367B3A2B5A15E
:1034F00054A8FEF72BFAB9F1000F17D0DBF8400003
:10350000FCF7BEFE06460F46DBF84400FCF7B8FEAB
:1035100004460D46DBF84800FCF7B2FE8DE8F300E8
:103520004A46ABA109A8FEF711FA16E0DBF8340011
:10353000FCF7A6FE06460F46DBF83800FCF7A0FEB7
:1035400004460D46DBF83C00FCF79AFE8DE8F300DC
:103550004A469FA109A8FEF7F9F94FF08050026E84
:10356000A3A11CA8FEF7F2F954AAA5A10020FDF71B
:1035700059FC09AA95A10020FDF754FC1CAA93A1AF
:103580000020FDF74FFCBAF1000F1ED0DBF834002D
:10359000FCF776FE06460F46DBF83800FCF770FEB7
:1035A00004460D46DBF83C00FCF76AFE41EC100BCC
:1035B0008DE8F00053EC102B93A140A8FEF7C6F95C
:1035C00040AA82A10020FDF72DFCBDF84801009023
:1035D000BDF84A31BDF86C2094A12EA8FEF7B6F9CB
:1035E0002EAA7AA10020FDF71DFC9849964809688B
:1035F000020100BF00BF00BF00BF00BF00BF00BF8F
:1036000000BF91422FD000BF00BF00BF00BF00BF6E
:1036100000BF00BF00BF00BF00BF00BF00BF00BFB2
:1036200000BF00BF00BF00BF00BF00BF00BF00BFA2
:1036300000BF00BF00BF00BF00BF00BF00BF00BF92
:1036400000BF00BF00BF00BF00BF00BF00BF00BF82
:1036500000BF00BF00BF00BF00BF00BF00BF00BF72
:1036600000BF00BF00BF0138C3D17948FEF7E8FEB4
:1036700000F0F6FA20B177A240F2C531FEF76EFEF7
:10368000774D002201A9A8680190E8680290286897
:1036900003900B2000F072FA20B1724A40F27311CD
:1036A000FEF75CFE002201A90C2000F067FA20B1B1
:1036B0006C4A4FF4BB71FEF751FE002202A90D20A7
:1036C00000F05CFA20B1674A4FF4BC71FEF746FE89
:1036D00003A90E2000F0FAFA20B1624A4FF4BD713E
:1036E000FEF73CFE01210B2000F0E6F901210C2041
:1036F00000F0E2F90D2000F0AFF90E2000F054FBCD
:10370000D5E90C01CDE90201574A02A9574800F05A
:1037100033FC20B1534A40F2C111FEF71FFE53485B
:103720000068D0F810055249012421FA00F223461E
:1037300000214E48009400F0F9FB00F0C7FB20B1D7
:10374000484A4FF4C471FEF709FED5E90A01CDE9F4
:103750000201484A02A9484800F00EFC20B1414A43
:103760004FF4CA71FEF7FAFD43480068D0F810051F
:10377000F02121FA00F2012300213F48009400F0DB
:10378000D5FB00213C4800F0ADFB3C4E3C4D3D4894
:1037900000F02CFB00B177E07BE0000040E5014049
:1037A0002444000000000020000000479A99193FBF
:1037B000002474492800005060000050312E312E42
:1037C0003000000056455253494F4E2025730000EB
:1037D00043414C3A25642052313A252E336620521B
:1037E000323A252E33662052333A252E33660000B6
:1037F00020426F6172642049442025580000000077
:1038000025730D0A000000000A0A55534552205343
:1038100045542052313A252E33662052323A252E15
:1038200033662052333A252E336600000A5265660D
:1038300073205644443A2025642048493A202564A0
:10384000204C4F3A2025640040420F008C0000209D
:10385000254000002E2E5C6D61696E2E6300000015
:1038600004440000B8430000F14300001C44000081
:1038700000093D00E1430000144400004081004085
:10388000047000400E0000205D4A4FF4D171FEF735
:1038900065FD2A4631469BF80E0000F0DBFA20B1A8
:1038A000574A40F2A511FEF759FD00F011FDFFF750
:1038B0000BFDBDF86C00FFF7C9FC28B1AFF26C023C
:1038C0004FF47571FEF74AFDBDF84801FFF738FD6A
:1038D00028B1AFF2800240F2D631FEF73FFDBDF8CD
:1038E0004A01FFF7FBFC28B1AFF298024FF4767162
:1038F000FEF734FD43480068009010F4006F00F4B8
:10390000805004D0002808BF022005D003E0002822
:1039100008BF204600D003208BF800003A4800F092
:10392000F7FA4FF0A04A4FF48060CAF80805470341
:10393000DFF8D890364E00259BF8020058B3DBF82C
:10394000600000F046FD4FF001088BF80740314859
:1039500000F0DEFA8BF80250DBF8200009F8004096
:10396000BBF812104A0000EBC00101EB40312A48BD
:1039700000EB41010020FEF77BFDDBF8200009F899
:103980000050DAF8040527EA0001CAF8081500F427
:103990000000CAF80C059BF8030000281CBF9BF828
:1039A000050000280FD0B8F1000F1CBFDBF85C0049
:1039B00000F008FD8BF80350042218490020FEF7A0
:1039C00057FD4FF00008FDF773F90028B4D0FDF75C
:1039D0002DF9C1B29BF808000329315400F1010010
:1039E00018BF8BF80800A7D1C1B28BF8081008489F
:1039F000FEF7D4FC8BF808503046FDF7BBFF9BE781
:103A0000B8430000100500501444000001000020DD
:103A1000A24000201C44000090000020280000204C
:103A20004907090E0028BDBF00F00F0202F1E02295
:103A300082F8141D00F1E022A8BF82F8001400F003
:103A40001F02012191404009800000F1E020C0F8F0
:103A50008012C0F8001170471549014491F92410F3
:103A600008290EDB4FF0A04101EB8000D0F80017D1
:103A700021F44031C0F80017D0F80017C0F8001743
:103A8000704728BF70474FF001024FEA810000F1F4
:103A9000804000F5C040D0F8103523F00103C0F895
:103AA000103502FA01F00349C1F80803704700001D
:103AB0001841002000600040F8B42E4B002403EBB6
:103AC000000C9CF92420082A26DB02EB03014FF0AE
:103AD000A04291F83C104FEA9111032902D001292C
:103AE00018D005E0D2F81015C14011F0010F11D027
:103AF0005FF0030102EB8000D0F8002722F440328F
:103B0000C0F80027D0F8002742EA0141C0F80017AA
:103B1000F8BC70470221EDE724BFF8BC70470125CF
:103B20002802960006F1804606F5C04600EB8200AA
:103B3000D6F8107580B247F00107C6F8107500F18D
:103B4000804000F5C040046000680090002904BF78
:103B5000F8BC70479CF9240053F82000002804BFEB
:103B6000F8BC704705FA02F00349C1F80403F8BC39
:103B70007047000018410020006000402DE9F0016E
:103B8000DFF8D8C000260CEB0003012493F92430A1
:103B900014EBE37318BF082611D1CD78002D19BF9F
:103BA0000023082708230927BB4207D25CF82340DB
:103BB000B4F1FF3F07D05B1CBB42F7D3042630466D
:103BC000BDE8F00170470CEB00085CB288F82440B7
:103BD0004CF82320002D04BF0CEB030282F83C00BC
:103BE000B4F1FF3FEAD08B784FF0A04202EB8002A5
:103BF000002B03BF4B78002545EA8303D2F800373A
:103C000018BF23F00203C2F80037CA78E2B10A787D
:103C1000A10001F1804101F5C041D1F8103523F434
:103C2000F85323F44033C1F810354FF4F85303EA46
:103C300000204FF4403303EA02421043D1F810252C
:103C40001043C1F81005BAE70CEB0400097890F8AE
:103C50003C2042EA811180F83C10B0E71841002076
:103C600038B5174C94F8450000281CBF082038BD13
:103C70004FF0FF32202104F12400FCF7EFFA00207E
:103C8000B0F1010144F82010082824BF221882F85E
:103C90003C10401CC0B20928F4D307210620FFF7CE
:103CA000BFFE0849002008600968074A00914FF0EC
:103CB0000041C2F80413012184F8451038BD00000A
:103CC000184100207C610040006000402DE9F001B7
:103CD000DFF8D0C000250CEB000292F92430B3F1DC
:103CE000FF3F18BF082514D18B78002B04BF6FF05D
:103CF000010382F8243044D0002701263A460824E4
:103D00005CF82230B3F1FF3F07D0521CA242F7D338
:103D100004252846BDE8F00170470CEB000853B2BB
:103D200088F824304CF82270002E04BF624482F8D8
:103D30003C00B3F1FF3FEBD09A0002F1804202F564
:103D4000C04291F800C04C78D2F8103523F4F853F3
:103D500023F49813C2F81035D2F810354FF4F85602
:103D600006EA002633434FF4403606EA0C4C4FF483
:103D7000801606EA04544CEA040C43EA0C03C2F829
:103D800010354B78012181404FF0A042012B0CBF30
:103D9000C2F80815C2F80C15032102EB8000C0F828
:103DA0000017B6E7184100200749084490F924009D
:103DB000800000F1804000F5C040D0F8101541F0BF
:103DC0000301C0F810157047184100200649084447
:103DD00090F824008006000E00F1804000F5C040FD
:103DE0000121016070470000184100202DE9F047D3
:103DF0000426164DDFF85880814600244FF0010A52
:103E00000020FEF7B9FA0AFA04F72F4211D0D8F8C9
:103E1000040007420DD1D8F804100AFA04F0084350
:103E2000C8F80400002689F800403046FEF7ACFAD6
:103E300008E00020FEF7A8FA26B104F10100BD4316
:103E4000C4B2DDD13046BDE8F0870000FFFF0F00AF
:103E500080000020002912BF002A0E20704710B4F5
:103E60004FF0010C0CFA00FC0023CCF31304002CDF
:103E700008BF07230FD0094C64681CEA040F08BF71
:103E8000082308D0C00000F1804000F5F830C0F8E9
:103E90001015C0F8142510BC18467047800000208B
:103EA0000146012202FA01F100200A03120B05D09B
:103EB000044A5268114204BF08207047024A116048
:103EC000704700008000002004F50140044801789C
:103ED00000291CBF85207047012101700020704718
:103EE000800000204FF4A07303EB810302689BB2B3
:103EF00081B04FF0000C42F803C0D2580092006825
:103F00004FF4803202FA01F1C0F8041301B0704797
:103F1000016801220A600079034A00EB400002EBCD
:103F200080000221017270470041002070B40468D3
:103F3000DDF80CC040F20115D4F800628D4026EA8D
:103F40000505C4F800520468D4F800522B43C4F8A5
:103F500000324FF480338B40BCF1000FD0F800C02A
:103F600014BFCCF80433CCF80833006800EB8100B0
:103F7000C0F8402570BC7047F8B504460D4600797E
:103F8000234900EB400001EB8006307A00281CBF7B
:103F90000820F8BD002A04BF0720F8BD3260686819
:103FA000706061790020002984BF00214FF4A07C5B
:103FB0000BD900BF23680CEB800299509A580092ED
:103FC000401C6279C0B28242F4D82068E978000BC4
:103FD00040B2FFF725FD20686978D0F8042561F329
:103FE0000102C0F804252068A978D0F8082561F3FB
:103FF0000102C0F8082520682978D0F8102561F35F
:104000000302C0F81025012030720020F8BD000026
:1040100000410020006801214160704700680121D3
:1040200001607047002908BF704710B50178152955
:1040300028BF10BDDFE801F0170E181F170B262F41
:104040001717393E4A5E7E718BFED0FDFC000121C0
:10405000984A9171417882780904C07801EB022175
:1040600008449449086310BD8178407801EB002032
:104070009049088210BD8178407801EB00208D497D
:10408000488210BD4FF0A04101221006C1F80C0576
:104090008848427110BD4FF0A0414FF08070C1F8C8
:1040A000080584490020487110BD82494FF0FF3057
:1040B000086310BD80480121C0F80C10D0F8101121
:1040C0000029FBD00021C0F8101110BD4078012854
:1040D00009D0002818BF10BD4FF0A0414FF48060F8
:1040E000C1F80C0510BD4FF0A0414FF48060C1F83D
:1040F000080510BD8178407801EB002084B26F483C
:10410000FFF788FF2046FFF7A1F86C48FFF786FF0E
:104110002046BDE81040FEF7F5BD8178407801EB00
:10412000002084B22046FFF7D9F82046BDE81040B1
:10413000FEF7F4BC8178407801EB002084B2204681
:10414000FFF7FEF82046BDE81040FEF713BD4FF024
:10415000A041D1F804254FF400039343C1F808357A
:1041600002F40002C1F80C25524CD0F80110E163B2
:10417000D0F80510A163D0F809006063012094ED28
:104180000F1A00EE901A94ED0D0AFEF71FFDD4ED04
:104190000D0A9FED4B0A20EE801ADFED4A0AC0EEB1
:1041A000811A9FED491A61EE811AC4ED131AD4EDFC
:1041B0000E1A21EE802AC0EE821A61EE811AC4ED39
:1041C000141AD4ED0F1A21EE800AC0EE801A21EEE7
:1041D000810A84ED150A10BD364CD0F80110E16358
:1041E000D0F80510A163D0F809006063012094EDB8
:1041F0000F1A00EE901A94ED0D0AFEF735FDD4ED7E
:104200000D0A9FED2F0A20EE801ADFED2E0AC0EE78
:10421000811A9FED2D1A61EE811AC4ED131AD4EDA7
:104220000E1A21EE802AC0EE821A61EE811A02E097
:1042300019E00DE02FE0C4ED141AD4ED0F1A21EEB1
:10424000800AC0EE801A21EE810A84ED150A10BDA5
:104250009FED1E0ABDE810400020B0EE401AF0EEBF
:10426000400AFEF701BD4FF0A040D0F804154FF40E
:1042700000028A43C0F8082501F40001C0F80C15BB
:104280009FED120ABDE810400020B0EE401AF0EE9B
:10429000400AFEF79BBC074C207920B10D20FFF7A8
:1042A000DBFB002004E001210D20FFF705FC0120CD
:1042B000207110BD00000020007000401444000078
:1042C000000000479A99193F00247449000000003B
:1042D00070B401239807224DC0F80030D0F80011C7
:1042E0000029FBD04FF0000CC0F800C11E491D484A
:1042F00008601E4803600224001D04601C4903205E
:104300000860081D04601B4803601C491A480860C7
:104310001B48C0F800C01B4803601B482E68C360E0
:10432000D0F810110029FBD0C0F810C117490A6855
:10433000012AFCD016492E6081F800C44FF0E0221B
:104340008021C2F88012C2F80011C0F80443036053
:10435000D0F800110029FBD0C0F800C170BC704734
:1043600040760040000717011875004010750040A6
:10437000F075004030760040180000202C76004098
:10438000F875004000750040007000400074004067
:1043900007E000E0074810B5807BFFF781FD0028AB
:1043A00008BF10BD04A2BDE810404FF4A971FDF78D
:1043B000D5BF0000000000202E2E5C6D61696E2EBE
:1043C0006300000001B5052269460020FEF750F8A1
:1043D00008BD01B5062269460020FEF749F808BD70
:1043E0000248816D491C8165704700000000002073
:1043F000B0F5A07F18BF704700200149C871704711
:10440000000000200301010003000100030000017F
:104410000203000100800040000400000090004002
:1044200001040000D98501009B060000000003077D
:104430000000000000000307000000000E01000063
:10444000000068062C0000000000005030313233BC
:10445000343536373839414243444546000101007E
:1044600000006806500000008844000000000020A2
:1044700090000000901900001845000090000020F6
:10448000D8750000A0190000040000000000000022
:1044900000000100000100000A00C201000000004D
:1044A000000000000000000000000000000000000C
:1044B0000000000000000000FFFFFFFF3333F33F68
:1044C0000000E0410000FF439A99F93F0000E041FD
:1044D0000000FF430000000000000000000000009A
:1044E00000000000000000000000000000000000CC
:1044F00000000000000000000000000000000000BC
:1045000000000000000000000000000000000000AB
:08451000000000000090D00340
:0400000500000201F4
:00000001FF
