:020000040000FA
:1000000098F60020150200001D0200001F020000EB
:100010002102000023020000250200000000000071
:1000200000000000000000000000000027020000A7
:1000300029020000000000002B0200002D02000039
:100040002F0200002F020000C51300003110000035
:100050003D1000002F020000C1070000F50900005C
:100060009D130000B11300002F0200002F020000BA
:100070002F0200002F0200002F0200002F020000BC
:100080002F0200002F0200002F0200002F020000AC
:10009000491000002F0200002F0200002F02000074
:1000A0002F0200002F0200002F0200002F0200008C
:1000B0002F0200002F0200000000000000000000DE
:1000C0002F0200002F0200002F0200002F0200006C
:1000D0002F0200002F0200002F020000000000008D
:1000E0000000000000000000000000000000000010
:1000F0000000000000000000000000000000000000
:1001000000000000000000000000000000000000EF
:1001100000000000000000000000000000000000DF
:1001200000000000000000000000000000000000CF
:1001300000000000000000000000000000000000BF
:1001400000000000000000000000000000000000AF
:10015000000000000000000000000000000000009F
:10016000000000000000000000000000000000008F
:10017000000000000000000000000000000000007F
:10018000000000000000000000000000000000006F
:10019000000000000000000000000000000000005F
:1001A000000000000000000000000000000000004F
:1001B000000000000000000000000000000000003F
:1001C000000000000000000000000000000000002F
:1001D000000000000000000000000000000000001F
:1001E000000000000000000000000000000000000F
:1001F00000000000000000000000000000000000FF
:10020000DFF80CD000F03CFA0048004791340000C1
:1002100098F600200648804706480047FEE7FEE7BC
:10022000FEE7FEE7FEE7FEE7FEE7FEE7FEE7FEE7A6
:10023000111100000102000040EA01039B0703D0F6
:1002400009E008C9121F08C0042AFAD203E011F815
:10025000013B00F8013B521EF9D2704700F000420A
:1002600030F000400AD0C10D01F56071C0F31600F6
:1002700042EA0151C208400711437047002001467D
:10028000704730B50B46014600202022012409E0CA
:1002900021FA02F59D4205D303FA02F5491B04FA3F
:1002A00002F52844151EA2F10102F1DC30BD2DE952
:1002B000F05F0546002092469B46884606468146EA
:1002C00040241BE0284641464746224600F0F9F903
:1002D00053465A46C01A914110D311461846224639
:1002E00000F0E0F92D1A67EB01084F462246012085
:1002F000002100F0D7F917EB00094E41201EA4F1B0
:100300000104DFDC484631462A464346BDE8F09FFB
:100310002DE9FE4F804681EA0300C00F0C46009095
:1003200021F0004123F00045B8EB0200A94105D2BD
:100330004046214690461C460B46024623F00040AC
:10034000104347D0270DC7F30A00C3F30A510290A8
:10035000401A019040286BDAC3F3130040F4801B6D
:100360000098924620B10023D2EB030A63EB0B0BFB
:1003700001985946C0F14002504600F093F90646F4
:100380000D4650465946019A00F0ABF910EB0800B3
:100390006141002487EA115284EAE7731A4340D08E
:1003A000009A62B3019A012A4FEA075215DC001B3A
:1003B00061EB02014FF0004202EA0752CDE9004230
:1003C000001C41F5801132462B4600F0ABF903B01A
:1003D000BDE8F08F40462146F9E7001B61EB0201C2
:1003E000001C41F5801300185B412018A2F500178E
:1003F00047EB030140EAD570B6196D4111E06D0875
:100400004FEA360645EAC0754FEA0752001B61EB1A
:100410000201001C41F5801149084FEA3000001923
:10042000514132462B4603B0BDE8F04F00F06BB9A6
:100430000098012240000023D0EB020263EBE0733E
:10044000009821464FEAE074B8EB000061EB04012C
:10045000E9E783F000435BE781F0004158E72DE9CD
:10046000FE4F81EA030404F0004421F000410094AF
:100470004FF0000B23F0004350EA01045ED052EA33
:1004800003045BD0C3F30A54C1F30A552C44A4F20D
:10049000F3340194A0FB0254C1F3130141F4801121
:1004A000C3F3130343F4801301FB024400FB034E28
:1004B000840A970A44EA815447EA8357A4FB0768F1
:1004C00002958D0A05FB07854FEA932C04FB0C541B
:1004D0002705029D4FEA065847EA1637B5EB08058F
:1004E0006EEB070C870E920E47EA811742EA8312E1
:1004F000A7FB0201B6EB0B0164EB00042B0D43EAF2
:100500000C335E1844EB1C50DA465146E7FB0201FF
:10051000C5F313044FEA0B3343EA14534FEA043292
:10052000019C43EA0603A4F10C040294009CCDE96B
:1005300000B400F0F7F803B0BDE8F08F00200146EA
:10054000F9E72DE9F04D81EA030404F0004B21F0B6
:10055000004514464FF0000A23F0004150EA05021E
:1005600020D054EA01021DD0C5F30A570246C5F354
:100570001303C1F31300C1F30A5640F4801543F48A
:100580008013A7EB0608101BD64608F2FD3873EB64
:10059000050002D308F1010801E092185B41B8F1AF
:1005A000000F03DA00200146BDE8F08D00204FF473
:1005B0008011064684460EE0171B73EB050705D332
:1005C000121B63EB050306434CEA010C49084FEA92
:1005D000300092185B4150EA0107EDD152EA030066
:1005E00012D082EA040083EA0501084305D0101BFB
:1005F000AB4106D20122002306E000224FF0004367
:1006000002E06FF0010253101AEB06004CEB0851A8
:1006100010EB0A0041EB0B01BDE8F04D00F073B8A0
:10062000C1F30A52C1F3130140F2FF3341F48011C8
:100630009A4202DA00200146704740F233439A4260
:10064000A2F2334202DC524200F03BB800F02AB87A
:1006500030B5041E71F1000404DB4FF00044404249
:1006600064EB0101141E73F1000405DB1C464FF01E
:100670000043524263EB0403994208BF904230BDED
:10068000064C074D06E0E06840F0010394E80700DF
:1006900098471034AC42F6D3FFF7B6FD0C46000085
:1006A0002C460000202A04DB203A00FA02F1002048
:1006B00070479140C2F1200320FA03F319439040A0
:1006C0007047202A04DB203A21FA02F0002170470B
:1006D00021FA02F3D040C2F12002914008431946AA
:1006E0007047202A06DBCB17203A41FA02F043EA92
:1006F000E07306E041FA02F3D040C2F120029140DB
:1007000008431946704710B5141E73F1000408DA47
:10071000401C41F1000192185B411A4301D120F0C5
:10072000010010BD2DE9F04D92469B4611B1B1FA82
:1007300081F202E0B0FA80F220329046FFF7B2FF79
:1007400004460F4640EA0A0041EA0B0153465A4666
:10075000084313D0114653EA010019D0C8F14002F2
:100760005046FFF7AEFF05460E46504659464246F4
:10077000FFF798FF084305D0012004E020463946E2
:10078000BDE8F08D0020054346EAE0762C43374370
:100790000A986305E40AA0EB08000022FD0A44EA77
:1007A00047540A3002D500200146E9E70105101937
:1007B0006941DDE9084500196941BDE8F04DA2E74E
:1007C0002DE9F04F85B00025A946CDF810904FF4E3
:1007D000807101200022834C01F1804303F5C04366
:1007E000D3F800C0BCF1010F01D04FF0000CBCF1F8
:1007F000000F0BD0D4F804C30CEA000CBCF1000FBE
:1008000004D0C3F800901B68039305434000091D02
:1008100089B2521C082ADFD373490868012800D026
:100820000020DFF8C8A14FF00108B8B14F46C1F869
:1008300000900868039045F000450021012304A8BA
:10084000DAF80020039203AA0B4452F82710D1F8DB
:1008500010150160001D7F1CBB42F6D8644E15F0D8
:10086000FF0F18D0012700242F4210D0A00000F164
:10087000804101F5C041D1F81005C0F30420D1F842
:100880001015C1F3014156F8242002B190477F00B2
:10089000641C082CE8D315F0004F7DD0CDF80C90E7
:1008A0000020411E0DF1080949F82010401C0028C5
:1008B000FAD04FF0A04700250024321992F84410D6
:1008C00021F0C00092F94420B2F1FF3F48D002AAC3
:1008D0004FEAD00C00F0070312F80C2008FA03FAD4
:1008E0000AEA0202E2B38909321892F9242056F882
:1008F00022200AB9032933D1032906D103AB13F807
:100900000CB04BEA0A0B03F80CB007EB800BDBF8DA
:100910000037C3F301430DF1100E1EF80CC00AEAB4
:100920000C0CBCF1000F01D0022B04D0BCF1000F65
:1009300016D1032B14D1032910D1022B37D0022357
:10094000DBF800C72CF4403CCBF800C7DBF800C74D
:100950004CEA0343CBF800376B1CDDB202B1904781
:10096000641C002CA9D04DB301230020012201A951
:10097000DFF878C0DCF800C0CDF800C06C4600EBB2
:10098000020C54F82020D2F810250A60091D401CE2
:100990008445F6D8002000E021E004AA01A952F81D
:1009A000204051F820C0A44503D0002304E00323D5
:1009B000C6E7401C0028F2D00BB100250CE0002057
:1009C00003AB51F820C042F820C053F820C049F8CA
:1009D00020C0401C0028F4D0002D7FF46CAF05B07F
:1009E000BDE8F08F006000407C610040EC450000F5
:1009F00044C100202DE9F0412DED028BA448D0F830
:100A0000041100297DD00025C0F80451012707609A
:100A1000A04E707A401C70729F49D1F8000110B945
:100A2000D1F8040168B1C1F80051C1F8045102F0D5
:100A30004BFAB072B08A708296ED180A86ED170AEA
:100A4000F772D1F808019FED958A18B1C1F80851E5
:100A5000777134E0F07A18B1B08A7082F5722EE0C6
:100A6000B6F91600002801DA002400E084B23078DC
:100A700001284FD0022850D0032851D0042852D04A
:100A800087A2FB21002001F0BFFB7482B6F916108B
:100A9000307801284AD0022851D0032858D00428A1
:100AA0005FD07FA240F22711002001F0ADFBB0EE35
:100AB000480A86ED170A86ED180A708AB082B07A65
:100AC0003070F069032805D975A240F26921002031
:100AD00001F09AFBF069754B00EBC001744C01EB1F
:100AE000403103EB410354F82010728A23F811209F
:100AF000491C44F8201042F20900814207D368A241
:100B000000E0C1E040F27221002001F07DFB70792D
:100B1000C8BB2DE044F48044B7E744F40044B4E794
:100B200044F44044B1E744F44044AEE700EE101A08
:100B3000D6ED160AB8EEC00A20EE200AB9E700EE9C
:100B4000101AD6ED150AB8EEC00A20EE200AB0E75A
:100B500000EE101AD6ED140AB8EEC00A20EE200AF4
:100B6000A7E7D6ED140AB2EE040A20EE200AA0E7A9
:100B700096ED0D0AD6ED170AB8EE400AF4EEC00A5B
:100B8000F1EE10FA01DBF079D0B3F06944F82050AF
:100B900096ED190AD6ED170A30EE200A86ED190AED
:100BA000717AF089814225D3D6ED0B0AB4EEE00AC2
:100BB000F1EE10FA01D286ED0B0AD6ED0A0AB4EE78
:100BC000E00AF1EE10FA01DD86ED0A0A00EE900A65
:100BD000B8EE601AC0EE010A96ED0C0A30EE800AFB
:100BE00086ED0C0A86ED090A86ED0C8AB77086ED53
:100BF000198A7572BDEC028BBDE8F04103F0ECBBC5
:100C0000307B18B10E2003F0B5F835737771F069B9
:100C1000318A54F820008842BAD30E2003F0AAF893
:100C20003773F06944F820503062224C401CA4FB1A
:100C300000214908A1EB81010844F061032805D98E
:100C400017A240F28D21002001F0DEFA1A49F06966
:100C5000095C79B1401CA4FB00214908A1EB81018A
:100C60000844F061032805D90DA240F29721002025
:100C700001F0CAFA77707571B079002888D0B57123
:100C80004FF0FF30706383E7BDEC028BBDE8F0816D
:100C900000700040000000200060004000000000E4
:100CA0002E2E5C6D61696E2E63000000980000209E
:100CB0008C000020ABAAAAAA1800002008B50122C7
:100CC0006946002000F01AF8012802D04FF0FF30EA
:100CD00008BD9DF8000008BD10B5074C207800281D
:100CE00001D100F001FCA06D616D814201D00120B5
:100CF00010BD002010BD0000F8D50020AFF300802B
:100D00002DE9F0470446884616461B4D2A78002AEE
:100D100001D100F0E9FB04EB440005EBC00000F159
:100D200048052C69D5F80C9000274C4511D9A868C6
:100D3000071BB74200D3374668683A460119404658
:100D4000FFF77AFAB844F61B3C44A868A04200D1E9
:100D50000024A9EB0400B04200D206463EB1686808
:100D6000324601194046FFF767FA3744344407B169
:100D70002C613846BDE8F087F8D5002070B50446F0
:100D80000D461646064B1B78002B01D100F0ACFB3C
:100D9000324629462046BDE8704000F003B8000006
:100DA000F8D5002070B514460E46184900EB4000F7
:100DB00001EBC00000F118056869002806D0012881
:100DC00011D002281BD00024204670BD284600F018
:100DD000C7FBA04201D20024F6E72246314628464E
:100DE00000F0F9FCF0E7284600F0BAFBA04200D280
:100DF000044622463146284600F0EDFCE4E7224650
:100E00003146284600F0B9FC0446DDE7F8D500205D
:100E10000FB408B504A900916A46039900F003F8DD
:100E200001B05DF814FB2DE9F043ADF21C4D804696
:100E30000C46154602A8CDF808044FF48060CDF8A2
:100E40000C040026CDF81064CDF81884CDF8146495
:100E500008272178641C49B1252921D00DF581602E
:100E600000F06CFCDDF814040028F2DADDF814045C
:100E700000280FDDDDF8100428B102A94046DDF896
:100E80001024FFF77BFFDDF81014DDF8140408448C
:100E9000CDF81404DDF814040DF21C4DBDE8F08308
:100EA000002101222078232820D02B281AD02D2899
:100EB00010D0302812D00022002AF3D1002094F85C
:100EC00000C0ACF130020A2A14D3002322782E2A63
:100ED00017D025E041F00101641CEDE741F002016B
:100EE000641CE9E741F00401641CE5E741F00801F6
:100EF000641CE1E7641C00EB80000CEB4000303820
:100F0000DDE7641C94F800C0ACF130020A2A07D275
:100F1000641C03EB83020CEB4202A2F13003F1E705
:100F2000BCF16C0F13D0BCF1680F10D0BCF1700F86
:100F300068D010DCBCF1250F72D0BCF1580F3ED048
:100F4000BCF1630F11D0BCF1640F6ED117E094F8BF
:100F500000C0641CE4E7BCF1730F40D0BCF1750F16
:100F60001DD0BCF1780F60D129E02868011D2960EF
:100F70000078C1B20DF5816000F0E0FB55E02A6811
:100F800002F1040CC5F800C0D2F800C00191009035
:100F90000A2261460DF5816000F0EEFA45E02A680C
:100FA00002F1040CC5F800C0D2F800C00191009015
:100FB0000A2261460DF5816000F050FB35E02A6899
:100FC00002F1040CC5F800C0D2F800C001910090F5
:100FD000102261460DF5816000F040FB25E0286895
:100FE000011D2960D0F8009099F8001009F101095D
:100FF000D9B10DF5816000F0A1FBDDF814040028E3
:10100000F2DA12E02868011D296001680823102225
:101010000DF581600097019600F020FB05E0FFE7E9
:1010200025210DF5816000F089FB641C1AE70000A2
:101030000148806800470000F8C000200148C068EF
:1010400000470000F8C000202DE9F84F284800278D
:1010500000F580700760006800901022254900208C
:10106000FFF74CFE06460024002E3FD9DFF884A08F
:10107000214D4FF0020B4FF001080AF110091AF848
:101080000400297821B1012908D002292BD11FE0C1
:10109000022828D16F6085F8008024E01F280BD03B
:1010A00003280CD0022811D0696809F80100481CF7
:1010B00000F00F00686016E085F800B013E0AA6841
:1010C00012B10E48696890472F700CE06F600AE01B
:1010D00080F02001686809F80010401C00F00F0043
:1010E000686085F80080641CB442C8D3BDE8F88FFE
:1010F00000400140D8C000206C000020E8C0002063
:1011000002490148086070470090D0038800002021
:1011100070B501F0CFFD4FF0805528B1B5F824032C
:101120007849C0F30420086001F008FE10B1774947
:101130007548486701F01CFE28B1D5F84402C0F399
:1011400042317348016001F035FE20B171480168F9
:1011500021F08071016001F047FE002420B16E484B
:10116000046044606D48046001F060FE10B16C489A
:101170000321016001F074FE012648B16949052090
:1011800008606948066069480460091D3F200860DE
:1011900001F080FE002843D065480068654908607A
:1011A00065480068091D086064480068091D0860FA
:1011B00063480068091D086062480068091D0860EE
:1011C00061480068091D086060480068604908605F
:1011D00060480068091D08605F480068091D0860D4
:1011E0005E480068091D08605D480068091D0860C8
:1011F0005C480068091D08605B4800685B4908603E
:101200005B480068091D08605A480068091D0860AD
:1012100059480068091D086058480068091D0860A1
:1012200001F026FD28B1D5F85802554900F04F00CD
:10123000086001F061FD38B15248016811F0010FFA
:1012400002D06FF0010101604F48016841F4700164
:101250000160BFF34F8FBFF36F8F4FF01025D5F8AC
:101260000C024A4A10F0010FDFF824C1494B4A48EA
:101270001BD01E6001680029FCD0D5F80C1221F0AB
:101280000101C5F80C1201680029FCD01C6001683E
:101290000029FCD0BFF34F8F106800F4E06040EAF3
:1012A0000C001060BFF34F8FFEE7D5F8001211F06D
:1012B000004F04D1D5F8041211F0004F1DD01E606C
:1012C00001680029FCD01526C5F8006201680029D4
:1012D000FCD0C5F8046201680029FCD01C600168DC
:1012E0000029FCD0BFF34F8F106800F4E06040EAA3
:1012F0000C001060BFF34F8FFEE7BDE87040FFF7B2
:10130000FFBE0000403501400DF0ADBA00C00740FF
:101310003C050040FCED00E00C01004038050040B9
:10132000A005004010560040885600401856004066
:101330000404001020C50040080400100C04001034
:101340001004001014040010180400101C040010F5
:1013500040C50040200400102404001028040010A0
:101360002C040010300400103404001060C500404C
:10137000380400103C040010400400104404001025
:10138000E40E00400004004088ED00E00CED00E0B9
:101390000400FA0504E5014000E40140042202498A
:1013A000024801F08FBF00002CC1002000800040E7
:1013B00004220249024801F085BF000038C1002024
:1013C00000900040F0B587B0454CD4F824010028C7
:1013D00000D00120434D012700262968C0B1C4F880
:1013E0002461D4F82401019002208DF80800D4F87B
:1013F0008004C4F880040590D4F83C058DF81000F2
:10140000E8680390EE752E766A6802A8904730E08F
:10141000D4F8100100B1012000B3C4F81061D4F871
:1014200010010590D4F83C05C0B2EA7D824220D17B
:101430002A7EA2B1EA68D4F8003223F02003C4F86F
:1014400000322B7EEB752B69EB602E768DF80870E1
:101450008DF8100003926A6802A8904709E0EE75C3
:10146000EA688DF808708DF8100003926A6802A887
:101470009047D4F8440100B1012098B1C4F8446108
:10148000D4F844010590E87D60B1EE75D4F83C05D0
:10149000E9688DF808708DF8100003916A6802A859
:1014A00029689047D4F8200100B10120002814D009
:1014B000C4F82061D4F820010590A87D00280CD044
:1014C000D4F84C058DF808608DF81000A8680390DA
:1014D000AE756A6802A82968904707B0F0BD0000A1
:1014E000002000408CC100201248022101614161AE
:1014F00011A28261134AC2614FF4A2520262002219
:1015000082624262C16210A38364A0F11003C364CB
:101510001023036582654265C1650EA10968C0F8A4
:1015200007100DA10A6802608988818020218171DD
:1015300070470000F8D50020525454557050504B5D
:1015400000000000A8C10020525454446F776E5030
:10155000504B000052545400534547474552000039
:101560000169C268914204D88068801A0844401E0C
:101570007047881A401E70472DE9F04F83B0064629
:101580000D9F0C9C884691469A46C8F1000BB8F115
:10159000000F01DA584600E040460125484504DBCB
:1015A00090FBF9F06D1C4845FADAAA4500D955467A
:1015B00034B1B8F1000F02DB17F0040F00D0641E45
:1015C00017F0020F02D0BAF1000F0FD017F0010F81
:1015D0000CD144B90AE0641E2021304600F0AEF878
:1015E000F068002802DB0CB1A542F4D3F0680028B3
:1015F00031DBB8F1000F05DAD8462D21304600F076
:101600009DF806E017F0040F03D02B21304600F0C0
:1016100095F8F06800281EDB07F0030002280FD1C0
:10162000BAF1000F0CD144B90AE0641E30213046F3
:1016300000F084F8F068002802DB0CB1A542F4D376
:10164000F068002807DB53464A464146304601977A
:10165000009400F003F803B0BDE8F08F2DE9F84FD7
:101660008246DDF82CB00A9C8846164699464046CC
:1016700001250127B04204D3B0FBF6F07F1CB04235
:10168000FAD2B94500D94F461BF0010F18D1BCB1B1
:101690001BF0020F02D0B9F1000F02D02020009001
:1016A0000BE03020009008E0641E5046009900F0E6
:1016B00045F8DAF80C00002802DB0CB1A742F3D39E
:1016C000DAF80C0000280CDABDE8F88FA9F101095E
:1016D00006E0B8FBF5F0B04202D2DFF85C9004E01F
:1016E0007543B9F1010FF4D9F0E7B8FBF5F000FB51
:1016F000158819F80010504600F020F8DAF80C00B0
:10170000002803DBB5FBF6F5002DEED11BF0010F31
:10171000DAD054B9BDE8F88F641E2021504600F09D
:101720000DF8DAF80C000028F4DB002CF2D0A74208
:10173000F2D3BDE8F88F0000F045000010B5044674
:10174000A0686368421C934205D323681954A260C1
:10175000E068401CE060A2686068824209D12168AC
:101760002069FFF70BFBA168884203D04FF0FF30E0
:10177000E06010BD0020A06010BD2DE9F0470546D7
:10178000894616464FF00008EC682869A04202D945
:10179000001B471E03E0A968201A081A471EA86804
:1017A000001BB84200D80746B74200D337466868E6
:1017B0003A4620444946FEF73FFDB844B944F61B7B
:1017C0003C44A868A04200D10024EC60002EDCD18B
:1017D0004046BDE8F0872DE9F041044688461746AB
:1017E000E668A068851B6068BD4208D930443A4667
:1017F0004146FEF721FDF019E060BDE8F08130447C
:101800002A464146FEF718FD7E1B08EB05013246CD
:101810006068FEF711FDE660BDE8F0810FB4084B8B
:1018200010B504A902AA039800F0DEF8044602A944
:10183000002000F070FC204610BC5DF814FB000096
:101840001721000002E008C8121F08C1002AFAD1BF
:1018500070477047002001E001C1121F002AFBD130
:10186000704700002DE9FF5F82B00021DDE9043000
:10187000020DDDF840B0034318D044F61050A2F238
:10188000FF3242431514119801281FD0A5EB0B001D
:10189000401C5FEA000A4FF000064E4FDFF8389117
:1018A000B046504615D5CAF1000413E01198012442
:1018B0004AA3012801D16FEA0B010298119AC0E9ED
:1018C0000031C0E9024206B0BDE8F09FCBF1000054
:1018D000DFE704460021404A491842EB0450CDE9B5
:1018E000001012E0E00707D032463B46404649462A
:1018F000FEF7B5FD8046894632463B4610461946FE
:10190000FEF7ADFD06460F466410002CEAD1DDE976
:101910000401DDE90023BAF1000F06DAFEF79FFDAE
:1019200042464B46FEF79BFD05E0FEF70AFE4246A7
:101930004B46FEF706FE04460E460022284BFEF7F5
:1019400087FE03D84FF0FF30014607E00022254B09
:1019500020463146FEF7DCFCFEF762FE102409E06B
:10196000002C0ADB0A220023FEF7A1FC039B303285
:101970001A55641E50EA0102F2D1641C039AC4F1A4
:1019800011031444119A012A03D0012208430DD1F6
:101990000AE0084304D000204FF0110B119072E7C9
:1019A000A3EB0B056D1E0DE05B4504DD4FF000025F
:1019B00005F1010504E003DA4FF00002A5F101058D
:1019C000002AECD002981199C0E90231C0E9004523
:1019D00079E70000000014400000F03F30000000F4
:1019E0000000F0430000E03F2DE9FF4F95B09B461B
:1019F0008946064600250FE2252877D10024274690
:101A0000F84A0121059400E0044316F8013F203B09
:101A100001FA03F01042F7D130782A2811D06FF084
:101A20002F033078A0F13002092A16D8059A44F025
:101A3000020402EB820203EB42021044761C059082
:101A4000EFE759F8042B0592002A03DA504244F4D8
:101A50000054059044F00204761C30782E2816D1EC
:101A600016F8010F44F004042A280DD06FF02F025D
:101A70003078A0F13003092B09D807EB870302EB7C
:101A80004303C718761CF3E759F8047B761C3078BB
:101A90006C280FD006DC4C2817D068280DD06A2897
:101AA00014D104E0742810D07A280FD10DE044F44A
:101AB00000140AE044F4801401E044F44014727805
:101AC000824202D104F58014761C761C3078662898
:101AD0000BD013DC582877D009DC002875D04528B6
:101AE000F6D04628F4D047281AD19DE118E06328A3
:101AF00035D0642879D0652812D195E1702873D04B
:101B000008DC6728F1D069286FD06E280DD06F28C7
:101B100006D1B5E073282CD0752875D0782874D0FC
:101B20005A46179990476D1C75E1C4F3025002287C
:101B300009D003280DD0D9F8001004280DD00D606D
:101B400009F1040967E1D9F80010EA17C1E9005268
:101B5000F6E7D9F800100D80F2E70D70F0E719F8FC
:101B6000041B8DF8001000208DF80100EA460120CA
:101B700003E059F804AB4FF0FF3061074FF000016C
:101B800002D40DE008F101018846B9420FDA804520
:101B9000F8DB1AF808100029F4D108E008F1010177
:101BA00088468142FADB1AF808100029F6D1059818
:101BB0005B46A0EB080721463846179A00F094FAD6
:101BC000284400EB080507E04DE029E10DE01AF894
:101BD000010B5A4617999047B8F10108F7D25B46B6
:101BE00021463846179A13E142E00A220092C4F3D4
:101BF00002524FF0000A022A08D059F804CB032AF7
:101C00004FEAEC710AD00DE029E02AE009F1070162
:101C100021F00702F2E802C1914609E00FFA8CFCBC
:101C20004FEAEC71042A03D14FFA8CFC4FEAEC71B5
:101C3000002907DA0A460021DCF1000C61EB020101
:101C40002D2202E0220504D52B228DF8042001224A
:101C500003E0E20701D02022F7E7904659E00A218D
:101C600002E010220DE010214FF0000A00910BE07D
:101C700010224FF0000A44F004040827009203E009
:101C800008224FF0000A0092C4F30252022A05D043
:101C900059F804CB0021032A08D009E009F1070113
:101CA00021F00702F2E802C1914605E01FFA8CFC20
:101CB000042A01D10CF0FF0C4FF00008220728D5B0
:101CC000702806D0009B83F0100353EA0A0305D066
:101CD0000EE040228DF80420012208E05CEA0102B7
:101CE00006D030228DF804208DF80500022290469F
:101CF000009B83F0080353EA0A030AD15CEA01025D
:101D000001D1620705D530228DF804204FF001087B
:101D10007F1E582804D034A003900EA802900DE036
:101D200036A0F9E753466046009AFEF7C0FA8446AB
:101D30000398825C0298401E029002705CEA0100E7
:101D4000F0D1029806A9081A00F1200A600702D50E
:101D500024F4803400E00127574502DDA7EB0A0098
:101D600000E0002000EB0A01009005984144401A71
:101D70000590E00306D45B462146179A059800F0CB
:101D8000B3F90544002706E001A85A46C05D17993B
:101D900090476D1C7F1C4745F6DBE0030CD55B4686
:101DA0002146179A059800F09FF9054404E0302079
:101DB0005A46179990476D1C0099481E00900029BB
:101DC000F5DC08E0029802995A460078491C029115
:101DD000179990476D1CBAF10001AAF1010AF1DCD4
:101DE00065E10000092801003031323334353637DF
:101DF0003839616263646566000000003031323357
:101E000034353637383941424344454600000000F6
:101E100000F058F90544761C307800287FF4ECADCA
:101E200019B02846BDE8F08F620700D4062709F1F3
:101E3000070222F0070CFCE80223E14603F0004809
:101E40005FEA080C02D00FF2702C0DE05FEA045C30
:101E500002D50FF2682C07E05FEAC47C02D00FF2D3
:101E6000602C01E0AFF2700C4FF0FF3823F000431C
:101E7000CDF850C065280CD006DC452809D046288E
:101E80001DD047283DD13DE0662818D067287ED177
:101E900038E00021112F01DB112000E0781CCDE992
:101EA000000106A90EA8FFF7DDFCDDE90F010E9A7F
:101EB00003910021009207F1010A04914DE04FF0D7
:101EC00000400097CDE9011006A90EA8FFF7CAFC53
:101ED000DDE90F0203920E9B11990022DDF80CA0A0
:101EE0000093049211B9791C00EB010AB7EB0A00C8
:101EF00004D4C0F1FF3007F1010A0490AAEB0700F7
:101F0000019044E0012F00DA01270021112F01DDAB
:101F1000112000E03846CDE9000106A90EA8FFF720
:101F2000A1FCDDE90F010E9A0391002104910092BA
:101F3000BA4621070CD40399514500DA8A46BAF112
:101F4000010F05DD009AAAF10101515C302908D08A
:101F5000B84202DA10F1040F06DA0121CDE90110CE
:101F600015E0AAF10101E9E7002805DC0499014424
:101F70000491AAEB000102E0411C514500DD8A46B4
:101F80000499401A401C01904FF000400290200735
:101F900004D40198504501DBCDF8048000208DF871
:101FA0004F0002980DF14F07B0F1004F25D02B20C4
:101FB0000E9002984FF0020800280CDA404202907E
:101FC0002D200E9007E00A210298FEF75AF93031D1
:101FD000029007F8011DB8F10001A8F10108F2DC38
:101FE00002980028EFD1791E0E980870307800F022
:101FF000200040F0450007F8020D12A8C01B00F1B8
:1020000007081498007800B1012000EB0A0101983C
:1020100001EBE07105984144401A401E0590E00331
:1020200006D45B462146179A059800F05DF80544F2
:102030001498007818B15A46179990476D1CE00320
:1020400024D55B462146179A059800F04DF80544C3
:102050001CE00498002807DBDDE90301884203DD6A
:102060000098405C179901E0179930205A46904734
:10207000049805F10105401C04900198401E019050
:1020800004D12E205A46179990476D1CBAF10001D1
:10209000AAF1010ADDDC05E017F8010B5A46179991
:1020A00090476D1CB8F10001A8F10108F4DC5B4613
:1020B0002146179A0598ABE62D0000002B00000082
:1020C000200000002DE9F041044600251E46174679
:1020D000880404D405E039462020B0476D1C641EF6
:1020E000F9D52846BDE8F0812DE9F04104460025E8
:1020F0001E469046C80301D5302700E020278804FB
:1021000004D505E041463846B0476D1C641EF9D53C
:102110002846BDE8F0810A68531C0B6010707047B8
:1021200010B584B014462EA160680090238800206A
:10213000A268FEF76DFE01200390A068029020883F
:102140000190BDF8040072B69DF80C00002844D040
:102150002B482A4B2B4A0168184600BF00BF00BF1E
:1021600000BF00BF00BF00BF00BF91422FD000BF23
:1021700000BF00BF00BF00BF00BF00BF00BF00BF67
:1021800000BF00BF00BF00BF00BF00BF00BF00BF57
:1021900000BF00BF00BF00BF00BF00BF00BF00BF47
:1021A00000BF00BF00BF00BF00BF00BF00BF00BF37
:1021B00000BF00BF00BF00BF00BF00BF00BF00BF27
:1021C00000BF00BF00BF00BF00BF00BF00BF01389D
:1021D000C3D19DF80C000028BED104B010BD000092
:1021E0006572723A202578206C696E653A202578F0
:1021F0002066696C653A202573000000400D0300DD
:10220000880000200024F40000B583B0ADF8001071
:10221000019202906A46002144F20100FFF780FF1C
:1022200003B000BD00F002B800F008B872B6024872
:102230000168491C01607047840000200349086858
:10224000401E0860002800D162B67047840000205C
:1022500005494FF0FF3241F82020082802D30844F6
:1022600080F83C207047000044C1002070B44FF05B
:10227000FF36002A02D04FF0000301E04FF00803C0
:1022800002D04FF0080C01E04FF0090C634508D272
:102290000C4C54F82350B5F1FF3F05D05B1C63454F
:1022A000F7D3304670BC704704EB000C5EB28CF87C
:1022B000246044F82310002AF3D1E11881F83C008F
:1022C000EFE7000044C100202DE9F05F80460E4694
:1022D0000024002E3ED9204DDFF880A04FF0020BE5
:1022E00000274FF0010918F80400297821B10129CD
:1022F00008D002292BD11FE0022828D16F6085F871
:10230000009024E01F280BD003280CD0022811D005
:1023100069680AF80100481C00F00F00686016E0C8
:1023200085F800B013E0AA6812B10C4869689047BC
:102330002F700CE06F600AE080F0200168680AF8F6
:102340000010401C00F00F00686085F80090641CCD
:10235000B442C8D3BDE8F09F6C000020E8C0002064
:1023600010B5074988600749032008600120064925
:10237000C1F804030621142001F050FB002010BD19
:102380006C0000202C070050004001402DE9F04374
:1023900083B081460D46164602200290012202A912
:1023A0004846FEF7EBFC032701280BD001970122DA
:1023B00001A94846FEF7E2FC0128F8D103B011203C
:1023C000BDE8F0830024002E4BD94FF01F082B5D91
:1023D000022B17D0032B15D01F2B13D002930122F1
:1023E00002A94846FEF7CAFC012837D0019701220E
:1023F00001A94846FEF7C2FC0128F8D103B011201C
:10240000BDE8F083CDF80880012202A94846FEF716
:10241000B5FC01280BD00197012201A94846FEF71F
:10242000ADFC0128F8D103B01120BDE8F083285D90
:1024300080F020000290012202A94846FEF79EFC8F
:1024400001280BD00197012201A94846FEF796FC0E
:102450000128F8D103B01120BDE8F083641CB44218
:10246000B5D30297012202A94846FEF787FC01284E
:102470000BD00197012201A94846FEF77FFC0128F5
:10248000F8D103B01120BDE8F08303B00020BDE80F
:10249000F083000010B5054C2068807800F003FE42
:1024A00008B1012010BD0020206010BD7CD60020A6
:1024B00001490020086070477CD6002070B50446B2
:1024C000074D2868002805D124B1A078211D00F00F
:1024D00085FE08B1012070BD2C60002070BD000099
:1024E0007CD60020F7B505461446164E3068002805
:1024F00021D05DB19DF8041003880A199A4205D8CD
:1025000024B101F00F012144102902D903B00220A7
:10251000F0BD8078022100F0A7FE306801AA0121F9
:10252000807800F0C1FE30B930682A4621468078B4
:1025300000F06AFE10B103B00120F0BD03B000202E
:10254000F0BD00007CD6002070B51446164D2A68F8
:10255000002A1DD049B112880319934205D824B12D
:1025600000F00F022244102A01D9022070BD287108
:102570002246681DFDF760FE28680121807800F082
:1025800073FE28682A1D611C807800F08DFE08B15A
:10259000012070BD00204FF6FF7100BF401C80B2CB
:1025A0008842FAD3002070BD7CD6002010B5054CBF
:1025B0002068407800F077FD08B1012010BD0020B0
:1025C000206010BD70D600200149002008607047CF
:1025D00070D6002070B50446264D2868002805D125
:1025E00024B16078211D00F0F9FD08B1012070BD13
:1025F0002C60207810283AD2DFE800F00808151582
:1026000022222F2F0E0E1B1B2828343481202881D4
:1026100041F2883068602AE040F20110288141F2DE
:102620008830686023E08120288142F21070686061
:102630001DE040F20110288142F21070686016E03F
:10264000812028814CF25030686010E040F2011087
:1026500028814CF25030686009E0812028810648CA
:10266000686004E040F2011028810348686000209F
:1026700070BD000070D60020A08601002DE9F8434F
:102680000D46164600F048FE3A4FD7F80080B8F1E4
:10269000000F67D036B1FF2804D035B1012D04D02A
:1026A000022D02D00220BDE8F88332684B2A01D205
:1026B0004B2400E0144625B1012D12D0022D3DD14E
:1026C00021E039894A1EA4F14B0102FB01F379682C
:1026D000B3FBF1F39BB25943B1FBF2F101F14B04AF
:1026E0002CE039894A1EA4F14B0102FB01F3796801
:1026F00003EB5103B3FBF1F39BB25943B1FBF2F18E
:1027000001F14B041AE03D89A4F14B03691ED7F88F
:1027100004C04B43B3FBFCF39BB20CFB03F4B4FBD0
:10272000F1F44B349D4209D9A24207D95A1C93B205
:102730000CFB03F2B2FBF1F101F14B04C3F30121F5
:1027400041EA00108DF800008DF8013098F8010082
:10275000012100F089FD38686A460221407800F0C6
:10276000A3FD10B10120BDE8F88334600020BDE86E
:10277000F883000070D60020FFF79ABE08B500204D
:1027800000901048FFF79AFE18B10FA2DD21FFF765
:102790003BFD01220F216846FFF7A4FE18B10AA2F3
:1027A000E021FFF731FDFFF775FE18B106A2E32126
:1027B000FFF72AFD9DF80000012801D0002008BD88
:1027C000012008BD004600002E2E5C2E2E5C2E2E11
:1027D0005C736F757263655C656570726F6D2E6397
:1027E0000000000008B5002000901048FFF766FECA
:1027F00018B10FA2F321FFF707FD01222F21684630
:10280000FFF770FE18B10AA2F621FFF7FDFCFFF7F3
:1028100041FE18B106A2F921FFF7F6FC9DF8000071
:10282000012801D0002008BD012008BD004600009D
:102830002E2E5C2E2E5C2E2E5C736F757263655C83
:10284000656570726F6D2E630000000010B5044660
:102850001848FFF733FE18B117A2B821FFF7D4FCD0
:10286000042200212046FFF73DFE18B112A2BB2131
:10287000FFF7CAFC04220521201DFFF733FE18B123
:102880000DA2BD21FFF7C0FC04220A2104F10800BB
:10289000FFF728FE18B108A2BF21FFF7B5FCFFF72C
:1028A000F9FD002805D0BDE8104003A2C221FFF7C2
:1028B000ABBC10BD004600002E2E5C2E2E5C2E2ED2
:1028C0005C736F757263655C656570726F6D2E63A6
:1028D0000000000010B504461848FFF7EFFD18B1DE
:1028E00017A2CA21FFF790FC042220212046FFF7FF
:1028F000F9FD18B112A2CD21FFF786FC04221B219D
:10290000201DFFF7EFFD18B10DA2CF21FFF77CFCD2
:1029100004222A2104F10800FFF7E4FD18B108A2FF
:10292000D121FFF771FCFFF7B5FD002805D0BDE808
:10293000104003A2D421FFF767BC10BD0046000081
:102940002E2E5C2E2E5C2E2E5C736F757263655C72
:10295000656570726F6D2E630000000010B504464F
:102960000E48FFF7ABFD18B10DA2A921FFF74CFCF3
:10297000022230212046FFF7B5FD18B108A2AC2194
:10298000FFF742FCFFF786FD002805D0BDE81040A8
:1029900003A2AF21FFF738BC10BD000000460000C5
:1029A0002E2E5C2E2E5C2E2E5C736F757263655C12
:1029B000656570726F6D2E630000000010B50446EF
:1029C0001348FFF77BFD18B112A29721FFF71CFCFB
:1029D000022234212046FFF785FD18B10DA29A216D
:1029E000FFF712FC02223221A01CFFF77BFD18B179
:1029F00008A29C21FFF708FCFFF74CFD002805D03A
:102A0000BDE8104003A29F21FFF7FEBB10BD0000F0
:102A1000004600002E2E5C2E2E5C2E2E5C736F75F1
:102A20007263655C656570726F6D2E6300000000F7
:102A300001B50D48FFF742FD18B10CA26521FFF763
:102A4000E3FB022269463220FFF77EFD18B107A2A0
:102A50006821FFF7D9FBFFF71DFD18B103A26B2119
:102A6000FFF7D2FB002008BD004600002E2E5C2E92
:102A70002E5C2E2E5C736F757263655C656570727B
:102A80006F6D2E630000000001B50D48FFF716FDC5
:102A900018B10CA27621FFF7B7FB02226946342059
:102AA000FFF752FD18B107A27921FFF7ADFBFFF741
:102AB000F1FC18B103A27C21FFF7A6FB002008BDA2
:102AC000004600002E2E5C2E2E5C2E2E5C736F7541
:102AD0007263655C656570726F6D2E630000000047
:102AE00001B52DED040B1D48FFF7E8FC18B11CA241
:102AF0004821FFF789FB042269460020FFF724FDE7
:102B000018B117A24E21FFF77FFB042201A905206F
:102B1000FFF71AFD18B112A25121FFF775FB04222D
:102B200002A90A20FFF710FD18B10DA25421FFF7EA
:102B30006BFB012204A90F20FFF706FD18B108A2C4
:102B40005721FFF761FBFFF7A5FC18B104A25A213A
:102B5000FFF75AFB05B0002000BD00000046000052
:102B60002E2E5C2E2E5C2E2E5C736F757263655C50
:102B7000656570726F6D2E630000000001B52DED6C
:102B8000040B1D48FFF79AFC18B11CA22221FFF785
:102B90003BFB042269462020FFF7D6FC18B117A2A0
:102BA0002821FFF731FB042201A91B20FFF7CCFCF1
:102BB00018B112A22B21FFF727FB042202A92A2019
:102BC000FFF7C2FC18B10DA22E21FFF71DFB012259
:102BD00004A92F20FFF7B8FC18B108A23121FFF794
:102BE00013FBFFF757FC18B104A23421FFF70CFBCD
:102BF00005B0002000BD0000004600002E2E5C2E17
:102C00002E5C2E2E5C736F757263655C65657072E9
:102C10006F6D2E630000000001B50D48FFF74EFCFC
:102C200018B10CA28721FFF7EFFA02226946302083
:102C3000FFF78AFC18B107A28A21FFF7E5FAFFF730
:102C400029FC18B103A28D21FFF7DEFA002008BD90
:102C5000004600002E2E5C2E2E5C2E2E5C736F75AF
:102C60007263655C656570726F6D2E6300000000B5
:102C70000D48007806280ED10C48007810F00F0F90
:102C800009D10B48007800F0F000302805D040282A
:102C900005D0502805D00020704701207047012042
:102CA0007047012070470000E00F00F0E40F00F0D3
:102CB000E80F00F00D48007806280ED10C48007887
:102CC00010F00F0F09D10B48007800F0F000302809
:102CD00005D0402805D0502805D00020704701209D
:102CE000704701207047012070470000E00F00F09E
:102CF000E40F00F0E80F00F00D48007806280ED130
:102D00000C48007810F00F0F09D10B48007800F044
:102D1000F000302805D0402805D0502805D00020EC
:102D20007047012070470120704701207047000064
:102D3000E00F00F0E40F00F0E80F00F00948007821
:102D400006280AD10848007810F00F0F05D107486F
:102D5000007800F0F000302801D0002070470120FA
:102D600070470000E00F00F0E40F00F0E80F00F003
:102D70000D48007806280ED10C48007810F00F0F8F
:102D800009D10B48007800F0F000302805D0402829
:102D900005D0502805D00020704701207047012041
:102DA0007047012070470000E00F00F0E40F00F0D2
:102DB000E80F00F00948007806280AD10848007892
:102DC00010F00F0F05D10748007800F0F000302810
:102DD00001D000207047012070470000E00F00F094
:102DE000E40F00F0E80F00F00D48007806280ED13F
:102DF0000C48007810F00F0F09D10B48007800F054
:102E0000F000302805D0402805D0502805D00020FB
:102E10007047012070470120704701207047000073
:102E2000E00F00F0E40F00F0E80F00F00948007830
:102E300006280AD10848007810F00F0F05D107487E
:102E4000007800F0F000302801D000207047012009
:102E500070470000E00F00F0E40F00F0E80F00F012
:102E60000948007806280AD10848007810F00F0FAA
:102E700005D10748007800F0F000302801D000208C
:102E80007047012070470000E00F00F0E40F00F0F1
:102E9000E80F00F00948007806280AD108480078B1
:102EA00010F00F0F05D10748007800F0F00050280F
:102EB00001D000207047012070470000E00F00F0B3
:102EC000E40F00F0E80F00F081B00D4800680090BA
:102ED000009810F4006F09D0009810F4805F02D0C1
:102EE000032001B07047022001B07047009810F431
:102EF000805F02D0032001B07047012001B070470D
:102F0000100500501C4A0128116802D002281BD16C
:102F100018E01079C0B90888184BC0F38510186004
:102F200008681B1DC0F3053018600878144900F0CC
:102F30003F0008601349012008601071124890603A
:102F40000120704753790BB1002070470B79DFF8EF
:102F50003CC003F03F03CCF8003089880CF1040337
:102F6000C1F3851119600A4B052119605071094898
:102F7000D060012070470000F8C000200C350040F0
:102F800008350040003500402D3000000845004065
:102F9000004500403D30000000220C49012802D0CD
:102FA00002280BD107E00879012807D10848026000
:102FB0000A71012070474879022801D0002070472B
:102FC000044802604A71012070470000F8C00020E8
:102FD00000350040004500400E4908600E480821B9
:102FE000002201600D4B1A60DFF834C060238CF8BA
:102FF0000034C0F8001140F8801C10210160DFF897
:1030000024C0CCF80020084A1370C0F8001140F822
:10301000801C7047F8C0002080E100E000350040CF
:1030200003E000E00045004004E400E001490248FC
:1030300000F00CB808C100200030004002494FF0F9
:10304000402000F047B8000018C1002070B50546C8
:103050000C462068002801D0012200E00022002652
:10306000D5F80801E0B1D5F81805C1B2C5F8086176
:10307000A06808B1237BC154207B401CC0B22073E0
:10308000617B884207D2616809B1085C00E00020DA
:10309000C5F81C0504E0216809B100208847012219
:1030A000002ADDD070BD10B5012801D0032010BD6D
:1030B0000220FFF771FF08B1002010BD032010BDF2
:1030C000034800210160817441740174704700005D
:1030D00018C100202DE9F05F05460C462068002845
:1030E00001D0012600E000264FF420784FF0030BBA
:1030F0004FF0010900274FF4017A207C012802D00B
:10310000022834D065E0D5F81C0100B3C5F81C7165
:10311000207B401CC0B22073617B88420BD22146C9
:10312000284600F0A9F8217B6068405CC5F81C05C2
:10313000C5F820904DE0C5F80883284600F08AF8CD
:103140002774216809B100208847012641E0D5F89D
:10315000240100283DD0C5F82471C5F8088384F8FF
:1031600010B0216809B102208847012631E0D5F866
:10317000080100B3C5F80871D5F81805A27BA1684D
:103180008854A07B401CC0B2A073E17B884206D269
:103190002146284600F046F8C5F8209019E0C5F809
:1031A00008A3284600F056F82774216809B10120C9
:1031B000884701260DE0D5F8240150B1C5F82471E7
:1031C000C5F808A304202074216809B103208847AA
:1031D0000126002E91D0BDE8F09F000010B50C46EE
:1031E00001280BD10220FFF78DFE38B10449207968
:1031F0000860044920680860002010BD032010BD4D
:103200008845004024450040012801D00220704735
:1032100013460A4602494FF0402000F0EDBE000080
:1032200018C100200022C0F800228B7B91F80FC04B
:103230005B1C634503D20121C0F800127047897CF2
:10324000032901D00229F9D1C0F804210221C0F8D4
:1032500000127047D0F8001211F0020F03D0D0F81E
:1032600004110029FBD07047012801D10148817465
:103270007047000018C100200022C0F800220B7B1C
:1032800091F80DC05B1C634503D20121C0F8001208
:103290007047897C032901D00129F9D1C0F80421A4
:1032A0000221C0F800127047012801D001207047A8
:1032B00013460A4602494FF0402001F03BB9000096
:1032C00018C100202DE9F84F05460E461746002488
:1032D000002F1ED94FF4A0784FF48039A24608EB96
:1032E000840080B209FA04F2295801B1012161B1C8
:1032F000D5F80413114000D0012131B145F800A0E8
:1033000029580091326871689047601CC4B2BC4271
:10331000E5D3BDE8F88F000081B0042806D205A1EE
:10332000096800911DF8000001B07047FF2001B04E
:10333000704700000001060738B515490A78002AD1
:1033400023D0022448801349A0F2E24091FBF0F020
:10335000C0F5F16000F5003000900F48FFF73AF932
:1033600018B10EA26F21FEF74FFF6A4601212046D9
:10337000FFF784F90446204618B108A27221FEF72F
:1033800043FFFFF713F9204638BD082038BD000081
:1033900078000020608E9E04E04500002E2E5C2EFA
:1033A0002E5C2E2E5C736F757263655C6D5F76723A
:1033B00065672E630000000010B5FFF705F90249AC
:1033C0000120087010BD00007800002038B54000D2
:1033D00000900F480078002817D00E48FFF7FAF841
:1033E00018B10DA28A21FEF70FFF6A4601210020C5
:1033F000FFF744F90446204618B107A28D21FEF7D5
:1034000003FFFFF7D3F8204638BD082038BD000081
:1034100078000020E04500002E2E5C2E2E5C2E2E23
:103420005C736F757263655C6D5F767265672E6342
:103430000000000038B5400000900C4800780028DB
:1034400011D00B48FFF7C6F818B10AA2A121FEF768
:10345000DBFE01216A460846FFF710F90446FFF734
:10346000A5F8204638BD082038BD000078000020AF
:10347000E04500002E2E5C2E2E5C2E2E5C736F75A8
:103480007263655C6D5F767265672E630000000095
:10349000D4B04FF0A04BDBF804054FF4000181439A
:1034A000CBF8081500F40000CBF80C054FF000092C
:1034B000C846D948FFF790FDFFF702FEFFF75CF919
:1034C000FFF75CF9DFF854A3B0B151A8FFF7BEF9DC
:1034D0005198CAF838005298CAF83C005398CAF874
:1034E00040005198CAF844005298CAF848005398CE
:1034F000CAF84C004FF00108FFF774F968B14FF0BB
:10350000010951A8FFF7E6F95198CAF83800529816
:10351000CAF83C005398CAF8400050A8FFF74EFA8A
:103520004FA8FFF71BFABDF83C014FF6FF71A0F55D
:10353000E162B2F5E16F01D8884202D140F6B830BD
:103540004F90BDF84001884203D14AF6EE40ADF8F5
:103550004001BDF84201884203D144F62060ADF835
:1035600042019AED0E0ADFEDAE0A20EE200A9FED31
:10357000AD1AC1EE001A9FEDAC0A61EE801ACAEDD9
:10358000141ADAED0F1A21EEA02AC1EE021A61EE2A
:10359000801ACAED151ADAED101A61EEA00AC1EE12
:1035A000201A21EE800A8AED160AA0480321016044
:1035B00001229002CBF80C059D48C0F800179D48E9
:1035C00001601006CBF808054010CBF80C05C001CF
:1035D000826799A29AA116A8FEF720F9B8F1000F08
:1035E00019D0DAF84400FCF739FE04460D46DAF843
:1035F0004800FCF733FE06460F46DAF84C00FCF7AD
:103600002DFE8DE8C3004246059504948FA13DA888
:10361000FEF704F918E0DAF83800FCF71FFE04465C
:103620000D46DAF83C00FCF719FE06460F46DAF8BC
:103630004000FCF713FE8DE8C30042460595049454
:1036400082A13DA8FEF7EAF84FF08050026E87A1F4
:103650002BA8FEF7E3F816AA88A10020FDF7D8FBF7
:103660003DAA79A10020FDF7D3FB2BAA76A100206B
:10367000FDF7CEFBB9F1000F20D0DAF83800FCF7E7
:10368000EDFD04460D46DAF83C00FCF7E7FD064682
:103690000F46DAF84000FCF7E1FD41EC100B79A190
:1036A00053EC102B04A80197009603950294FEF7A3
:1036B000B5F804AA64A10020FDF7AAFBBDF84001FB
:1036C0000090BDF84231BDF83C2177A119A8FEF762
:1036D000A5F819AA5CA10020FDF79AFB4FF47A70B7
:1036E00000F052F97748FEF73BFE00F0A9FA20B14E
:1036F00075A240F24441FEF787FD00F0F9F800F0B2
:10370000E9FE00F081FE00F001FEFFF755FEBDF876
:103710003C01FFF711FE20B16BA240F25341FEF7CE
:1037200073FDBDF84001FFF785FE20B166A240F2AF
:103730005541FEF769FDBDF84201FFF747FE20B194
:1037400061A240F25741FEF75FFDFFF7BDFB8AF82B
:103750000000604800F0D2FB0126B002CBF808055B
:1037600047035D4CDFF87491DFF8748100259AF807
:10377000010010B38AF807605A4800F0BFFB8AF8CE
:103780000150DAF820002654BAF810104A0000EB75
:10379000C00101EB403009EB40010020FEF7F6FDCF
:1037A000DAF820002554DBF8040527EA0001CBF8FD
:1037B000081500F40000CBF80C059AF8020048B197
:1037C0009AF8040030B18AF80250042246490020D9
:1037D000FEF7DCFDFDF780FA0028C8D0FDF76EFA91
:1037E000C1B29AF8080008F80010032903D0401C61
:1037F0008AF80800BBE7401CC1B28AF808103848B4
:10380000FEF762FD8AF808503848C0F84250C0F808
:103810004650A0F84A50AAE7C84500000000002022
:10382000000000479A99193F002474492807005066
:10383000600000505C070050312E312E3000000037
:1038400056455253494F4E202573000043414C3A90
:1038500025642052313A252E33662052323A252EE5
:1038600033662052333A252E3366000020426F61C2
:1038700072642049442025580000000025730D0A79
:10388000000000000A0A5553455220534554205267
:10389000313A252E33662052323A252E3366205295
:1038A000333A252E336600000A526566732056446B
:1038B000443A2025642048493A202564204C4F3A58
:1038C00020256400654000002E2E5C6D61696E2E1F
:1038D00063000000B8450000180000209800002098
:1038E000CEC00020C0450000240000208CC0002075
:1038F00000B583B0204881680291C16801910068D9
:103900000090002202A90B2000F042F920B11BA276
:1039100040F27111FEF778FC002202A90C2000F0A1
:1039200037F920B115A24FF4BA71FEF76DFC0022F1
:1039300001A90D2000F02CF920B110A24FF4BB71A9
:10394000FEF762FC69460E2000F0AAF920B10BA236
:103950004FF4BC71FEF758FC01210B2000F0AEF8CB
:1039600001210C2000F0AAF80D2000F073F80E20C1
:1039700000F0EEF903B000BDA84500002E2E5C6DEE
:1039800061696E2E630000004FF47A71484300288D
:103990003ED0204A2049126800BF00BF00BF00BFD0
:1039A00000BF00BF00BF00BF8A422FD000BF00BFD2
:1039B00000BF00BF00BF00BF00BF00BF00BF00BF0F
:1039C00000BF00BF00BF00BF00BF00BF00BF00BFFF
:1039D00000BF00BF00BF00BF00BF00BF00BF00BFEF
:1039E00000BF00BF00BF00BF00BF00BF00BF00BFDF
:1039F00000BF00BF00BF00BF00BF00BF00BF00BFCF
:103A000000BF00BF00BF00BF00BF00BF0138C3D16F
:103A100070470000880000200024F4004907090EC8
:103A2000002806DA00F00F0202F1E02282F8141DED
:103A300003E000F1E02282F8001400F01F020121EF
:103A400091404009800000F1E020C0F88012C0F8E9
:103A5000001170471749014491F92410082901DB2E
:103A6000012200E0002272B14FF0A04101EB800082
:103A7000D0F8001721F44031C0F80017D0F8001733
:103A8000C0F800177047082901D2012000E000208B
:103A90000028F7D0880000F1804000F5C040D0F841
:103AA000102522F00102C0F81025012088400249AB
:103AB0000860704744C100200863004038B4324CAD
:103AC000231893F92420082A02DB4FF0010C01E0AF
:103AD0004FF0000CBCF1000F26D0111991F83C10EA
:103AE00089094FF0A042032912D001291AD00321DD
:103AF00002EB8000D0F8002722F44032C0F8002703
:103B0000D0F8002742EA0141C0F8001738BC7047DE
:103B1000D2F81015C14001F0010109B10321E7E716
:103B20000221E5E70221E3E7082A01D2012000E0B3
:103B300000200028EAD04FF4807000EB82001FFACA
:103B400080FC900000F1804000F5C040D0F8105596
:103B500045F00105C0F810550CF1804000F5C0405B
:103B60004FF0000CC0F800C0006800900029CDD0D4
:103B700093F9240054F820000028C7D00120904079
:103B80000249086038BC704744C10020046300400B
:103B90002DE9F0410C46054611460026274F7819BD
:103BA00090F92400C017401C002801D0082642E0EC
:103BB000E2782846FEF75AFBB0F1FF3F3AD0A278F0
:103BC0004FF0A04101EB850132B1D1F8002722F07E
:103BD0000202C1F8002705E06278002343EA82026E
:103BE000C1F80027E178E1B12278800000F180413E
:103BF00001F5C041D1F8100520F4F85020F4403010
:103C0000C1F810054FF4F8504FF4403300EA052096
:103C100003EA02421043D1F810251043C1F8100501
:103C200009E03844227890F83C1041EA821180F88B
:103C30003C1000E004263046BDE8F08144C100207D
:103C400038B5144D95F84500002801D0082038BD3E
:103C50000020411E2A1882F82410401CC0B22028DF
:103C6000F8D300242046FEF7F3FA601CC4B2092CF6
:103C7000F8D307210620FFF7D1FE0749002008608E
:103C8000096800914FF00041044A1160012185F854
:103C9000451038BD44C100207C61004004630040F1
:103CA00070B504460D4600262848204490F924109B
:103CB000491C00D0012109B1082641E0A97869B367
:103CC000012200212046FEF7D1FAB0F1FF3F23D0B8
:103CD00029786A78800000F1804000F5C040D0F873
:103CE000103523F4F85323F49813C0F81035D0F8A6
:103CF00010354FF4F85C0CEA042C43EA0C034FF443
:103D0000403C0CEA01414FF4801C0CEA0252114382
:103D10001943C0F8101504E0042602E0FE2180F8E3
:103D200024106EB96A780120A0404FF0A041012A0A
:103D300008D0C1F80C0501EB84010320C1F800078D
:103D4000304670BDC1F80805F5E7000044C1002009
:103D50000749084490F92400800000F1804000F5F4
:103D6000C040D0F8101541F00301C0F8101570479D
:103D700044C100200649084490F824008006000E43
:103D800000F1804000F5C040012101607047000053
:103D900044C100202DE9F04780460427134D00243C
:103DA000DFF84C904FF0010A0020FEF73BFA0AFAC8
:103DB00004F62E420DD0D9F8041016EA010000D006
:103DC000012030B946EA0100C9F8040088F8004033
:103DD00000270020FEF728FA27B1B543601CC4B2C3
:103DE000002DE1D13846BDE8F0870000FFFF0F004D
:103DF0007C00002010B40446002921D01AB3002012
:103E00000123A340C3F3130CBCF1000F01D04FF00A
:103E1000010CBCF1000F19D0DFF83CC0DCF804C085
:103E200013EA0C0300D001239BB1E30003F18043AC
:103E300003F5F833C3F81015C3F8142510BC704708
:103E400010BC0E20704710BC0E20704710BC07201D
:103E5000704710BC082070477C0000200022012120
:103E600001FA00F00103090B00D0012129B1064934
:103E70004968014000D0012119B104490860104689
:103E800070470822FBE700007C00002004F5014099
:103E900004480178002901D0852070470121017074
:103EA000002070477C00002010B44FF4803C0CFAD6
:103EB00001FC0468002B02D0C4F804C301E0C4F87C
:103EC00008C3006800EB8100C0F8402510BC7047B3
:103ED00081B003684FF4A07202EB810292B24FF0FE
:103EE000000C43F802C09A58009202684FF48030E8
:103EF0008840C2F8040301B0704700000168012245
:103F00000A600079034A00EB400002EB80000221C6
:103F1000017270472CC1002070B4039D4FF480746F
:103F20008C4001268E40D0F800C03443DCF800629B
:103F300026EA0404CCF80042D0F800C0DCF80042C5
:103F40002343CCF800322B4670BCFFF7ADBF000016
:103F5000F8B504460D462079224900EB400001EBFC
:103F60008006307A002801D00820F8BD002A37D01A
:103F70003260686870600020617900290ED90021E4
:103F80004FF4A07C23680CEB800292B299509A58AF
:103F90000092401CC0B262798242F3D82068000BC4
:103FA00040B2E978FFF73AFD69782068D0F8042537
:103FB00061F30102C0F80425A9782068D0F808252B
:103FC00061F30102C0F8082529782068D0F810258F
:103FD00061F30302C0F81025012030720020F8BD03
:103FE0000720F8BD2CC10020006801214160704706
:103FF000006801210160704770B504460D46287CB9
:10400000012824D0022822D00021042800D0A9733E
:1040100002202874AB60EA734FF42170C4F80803DF
:10402000C4F82411C4F81C11C4F80811294620460C
:10403000FFF7F8F82968012059B14FF40171C4F86D
:1040400004132060287C042809D0002070BD0320C0
:1040500070BD206029462046FFF73CF8F2E70220B9
:1040600070BD000010B500291BD00178152918D2A9
:10407000DFE801F0170E181F170B262F1717393E10
:104080004A5D7D708AFECEFDFC00984A0121917147
:10409000417882780904C07801EB022108449349F1
:1040A000486310BD8178407801EB00208F49C881BA
:1040B00010BD8178407801EB00208C49088210BD4A
:1040C0004FF0A04101221006C1F80C05874802718B
:1040D00010BD4FF0A0414FF08070C1F80805834932
:1040E0000020087110BD81494FF0FF30486310BDBA
:1040F0007F49012008607F49086800B1012000283D
:10410000FAD00020086010BD4078012808D00028AF
:10411000F9D14FF0A0414FF48060C1F80C0510BDFB
:104120004FF0A0414FF48060C1F8080510BD8178C0
:10413000407801EB002084B26F48FFF755FF20461E
:10414000FFF7FAF86C48FFF753FF2046BDE8104030
:10415000FEF762BD8178407801EB002084B22046F2
:10416000FFF734F92046BDE81040FEF761BC8178C6
:10417000407801EB002084B22046FFF75BF920462F
:10418000BDE81040FEF780BC4FF0A04202F204529E
:1041900011684FF400038B43536001F400019160F8
:1041A000524CD0F801102164D0F80510E163D0F82A
:1041B0000900A063012094ED101AD4ED0F0A94EDCC
:1041C0000E0AFEF78DFCD4ED0E0A9FED4C0A20EE90
:1041D000801ADFED4B0AC0EE811A9FED4A1A61EE9C
:1041E000811AC4ED141AD4ED0F1A21EE802AC0EE04
:1041F000821A61EE811AC4ED151AD4ED101A21EE5F
:10420000800AC0EE801A21EE810A84ED160A10BDE4
:10421000364CD0F801102164D0F80510E163D0F8D5
:104220000900A063012094ED101AD4ED0F0A94ED5B
:104230000E0AFEF7A3FC94ED0E0ADFED300A20EE25
:10424000201A9FED2F0AC0EE011A9FED2E1A61EE83
:10425000811AC4ED141AD4ED0F1A21EEA02AC0EE73
:10426000021A61EE811AC4ED151A02E017E00BE0A4
:104270002CE0D4ED101A61EEA00AC0EE201A21EE57
:10428000810A84ED160A10BD9FED1F0ABDE810409B
:104290000020B0EE401AF0EE400AFEF76FBC4FF07F
:1042A000A04101F2045108684FF4000282434A60C1
:1042B00000F4000088609FED140ABDE81040002063
:1042C000B0EE401AF0EE400AFEF70ABC074CE07868
:1042D00028B10D20FFF7BEFB0020E07010BD0121CA
:1042E0000D20FFF7EBFB0120E07010BD0000002067
:1042F0000C70004010710040B845000000000047FD
:104300009A99193F002474490000000070B4244BAE
:104310004FF0010C1806C0F800C0D0F800110029B9
:10432000FBD00025C0F800511F491E4808601F48F7
:10433000C0F800C00226001D06601D490320086069
:10434000081D06601B48C0F800C01C491A480860D8
:104350001B4805601B48C0F800C01C681A48C0F81C
:104360000CC0D0F810110029FBD0C0F8105117492B
:104370000A68012AFCD01C6015490D70154A80217D
:10438000C2F8FC11D167C0F80463C0F800C0D0F8CF
:1043900000110029FBD0C0F8005170BC704700002C
:1043A0004076004000071701187500401075004066
:1043B000F075004030760040160000202C7600405A
:1043C000F875004000750040007000400074004027
:1043D00007E400E084E000E010B50748407BFFF709
:1043E0003DFD002806D0BDE8104004A240F2511166
:1043F000FDF70ABF10BD0000000000202E2E5C6DEE
:1044000061696E2E6300000030B585B0FFF740FD96
:1044100020B121A24FF4C371FDF7F6FE2148C16A15
:10442000806A03910290204A02A92048FFF790FD7C
:1044300020B119A24FF4C971FDF7E6FE1B4C2068AC
:10444000D0F81005A02121FA00F2012003460090C7
:1044500000212046FFF760FD00212046FFF738FDD0
:10446000206800F5A074124D1248FFF793FC20B1AC
:1044700009A24FF4D071FDF7C7FE0F482A46214626
:10448000407BFFF7B7FC002804D003A240F2A31141
:10449000FDF7BAFE05B030BD2E2E5C6D61696E2E43
:1044A00063000000A8450000BD440000B8450000BE
:1044B000047000400D000020000000207047000044
:1044C000B0F5A07F02D102490020C87170470000FA
:1044D0000000002000B585B00F48416B006B0391D0
:1044E00002900E4A02A90E48FFF732FD20B10DA23C
:1044F0004FF4E171FDF788FE09480068D0F8100517
:104500000B4921FA00F201200346009000210448E3
:10451000FFF702FD05B000BDA8450000C144000042
:10452000C04500002E2E5C6D61696E2E6300000098
:1045300000127A0070B505460C46207C012828D070
:10454000022826D00021032800D0217301262674DA
:10455000636062734FF42170C5F80803C5F8241135
:10456000C5F81C11C5F8081121462846FEF784FE3F
:10457000217B6068405CC5F81C05206858B14FF489
:104580002070C5F80403AE60207C032809D0002009
:1045900070BD032070BDAE6021462846FEF79AFD2F
:1045A000F2E7012070BD00000301010003000100DB
:1045B000030000010203000100800040000400002D
:1045C0000090004001040000D98501009B06000016
:1045D00000000307000000000000030700000000C7
:1045E0000E010000000068062C00000000000050D2
:1045F0003031323334353637383941424344454619
:104600000001010000006806500000002C46000078
:10461000000000208C00000044180000B846000094
:104620008C0000200CF6000054180000040000006C
:10463000000000000000010001000A00C2010000AB
:10464000000000000000000000000000000000006A
:104650000000000000008000FFFF7F7F00000000DE
:10466000FFFFFFFF3333F33F0000E0410000FF4353
:104670009A99F93F0000E0410000FF43000000006C
:10468000000000000000000000000000000000002A
:10469000000000000000000000000000000000001A
:1046A000000000000000000000000000000000000A
:0846B000000000000090D0039F
:0400000500000201F4
:00000001FF
